{
  "transactions": [
    {
      "hash": "0x7582138a30e9be3df9f4fa42a58836c7ab4b23ded1c65bca43866b2f31bab44f",
      "transactionType": "CALL",
      "contractName": null,
      "contractAddress": "0x3c499c542cef5e3811e1192ce70d8cc03d5c3359",
      "function": "approve(address,uint256)",
      "arguments": [
        "0x52f052d2411735287989461721f4B49A13d65888",
        "1000000"
      ],
      "transaction": {
        "from": "0xaebdfcf4a528de8b480a7b69ecaf17addb8b9959",
        "to": "0x3c499c542cef5e3811e1192ce70d8cc03d5c3359",
        "gas": "0x12b1b",
        "value": "0x0",
        "input": "0x095ea7b300000000000000000000000052f052d2411735287989461721f4b49a13d6588800000000000000000000000000000000000000000000000000000000000f4240",
        "nonce": "0x3",
        "chainId": "0x89"
      },
      "additionalContracts": [],
      "isFixedGasLimit": false
    },
    {
      "hash": "0x12b10a28bb59350567a4da8e0960c14958f410cfe7d759ef1c4de020a7e7b5ab",
      "transactionType": "CALL",
      "contractName": null,
      "contractAddress": "0xc2132d05d31c914a87c6611c10748aeb04b58e8f",
      "function": "approve(address,uint256)",
      "arguments": [
        "0x52f052d2411735287989461721f4B49A13d65888",
        "1000000"
      ],
      "transaction": {
        "from": "0xaebdfcf4a528de8b480a7b69ecaf17addb8b9959",
        "to": "0xc2132d05d31c914a87c6611c10748aeb04b58e8f",
        "gas": "0x11712",
        "value": "0x0",
        "input": "0x095ea7b300000000000000000000000052f052d2411735287989461721f4b49a13d6588800000000000000000000000000000000000000000000000000000000000f4240",
        "nonce": "0x4",
        "chainId": "0x89"
      },
      "additionalContracts": [],
      "isFixedGasLimit": false
    },
    {
      "hash": "0x41fdc7cc805a84807b6d6588c5c323022d47ee2f349aa72b011ecdee00f8bade",
      "transactionType": "CALL",
      "contractName": null,
      "contractAddress": "0x52f052d2411735287989461721f4b49a13d65888",
      "function": "deposit(uint256,uint256)",
      "arguments": [
        "1000000",
        "1000000"
      ],
      "transaction": {
        "from": "0xaebdfcf4a528de8b480a7b69ecaf17addb8b9959",
        "to": "0x52f052d2411735287989461721f4b49a13d65888",
        "gas": "0x7b1b1",
        "value": "0x0",
        "input": "0xe2bbb15800000000000000000000000000000000000000000000000000000000000f424000000000000000000000000000000000000000000000000000000000000f4240",
        "nonce": "0x5",
        "chainId": "0x89"
      },
      "additionalContracts": [],
      "isFixedGasLimit": false
    }
  ],
  "receipts": [
    {
      "status": "0x1",
      "cumulativeGasUsed": "0x4e7ccd",
      "logs": [
        {
          "address": "0x3c499c542cef5e3811e1192ce70d8cc03d5c3359",
          "topics": [
            "0x8c5be1e5ebec7d5bd14f71427d1e84f3dd0314c0f7b2291e5b200ac8c7c3b925",
            "0x000000000000000000000000aebdfcf4a528de8b480a7b69ecaf17addb8b9959",
            "0x00000000000000000000000052f052d2411735287989461721f4b49a13d65888"
          ],
          "data": "0x00000000000000000000000000000000000000000000000000000000000f4240",
          "blockHash": "0x2b41c26468ae7ef4ad7ca98c62fae061f7df59c960cb3d3ecf5c9fbb261b363a",
          "blockNumber": "0x41343aa",
          "transactionHash": "0x7582138a30e9be3df9f4fa42a58836c7ab4b23ded1c65bca43866b2f31bab44f",
          "transactionIndex": "0x29",
          "logIndex": "0xb2",
          "removed": false
        },
        {
          "address": "0x0000000000000000000000000000000000001010",
          "topics": [
            "0x4dfe1bbbcf077ddc3e01291eea2d5c70c2b422b415d95645b9adcfd678cb1d63",
            "0x0000000000000000000000000000000000000000000000000000000000001010",
            "0x000000000000000000000000aebdfcf4a528de8b480a7b69ecaf17addb8b9959",
            "0x000000000000000000000000794e44d1334a56fea7f4df12633b88820d0c5888"
          ],
          "data": "0x0000000000000000000000000000000000000000000000000005253b3a42ee95000000000000000000000000000000000000000000000000452d97939de259480000000000000000000000000000000000000000000003deb5245362c78dd5e200000000000000000000000000000000000000000000000045287258639f6ab30000000000000000000000000000000000000000000003deb529789e01d0c477",
          "blockHash": "0x2b41c26468ae7ef4ad7ca98c62fae061f7df59c960cb3d3ecf5c9fbb261b363a",
          "blockNumber": "0x41343aa",
          "transactionHash": "0x7582138a30e9be3df9f4fa42a58836c7ab4b23ded1c65bca43866b2f31bab44f",
          "transactionIndex": "0x29",
          "logIndex": "0xb3",
          "removed": false
        }
      ],
      "logsBloom": "0x00000000000000000000000000000000000000000000000000000000000000000000000000001000000000000000000000008000000000000000000000200000000000000000000000000000000000800000000000000000000100020000000000000000000000000000000000000000000000000000000080000000000000000000000000000000000000000000000000000000000800000010000000000000220000000000000000000000000000000800000000000000000000000000004000000000000000000011000010000080000000000000000000100000000000000010000000000000000000000000010000000000100020000000000020100000",
      "type": "0x2",
      "transactionHash": "0x7582138a30e9be3df9f4fa42a58836c7ab4b23ded1c65bca43866b2f31bab44f",
      "transactionIndex": "0x29",
      "blockHash": "0x2b41c26468ae7ef4ad7ca98c62fae061f7df59c960cb3d3ecf5c9fbb261b363a",
      "blockNumber": "0x41343aa",
      "gasUsed": "0xd88d",
      "effectiveGasPrice": "0x615ea891a",
      "from": "0xaebdfcf4a528de8b480a7b69ecaf17addb8b9959",
      "to": "0x3c499c542cef5e3811e1192ce70d8cc03d5c3359",
      "contractAddress": null
    },
    {
      "status": "0x1",
      "cumulativeGasUsed": "0x4f46d9",
      "logs": [
        {
          "address": "0xc2132d05d31c914a87c6611c10748aeb04b58e8f",
          "topics": [
            "0x8c5be1e5ebec7d5bd14f71427d1e84f3dd0314c0f7b2291e5b200ac8c7c3b925",
            "0x000000000000000000000000aebdfcf4a528de8b480a7b69ecaf17addb8b9959",
            "0x00000000000000000000000052f052d2411735287989461721f4b49a13d65888"
          ],
          "data": "0x00000000000000000000000000000000000000000000000000000000000f4240",
          "blockHash": "0x2b41c26468ae7ef4ad7ca98c62fae061f7df59c960cb3d3ecf5c9fbb261b363a",
          "blockNumber": "0x41343aa",
          "transactionHash": "0x12b10a28bb59350567a4da8e0960c14958f410cfe7d759ef1c4de020a7e7b5ab",
          "transactionIndex": "0x2a",
          "logIndex": "0xb4",
          "removed": false
        },
        {
          "address": "0x0000000000000000000000000000000000001010",
          "topics": [
            "0x4dfe1bbbcf077ddc3e01291eea2d5c70c2b422b415d95645b9adcfd678cb1d63",
            "0x0000000000000000000000000000000000000000000000000000000000001010",
            "0x000000000000000000000000aebdfcf4a528de8b480a7b69ecaf17addb8b9959",
            "0x000000000000000000000000794e44d1334a56fea7f4df12633b88820d0c5888"
          ],
          "data": "0x0000000000000000000000000000000000000000000000000004cd01daef5bec000000000000000000000000000000000000000000000000452871bba806e5f60000000000000000000000000000000000000000000003deb529789e01d0c4770000000000000000000000000000000000000000000000004523a4b9cd178a0a0000000000000000000000000000000000000000000003deb52e459fdcc02063",
          "blockHash": "0x2b41c26468ae7ef4ad7ca98c62fae061f7df59c960cb3d3ecf5c9fbb261b363a",
          "blockNumber": "0x41343aa",
          "transactionHash": "0x12b10a28bb59350567a4da8e0960c14958f410cfe7d759ef1c4de020a7e7b5ab",
          "transactionIndex": "0x2a",
          "logIndex": "0xb5",
          "removed": false
        }
      ],
      "logsBloom": "0x00000000000000000000000000000000000000000000000000000000000000000000000000001000000000000000000100008000000000000000000000200000000000000000000000000000000000800000000000000000000100020000000000000000000000000000000000000000000000000000000080000000000000000000000000080000000000000000000000000000000800000010000000000000220000000000000000000000000000000000000000000000000000000000004000000000000000000011000010000080400000000000000000100000000000000010000000000000000000000000000000000000000020000000000020100000",
      "type": "0x2",
      "transactionHash": "0x12b10a28bb59350567a4da8e0960c14958f410cfe7d759ef1c4de020a7e7b5ab",
      "transactionIndex": "0x2a",
      "blockHash": "0x2b41c26468ae7ef4ad7ca98c62fae061f7df59c960cb3d3ecf5c9fbb261b363a",
      "blockNumber": "0x41343aa",
      "gasUsed": "0xca0c",
      "effectiveGasPrice": "0x615ea891a",
      "from": "0xaebdfcf4a528de8b480a7b69ecaf17addb8b9959",
      "to": "0xc2132d05d31c914a87c6611c10748aeb04b58e8f",
      "contractAddress": null
    },
    {
      "status": "0x1",
      "cumulativeGasUsed": "0x5dfded",
      "logs": [
        {
          "address": "0x3c499c542cef5e3811e1192ce70d8cc03d5c3359",
          "topics": [
            "0xddf252ad1be2c89b69c2b068fc378daa952ba7f163c4a11628f55a4df523b3ef",
            "0x000000000000000000000000aebdfcf4a528de8b480a7b69ecaf17addb8b9959",
            "0x00000000000000000000000052f052d2411735287989461721f4b49a13d65888"
          ],
          "data": "0x00000000000000000000000000000000000000000000000000000000000f4240",
          "blockHash": "0x4ba9894ed7c43a40aaf238d67ad7c26b111b840be0740f50a5ea45abb3c9f301",
          "blockNumber": "0x41343ab",
          "transactionHash": "0x41fdc7cc805a84807b6d6588c5c323022d47ee2f349aa72b011ecdee00f8bade",
          "transactionIndex": "0x37",
          "logIndex": "0xf7",
          "removed": false
        },
        {
          "address": "0xc2132d05d31c914a87c6611c10748aeb04b58e8f",
          "topics": [
            "0xddf252ad1be2c89b69c2b068fc378daa952ba7f163c4a11628f55a4df523b3ef",
            "0x000000000000000000000000aebdfcf4a528de8b480a7b69ecaf17addb8b9959",
            "0x00000000000000000000000052f052d2411735287989461721f4b49a13d65888"
          ],
          "data": "0x00000000000000000000000000000000000000000000000000000000000f4240",
          "blockHash": "0x4ba9894ed7c43a40aaf238d67ad7c26b111b840be0740f50a5ea45abb3c9f301",
          "blockNumber": "0x41343ab",
          "transactionHash": "0x41fdc7cc805a84807b6d6588c5c323022d47ee2f349aa72b011ecdee00f8bade",
          "transactionIndex": "0x37",
          "logIndex": "0xf8",
          "removed": false
        },
        {
          "address": "0xc2132d05d31c914a87c6611c10748aeb04b58e8f",
          "topics": [
            "0x8c5be1e5ebec7d5bd14f71427d1e84f3dd0314c0f7b2291e5b200ac8c7c3b925",
            "0x000000000000000000000000aebdfcf4a528de8b480a7b69ecaf17addb8b9959",
            "0x00000000000000000000000052f052d2411735287989461721f4b49a13d65888"
          ],
          "data": "0x0000000000000000000000000000000000000000000000000000000000000000",
          "blockHash": "0x4ba9894ed7c43a40aaf238d67ad7c26b111b840be0740f50a5ea45abb3c9f301",
          "blockNumber": "0x41343ab",
          "transactionHash": "0x41fdc7cc805a84807b6d6588c5c323022d47ee2f349aa72b011ecdee00f8bade",
          "transactionIndex": "0x37",
          "logIndex": "0xf9",
          "removed": false
        },
        {
          "address": "0x794a61358d6845594f94dc1db02a252b5b4814ad",
          "topics": [
            "0x804c9b842b2748a22bb64b345453a3de7ca54a6ca45ce00d415894979e22897a",
            "0x0000000000000000000000003c499c542cef5e3811e1192ce70d8cc03d5c3359"
          ],
          "data": "0x000000000000000000000000000000000000000000218f20986d99ef727ba26500000000000000000000000000000000000000000000000000000000000000000000000000000000000000000000000000000000003c85301afd02e41eb3abe20000000000000000000000000000000000000000038c018ccff84846375cfbc3000000000000000000000000000000000000000003a02715cec3a9ae59f44e5b",
          "blockHash": "0x4ba9894ed7c43a40aaf238d67ad7c26b111b840be0740f50a5ea45abb3c9f301",
          "blockNumber": "0x41343ab",
          "transactionHash": "0x41fdc7cc805a84807b6d6588c5c323022d47ee2f349aa72b011ecdee00f8bade",
          "transactionIndex": "0x37",
          "logIndex": "0xfa",
          "removed": false
        },
        {
          "address": "0x3c499c542cef5e3811e1192ce70d8cc03d5c3359",
          "topics": [
            "0xddf252ad1be2c89b69c2b068fc378daa952ba7f163c4a11628f55a4df523b3ef",
            "0x00000000000000000000000052f052d2411735287989461721f4b49a13d65888",
            "0x000000000000000000000000a4d94019934d8333ef880abffbf2fdd611c762bd"
          ],
          "data": "0x00000000000000000000000000000000000000000000000000000000000f4240",
          "blockHash": "0x4ba9894ed7c43a40aaf238d67ad7c26b111b840be0740f50a5ea45abb3c9f301",
          "blockNumber": "0x41343ab",
          "transactionHash": "0x41fdc7cc805a84807b6d6588c5c323022d47ee2f349aa72b011ecdee00f8bade",
          "transactionIndex": "0x37",
          "logIndex": "0xfb",
          "removed": false
        },
        {
          "address": "0xa4d94019934d8333ef880abffbf2fdd611c762bd",
          "topics": [
            "0xddf252ad1be2c89b69c2b068fc378daa952ba7f163c4a11628f55a4df523b3ef",
            "0x0000000000000000000000000000000000000000000000000000000000000000",
            "0x00000000000000000000000052f052d2411735287989461721f4b49a13d65888"
          ],
          "data": "0x00000000000000000000000000000000000000000000000000000000000f4244",
          "blockHash": "0x4ba9894ed7c43a40aaf238d67ad7c26b111b840be0740f50a5ea45abb3c9f301",
          "blockNumber": "0x41343ab",
          "transactionHash": "0x41fdc7cc805a84807b6d6588c5c323022d47ee2f349aa72b011ecdee00f8bade",
          "transactionIndex": "0x37",
          "logIndex": "0xfc",
          "removed": false
        },
        {
          "address": "0xa4d94019934d8333ef880abffbf2fdd611c762bd",
          "topics": [
            "0x458f5fa412d0f69b08dd84872b0215675cc67bc1d5b6fd93300a1c3878b86196",
            "0x00000000000000000000000052f052d2411735287989461721f4b49a13d65888",
            "0x00000000000000000000000052f052d2411735287989461721f4b49a13d65888"
          ],
          "data": "0x00000000000000000000000000000000000000000000000000000000000f424400000000000000000000000000000000000000000000000000000000000000040000000000000000000000000000000000000000038c018ccff84846375cfbc3",
          "blockHash": "0x4ba9894ed7c43a40aaf238d67ad7c26b111b840be0740f50a5ea45abb3c9f301",
          "blockNumber": "0x41343ab",
          "transactionHash": "0x41fdc7cc805a84807b6d6588c5c323022d47ee2f349aa72b011ecdee00f8bade",
          "transactionIndex": "0x37",
          "logIndex": "0xfd",
          "removed": false
        },
        {
          "address": "0x794a61358d6845594f94dc1db02a252b5b4814ad",
          "topics": [
            "0x2b627736bca15cd5381dcf80b0bf11fd197d01a037c52b927a881a10fb73ba61",
            "0x0000000000000000000000003c499c542cef5e3811e1192ce70d8cc03d5c3359",
            "0x00000000000000000000000052f052d2411735287989461721f4b49a13d65888",
            "0x0000000000000000000000000000000000000000000000000000000000000000"
          ],
          "data": "0x00000000000000000000000052f052d2411735287989461721f4b49a13d6588800000000000000000000000000000000000000000000000000000000000f4240",
          "blockHash": "0x4ba9894ed7c43a40aaf238d67ad7c26b111b840be0740f50a5ea45abb3c9f301",
          "blockNumber": "0x41343ab",
          "transactionHash": "0x41fdc7cc805a84807b6d6588c5c323022d47ee2f349aa72b011ecdee00f8bade",
          "transactionIndex": "0x37",
          "logIndex": "0xfe",
          "removed": false
        },
        {
          "address": "0x794a61358d6845594f94dc1db02a252b5b4814ad",
          "topics": [
            "0x804c9b842b2748a22bb64b345453a3de7ca54a6ca45ce00d415894979e22897a",
            "0x000000000000000000000000c2132d05d31c914a87c6611c10748aeb04b58e8f"
          ],
          "data": "0x0000000000000000000000000000000000000000001f9e94849033f1786edd4e00000000000000000000000000000000000000000000000000000000000000000000000000000000000000000000000000000000003cabfeaa5596001e532468000000000000000000000000000000000000000003c3ee7a95f64bc3efc6d10f000000000000000000000000000000000000000003f1b95db109e8df8708490c",
          "blockHash": "0x4ba9894ed7c43a40aaf238d67ad7c26b111b840be0740f50a5ea45abb3c9f301",
          "blockNumber": "0x41343ab",
          "transactionHash": "0x41fdc7cc805a84807b6d6588c5c323022d47ee2f349aa72b011ecdee00f8bade",
          "transactionIndex": "0x37",
          "logIndex": "0xff",
          "removed": false
        },
        {
          "address": "0xc2132d05d31c914a87c6611c10748aeb04b58e8f",
          "topics": [
            "0xddf252ad1be2c89b69c2b068fc378daa952ba7f163c4a11628f55a4df523b3ef",
            "0x00000000000000000000000052f052d2411735287989461721f4b49a13d65888",
            "0x0000000000000000000000006ab707aca953edaefbc4fd23ba73294241490620"
          ],
          "data": "0x00000000000000000000000000000000000000000000000000000000000f4240",
          "blockHash": "0x4ba9894ed7c43a40aaf238d67ad7c26b111b840be0740f50a5ea45abb3c9f301",
          "blockNumber": "0x41343ab",
          "transactionHash": "0x41fdc7cc805a84807b6d6588c5c323022d47ee2f349aa72b011ecdee00f8bade",
          "transactionIndex": "0x37",
          "logIndex": "0x100",
          "removed": false
        },
        {
          "address": "0xc2132d05d31c914a87c6611c10748aeb04b58e8f",
          "topics": [
            "0x8c5be1e5ebec7d5bd14f71427d1e84f3dd0314c0f7b2291e5b200ac8c7c3b925",
            "0x00000000000000000000000052f052d2411735287989461721f4b49a13d65888",
            "0x000000000000000000000000794a61358d6845594f94dc1db02a252b5b4814ad"
          ],
          "data": "0xffffffffffffffffffffffffffffffffffffffffffffffffffffffffffd2393f",
          "blockHash": "0x4ba9894ed7c43a40aaf238d67ad7c26b111b840be0740f50a5ea45abb3c9f301",
          "blockNumber": "0x41343ab",
          "transactionHash": "0x41fdc7cc805a84807b6d6588c5c323022d47ee2f349aa72b011ecdee00f8bade",
          "transactionIndex": "0x37",
          "logIndex": "0x101",
          "removed": false
        },
        {
          "address": "0x6ab707aca953edaefbc4fd23ba73294241490620",
          "topics": [
            "0xddf252ad1be2c89b69c2b068fc378daa952ba7f163c4a11628f55a4df523b3ef",
            "0x0000000000000000000000000000000000000000000000000000000000000000",
            "0x00000000000000000000000052f052d2411735287989461721f4b49a13d65888"
          ],
          "data": "0x00000000000000000000000000000000000000000000000000000000000f4244",
          "blockHash": "0x4ba9894ed7c43a40aaf238d67ad7c26b111b840be0740f50a5ea45abb3c9f301",
          "blockNumber": "0x41343ab",
          "transactionHash": "0x41fdc7cc805a84807b6d6588c5c323022d47ee2f349aa72b011ecdee00f8bade",
          "transactionIndex": "0x37",
          "logIndex": "0x102",
          "removed": false
        },
        {
          "address": "0x6ab707aca953edaefbc4fd23ba73294241490620",
          "topics": [
            "0x458f5fa412d0f69b08dd84872b0215675cc67bc1d5b6fd93300a1c3878b86196",
            "0x00000000000000000000000052f052d2411735287989461721f4b49a13d65888",
            "0x00000000000000000000000052f052d2411735287989461721f4b49a13d65888"
          ],
          "data": "0x00000000000000000000000000000000000000000000000000000000000f42440000000000000000000000000000000000000000000000000000000000000004000000000000000000000000000000000000000003c3ee7a95f64bc3efc6d10f",
          "blockHash": "0x4ba9894ed7c43a40aaf238d67ad7c26b111b840be0740f50a5ea45abb3c9f301",
          "blockNumber": "0x41343ab",
          "transactionHash": "0x41fdc7cc805a84807b6d6588c5c323022d47ee2f349aa72b011ecdee00f8bade",
          "transactionIndex": "0x37",
          "logIndex": "0x103",
          "removed": false
        },
        {
          "address": "0x794a61358d6845594f94dc1db02a252b5b4814ad",
          "topics": [
            "0x2b627736bca15cd5381dcf80b0bf11fd197d01a037c52b927a881a10fb73ba61",
            "0x000000000000000000000000c2132d05d31c914a87c6611c10748aeb04b58e8f",
            "0x00000000000000000000000052f052d2411735287989461721f4b49a13d65888",
            "0x0000000000000000000000000000000000000000000000000000000000000000"
          ],
          "data": "0x00000000000000000000000052f052d2411735287989461721f4b49a13d6588800000000000000000000000000000000000000000000000000000000000f4240",
          "blockHash": "0x4ba9894ed7c43a40aaf238d67ad7c26b111b840be0740f50a5ea45abb3c9f301",
          "blockNumber": "0x41343ab",
          "transactionHash": "0x41fdc7cc805a84807b6d6588c5c323022d47ee2f349aa72b011ecdee00f8bade",
          "transactionIndex": "0x37",
          "logIndex": "0x104",
          "removed": false
        },
        {
          "address": "0x0000000000000000000000000000000000001010",
          "topics": [
            "0x4dfe1bbbcf077ddc3e01291eea2d5c70c2b422b415d95645b9adcfd678cb1d63",
            "0x0000000000000000000000000000000000000000000000000000000000001010",
            "0x000000000000000000000000aebdfcf4a528de8b480a7b69ecaf17addb8b9959",
            "0x000000000000000000000000794e44d1334a56fea7f4df12633b88820d0c5888"
          ],
          "data": "0x0000000000000000000000000000000000000000000000000021e230d68be2f60000000000000000000000000000000000000000000000004523a42790d9f4be0000000000000000000000000000000000000000000003deb91cdbdb74dc0ce00000000000000000000000000000000000000000000000004501c1f6ba4e11c80000000000000000000000000000000000000000000003deb93ebe0c4b67efd6",
          "blockHash": "0x4ba9894ed7c43a40aaf238d67ad7c26b111b840be0740f50a5ea45abb3c9f301",
          "blockNumber": "0x41343ab",
          "transactionHash": "0x41fdc7cc805a84807b6d6588c5c323022d47ee2f349aa72b011ecdee00f8bade",
          "transactionIndex": "0x37",
          "logIndex": "0x105",
          "removed": false
        }
      ],
      "logsBloom": "0x00080008002000000000000000000000010000000000000000000000000000000000000000001000000000000004000100008000200004000000000000200000000000000040000000000008002000800000040000000000800100060000000010000000420000000000100000000800000000000000000080000010000000000000000000080001000002800000000000024800000800000010000000000000220000000000000010000000000000000800000000000100000000000000014002000002000000000011002058000080400000000000000000104000000020000010000000000000000000000000010040000000100020000000400020100000",
      "type": "0x2",
      "transactionHash": "0x41fdc7cc805a84807b6d6588c5c323022d47ee2f349aa72b011ecdee00f8bade",
      "transactionIndex": "0x37",
      "blockHash": "0x4ba9894ed7c43a40aaf238d67ad7c26b111b840be0740f50a5ea45abb3c9f301",
      "blockNumber": "0x41343ab",
      "gasUsed": "0x59206",
      "effectiveGasPrice": "0x615e35bca",
      "from": "0xaebdfcf4a528de8b480a7b69ecaf17addb8b9959",
      "to": "0x52f052d2411735287989461721f4b49a13d65888",
      "contractAddress": null
    }
  ],
  "libraries": [],
  "pending": [],
  "returns": {},
  "timestamp": 1740522345,
  "chain": 137,
  "commit": "5a169c0"
}