{
  "transactions": [
    {
      "hash": "0xe15000cb90e2ebffd867f3b0b9d682a8904017c15e5c3737ef7b2b98965f3dc6",
      "transactionType": "CALL",
      "contractName": null,
      "contractAddress": "0x3c499c542cef5e3811e1192ce70d8cc03d5c3359",
      "function": "approve(address,uint256)",
      "arguments": [
        "0x52f052d2411735287989461721f4B49A13d65888",
        "10000000"
      ],
      "transaction": {
        "from": "0xaebdfcf4a528de8b480a7b69ecaf17addb8b9959",
        "to": "0x3c499c542cef5e3811e1192ce70d8cc03d5c3359",
        "gas": "0x12b1b",
        "value": "0x0",
        "input": "0x095ea7b300000000000000000000000052f052d2411735287989461721f4b49a13d658880000000000000000000000000000000000000000000000000000000000989680",
        "nonce": "0x9",
        "chainId": "0x89"
      },
      "additionalContracts": [],
      "isFixedGasLimit": false
    },
    {
      "hash": "0x2671f8d8a5a0ca93dbec3d665c9a151913f09fb51b17cc2c5c556c74c7f38d9c",
      "transactionType": "CALL",
      "contractName": null,
      "contractAddress": "0xc2132d05d31c914a87c6611c10748aeb04b58e8f",
      "function": "approve(address,uint256)",
      "arguments": [
        "0x52f052d2411735287989461721f4B49A13d65888",
        "10000000"
      ],
      "transaction": {
        "from": "0xaebdfcf4a528de8b480a7b69ecaf17addb8b9959",
        "to": "0xc2132d05d31c914a87c6611c10748aeb04b58e8f",
        "gas": "0x11712",
        "value": "0x0",
        "input": "0x095ea7b300000000000000000000000052f052d2411735287989461721f4b49a13d658880000000000000000000000000000000000000000000000000000000000989680",
        "nonce": "0xa",
        "chainId": "0x89"
      },
      "additionalContracts": [],
      "isFixedGasLimit": false
    },
    {
      "hash": "0xf891ea7cb78047d9096c725155ce04c278ee6e161ad9b5fdde82c5ae7d176023",
      "transactionType": "CALL",
      "contractName": null,
      "contractAddress": "0x52f052d2411735287989461721f4b49a13d65888",
      "function": "deposit(uint256,uint256)",
      "arguments": [
        "10000000",
        "10000000"
      ],
      "transaction": {
        "from": "0xaebdfcf4a528de8b480a7b69ecaf17addb8b9959",
        "to": "0x52f052d2411735287989461721f4b49a13d65888",
        "gas": "0x7b1b1",
        "value": "0x0",
        "input": "0xe2bbb15800000000000000000000000000000000000000000000000000000000009896800000000000000000000000000000000000000000000000000000000000989680",
        "nonce": "0xb",
        "chainId": "0x89"
      },
      "additionalContracts": [],
      "isFixedGasLimit": false
    }
  ],
  "receipts": [
    {
      "status": "0x1",
      "cumulativeGasUsed": "0xcfa05c",
      "logs": [
        {
          "address": "0x3c499c542cef5e3811e1192ce70d8cc03d5c3359",
          "topics": [
            "0x8c5be1e5ebec7d5bd14f71427d1e84f3dd0314c0f7b2291e5b200ac8c7c3b925",
            "0x000000000000000000000000aebdfcf4a528de8b480a7b69ecaf17addb8b9959",
            "0x00000000000000000000000052f052d2411735287989461721f4b49a13d65888"
          ],
          "data": "0x0000000000000000000000000000000000000000000000000000000000989680",
          "blockHash": "0xf72a37563162eb122b8216f4e93825068e3a29fea1d0bf5fbc67654e09f2e684",
          "blockNumber": "0x413461e",
          "transactionHash": "0xe15000cb90e2ebffd867f3b0b9d682a8904017c15e5c3737ef7b2b98965f3dc6",
          "transactionIndex": "0x4c",
          "logIndex": "0x1a3",
          "removed": false
        },
        {
          "address": "0x0000000000000000000000000000000000001010",
          "topics": [
            "0x4dfe1bbbcf077ddc3e01291eea2d5c70c2b422b415d95645b9adcfd678cb1d63",
            "0x0000000000000000000000000000000000000000000000000000000000001010",
            "0x000000000000000000000000aebdfcf4a528de8b480a7b69ecaf17addb8b9959",
            "0x000000000000000000000000794e44d1334a56fea7f4df12633b88820d0c5888"
          ],
          "data": "0x00000000000000000000000000000000000000000000000000053e68648e834400000000000000000000000000000000000000000000000044ae9a8cc3e4f1390000000000000000000000000000000000000000000003e0e0ca9a3046651f2f00000000000000000000000000000000000000000000000044a95c245f566df50000000000000000000000000000000000000000000003e0e0cfd898aaf3a273",
          "blockHash": "0xf72a37563162eb122b8216f4e93825068e3a29fea1d0bf5fbc67654e09f2e684",
          "blockNumber": "0x413461e",
          "transactionHash": "0xe15000cb90e2ebffd867f3b0b9d682a8904017c15e5c3737ef7b2b98965f3dc6",
          "transactionIndex": "0x4c",
          "logIndex": "0x1a4",
          "removed": false
        }
      ],
      "logsBloom": "0x00000000000000000000000000000000000000000000000000000000000000000000000000001000000000000000000000008000000000000000000000200000000000000000000000000000000000800000000000000000000100020000000000000000000000000000000000000000000000000000000080000000000000000000000000000000000000000000000000000000000800000010000000000000220000000000000000000000000000000800000000000000000000000000004000000000000000000011000010000080000000000000000000100000000000000010000000000000000000000000010000000000100020000000000020100000",
      "type": "0x2",
      "transactionHash": "0xe15000cb90e2ebffd867f3b0b9d682a8904017c15e5c3737ef7b2b98965f3dc6",
      "transactionIndex": "0x4c",
      "blockHash": "0xf72a37563162eb122b8216f4e93825068e3a29fea1d0bf5fbc67654e09f2e684",
      "blockNumber": "0x413461e",
      "gasUsed": "0xd88d",
      "effectiveGasPrice": "0x632fe8e5e",
      "from": "0xaebdfcf4a528de8b480a7b69ecaf17addb8b9959",
      "to": "0x3c499c542cef5e3811e1192ce70d8cc03d5c3359",
      "contractAddress": null
    },
    {
      "status": "0x1",
      "cumulativeGasUsed": "0xc2d557",
      "logs": [
        {
          "address": "0xc2132d05d31c914a87c6611c10748aeb04b58e8f",
          "topics": [
            "0x8c5be1e5ebec7d5bd14f71427d1e84f3dd0314c0f7b2291e5b200ac8c7c3b925",
            "0x000000000000000000000000aebdfcf4a528de8b480a7b69ecaf17addb8b9959",
            "0x00000000000000000000000052f052d2411735287989461721f4b49a13d65888"
          ],
          "data": "0x0000000000000000000000000000000000000000000000000000000000989680",
          "blockHash": "0x3856ecce806e20b4ca963f84c3fb01cf4b082331053b40b0e01dcf2b277d6b56",
          "blockNumber": "0x413461f",
          "transactionHash": "0x2671f8d8a5a0ca93dbec3d665c9a151913f09fb51b17cc2c5c556c74c7f38d9c",
          "transactionIndex": "0x43",
          "logIndex": "0x16c",
          "removed": false
        },
        {
          "address": "0x0000000000000000000000000000000000001010",
          "topics": [
            "0x4dfe1bbbcf077ddc3e01291eea2d5c70c2b422b415d95645b9adcfd678cb1d63",
            "0x0000000000000000000000000000000000000000000000000000000000001010",
            "0x000000000000000000000000aebdfcf4a528de8b480a7b69ecaf17addb8b9959",
            "0x000000000000000000000000794e44d1334a56fea7f4df12633b88820d0c5888"
          ],
          "data": "0x0000000000000000000000000000000000000000000000000004e47f57d2b7f000000000000000000000000000000000000000000000000044a95c1be59137730000000000000000000000000000000000000000000003e0e95c7bce7d40579000000000000000000000000000000000000000000000000044a4779c8dbe7f830000000000000000000000000000000000000000000003e0e961604dd5130f80",
          "blockHash": "0x3856ecce806e20b4ca963f84c3fb01cf4b082331053b40b0e01dcf2b277d6b56",
          "blockNumber": "0x413461f",
          "transactionHash": "0x2671f8d8a5a0ca93dbec3d665c9a151913f09fb51b17cc2c5c556c74c7f38d9c",
          "transactionIndex": "0x43",
          "logIndex": "0x16d",
          "removed": false
        }
      ],
      "logsBloom": "0x00000000000000000000000000000000000000000000000000000000000000000000000000001000000000000000000100008000000000000000000000200000000000000000000000000000000000800000000000000000000100020000000000000000000000000000000000000000000000000000000080000000000000000000000000080000000000000000000000000000000800000010000000000000220000000000000000000000000000000000000000000000000000000000004000000000000000000011000010000080400000000000000000100000000000000010000000000000000000000000000000000000000020000000000020100000",
      "type": "0x2",
      "transactionHash": "0x2671f8d8a5a0ca93dbec3d665c9a151913f09fb51b17cc2c5c556c74c7f38d9c",
      "transactionIndex": "0x43",
      "blockHash": "0x3856ecce806e20b4ca963f84c3fb01cf4b082331053b40b0e01dcf2b277d6b56",
      "blockNumber": "0x413461f",
      "gasUsed": "0xca0c",
      "effectiveGasPrice": "0x632fe9d06",
      "from": "0xaebdfcf4a528de8b480a7b69ecaf17addb8b9959",
      "to": "0xc2132d05d31c914a87c6611c10748aeb04b58e8f",
      "contractAddress": null
    },
    {
      "status": "0x1",
      "cumulativeGasUsed": "0xc86760",
      "logs": [
        {
          "address": "0x3c499c542cef5e3811e1192ce70d8cc03d5c3359",
          "topics": [
            "0xddf252ad1be2c89b69c2b068fc378daa952ba7f163c4a11628f55a4df523b3ef",
            "0x000000000000000000000000aebdfcf4a528de8b480a7b69ecaf17addb8b9959",
            "0x00000000000000000000000052f052d2411735287989461721f4b49a13d65888"
          ],
          "data": "0x0000000000000000000000000000000000000000000000000000000000989680",
          "blockHash": "0x3856ecce806e20b4ca963f84c3fb01cf4b082331053b40b0e01dcf2b277d6b56",
          "blockNumber": "0x413461f",
          "transactionHash": "0xf891ea7cb78047d9096c725155ce04c278ee6e161ad9b5fdde82c5ae7d176023",
          "transactionIndex": "0x44",
          "logIndex": "0x16e",
          "removed": false
        },
        {
          "address": "0xc2132d05d31c914a87c6611c10748aeb04b58e8f",
          "topics": [
            "0xddf252ad1be2c89b69c2b068fc378daa952ba7f163c4a11628f55a4df523b3ef",
            "0x000000000000000000000000aebdfcf4a528de8b480a7b69ecaf17addb8b9959",
            "0x00000000000000000000000052f052d2411735287989461721f4b49a13d65888"
          ],
          "data": "0x0000000000000000000000000000000000000000000000000000000000989680",
          "blockHash": "0x3856ecce806e20b4ca963f84c3fb01cf4b082331053b40b0e01dcf2b277d6b56",
          "blockNumber": "0x413461f",
          "transactionHash": "0xf891ea7cb78047d9096c725155ce04c278ee6e161ad9b5fdde82c5ae7d176023",
          "transactionIndex": "0x44",
          "logIndex": "0x16f",
          "removed": false
        },
        {
          "address": "0xc2132d05d31c914a87c6611c10748aeb04b58e8f",
          "topics": [
            "0x8c5be1e5ebec7d5bd14f71427d1e84f3dd0314c0f7b2291e5b200ac8c7c3b925",
            "0x000000000000000000000000aebdfcf4a528de8b480a7b69ecaf17addb8b9959",
            "0x00000000000000000000000052f052d2411735287989461721f4b49a13d65888"
          ],
          "data": "0x0000000000000000000000000000000000000000000000000000000000000000",
          "blockHash": "0x3856ecce806e20b4ca963f84c3fb01cf4b082331053b40b0e01dcf2b277d6b56",
          "blockNumber": "0x413461f",
          "transactionHash": "0xf891ea7cb78047d9096c725155ce04c278ee6e161ad9b5fdde82c5ae7d176023",
          "transactionIndex": "0x44",
          "logIndex": "0x170",
          "removed": false
        },
        {
          "address": "0x794a61358d6845594f94dc1db02a252b5b4814ad",
          "topics": [
            "0x804c9b842b2748a22bb64b345453a3de7ca54a6ca45ce00d415894979e22897a",
            "0x0000000000000000000000003c499c542cef5e3811e1192ce70d8cc03d5c3359"
          ],
          "data": "0x000000000000000000000000000000000000000000219aaa0b3629588c6643a000000000000000000000000000000000000000000000000000000000000000000000000000000000000000000000000000000000003c8f9653dba803d5f47fcb0000000000000000000000000000000000000000038c01f2fd164e11d947d456000000000000000000000000000000000000000003a027d217e58e446c02858e",
          "blockHash": "0x3856ecce806e20b4ca963f84c3fb01cf4b082331053b40b0e01dcf2b277d6b56",
          "blockNumber": "0x413461f",
          "transactionHash": "0xf891ea7cb78047d9096c725155ce04c278ee6e161ad9b5fdde82c5ae7d176023",
          "transactionIndex": "0x44",
          "logIndex": "0x171",
          "removed": false
        },
        {
          "address": "0x3c499c542cef5e3811e1192ce70d8cc03d5c3359",
          "topics": [
            "0xddf252ad1be2c89b69c2b068fc378daa952ba7f163c4a11628f55a4df523b3ef",
            "0x00000000000000000000000052f052d2411735287989461721f4b49a13d65888",
            "0x000000000000000000000000a4d94019934d8333ef880abffbf2fdd611c762bd"
          ],
          "data": "0x0000000000000000000000000000000000000000000000000000000000989680",
          "blockHash": "0x3856ecce806e20b4ca963f84c3fb01cf4b082331053b40b0e01dcf2b277d6b56",
          "blockNumber": "0x413461f",
          "transactionHash": "0xf891ea7cb78047d9096c725155ce04c278ee6e161ad9b5fdde82c5ae7d176023",
          "transactionIndex": "0x44",
          "logIndex": "0x172",
          "removed": false
        },
        {
          "address": "0xa4d94019934d8333ef880abffbf2fdd611c762bd",
          "topics": [
            "0xddf252ad1be2c89b69c2b068fc378daa952ba7f163c4a11628f55a4df523b3ef",
            "0x0000000000000000000000000000000000000000000000000000000000000000",
            "0x00000000000000000000000052f052d2411735287989461721f4b49a13d65888"
          ],
          "data": "0x0000000000000000000000000000000000000000000000000000000000989682",
          "blockHash": "0x3856ecce806e20b4ca963f84c3fb01cf4b082331053b40b0e01dcf2b277d6b56",
          "blockNumber": "0x413461f",
          "transactionHash": "0xf891ea7cb78047d9096c725155ce04c278ee6e161ad9b5fdde82c5ae7d176023",
          "transactionIndex": "0x44",
          "logIndex": "0x173",
          "removed": false
        },
        {
          "address": "0xa4d94019934d8333ef880abffbf2fdd611c762bd",
          "topics": [
            "0x458f5fa412d0f69b08dd84872b0215675cc67bc1d5b6fd93300a1c3878b86196",
            "0x00000000000000000000000052f052d2411735287989461721f4b49a13d65888",
            "0x00000000000000000000000052f052d2411735287989461721f4b49a13d65888"
          ],
          "data": "0x000000000000000000000000000000000000000000000000000000000098968200000000000000000000000000000000000000000000000000000000000000020000000000000000000000000000000000000000038c01f2fd164e11d947d456",
          "blockHash": "0x3856ecce806e20b4ca963f84c3fb01cf4b082331053b40b0e01dcf2b277d6b56",
          "blockNumber": "0x413461f",
          "transactionHash": "0xf891ea7cb78047d9096c725155ce04c278ee6e161ad9b5fdde82c5ae7d176023",
          "transactionIndex": "0x44",
          "logIndex": "0x174",
          "removed": false
        },
        {
          "address": "0x794a61358d6845594f94dc1db02a252b5b4814ad",
          "topics": [
            "0x2b627736bca15cd5381dcf80b0bf11fd197d01a037c52b927a881a10fb73ba61",
            "0x0000000000000000000000003c499c542cef5e3811e1192ce70d8cc03d5c3359",
            "0x00000000000000000000000052f052d2411735287989461721f4b49a13d65888",
            "0x0000000000000000000000000000000000000000000000000000000000000000"
          ],
          "data": "0x00000000000000000000000052f052d2411735287989461721f4b49a13d658880000000000000000000000000000000000000000000000000000000000989680",
          "blockHash": "0x3856ecce806e20b4ca963f84c3fb01cf4b082331053b40b0e01dcf2b277d6b56",
          "blockNumber": "0x413461f",
          "transactionHash": "0xf891ea7cb78047d9096c725155ce04c278ee6e161ad9b5fdde82c5ae7d176023",
          "transactionIndex": "0x44",
          "logIndex": "0x175",
          "removed": false
        },
        {
          "address": "0x794a61358d6845594f94dc1db02a252b5b4814ad",
          "topics": [
            "0x804c9b842b2748a22bb64b345453a3de7ca54a6ca45ce00d415894979e22897a",
            "0x000000000000000000000000c2132d05d31c914a87c6611c10748aeb04b58e8f"
          ],
          "data": "0x0000000000000000000000000000000000000000001f8178757bacf6b616795700000000000000000000000000000000000000000000000000000000000000000000000000000000000000000000000000000000003c900aab03d74d170980f1000000000000000000000000000000000000000003c3eee0b8640d0f51a38454000000000000000000000000000000000000000003f1ba2abd603ada8c353db0",
          "blockHash": "0x3856ecce806e20b4ca963f84c3fb01cf4b082331053b40b0e01dcf2b277d6b56",
          "blockNumber": "0x413461f",
          "transactionHash": "0xf891ea7cb78047d9096c725155ce04c278ee6e161ad9b5fdde82c5ae7d176023",
          "transactionIndex": "0x44",
          "logIndex": "0x176",
          "removed": false
        },
        {
          "address": "0xc2132d05d31c914a87c6611c10748aeb04b58e8f",
          "topics": [
            "0xddf252ad1be2c89b69c2b068fc378daa952ba7f163c4a11628f55a4df523b3ef",
            "0x00000000000000000000000052f052d2411735287989461721f4b49a13d65888",
            "0x0000000000000000000000006ab707aca953edaefbc4fd23ba73294241490620"
          ],
          "data": "0x0000000000000000000000000000000000000000000000000000000000989680",
          "blockHash": "0x3856ecce806e20b4ca963f84c3fb01cf4b082331053b40b0e01dcf2b277d6b56",
          "blockNumber": "0x413461f",
          "transactionHash": "0xf891ea7cb78047d9096c725155ce04c278ee6e161ad9b5fdde82c5ae7d176023",
          "transactionIndex": "0x44",
          "logIndex": "0x177",
          "removed": false
        },
        {
          "address": "0xc2132d05d31c914a87c6611c10748aeb04b58e8f",
          "topics": [
            "0x8c5be1e5ebec7d5bd14f71427d1e84f3dd0314c0f7b2291e5b200ac8c7c3b925",
            "0x00000000000000000000000052f052d2411735287989461721f4b49a13d65888",
            "0x000000000000000000000000794a61358d6845594f94dc1db02a252b5b4814ad"
          ],
          "data": "0xffffffffffffffffffffffffffffffffffffffffffffffffffffffffff39a2bf",
          "blockHash": "0x3856ecce806e20b4ca963f84c3fb01cf4b082331053b40b0e01dcf2b277d6b56",
          "blockNumber": "0x413461f",
          "transactionHash": "0xf891ea7cb78047d9096c725155ce04c278ee6e161ad9b5fdde82c5ae7d176023",
          "transactionIndex": "0x44",
          "logIndex": "0x178",
          "removed": false
        },
        {
          "address": "0x6ab707aca953edaefbc4fd23ba73294241490620",
          "topics": [
            "0xddf252ad1be2c89b69c2b068fc378daa952ba7f163c4a11628f55a4df523b3ef",
            "0x0000000000000000000000000000000000000000000000000000000000000000",
            "0x00000000000000000000000052f052d2411735287989461721f4b49a13d65888"
          ],
          "data": "0x0000000000000000000000000000000000000000000000000000000000989681",
          "blockHash": "0x3856ecce806e20b4ca963f84c3fb01cf4b082331053b40b0e01dcf2b277d6b56",
          "blockNumber": "0x413461f",
          "transactionHash": "0xf891ea7cb78047d9096c725155ce04c278ee6e161ad9b5fdde82c5ae7d176023",
          "transactionIndex": "0x44",
          "logIndex": "0x179",
          "removed": false
        },
        {
          "address": "0x6ab707aca953edaefbc4fd23ba73294241490620",
          "topics": [
            "0x458f5fa412d0f69b08dd84872b0215675cc67bc1d5b6fd93300a1c3878b86196",
            "0x00000000000000000000000052f052d2411735287989461721f4b49a13d65888",
            "0x00000000000000000000000052f052d2411735287989461721f4b49a13d65888"
          ],
          "data": "0x00000000000000000000000000000000000000000000000000000000009896810000000000000000000000000000000000000000000000000000000000000001000000000000000000000000000000000000000003c3eee0b8640d0f51a38454",
          "blockHash": "0x3856ecce806e20b4ca963f84c3fb01cf4b082331053b40b0e01dcf2b277d6b56",
          "blockNumber": "0x413461f",
          "transactionHash": "0xf891ea7cb78047d9096c725155ce04c278ee6e161ad9b5fdde82c5ae7d176023",
          "transactionIndex": "0x44",
          "logIndex": "0x17a",
          "removed": false
        },
        {
          "address": "0x794a61358d6845594f94dc1db02a252b5b4814ad",
          "topics": [
            "0x2b627736bca15cd5381dcf80b0bf11fd197d01a037c52b927a881a10fb73ba61",
            "0x000000000000000000000000c2132d05d31c914a87c6611c10748aeb04b58e8f",
            "0x00000000000000000000000052f052d2411735287989461721f4b49a13d65888",
            "0x0000000000000000000000000000000000000000000000000000000000000000"
          ],
          "data": "0x00000000000000000000000052f052d2411735287989461721f4b49a13d658880000000000000000000000000000000000000000000000000000000000989680",
          "blockHash": "0x3856ecce806e20b4ca963f84c3fb01cf4b082331053b40b0e01dcf2b277d6b56",
          "blockNumber": "0x413461f",
          "transactionHash": "0xf891ea7cb78047d9096c725155ce04c278ee6e161ad9b5fdde82c5ae7d176023",
          "transactionIndex": "0x44",
          "logIndex": "0x17b",
          "removed": false
        },
        {
          "address": "0x0000000000000000000000000000000000001010",
          "topics": [
            "0x4dfe1bbbcf077ddc3e01291eea2d5c70c2b422b415d95645b9adcfd678cb1d63",
            "0x0000000000000000000000000000000000000000000000000000000000001010",
            "0x000000000000000000000000aebdfcf4a528de8b480a7b69ecaf17addb8b9959",
            "0x000000000000000000000000794e44d1334a56fea7f4df12633b88820d0c5888"
          ],
          "data": "0x0000000000000000000000000000000000000000000000000022880def8ebbf400000000000000000000000000000000000000000000000044a4779499bb1f2b0000000000000000000000000000000000000000000003e0e961604dd5130f800000000000000000000000000000000000000000000000004481ef86aa2c63370000000000000000000000000000000000000000000003e0e983e85bc4a1cb74",
          "blockHash": "0x3856ecce806e20b4ca963f84c3fb01cf4b082331053b40b0e01dcf2b277d6b56",
          "blockNumber": "0x413461f",
          "transactionHash": "0xf891ea7cb78047d9096c725155ce04c278ee6e161ad9b5fdde82c5ae7d176023",
          "transactionIndex": "0x44",
          "logIndex": "0x17c",
          "removed": false
        }
      ],
      "logsBloom": "0x00080008002000000000000000000000010000000000000000000000000000000000000000001000000000000004000100008000200004000000000000200000000000000040000000000008002000800000040000000000800100060000000010000000420000000000100000000800000000000000000080000010000000000000000000080001000002800000000000024800000800000010000000000000220000000000000010000000000000000800000000000100000000000000014002000002000000000011002058000080400000000000000000104000000020000010000000000000000000000000010040000000100020000000400020100000",
      "type": "0x2",
      "transactionHash": "0xf891ea7cb78047d9096c725155ce04c278ee6e161ad9b5fdde82c5ae7d176023",
      "transactionIndex": "0x44",
      "blockHash": "0x3856ecce806e20b4ca963f84c3fb01cf4b082331053b40b0e01dcf2b277d6b56",
      "blockNumber": "0x413461f",
      "gasUsed": "0x59209",
      "effectiveGasPrice": "0x632fe9d06",
      "from": "0xaebdfcf4a528de8b480a7b69ecaf17addb8b9959",
      "to": "0x52f052d2411735287989461721f4b49a13d65888",
      "contractAddress": null
    }
  ],
  "libraries": [],
  "pending": [],
  "returns": {},
  "timestamp": 1740523680,
  "chain": 137,
  "commit": "5a169c0"
}