{
  "transactions": [
    {
      "hash": "0xa117e1a7790b8c09527abc680d63462d23d68f20cfa74b7352b3f479282266f0",
      "transactionType": "CALL",
      "contractName": null,
      "contractAddress": "0x3c499c542cef5e3811e1192ce70d8cc03d5c3359",
      "function": "approve(address,uint256)",
      "arguments": [
        "0xD9F47BAc4019FC199cb5D769CA2c2F501A999888",
        "1000000"
      ],
      "transaction": {
        "from": "0xaebdfcf4a528de8b480a7b69ecaf17addb8b9959",
        "to": "0x3c499c542cef5e3811e1192ce70d8cc03d5c3359",
        "gas": "0x12b1b",
        "value": "0x0",
        "input": "0x095ea7b3000000000000000000000000d9f47bac4019fc199cb5d769ca2c2f501a99988800000000000000000000000000000000000000000000000000000000000f4240",
        "nonce": "0x1b",
        "chainId": "0x89"
      },
      "additionalContracts": [],
      "isFixedGasLimit": false
    },
    {
      "hash": "0x7add427cf22949b983b471e28bedc4893e5914fffa01fd3a7c59bbfdcdb3766f",
      "transactionType": "CALL",
      "contractName": null,
      "contractAddress": "0xc2132d05d31c914a87c6611c10748aeb04b58e8f",
      "function": "approve(address,uint256)",
      "arguments": [
        "0xD9F47BAc4019FC199cb5D769CA2c2F501A999888",
        "1000000"
      ],
      "transaction": {
        "from": "0xaebdfcf4a528de8b480a7b69ecaf17addb8b9959",
        "to": "0xc2132d05d31c914a87c6611c10748aeb04b58e8f",
        "gas": "0x11712",
        "value": "0x0",
        "input": "0x095ea7b3000000000000000000000000d9f47bac4019fc199cb5d769ca2c2f501a99988800000000000000000000000000000000000000000000000000000000000f4240",
        "nonce": "0x1c",
        "chainId": "0x89"
      },
      "additionalContracts": [],
      "isFixedGasLimit": false
    },
    {
      "hash": "0x66ac7c3b2619ed7c3cc88c58f12672f2ca0726cb138030162f6133f468e0a1ce",
      "transactionType": "CALL",
      "contractName": null,
      "contractAddress": "0xd9f47bac4019fc199cb5d769ca2c2f501a999888",
      "function": "deposit(uint256,uint256)",
      "arguments": [
        "1000000",
        "1000000"
      ],
      "transaction": {
        "from": "0xaebdfcf4a528de8b480a7b69ecaf17addb8b9959",
        "to": "0xd9f47bac4019fc199cb5d769ca2c2f501a999888",
        "gas": "0x78edb",
        "value": "0x0",
        "input": "0xe2bbb15800000000000000000000000000000000000000000000000000000000000f424000000000000000000000000000000000000000000000000000000000000f4240",
        "nonce": "0x1d",
        "chainId": "0x89"
      },
      "additionalContracts": [],
      "isFixedGasLimit": false
    }
  ],
  "receipts": [
    {
      "status": "0x1",
      "cumulativeGasUsed": "0xd3d843",
      "logs": [
        {
          "address": "0x3c499c542cef5e3811e1192ce70d8cc03d5c3359",
          "topics": [
            "0x8c5be1e5ebec7d5bd14f71427d1e84f3dd0314c0f7b2291e5b200ac8c7c3b925",
            "0x000000000000000000000000aebdfcf4a528de8b480a7b69ecaf17addb8b9959",
            "0x000000000000000000000000d9f47bac4019fc199cb5d769ca2c2f501a999888"
          ],
          "data": "0x00000000000000000000000000000000000000000000000000000000000f4240",
          "blockHash": "0x1830443ee2b8dad858864abd5dce0f457252c1c7ea051ab5c8a53949019c16d4",
          "blockNumber": "0x41371c2",
          "transactionHash": "0xa117e1a7790b8c09527abc680d63462d23d68f20cfa74b7352b3f479282266f0",
          "transactionIndex": "0x39",
          "logIndex": "0x2dd",
          "removed": false
        },
        {
          "address": "0x0000000000000000000000000000000000001010",
          "topics": [
            "0x4dfe1bbbcf077ddc3e01291eea2d5c70c2b422b415d95645b9adcfd678cb1d63",
            "0x0000000000000000000000000000000000000000000000000000000000001010",
            "0x000000000000000000000000aebdfcf4a528de8b480a7b69ecaf17addb8b9959",
            "0x00000000000000000000000069f5c4d08f6bc8cd29fe5f004d46fb566270868d"
          ],
          "data": "0x0000000000000000000000000000000000000000000000000005e896f8b24755000000000000000000000000000000000000000000000000420aca357d6d1ed800000000000000000000000000000000000000000000001a3900529542dea6790000000000000000000000000000000000000000000000004204e19e84bad78300000000000000000000000000000000000000000000001a39063b2c3b90edce",
          "blockHash": "0x1830443ee2b8dad858864abd5dce0f457252c1c7ea051ab5c8a53949019c16d4",
          "blockNumber": "0x41371c2",
          "transactionHash": "0xa117e1a7790b8c09527abc680d63462d23d68f20cfa74b7352b3f479282266f0",
          "transactionIndex": "0x39",
          "logIndex": "0x2de",
          "removed": false
        }
      ],
      "logsBloom": "0x00000000000000000000000002000000000000000000000000000000000000000000000000000000200000000000000000008000000000000000000010200000000000000000010000000000000040800000000000000000000100000000000000000000000000000000000000000000000000000000000080000000000000000000000000000000000000000000000000000000000800000010000000000000220000000000000000000000000000000800000000000000000000000000004000000000000000000001000000000000000000040000000000100000000000000010000000000000000000000000010000000000100020000000000000100000",
      "type": "0x2",
      "transactionHash": "0xa117e1a7790b8c09527abc680d63462d23d68f20cfa74b7352b3f479282266f0",
      "transactionIndex": "0x39",
      "blockHash": "0x1830443ee2b8dad858864abd5dce0f457252c1c7ea051ab5c8a53949019c16d4",
      "blockNumber": "0x41371c2",
      "gasUsed": "0xd88d",
      "effectiveGasPrice": "0x6fc23b5dd",
      "from": "0xaebdfcf4a528de8b480a7b69ecaf17addb8b9959",
      "to": "0x3c499c542cef5e3811e1192ce70d8cc03d5c3359",
      "contractAddress": null
    },
    {
      "status": "0x1",
      "cumulativeGasUsed": "0xd4a24f",
      "logs": [
        {
          "address": "0xc2132d05d31c914a87c6611c10748aeb04b58e8f",
          "topics": [
            "0x8c5be1e5ebec7d5bd14f71427d1e84f3dd0314c0f7b2291e5b200ac8c7c3b925",
            "0x000000000000000000000000aebdfcf4a528de8b480a7b69ecaf17addb8b9959",
            "0x000000000000000000000000d9f47bac4019fc199cb5d769ca2c2f501a999888"
          ],
          "data": "0x00000000000000000000000000000000000000000000000000000000000f4240",
          "blockHash": "0x1830443ee2b8dad858864abd5dce0f457252c1c7ea051ab5c8a53949019c16d4",
          "blockNumber": "0x41371c2",
          "transactionHash": "0x7add427cf22949b983b471e28bedc4893e5914fffa01fd3a7c59bbfdcdb3766f",
          "transactionIndex": "0x3a",
          "logIndex": "0x2df",
          "removed": false
        },
        {
          "address": "0x0000000000000000000000000000000000001010",
          "topics": [
            "0x4dfe1bbbcf077ddc3e01291eea2d5c70c2b422b415d95645b9adcfd678cb1d63",
            "0x0000000000000000000000000000000000000000000000000000000000001010",
            "0x000000000000000000000000aebdfcf4a528de8b480a7b69ecaf17addb8b9959",
            "0x00000000000000000000000069f5c4d08f6bc8cd29fe5f004d46fb566270868d"
          ],
          "data": "0x00000000000000000000000000000000000000000000000000058347f751e8ec0000000000000000000000000000000000000000000000004204e19e7c4f7c1f00000000000000000000000000000000000000000000001a39063b2c3b90edce00000000000000000000000000000000000000000000000041ff5e5684fd933300000000000000000000000000000000000000000000001a390bbe7432e2d6ba",
          "blockHash": "0x1830443ee2b8dad858864abd5dce0f457252c1c7ea051ab5c8a53949019c16d4",
          "blockNumber": "0x41371c2",
          "transactionHash": "0x7add427cf22949b983b471e28bedc4893e5914fffa01fd3a7c59bbfdcdb3766f",
          "transactionIndex": "0x3a",
          "logIndex": "0x2e0",
          "removed": false
        }
      ],
      "logsBloom": "0x00000000000000000000000002000000000000000000000000000000000000000000000000000000200000000000000100008000000000000000000010200000000000000000010000000000000040800000000000000000000100000000000000000000000000000000000000000000000000000000000080000000000000000000000000080000000000000000000000000000000800000010000000000000220000000000000000000000000000000000000000000000000000000000004000000000000000000001000000000000400000040000000000100000000000000010000000000000000000000000000000000000000020000000000000100000",
      "type": "0x2",
      "transactionHash": "0x7add427cf22949b983b471e28bedc4893e5914fffa01fd3a7c59bbfdcdb3766f",
      "transactionIndex": "0x3a",
      "blockHash": "0x1830443ee2b8dad858864abd5dce0f457252c1c7ea051ab5c8a53949019c16d4",
      "blockNumber": "0x41371c2",
      "gasUsed": "0xca0c",
      "effectiveGasPrice": "0x6fc23b5dd",
      "from": "0xaebdfcf4a528de8b480a7b69ecaf17addb8b9959",
      "to": "0xc2132d05d31c914a87c6611c10748aeb04b58e8f",
      "contractAddress": null
    },
    {
      "status": "0x1",
      "cumulativeGasUsed": "0xda1b1d",
      "logs": [
        {
          "address": "0x3c499c542cef5e3811e1192ce70d8cc03d5c3359",
          "topics": [
            "0xddf252ad1be2c89b69c2b068fc378daa952ba7f163c4a11628f55a4df523b3ef",
            "0x000000000000000000000000aebdfcf4a528de8b480a7b69ecaf17addb8b9959",
            "0x000000000000000000000000d9f47bac4019fc199cb5d769ca2c2f501a999888"
          ],
          "data": "0x00000000000000000000000000000000000000000000000000000000000f4240",
          "blockHash": "0x1830443ee2b8dad858864abd5dce0f457252c1c7ea051ab5c8a53949019c16d4",
          "blockNumber": "0x41371c2",
          "transactionHash": "0x66ac7c3b2619ed7c3cc88c58f12672f2ca0726cb138030162f6133f468e0a1ce",
          "transactionIndex": "0x3b",
          "logIndex": "0x2e1",
          "removed": false
        },
        {
          "address": "0xc2132d05d31c914a87c6611c10748aeb04b58e8f",
          "topics": [
            "0xddf252ad1be2c89b69c2b068fc378daa952ba7f163c4a11628f55a4df523b3ef",
            "0x000000000000000000000000aebdfcf4a528de8b480a7b69ecaf17addb8b9959",
            "0x000000000000000000000000d9f47bac4019fc199cb5d769ca2c2f501a999888"
          ],
          "data": "0x00000000000000000000000000000000000000000000000000000000000f4240",
          "blockHash": "0x1830443ee2b8dad858864abd5dce0f457252c1c7ea051ab5c8a53949019c16d4",
          "blockNumber": "0x41371c2",
          "transactionHash": "0x66ac7c3b2619ed7c3cc88c58f12672f2ca0726cb138030162f6133f468e0a1ce",
          "transactionIndex": "0x3b",
          "logIndex": "0x2e2",
          "removed": false
        },
        {
          "address": "0xc2132d05d31c914a87c6611c10748aeb04b58e8f",
          "topics": [
            "0x8c5be1e5ebec7d5bd14f71427d1e84f3dd0314c0f7b2291e5b200ac8c7c3b925",
            "0x000000000000000000000000aebdfcf4a528de8b480a7b69ecaf17addb8b9959",
            "0x000000000000000000000000d9f47bac4019fc199cb5d769ca2c2f501a999888"
          ],
          "data": "0x0000000000000000000000000000000000000000000000000000000000000000",
          "blockHash": "0x1830443ee2b8dad858864abd5dce0f457252c1c7ea051ab5c8a53949019c16d4",
          "blockNumber": "0x41371c2",
          "transactionHash": "0x66ac7c3b2619ed7c3cc88c58f12672f2ca0726cb138030162f6133f468e0a1ce",
          "transactionIndex": "0x3b",
          "logIndex": "0x2e3",
          "removed": false
        },
        {
          "address": "0x794a61358d6845594f94dc1db02a252b5b4814ad",
          "topics": [
            "0x804c9b842b2748a22bb64b345453a3de7ca54a6ca45ce00d415894979e22897a",
            "0x0000000000000000000000003c499c542cef5e3811e1192ce70d8cc03d5c3359"
          ],
          "data": "0x00000000000000000000000000000000000000000021b98f076f4c9870d638ff00000000000000000000000000000000000000000000000000000000000000000000000000000000000000000000000000000000003cab66aa595b6280612e730000000000000000000000000000000000000000038c09258cc783a1f9188f4e000000000000000000000000000000000000000003a034f8971439ea7a2d4d3e",
          "blockHash": "0x1830443ee2b8dad858864abd5dce0f457252c1c7ea051ab5c8a53949019c16d4",
          "blockNumber": "0x41371c2",
          "transactionHash": "0x66ac7c3b2619ed7c3cc88c58f12672f2ca0726cb138030162f6133f468e0a1ce",
          "transactionIndex": "0x3b",
          "logIndex": "0x2e4",
          "removed": false
        },
        {
          "address": "0x3c499c542cef5e3811e1192ce70d8cc03d5c3359",
          "topics": [
            "0xddf252ad1be2c89b69c2b068fc378daa952ba7f163c4a11628f55a4df523b3ef",
            "0x000000000000000000000000d9f47bac4019fc199cb5d769ca2c2f501a999888",
            "0x000000000000000000000000a4d94019934d8333ef880abffbf2fdd611c762bd"
          ],
          "data": "0x00000000000000000000000000000000000000000000000000000000000f4240",
          "blockHash": "0x1830443ee2b8dad858864abd5dce0f457252c1c7ea051ab5c8a53949019c16d4",
          "blockNumber": "0x41371c2",
          "transactionHash": "0x66ac7c3b2619ed7c3cc88c58f12672f2ca0726cb138030162f6133f468e0a1ce",
          "transactionIndex": "0x3b",
          "logIndex": "0x2e5",
          "removed": false
        },
        {
          "address": "0xa4d94019934d8333ef880abffbf2fdd611c762bd",
          "topics": [
            "0xddf252ad1be2c89b69c2b068fc378daa952ba7f163c4a11628f55a4df523b3ef",
            "0x0000000000000000000000000000000000000000000000000000000000000000",
            "0x000000000000000000000000d9f47bac4019fc199cb5d769ca2c2f501a999888"
          ],
          "data": "0x00000000000000000000000000000000000000000000000000000000000f4240",
          "blockHash": "0x1830443ee2b8dad858864abd5dce0f457252c1c7ea051ab5c8a53949019c16d4",
          "blockNumber": "0x41371c2",
          "transactionHash": "0x66ac7c3b2619ed7c3cc88c58f12672f2ca0726cb138030162f6133f468e0a1ce",
          "transactionIndex": "0x3b",
          "logIndex": "0x2e6",
          "removed": false
        },
        {
          "address": "0xa4d94019934d8333ef880abffbf2fdd611c762bd",
          "topics": [
            "0x458f5fa412d0f69b08dd84872b0215675cc67bc1d5b6fd93300a1c3878b86196",
            "0x000000000000000000000000d9f47bac4019fc199cb5d769ca2c2f501a999888",
            "0x000000000000000000000000d9f47bac4019fc199cb5d769ca2c2f501a999888"
          ],
          "data": "0x00000000000000000000000000000000000000000000000000000000000f424000000000000000000000000000000000000000000000000000000000000000000000000000000000000000000000000000000000038c09258cc783a1f9188f4e",
          "blockHash": "0x1830443ee2b8dad858864abd5dce0f457252c1c7ea051ab5c8a53949019c16d4",
          "blockNumber": "0x41371c2",
          "transactionHash": "0x66ac7c3b2619ed7c3cc88c58f12672f2ca0726cb138030162f6133f468e0a1ce",
          "transactionIndex": "0x3b",
          "logIndex": "0x2e7",
          "removed": false
        },
        {
          "address": "0x794a61358d6845594f94dc1db02a252b5b4814ad",
          "topics": [
            "0x2b627736bca15cd5381dcf80b0bf11fd197d01a037c52b927a881a10fb73ba61",
            "0x0000000000000000000000003c499c542cef5e3811e1192ce70d8cc03d5c3359",
            "0x000000000000000000000000d9f47bac4019fc199cb5d769ca2c2f501a999888",
            "0x0000000000000000000000000000000000000000000000000000000000000000"
          ],
          "data": "0x000000000000000000000000d9f47bac4019fc199cb5d769ca2c2f501a99988800000000000000000000000000000000000000000000000000000000000f4240",
          "blockHash": "0x1830443ee2b8dad858864abd5dce0f457252c1c7ea051ab5c8a53949019c16d4",
          "blockNumber": "0x41371c2",
          "transactionHash": "0x66ac7c3b2619ed7c3cc88c58f12672f2ca0726cb138030162f6133f468e0a1ce",
          "transactionIndex": "0x3b",
          "logIndex": "0x2e8",
          "removed": false
        },
        {
          "address": "0x794a61358d6845594f94dc1db02a252b5b4814ad",
          "topics": [
            "0x804c9b842b2748a22bb64b345453a3de7ca54a6ca45ce00d415894979e22897a",
            "0x000000000000000000000000c2132d05d31c914a87c6611c10748aeb04b58e8f"
          ],
          "data": "0x0000000000000000000000000000000000000000001e62c04c36c659e3fe8f6d00000000000000000000000000000000000000000000000000000000000000000000000000000000000000000000000000000000003b79f8b27ac18093bf5c2c000000000000000000000000000000000000000003c3f68206a94bb5c4ee501c000000000000000000000000000000000000000003f1c82e04fda98abf16684b",
          "blockHash": "0x1830443ee2b8dad858864abd5dce0f457252c1c7ea051ab5c8a53949019c16d4",
          "blockNumber": "0x41371c2",
          "transactionHash": "0x66ac7c3b2619ed7c3cc88c58f12672f2ca0726cb138030162f6133f468e0a1ce",
          "transactionIndex": "0x3b",
          "logIndex": "0x2e9",
          "removed": false
        },
        {
          "address": "0xc2132d05d31c914a87c6611c10748aeb04b58e8f",
          "topics": [
            "0xddf252ad1be2c89b69c2b068fc378daa952ba7f163c4a11628f55a4df523b3ef",
            "0x000000000000000000000000d9f47bac4019fc199cb5d769ca2c2f501a999888",
            "0x0000000000000000000000006ab707aca953edaefbc4fd23ba73294241490620"
          ],
          "data": "0x00000000000000000000000000000000000000000000000000000000000f4240",
          "blockHash": "0x1830443ee2b8dad858864abd5dce0f457252c1c7ea051ab5c8a53949019c16d4",
          "blockNumber": "0x41371c2",
          "transactionHash": "0x66ac7c3b2619ed7c3cc88c58f12672f2ca0726cb138030162f6133f468e0a1ce",
          "transactionIndex": "0x3b",
          "logIndex": "0x2ea",
          "removed": false
        },
        {
          "address": "0xc2132d05d31c914a87c6611c10748aeb04b58e8f",
          "topics": [
            "0x8c5be1e5ebec7d5bd14f71427d1e84f3dd0314c0f7b2291e5b200ac8c7c3b925",
            "0x000000000000000000000000d9f47bac4019fc199cb5d769ca2c2f501a999888",
            "0x000000000000000000000000794a61358d6845594f94dc1db02a252b5b4814ad"
          ],
          "data": "0xffffffffffffffffffffffffffffffffffffffffffffffffffffffffffe17b7f",
          "blockHash": "0x1830443ee2b8dad858864abd5dce0f457252c1c7ea051ab5c8a53949019c16d4",
          "blockNumber": "0x41371c2",
          "transactionHash": "0x66ac7c3b2619ed7c3cc88c58f12672f2ca0726cb138030162f6133f468e0a1ce",
          "transactionIndex": "0x3b",
          "logIndex": "0x2eb",
          "removed": false
        },
        {
          "address": "0x6ab707aca953edaefbc4fd23ba73294241490620",
          "topics": [
            "0xddf252ad1be2c89b69c2b068fc378daa952ba7f163c4a11628f55a4df523b3ef",
            "0x0000000000000000000000000000000000000000000000000000000000000000",
            "0x000000000000000000000000d9f47bac4019fc199cb5d769ca2c2f501a999888"
          ],
          "data": "0x00000000000000000000000000000000000000000000000000000000000f4240",
          "blockHash": "0x1830443ee2b8dad858864abd5dce0f457252c1c7ea051ab5c8a53949019c16d4",
          "blockNumber": "0x41371c2",
          "transactionHash": "0x66ac7c3b2619ed7c3cc88c58f12672f2ca0726cb138030162f6133f468e0a1ce",
          "transactionIndex": "0x3b",
          "logIndex": "0x2ec",
          "removed": false
        },
        {
          "address": "0x6ab707aca953edaefbc4fd23ba73294241490620",
          "topics": [
            "0x458f5fa412d0f69b08dd84872b0215675cc67bc1d5b6fd93300a1c3878b86196",
            "0x000000000000000000000000d9f47bac4019fc199cb5d769ca2c2f501a999888",
            "0x000000000000000000000000d9f47bac4019fc199cb5d769ca2c2f501a999888"
          ],
          "data": "0x00000000000000000000000000000000000000000000000000000000000f42400000000000000000000000000000000000000000000000000000000000000000000000000000000000000000000000000000000003c3f68206a94bb5c4ee501c",
          "blockHash": "0x1830443ee2b8dad858864abd5dce0f457252c1c7ea051ab5c8a53949019c16d4",
          "blockNumber": "0x41371c2",
          "transactionHash": "0x66ac7c3b2619ed7c3cc88c58f12672f2ca0726cb138030162f6133f468e0a1ce",
          "transactionIndex": "0x3b",
          "logIndex": "0x2ed",
          "removed": false
        },
        {
          "address": "0x794a61358d6845594f94dc1db02a252b5b4814ad",
          "topics": [
            "0x2b627736bca15cd5381dcf80b0bf11fd197d01a037c52b927a881a10fb73ba61",
            "0x000000000000000000000000c2132d05d31c914a87c6611c10748aeb04b58e8f",
            "0x000000000000000000000000d9f47bac4019fc199cb5d769ca2c2f501a999888",
            "0x0000000000000000000000000000000000000000000000000000000000000000"
          ],
          "data": "0x000000000000000000000000d9f47bac4019fc199cb5d769ca2c2f501a99988800000000000000000000000000000000000000000000000000000000000f4240",
          "blockHash": "0x1830443ee2b8dad858864abd5dce0f457252c1c7ea051ab5c8a53949019c16d4",
          "blockNumber": "0x41371c2",
          "transactionHash": "0x66ac7c3b2619ed7c3cc88c58f12672f2ca0726cb138030162f6133f468e0a1ce",
          "transactionIndex": "0x3b",
          "logIndex": "0x2ee",
          "removed": false
        },
        {
          "address": "0x0000000000000000000000000000000000001010",
          "topics": [
            "0x4dfe1bbbcf077ddc3e01291eea2d5c70c2b422b415d95645b9adcfd678cb1d63",
            "0x0000000000000000000000000000000000000000000000000000000000001010",
            "0x000000000000000000000000aebdfcf4a528de8b480a7b69ecaf17addb8b9959",
            "0x00000000000000000000000069f5c4d08f6bc8cd29fe5f004d46fb566270868d"
          ],
          "data": "0x00000000000000000000000000000000000000000000000000263881f8d68d7e00000000000000000000000000000000000000000000000041ff5e567d2293c300000000000000000000000000000000000000000000001a390bbe7432e2d6ba00000000000000000000000000000000000000000000000041d925d4844c064500000000000000000000000000000000000000000000001a3931f6f62bb96438",
          "blockHash": "0x1830443ee2b8dad858864abd5dce0f457252c1c7ea051ab5c8a53949019c16d4",
          "blockNumber": "0x41371c2",
          "transactionHash": "0x66ac7c3b2619ed7c3cc88c58f12672f2ca0726cb138030162f6133f468e0a1ce",
          "transactionIndex": "0x3b",
          "logIndex": "0x2ef",
          "removed": false
        }
      ],
      "logsBloom": "0x00080008002000000000000002000000010000000000000000000000000000000000000000000000200000000004000100008000200004000000000010200000000000000040010000000008002040800000040000000000800100040000000010000000420000000000100000000800000000000000000080000010000000000000000000080001000002800000000000024800000800000010000000000000220000000000000010000000000000000800000000000100000000000000014002000002000000000001002048000000400000040000000000104000000020000010000000000000000000000000010040000000100020000000400000100000",
      "type": "0x2",
      "transactionHash": "0x66ac7c3b2619ed7c3cc88c58f12672f2ca0726cb138030162f6133f468e0a1ce",
      "transactionIndex": "0x3b",
      "blockHash": "0x1830443ee2b8dad858864abd5dce0f457252c1c7ea051ab5c8a53949019c16d4",
      "blockNumber": "0x41371c2",
      "gasUsed": "0x578ce",
      "effectiveGasPrice": "0x6fc23b5dd",
      "from": "0xaebdfcf4a528de8b480a7b69ecaf17addb8b9959",
      "to": "0xd9f47bac4019fc199cb5d769ca2c2f501a999888",
      "contractAddress": null
    }
  ],
  "libraries": [],
  "pending": [],
  "returns": {},
  "timestamp": 1740547484,
  "chain": 137,
  "commit": "4328487"
}