{
  "transactions": [
    {
      "hash": "0xb2b99f67a64a835a49f5ade061deedd1ee5f35fbf05facc90ca625592128f61f",
      "transactionType": "CALL",
      "contractName": null,
      "contractAddress": "0x3c499c542cef5e3811e1192ce70d8cc03d5c3359",
      "function": "approve(address,uint256)",
      "arguments": [
        "0xC0DB3c05eDA0a0ad64aE139003f6324Cd7E59888",
        "20000000"
      ],
      "transaction": {
        "from": "0xaebdfcf4a528de8b480a7b69ecaf17addb8b9959",
        "to": "0x3c499c542cef5e3811e1192ce70d8cc03d5c3359",
        "gas": "0x12b1b",
        "value": "0x0",
        "input": "0x095ea7b3000000000000000000000000c0db3c05eda0a0ad64ae139003f6324cd7e598880000000000000000000000000000000000000000000000000000000001312d00",
        "nonce": "0x38",
        "chainId": "0x89"
      },
      "additionalContracts": [],
      "isFixedGasLimit": false
    },
    {
      "hash": "0xd0475df0a97b06a6ff11dcf0454b567a25b10f87c2301a7cd8330b79d264c568",
      "transactionType": "CALL",
      "contractName": null,
      "contractAddress": "0xc2132d05d31c914a87c6611c10748aeb04b58e8f",
      "function": "approve(address,uint256)",
      "arguments": [
        "0xC0DB3c05eDA0a0ad64aE139003f6324Cd7E59888",
        "20000000"
      ],
      "transaction": {
        "from": "0xaebdfcf4a528de8b480a7b69ecaf17addb8b9959",
        "to": "0xc2132d05d31c914a87c6611c10748aeb04b58e8f",
        "gas": "0x11712",
        "value": "0x0",
        "input": "0x095ea7b3000000000000000000000000c0db3c05eda0a0ad64ae139003f6324cd7e598880000000000000000000000000000000000000000000000000000000001312d00",
        "nonce": "0x39",
        "chainId": "0x89"
      },
      "additionalContracts": [],
      "isFixedGasLimit": false
    },
    {
      "hash": "0xca06eb0b3c0f54a7c004cf44c5e89c293bd6e81af274b74781d7a40938d8aa65",
      "transactionType": "CALL",
      "contractName": null,
      "contractAddress": "0xc0db3c05eda0a0ad64ae139003f6324cd7e59888",
      "function": "deposit(uint256,uint256)",
      "arguments": [
        "20000000",
        "20000000"
      ],
      "transaction": {
        "from": "0xaebdfcf4a528de8b480a7b69ecaf17addb8b9959",
        "to": "0xc0db3c05eda0a0ad64ae139003f6324cd7e59888",
        "gas": "0x80748",
        "value": "0x0",
        "input": "0xe2bbb1580000000000000000000000000000000000000000000000000000000001312d000000000000000000000000000000000000000000000000000000000001312d00",
        "nonce": "0x3a",
        "chainId": "0x89"
      },
      "additionalContracts": [],
      "isFixedGasLimit": false
    }
  ],
  "receipts": [
    {
      "status": "0x1",
      "cumulativeGasUsed": "0x8baaf6",
      "logs": [
        {
          "address": "0x3c499c542cef5e3811e1192ce70d8cc03d5c3359",
          "topics": [
            "0x8c5be1e5ebec7d5bd14f71427d1e84f3dd0314c0f7b2291e5b200ac8c7c3b925",
            "0x000000000000000000000000aebdfcf4a528de8b480a7b69ecaf17addb8b9959",
            "0x000000000000000000000000c0db3c05eda0a0ad64ae139003f6324cd7e59888"
          ],
          "data": "0x0000000000000000000000000000000000000000000000000000000001312d00",
          "blockHash": "0x94281d94e5bb723f4ef76b0618468a6acd66cec1841bb4a300ed38fd594c0b25",
          "blockNumber": "0x413826c",
          "transactionHash": "0xb2b99f67a64a835a49f5ade061deedd1ee5f35fbf05facc90ca625592128f61f",
          "transactionIndex": "0x2e",
          "logIndex": "0x136",
          "removed": false
        },
        {
          "address": "0x0000000000000000000000000000000000001010",
          "topics": [
            "0x4dfe1bbbcf077ddc3e01291eea2d5c70c2b422b415d95645b9adcfd678cb1d63",
            "0x0000000000000000000000000000000000000000000000000000000000001010",
            "0x000000000000000000000000aebdfcf4a528de8b480a7b69ecaf17addb8b9959",
            "0x000000000000000000000000ce7fcb674ba27a952c71061b649fb5a5746f3b2b"
          ],
          "data": "0x0000000000000000000000000000000000000000000000000005e896f8c5bc00000000000000000000000000000000000000000000000001520d3ab2fc2a71560000000000000000000000000000000000000000000000231ed017dc0f87fa540000000000000000000000000000000000000000000000015207521c0364b5560000000000000000000000000000000000000000000000231ed60073084db654",
          "blockHash": "0x94281d94e5bb723f4ef76b0618468a6acd66cec1841bb4a300ed38fd594c0b25",
          "blockNumber": "0x413826c",
          "transactionHash": "0xb2b99f67a64a835a49f5ade061deedd1ee5f35fbf05facc90ca625592128f61f",
          "transactionIndex": "0x2e",
          "logIndex": "0x137",
          "removed": false
        }
      ],
      "logsBloom": "0x00000000000000000000000000000000000000000000000000000000000000000000000000000000000000000000000000008000000000000000000000200000000000000000000000000000000000800000000000000000000120000000000000000000200000000000000000000000000000000000000080000000000000000000000000000000000000000082000000000000000800000010000001000000220000000000000000000000000000000800000000000000000000000000004000000000004000000001000000000000000000000000000000100000000000000010000000000000000000000000010000000000100020000000000000100000",
      "type": "0x2",
      "transactionHash": "0xb2b99f67a64a835a49f5ade061deedd1ee5f35fbf05facc90ca625592128f61f",
      "transactionIndex": "0x2e",
      "blockHash": "0x94281d94e5bb723f4ef76b0618468a6acd66cec1841bb4a300ed38fd594c0b25",
      "blockNumber": "0x413826c",
      "gasUsed": "0xd88d",
      "effectiveGasPrice": "0x6fc23dda8",
      "from": "0xaebdfcf4a528de8b480a7b69ecaf17addb8b9959",
      "to": "0x3c499c542cef5e3811e1192ce70d8cc03d5c3359",
      "contractAddress": null
    },
    {
      "status": "0x1",
      "cumulativeGasUsed": "0x8c7502",
      "logs": [
        {
          "address": "0xc2132d05d31c914a87c6611c10748aeb04b58e8f",
          "topics": [
            "0x8c5be1e5ebec7d5bd14f71427d1e84f3dd0314c0f7b2291e5b200ac8c7c3b925",
            "0x000000000000000000000000aebdfcf4a528de8b480a7b69ecaf17addb8b9959",
            "0x000000000000000000000000c0db3c05eda0a0ad64ae139003f6324cd7e59888"
          ],
          "data": "0x0000000000000000000000000000000000000000000000000000000001312d00",
          "blockHash": "0x94281d94e5bb723f4ef76b0618468a6acd66cec1841bb4a300ed38fd594c0b25",
          "blockNumber": "0x413826c",
          "transactionHash": "0xd0475df0a97b06a6ff11dcf0454b567a25b10f87c2301a7cd8330b79d264c568",
          "transactionIndex": "0x2f",
          "logIndex": "0x138",
          "removed": false
        },
        {
          "address": "0x0000000000000000000000000000000000001010",
          "topics": [
            "0x4dfe1bbbcf077ddc3e01291eea2d5c70c2b422b415d95645b9adcfd678cb1d63",
            "0x0000000000000000000000000000000000000000000000000000000000001010",
            "0x000000000000000000000000aebdfcf4a528de8b480a7b69ecaf17addb8b9959",
            "0x000000000000000000000000ce7fcb674ba27a952c71061b649fb5a5746f3b2b"
          ],
          "data": "0x00000000000000000000000000000000000000000000000000058347f76410000000000000000000000000000000000000000000000000015207521bd9639bce0000000000000000000000000000000000000000000000231ed60073084db6540000000000000000000000000000000000000000000000015201ced3e1ff8bce0000000000000000000000000000000000000000000000231edb83baffb1c654",
          "blockHash": "0x94281d94e5bb723f4ef76b0618468a6acd66cec1841bb4a300ed38fd594c0b25",
          "blockNumber": "0x413826c",
          "transactionHash": "0xd0475df0a97b06a6ff11dcf0454b567a25b10f87c2301a7cd8330b79d264c568",
          "transactionIndex": "0x2f",
          "logIndex": "0x139",
          "removed": false
        }
      ],
      "logsBloom": "0x00000000000000000000000000000000000000000000000000000000000000000000000000000000000000000000000100008000000000000000000000200000000000000000000000000000000000800000000000000000000120000000000000000000200000000000000000000000000000000000000080000000000000000000000000080000000000000082000000000000000800000010000001000000220000000000000000000000000000000000000000000000000000000000004000000000004000000001000000000000400000000000000000100000000000000010000000000000000000000000000000000000000020000000000000100000",
      "type": "0x2",
      "transactionHash": "0xd0475df0a97b06a6ff11dcf0454b567a25b10f87c2301a7cd8330b79d264c568",
      "transactionIndex": "0x2f",
      "blockHash": "0x94281d94e5bb723f4ef76b0618468a6acd66cec1841bb4a300ed38fd594c0b25",
      "blockNumber": "0x413826c",
      "gasUsed": "0xca0c",
      "effectiveGasPrice": "0x6fc23dda8",
      "from": "0xaebdfcf4a528de8b480a7b69ecaf17addb8b9959",
      "to": "0xc2132d05d31c914a87c6611c10748aeb04b58e8f",
      "contractAddress": null
    },
    {
      "status": "0x1",
      "cumulativeGasUsed": "0x91f255",
      "logs": [
        {
          "address": "0x3c499c542cef5e3811e1192ce70d8cc03d5c3359",
          "topics": [
            "0xddf252ad1be2c89b69c2b068fc378daa952ba7f163c4a11628f55a4df523b3ef",
            "0x000000000000000000000000aebdfcf4a528de8b480a7b69ecaf17addb8b9959",
            "0x000000000000000000000000c0db3c05eda0a0ad64ae139003f6324cd7e59888"
          ],
          "data": "0x0000000000000000000000000000000000000000000000000000000001312d00",
          "blockHash": "0x94281d94e5bb723f4ef76b0618468a6acd66cec1841bb4a300ed38fd594c0b25",
          "blockNumber": "0x413826c",
          "transactionHash": "0xca06eb0b3c0f54a7c004cf44c5e89c293bd6e81af274b74781d7a40938d8aa65",
          "transactionIndex": "0x30",
          "logIndex": "0x13a",
          "removed": false
        },
        {
          "address": "0xc2132d05d31c914a87c6611c10748aeb04b58e8f",
          "topics": [
            "0xddf252ad1be2c89b69c2b068fc378daa952ba7f163c4a11628f55a4df523b3ef",
            "0x000000000000000000000000aebdfcf4a528de8b480a7b69ecaf17addb8b9959",
            "0x000000000000000000000000c0db3c05eda0a0ad64ae139003f6324cd7e59888"
          ],
          "data": "0x0000000000000000000000000000000000000000000000000000000001312d00",
          "blockHash": "0x94281d94e5bb723f4ef76b0618468a6acd66cec1841bb4a300ed38fd594c0b25",
          "blockNumber": "0x413826c",
          "transactionHash": "0xca06eb0b3c0f54a7c004cf44c5e89c293bd6e81af274b74781d7a40938d8aa65",
          "transactionIndex": "0x30",
          "logIndex": "0x13b",
          "removed": false
        },
        {
          "address": "0xc2132d05d31c914a87c6611c10748aeb04b58e8f",
          "topics": [
            "0x8c5be1e5ebec7d5bd14f71427d1e84f3dd0314c0f7b2291e5b200ac8c7c3b925",
            "0x000000000000000000000000aebdfcf4a528de8b480a7b69ecaf17addb8b9959",
            "0x000000000000000000000000c0db3c05eda0a0ad64ae139003f6324cd7e59888"
          ],
          "data": "0x0000000000000000000000000000000000000000000000000000000000000000",
          "blockHash": "0x94281d94e5bb723f4ef76b0618468a6acd66cec1841bb4a300ed38fd594c0b25",
          "blockNumber": "0x413826c",
          "transactionHash": "0xca06eb0b3c0f54a7c004cf44c5e89c293bd6e81af274b74781d7a40938d8aa65",
          "transactionIndex": "0x30",
          "logIndex": "0x13c",
          "removed": false
        },
        {
          "address": "0x794a61358d6845594f94dc1db02a252b5b4814ad",
          "topics": [
            "0x804c9b842b2748a22bb64b345453a3de7ca54a6ca45ce00d415894979e22897a",
            "0x0000000000000000000000003c499c542cef5e3811e1192ce70d8cc03d5c3359"
          ],
          "data": "0x00000000000000000000000000000000000000000021c0cbef1901bb69d6d53500000000000000000000000000000000000000000000000000000000000000000000000000000000000000000000000000000000003cb1e8f6e5172d1a711d940000000000000000000000000000000000000000038c0c025b3a958310b0eada000000000000000000000000000000000000000003a039fad4a938464cfb808a",
          "blockHash": "0x94281d94e5bb723f4ef76b0618468a6acd66cec1841bb4a300ed38fd594c0b25",
          "blockNumber": "0x413826c",
          "transactionHash": "0xca06eb0b3c0f54a7c004cf44c5e89c293bd6e81af274b74781d7a40938d8aa65",
          "transactionIndex": "0x30",
          "logIndex": "0x13d",
          "removed": false
        },
        {
          "address": "0x3c499c542cef5e3811e1192ce70d8cc03d5c3359",
          "topics": [
            "0xddf252ad1be2c89b69c2b068fc378daa952ba7f163c4a11628f55a4df523b3ef",
            "0x000000000000000000000000c0db3c05eda0a0ad64ae139003f6324cd7e59888",
            "0x000000000000000000000000a4d94019934d8333ef880abffbf2fdd611c762bd"
          ],
          "data": "0x0000000000000000000000000000000000000000000000000000000001312d00",
          "blockHash": "0x94281d94e5bb723f4ef76b0618468a6acd66cec1841bb4a300ed38fd594c0b25",
          "blockNumber": "0x413826c",
          "transactionHash": "0xca06eb0b3c0f54a7c004cf44c5e89c293bd6e81af274b74781d7a40938d8aa65",
          "transactionIndex": "0x30",
          "logIndex": "0x13e",
          "removed": false
        },
        {
          "address": "0xa4d94019934d8333ef880abffbf2fdd611c762bd",
          "topics": [
            "0xddf252ad1be2c89b69c2b068fc378daa952ba7f163c4a11628f55a4df523b3ef",
            "0x0000000000000000000000000000000000000000000000000000000000000000",
            "0x000000000000000000000000c0db3c05eda0a0ad64ae139003f6324cd7e59888"
          ],
          "data": "0x0000000000000000000000000000000000000000000000000000000001312d00",
          "blockHash": "0x94281d94e5bb723f4ef76b0618468a6acd66cec1841bb4a300ed38fd594c0b25",
          "blockNumber": "0x413826c",
          "transactionHash": "0xca06eb0b3c0f54a7c004cf44c5e89c293bd6e81af274b74781d7a40938d8aa65",
          "transactionIndex": "0x30",
          "logIndex": "0x13f",
          "removed": false
        },
        {
          "address": "0xa4d94019934d8333ef880abffbf2fdd611c762bd",
          "topics": [
            "0x458f5fa412d0f69b08dd84872b0215675cc67bc1d5b6fd93300a1c3878b86196",
            "0x000000000000000000000000c0db3c05eda0a0ad64ae139003f6324cd7e59888",
            "0x000000000000000000000000c0db3c05eda0a0ad64ae139003f6324cd7e59888"
          ],
          "data": "0x0000000000000000000000000000000000000000000000000000000001312d0000000000000000000000000000000000000000000000000000000000000000000000000000000000000000000000000000000000038c0c025b3a958310b0eada",
          "blockHash": "0x94281d94e5bb723f4ef76b0618468a6acd66cec1841bb4a300ed38fd594c0b25",
          "blockNumber": "0x413826c",
          "transactionHash": "0xca06eb0b3c0f54a7c004cf44c5e89c293bd6e81af274b74781d7a40938d8aa65",
          "transactionIndex": "0x30",
          "logIndex": "0x140",
          "removed": false
        },
        {
          "address": "0x794a61358d6845594f94dc1db02a252b5b4814ad",
          "topics": [
            "0x2b627736bca15cd5381dcf80b0bf11fd197d01a037c52b927a881a10fb73ba61",
            "0x0000000000000000000000003c499c542cef5e3811e1192ce70d8cc03d5c3359",
            "0x000000000000000000000000c0db3c05eda0a0ad64ae139003f6324cd7e59888",
            "0x0000000000000000000000000000000000000000000000000000000000000000"
          ],
          "data": "0x000000000000000000000000c0db3c05eda0a0ad64ae139003f6324cd7e598880000000000000000000000000000000000000000000000000000000001312d00",
          "blockHash": "0x94281d94e5bb723f4ef76b0618468a6acd66cec1841bb4a300ed38fd594c0b25",
          "blockNumber": "0x413826c",
          "transactionHash": "0xca06eb0b3c0f54a7c004cf44c5e89c293bd6e81af274b74781d7a40938d8aa65",
          "transactionIndex": "0x30",
          "logIndex": "0x141",
          "removed": false
        },
        {
          "address": "0x794a61358d6845594f94dc1db02a252b5b4814ad",
          "topics": [
            "0x804c9b842b2748a22bb64b345453a3de7ca54a6ca45ce00d415894979e22897a",
            "0x000000000000000000000000c2132d05d31c914a87c6611c10748aeb04b58e8f"
          ],
          "data": "0x0000000000000000000000000000000000000000001e785950e93afdce4c7df100000000000000000000000000000000000000000000000000000000000000000000000000000000000000000000000000000000003b8f182421a057629afb32000000000000000000000000000000000000000003c3f92000db88dcee439ae2000000000000000000000000000000000000000003f1cd8641617cfc1e027cef",
          "blockHash": "0x94281d94e5bb723f4ef76b0618468a6acd66cec1841bb4a300ed38fd594c0b25",
          "blockNumber": "0x413826c",
          "transactionHash": "0xca06eb0b3c0f54a7c004cf44c5e89c293bd6e81af274b74781d7a40938d8aa65",
          "transactionIndex": "0x30",
          "logIndex": "0x142",
          "removed": false
        },
        {
          "address": "0xc2132d05d31c914a87c6611c10748aeb04b58e8f",
          "topics": [
            "0xddf252ad1be2c89b69c2b068fc378daa952ba7f163c4a11628f55a4df523b3ef",
            "0x000000000000000000000000c0db3c05eda0a0ad64ae139003f6324cd7e59888",
            "0x0000000000000000000000006ab707aca953edaefbc4fd23ba73294241490620"
          ],
          "data": "0x0000000000000000000000000000000000000000000000000000000001312d00",
          "blockHash": "0x94281d94e5bb723f4ef76b0618468a6acd66cec1841bb4a300ed38fd594c0b25",
          "blockNumber": "0x413826c",
          "transactionHash": "0xca06eb0b3c0f54a7c004cf44c5e89c293bd6e81af274b74781d7a40938d8aa65",
          "transactionIndex": "0x30",
          "logIndex": "0x143",
          "removed": false
        },
        {
          "address": "0xc2132d05d31c914a87c6611c10748aeb04b58e8f",
          "topics": [
            "0x8c5be1e5ebec7d5bd14f71427d1e84f3dd0314c0f7b2291e5b200ac8c7c3b925",
            "0x000000000000000000000000c0db3c05eda0a0ad64ae139003f6324cd7e59888",
            "0x000000000000000000000000794a61358d6845594f94dc1db02a252b5b4814ad"
          ],
          "data": "0xfffffffffffffffffffffffffffffffffffffffffffffffffffffffffebf90bf",
          "blockHash": "0x94281d94e5bb723f4ef76b0618468a6acd66cec1841bb4a300ed38fd594c0b25",
          "blockNumber": "0x413826c",
          "transactionHash": "0xca06eb0b3c0f54a7c004cf44c5e89c293bd6e81af274b74781d7a40938d8aa65",
          "transactionIndex": "0x30",
          "logIndex": "0x144",
          "removed": false
        },
        {
          "address": "0x6ab707aca953edaefbc4fd23ba73294241490620",
          "topics": [
            "0xddf252ad1be2c89b69c2b068fc378daa952ba7f163c4a11628f55a4df523b3ef",
            "0x0000000000000000000000000000000000000000000000000000000000000000",
            "0x000000000000000000000000c0db3c05eda0a0ad64ae139003f6324cd7e59888"
          ],
          "data": "0x0000000000000000000000000000000000000000000000000000000001312d00",
          "blockHash": "0x94281d94e5bb723f4ef76b0618468a6acd66cec1841bb4a300ed38fd594c0b25",
          "blockNumber": "0x413826c",
          "transactionHash": "0xca06eb0b3c0f54a7c004cf44c5e89c293bd6e81af274b74781d7a40938d8aa65",
          "transactionIndex": "0x30",
          "logIndex": "0x145",
          "removed": false
        },
        {
          "address": "0x6ab707aca953edaefbc4fd23ba73294241490620",
          "topics": [
            "0x458f5fa412d0f69b08dd84872b0215675cc67bc1d5b6fd93300a1c3878b86196",
            "0x000000000000000000000000c0db3c05eda0a0ad64ae139003f6324cd7e59888",
            "0x000000000000000000000000c0db3c05eda0a0ad64ae139003f6324cd7e59888"
          ],
          "data": "0x0000000000000000000000000000000000000000000000000000000001312d000000000000000000000000000000000000000000000000000000000000000000000000000000000000000000000000000000000003c3f92000db88dcee439ae2",
          "blockHash": "0x94281d94e5bb723f4ef76b0618468a6acd66cec1841bb4a300ed38fd594c0b25",
          "blockNumber": "0x413826c",
          "transactionHash": "0xca06eb0b3c0f54a7c004cf44c5e89c293bd6e81af274b74781d7a40938d8aa65",
          "transactionIndex": "0x30",
          "logIndex": "0x146",
          "removed": false
        },
        {
          "address": "0x794a61358d6845594f94dc1db02a252b5b4814ad",
          "topics": [
            "0x2b627736bca15cd5381dcf80b0bf11fd197d01a037c52b927a881a10fb73ba61",
            "0x000000000000000000000000c2132d05d31c914a87c6611c10748aeb04b58e8f",
            "0x000000000000000000000000c0db3c05eda0a0ad64ae139003f6324cd7e59888",
            "0x0000000000000000000000000000000000000000000000000000000000000000"
          ],
          "data": "0x000000000000000000000000c0db3c05eda0a0ad64ae139003f6324cd7e598880000000000000000000000000000000000000000000000000000000001312d00",
          "blockHash": "0x94281d94e5bb723f4ef76b0618468a6acd66cec1841bb4a300ed38fd594c0b25",
          "blockNumber": "0x413826c",
          "transactionHash": "0xca06eb0b3c0f54a7c004cf44c5e89c293bd6e81af274b74781d7a40938d8aa65",
          "transactionIndex": "0x30",
          "logIndex": "0x147",
          "removed": false
        },
        {
          "address": "0x0000000000000000000000000000000000001010",
          "topics": [
            "0x4dfe1bbbcf077ddc3e01291eea2d5c70c2b422b415d95645b9adcfd678cb1d63",
            "0x0000000000000000000000000000000000000000000000000000000000001010",
            "0x000000000000000000000000aebdfcf4a528de8b480a7b69ecaf17addb8b9959",
            "0x000000000000000000000000ce7fcb674ba27a952c71061b649fb5a5746f3b2b"
          ],
          "data": "0x00000000000000000000000000000000000000000000000000265813868cc4000000000000000000000000000000000000000000000000015201ced3bacea7ee0000000000000000000000000000000000000000000000231edb83baffb1c65400000000000000000000000000000000000000000000000151db76c03441e3ee0000000000000000000000000000000000000000000000231f01dbce863e8a54",
          "blockHash": "0x94281d94e5bb723f4ef76b0618468a6acd66cec1841bb4a300ed38fd594c0b25",
          "blockNumber": "0x413826c",
          "transactionHash": "0xca06eb0b3c0f54a7c004cf44c5e89c293bd6e81af274b74781d7a40938d8aa65",
          "transactionIndex": "0x30",
          "logIndex": "0x148",
          "removed": false
        }
      ],
      "logsBloom": "0x00080008002000000000000000000000010000000000000000000000000000000000000000000000000000000004000100008000200004000000000000200000000000000040000000000008002000800000040000000000800120040000000010000000620000000000100000000800000000000000000080000010000000000000000000080001000002800082000000024800000800000010000001000000220000000000000010000000000000000800000000000100000000000000014002000002004000000001002048000000400000000000000000104000000020000010000000000000000000000000010040000000100020000000400000100000",
      "type": "0x2",
      "transactionHash": "0xca06eb0b3c0f54a7c004cf44c5e89c293bd6e81af274b74781d7a40938d8aa65",
      "transactionIndex": "0x30",
      "blockHash": "0x94281d94e5bb723f4ef76b0618468a6acd66cec1841bb4a300ed38fd594c0b25",
      "blockNumber": "0x413826c",
      "gasUsed": "0x57d53",
      "effectiveGasPrice": "0x6fc23dda8",
      "from": "0xaebdfcf4a528de8b480a7b69ecaf17addb8b9959",
      "to": "0xc0db3c05eda0a0ad64ae139003f6324cd7e59888",
      "contractAddress": null
    }
  ],
  "libraries": [],
  "pending": [],
  "returns": {},
  "timestamp": 1740556544,
  "chain": 137,
  "commit": "f2aad93"
}