{
  "transactions": [
    {
      "hash": "0x4d0eb62c2178c4e52334e1b18e57ed9fc433a2ad68cd90273daf527c01052185",
      "transactionType": "CALL",
      "contractName": null,
      "contractAddress": "0x3c499c542cef5e3811e1192ce70d8cc03d5c3359",
      "function": "approve(address,uint256)",
      "arguments": [
        "0x52f052d2411735287989461721f4B49A13d65888",
        "1000000"
      ],
      "transaction": {
        "from": "0xaebdfcf4a528de8b480a7b69ecaf17addb8b9959",
        "to": "0x3c499c542cef5e3811e1192ce70d8cc03d5c3359",
        "gas": "0x12b1b",
        "value": "0x0",
        "input": "0x095ea7b300000000000000000000000052f052d2411735287989461721f4b49a13d6588800000000000000000000000000000000000000000000000000000000000f4240",
        "nonce": "0x18",
        "chainId": "0x89"
      },
      "additionalContracts": [],
      "isFixedGasLimit": false
    },
    {
      "hash": "0xedcd16e167252459c3647e3c5c5ed70415879aa36de10c645f6285a47192fefa",
      "transactionType": "CALL",
      "contractName": null,
      "contractAddress": "0xc2132d05d31c914a87c6611c10748aeb04b58e8f",
      "function": "approve(address,uint256)",
      "arguments": [
        "0x52f052d2411735287989461721f4B49A13d65888",
        "1000000"
      ],
      "transaction": {
        "from": "0xaebdfcf4a528de8b480a7b69ecaf17addb8b9959",
        "to": "0xc2132d05d31c914a87c6611c10748aeb04b58e8f",
        "gas": "0x11712",
        "value": "0x0",
        "input": "0x095ea7b300000000000000000000000052f052d2411735287989461721f4b49a13d6588800000000000000000000000000000000000000000000000000000000000f4240",
        "nonce": "0x19",
        "chainId": "0x89"
      },
      "additionalContracts": [],
      "isFixedGasLimit": false
    },
    {
      "hash": "0x9a2f769b565094d73b18dc2bf80515460ffeaa5feb29d5dd7c6ecc10359e1cf8",
      "transactionType": "CALL",
      "contractName": null,
      "contractAddress": "0x52f052d2411735287989461721f4b49a13d65888",
      "function": "deposit(uint256,uint256)",
      "arguments": [
        "1000000",
        "1000000"
      ],
      "transaction": {
        "from": "0xaebdfcf4a528de8b480a7b69ecaf17addb8b9959",
        "to": "0x52f052d2411735287989461721f4b49a13d65888",
        "gas": "0x7b1b1",
        "value": "0x0",
        "input": "0xe2bbb15800000000000000000000000000000000000000000000000000000000000f424000000000000000000000000000000000000000000000000000000000000f4240",
        "nonce": "0x1a",
        "chainId": "0x89"
      },
      "additionalContracts": [],
      "isFixedGasLimit": false
    }
  ],
  "receipts": [
    {
      "status": "0x1",
      "cumulativeGasUsed": "0x98426c",
      "logs": [
        {
          "address": "0x3c499c542cef5e3811e1192ce70d8cc03d5c3359",
          "topics": [
            "0x8c5be1e5ebec7d5bd14f71427d1e84f3dd0314c0f7b2291e5b200ac8c7c3b925",
            "0x000000000000000000000000aebdfcf4a528de8b480a7b69ecaf17addb8b9959",
            "0x00000000000000000000000052f052d2411735287989461721f4b49a13d65888"
          ],
          "data": "0x00000000000000000000000000000000000000000000000000000000000f4240",
          "blockHash": "0x5fe84c32da16278c2b014c94702989c0a3ff2c42c84137c5e35408b7fcd657cf",
          "blockNumber": "0x4137187",
          "transactionHash": "0x4d0eb62c2178c4e52334e1b18e57ed9fc433a2ad68cd90273daf527c01052185",
          "transactionIndex": "0x45",
          "logIndex": "0x15e",
          "removed": false
        },
        {
          "address": "0x0000000000000000000000000000000000001010",
          "topics": [
            "0x4dfe1bbbcf077ddc3e01291eea2d5c70c2b422b415d95645b9adcfd678cb1d63",
            "0x0000000000000000000000000000000000000000000000000000000000001010",
            "0x000000000000000000000000aebdfcf4a528de8b480a7b69ecaf17addb8b9959",
            "0x000000000000000000000000ca4793c93a94e7a70a4631b1cece6546e76eb19e"
          ],
          "data": "0x00000000000000000000000000000000000000000000000000059cf5ceaec5be000000000000000000000000000000000000000000000000423a9a9719071902000000000000000000000000000000000000000000000e8f6b28db771dda55610000000000000000000000000000000000000000000000004234fda14a585344000000000000000000000000000000000000000000000e8f6b2e786cec891b1f",
          "blockHash": "0x5fe84c32da16278c2b014c94702989c0a3ff2c42c84137c5e35408b7fcd657cf",
          "blockNumber": "0x4137187",
          "transactionHash": "0x4d0eb62c2178c4e52334e1b18e57ed9fc433a2ad68cd90273daf527c01052185",
          "transactionIndex": "0x45",
          "logIndex": "0x15f",
          "removed": false
        }
      ],
      "logsBloom": "0x00000000200000000000000000000000000000000000000000000000000000000000000000000000000000000000000000008000000000000000000000200000000010000000000000000000000000800000000000000000400100000000000000000000000000000000000000000000000000000000000080000000000000000000000000000000000000000000000000000000000800000010000000000000220000000000000000000000000000000800000000000000000000000000004000000000000000000011000010000080000000000000000000100000000000000010000000000000000000000000010000000000100020000000000000100000",
      "type": "0x2",
      "transactionHash": "0x4d0eb62c2178c4e52334e1b18e57ed9fc433a2ad68cd90273daf527c01052185",
      "transactionIndex": "0x45",
      "blockHash": "0x5fe84c32da16278c2b014c94702989c0a3ff2c42c84137c5e35408b7fcd657cf",
      "blockNumber": "0x4137187",
      "gasUsed": "0xd88d",
      "effectiveGasPrice": "0x6a2bb8185",
      "from": "0xaebdfcf4a528de8b480a7b69ecaf17addb8b9959",
      "to": "0x3c499c542cef5e3811e1192ce70d8cc03d5c3359",
      "contractAddress": null
    },
    {
      "status": "0x1",
      "cumulativeGasUsed": "0x990c78",
      "logs": [
        {
          "address": "0xc2132d05d31c914a87c6611c10748aeb04b58e8f",
          "topics": [
            "0x8c5be1e5ebec7d5bd14f71427d1e84f3dd0314c0f7b2291e5b200ac8c7c3b925",
            "0x000000000000000000000000aebdfcf4a528de8b480a7b69ecaf17addb8b9959",
            "0x00000000000000000000000052f052d2411735287989461721f4b49a13d65888"
          ],
          "data": "0x00000000000000000000000000000000000000000000000000000000000f4240",
          "blockHash": "0x5fe84c32da16278c2b014c94702989c0a3ff2c42c84137c5e35408b7fcd657cf",
          "blockNumber": "0x4137187",
          "transactionHash": "0xedcd16e167252459c3647e3c5c5ed70415879aa36de10c645f6285a47192fefa",
          "transactionIndex": "0x46",
          "logIndex": "0x160",
          "removed": false
        },
        {
          "address": "0x0000000000000000000000000000000000001010",
          "topics": [
            "0x4dfe1bbbcf077ddc3e01291eea2d5c70c2b422b415d95645b9adcfd678cb1d63",
            "0x0000000000000000000000000000000000000000000000000000000000001010",
            "0x000000000000000000000000aebdfcf4a528de8b480a7b69ecaf17addb8b9959",
            "0x000000000000000000000000ca4793c93a94e7a70a4631b1cece6546e76eb19e"
          ],
          "data": "0x00000000000000000000000000000000000000000000000000053cb78da43e880000000000000000000000000000000000000000000000004234fda142788ac1000000000000000000000000000000000000000000000e8f6b2e786cec891b1f000000000000000000000000000000000000000000000000422fc0e9b4d44c39000000000000000000000000000000000000000000000e8f6b33b5247a2d59a7",
          "blockHash": "0x5fe84c32da16278c2b014c94702989c0a3ff2c42c84137c5e35408b7fcd657cf",
          "blockNumber": "0x4137187",
          "transactionHash": "0xedcd16e167252459c3647e3c5c5ed70415879aa36de10c645f6285a47192fefa",
          "transactionIndex": "0x46",
          "logIndex": "0x161",
          "removed": false
        }
      ],
      "logsBloom": "0x00000000200000000000000000000000000000000000000000000000000000000000000000000000000000000000000100008000000000000000000000200000000010000000000000000000000000800000000000000000400100000000000000000000000000000000000000000000000000000000000080000000000000000000000000080000000000000000000000000000000800000010000000000000220000000000000000000000000000000000000000000000000000000000004000000000000000000011000010000080400000000000000000100000000000000010000000000000000000000000000000000000000020000000000000100000",
      "type": "0x2",
      "transactionHash": "0xedcd16e167252459c3647e3c5c5ed70415879aa36de10c645f6285a47192fefa",
      "transactionIndex": "0x46",
      "blockHash": "0x5fe84c32da16278c2b014c94702989c0a3ff2c42c84137c5e35408b7fcd657cf",
      "blockNumber": "0x4137187",
      "gasUsed": "0xca0c",
      "effectiveGasPrice": "0x6a2bb8185",
      "from": "0xaebdfcf4a528de8b480a7b69ecaf17addb8b9959",
      "to": "0xc2132d05d31c914a87c6611c10748aeb04b58e8f",
      "contractAddress": null
    },
    {
      "status": "0x1",
      "cumulativeGasUsed": "0x9e9e81",
      "logs": [
        {
          "address": "0x3c499c542cef5e3811e1192ce70d8cc03d5c3359",
          "topics": [
            "0xddf252ad1be2c89b69c2b068fc378daa952ba7f163c4a11628f55a4df523b3ef",
            "0x000000000000000000000000aebdfcf4a528de8b480a7b69ecaf17addb8b9959",
            "0x00000000000000000000000052f052d2411735287989461721f4b49a13d65888"
          ],
          "data": "0x00000000000000000000000000000000000000000000000000000000000f4240",
          "blockHash": "0x5fe84c32da16278c2b014c94702989c0a3ff2c42c84137c5e35408b7fcd657cf",
          "blockNumber": "0x4137187",
          "transactionHash": "0x9a2f769b565094d73b18dc2bf80515460ffeaa5feb29d5dd7c6ecc10359e1cf8",
          "transactionIndex": "0x47",
          "logIndex": "0x162",
          "removed": false
        },
        {
          "address": "0xc2132d05d31c914a87c6611c10748aeb04b58e8f",
          "topics": [
            "0xddf252ad1be2c89b69c2b068fc378daa952ba7f163c4a11628f55a4df523b3ef",
            "0x000000000000000000000000aebdfcf4a528de8b480a7b69ecaf17addb8b9959",
            "0x00000000000000000000000052f052d2411735287989461721f4b49a13d65888"
          ],
          "data": "0x00000000000000000000000000000000000000000000000000000000000f4240",
          "blockHash": "0x5fe84c32da16278c2b014c94702989c0a3ff2c42c84137c5e35408b7fcd657cf",
          "blockNumber": "0x4137187",
          "transactionHash": "0x9a2f769b565094d73b18dc2bf80515460ffeaa5feb29d5dd7c6ecc10359e1cf8",
          "transactionIndex": "0x47",
          "logIndex": "0x163",
          "removed": false
        },
        {
          "address": "0xc2132d05d31c914a87c6611c10748aeb04b58e8f",
          "topics": [
            "0x8c5be1e5ebec7d5bd14f71427d1e84f3dd0314c0f7b2291e5b200ac8c7c3b925",
            "0x000000000000000000000000aebdfcf4a528de8b480a7b69ecaf17addb8b9959",
            "0x00000000000000000000000052f052d2411735287989461721f4b49a13d65888"
          ],
          "data": "0x0000000000000000000000000000000000000000000000000000000000000000",
          "blockHash": "0x5fe84c32da16278c2b014c94702989c0a3ff2c42c84137c5e35408b7fcd657cf",
          "blockNumber": "0x4137187",
          "transactionHash": "0x9a2f769b565094d73b18dc2bf80515460ffeaa5feb29d5dd7c6ecc10359e1cf8",
          "transactionIndex": "0x47",
          "logIndex": "0x164",
          "removed": false
        },
        {
          "address": "0x794a61358d6845594f94dc1db02a252b5b4814ad",
          "topics": [
            "0x804c9b842b2748a22bb64b345453a3de7ca54a6ca45ce00d415894979e22897a",
            "0x0000000000000000000000003c499c542cef5e3811e1192ce70d8cc03d5c3359"
          ],
          "data": "0x00000000000000000000000000000000000000000021b9914be6fe5b7b18954100000000000000000000000000000000000000000000000000000000000000000000000000000000000000000000000000000000003cab68b4778de7dbba717f0000000000000000000000000000000000000000038c091bdb2708651ab75145000000000000000000000000000000000000000003a034e6c391a923e8386883",
          "blockHash": "0x5fe84c32da16278c2b014c94702989c0a3ff2c42c84137c5e35408b7fcd657cf",
          "blockNumber": "0x4137187",
          "transactionHash": "0x9a2f769b565094d73b18dc2bf80515460ffeaa5feb29d5dd7c6ecc10359e1cf8",
          "transactionIndex": "0x47",
          "logIndex": "0x165",
          "removed": false
        },
        {
          "address": "0x3c499c542cef5e3811e1192ce70d8cc03d5c3359",
          "topics": [
            "0xddf252ad1be2c89b69c2b068fc378daa952ba7f163c4a11628f55a4df523b3ef",
            "0x00000000000000000000000052f052d2411735287989461721f4b49a13d65888",
            "0x000000000000000000000000a4d94019934d8333ef880abffbf2fdd611c762bd"
          ],
          "data": "0x00000000000000000000000000000000000000000000000000000000000f4240",
          "blockHash": "0x5fe84c32da16278c2b014c94702989c0a3ff2c42c84137c5e35408b7fcd657cf",
          "blockNumber": "0x4137187",
          "transactionHash": "0x9a2f769b565094d73b18dc2bf80515460ffeaa5feb29d5dd7c6ecc10359e1cf8",
          "transactionIndex": "0x47",
          "logIndex": "0x166",
          "removed": false
        },
        {
          "address": "0xa4d94019934d8333ef880abffbf2fdd611c762bd",
          "topics": [
            "0xddf252ad1be2c89b69c2b068fc378daa952ba7f163c4a11628f55a4df523b3ef",
            "0x0000000000000000000000000000000000000000000000000000000000000000",
            "0x00000000000000000000000052f052d2411735287989461721f4b49a13d65888"
          ],
          "data": "0x00000000000000000000000000000000000000000000000000000000000f4243",
          "blockHash": "0x5fe84c32da16278c2b014c94702989c0a3ff2c42c84137c5e35408b7fcd657cf",
          "blockNumber": "0x4137187",
          "transactionHash": "0x9a2f769b565094d73b18dc2bf80515460ffeaa5feb29d5dd7c6ecc10359e1cf8",
          "transactionIndex": "0x47",
          "logIndex": "0x167",
          "removed": false
        },
        {
          "address": "0xa4d94019934d8333ef880abffbf2fdd611c762bd",
          "topics": [
            "0x458f5fa412d0f69b08dd84872b0215675cc67bc1d5b6fd93300a1c3878b86196",
            "0x00000000000000000000000052f052d2411735287989461721f4b49a13d65888",
            "0x00000000000000000000000052f052d2411735287989461721f4b49a13d65888"
          ],
          "data": "0x00000000000000000000000000000000000000000000000000000000000f424300000000000000000000000000000000000000000000000000000000000000030000000000000000000000000000000000000000038c091bdb2708651ab75145",
          "blockHash": "0x5fe84c32da16278c2b014c94702989c0a3ff2c42c84137c5e35408b7fcd657cf",
          "blockNumber": "0x4137187",
          "transactionHash": "0x9a2f769b565094d73b18dc2bf80515460ffeaa5feb29d5dd7c6ecc10359e1cf8",
          "transactionIndex": "0x47",
          "logIndex": "0x168",
          "removed": false
        },
        {
          "address": "0x794a61358d6845594f94dc1db02a252b5b4814ad",
          "topics": [
            "0x2b627736bca15cd5381dcf80b0bf11fd197d01a037c52b927a881a10fb73ba61",
            "0x0000000000000000000000003c499c542cef5e3811e1192ce70d8cc03d5c3359",
            "0x00000000000000000000000052f052d2411735287989461721f4b49a13d65888",
            "0x0000000000000000000000000000000000000000000000000000000000000000"
          ],
          "data": "0x00000000000000000000000052f052d2411735287989461721f4b49a13d6588800000000000000000000000000000000000000000000000000000000000f4240",
          "blockHash": "0x5fe84c32da16278c2b014c94702989c0a3ff2c42c84137c5e35408b7fcd657cf",
          "blockNumber": "0x4137187",
          "transactionHash": "0x9a2f769b565094d73b18dc2bf80515460ffeaa5feb29d5dd7c6ecc10359e1cf8",
          "transactionIndex": "0x47",
          "logIndex": "0x169",
          "removed": false
        },
        {
          "address": "0x794a61358d6845594f94dc1db02a252b5b4814ad",
          "topics": [
            "0x804c9b842b2748a22bb64b345453a3de7ca54a6ca45ce00d415894979e22897a",
            "0x000000000000000000000000c2132d05d31c914a87c6611c10748aeb04b58e8f"
          ],
          "data": "0x0000000000000000000000000000000000000000001e6838ae734494bd1aea3e00000000000000000000000000000000000000000000000000000000000000000000000000000000000000000000000000000000003b7f52ff720d31205a45ec000000000000000000000000000000000000000003c3f678bfa6652abbe7f28e000000000000000000000000000000000000000003f1c81b00a340064dc8304a",
          "blockHash": "0x5fe84c32da16278c2b014c94702989c0a3ff2c42c84137c5e35408b7fcd657cf",
          "blockNumber": "0x4137187",
          "transactionHash": "0x9a2f769b565094d73b18dc2bf80515460ffeaa5feb29d5dd7c6ecc10359e1cf8",
          "transactionIndex": "0x47",
          "logIndex": "0x16a",
          "removed": false
        },
        {
          "address": "0xc2132d05d31c914a87c6611c10748aeb04b58e8f",
          "topics": [
            "0xddf252ad1be2c89b69c2b068fc378daa952ba7f163c4a11628f55a4df523b3ef",
            "0x00000000000000000000000052f052d2411735287989461721f4b49a13d65888",
            "0x0000000000000000000000006ab707aca953edaefbc4fd23ba73294241490620"
          ],
          "data": "0x00000000000000000000000000000000000000000000000000000000000f4240",
          "blockHash": "0x5fe84c32da16278c2b014c94702989c0a3ff2c42c84137c5e35408b7fcd657cf",
          "blockNumber": "0x4137187",
          "transactionHash": "0x9a2f769b565094d73b18dc2bf80515460ffeaa5feb29d5dd7c6ecc10359e1cf8",
          "transactionIndex": "0x47",
          "logIndex": "0x16b",
          "removed": false
        },
        {
          "address": "0xc2132d05d31c914a87c6611c10748aeb04b58e8f",
          "topics": [
            "0x8c5be1e5ebec7d5bd14f71427d1e84f3dd0314c0f7b2291e5b200ac8c7c3b925",
            "0x00000000000000000000000052f052d2411735287989461721f4b49a13d65888",
            "0x000000000000000000000000794a61358d6845594f94dc1db02a252b5b4814ad"
          ],
          "data": "0xfffffffffffffffffffffffffffffffffffffffffffffffffffffffffe89a4b3",
          "blockHash": "0x5fe84c32da16278c2b014c94702989c0a3ff2c42c84137c5e35408b7fcd657cf",
          "blockNumber": "0x4137187",
          "transactionHash": "0x9a2f769b565094d73b18dc2bf80515460ffeaa5feb29d5dd7c6ecc10359e1cf8",
          "transactionIndex": "0x47",
          "logIndex": "0x16c",
          "removed": false
        },
        {
          "address": "0x6ab707aca953edaefbc4fd23ba73294241490620",
          "topics": [
            "0xddf252ad1be2c89b69c2b068fc378daa952ba7f163c4a11628f55a4df523b3ef",
            "0x0000000000000000000000000000000000000000000000000000000000000000",
            "0x00000000000000000000000052f052d2411735287989461721f4b49a13d65888"
          ],
          "data": "0x00000000000000000000000000000000000000000000000000000000000f4244",
          "blockHash": "0x5fe84c32da16278c2b014c94702989c0a3ff2c42c84137c5e35408b7fcd657cf",
          "blockNumber": "0x4137187",
          "transactionHash": "0x9a2f769b565094d73b18dc2bf80515460ffeaa5feb29d5dd7c6ecc10359e1cf8",
          "transactionIndex": "0x47",
          "logIndex": "0x16d",
          "removed": false
        },
        {
          "address": "0x6ab707aca953edaefbc4fd23ba73294241490620",
          "topics": [
            "0x458f5fa412d0f69b08dd84872b0215675cc67bc1d5b6fd93300a1c3878b86196",
            "0x00000000000000000000000052f052d2411735287989461721f4b49a13d65888",
            "0x00000000000000000000000052f052d2411735287989461721f4b49a13d65888"
          ],
          "data": "0x00000000000000000000000000000000000000000000000000000000000f42440000000000000000000000000000000000000000000000000000000000000004000000000000000000000000000000000000000003c3f678bfa6652abbe7f28e",
          "blockHash": "0x5fe84c32da16278c2b014c94702989c0a3ff2c42c84137c5e35408b7fcd657cf",
          "blockNumber": "0x4137187",
          "transactionHash": "0x9a2f769b565094d73b18dc2bf80515460ffeaa5feb29d5dd7c6ecc10359e1cf8",
          "transactionIndex": "0x47",
          "logIndex": "0x16e",
          "removed": false
        },
        {
          "address": "0x794a61358d6845594f94dc1db02a252b5b4814ad",
          "topics": [
            "0x2b627736bca15cd5381dcf80b0bf11fd197d01a037c52b927a881a10fb73ba61",
            "0x000000000000000000000000c2132d05d31c914a87c6611c10748aeb04b58e8f",
            "0x00000000000000000000000052f052d2411735287989461721f4b49a13d65888",
            "0x0000000000000000000000000000000000000000000000000000000000000000"
          ],
          "data": "0x00000000000000000000000052f052d2411735287989461721f4b49a13d6588800000000000000000000000000000000000000000000000000000000000f4240",
          "blockHash": "0x5fe84c32da16278c2b014c94702989c0a3ff2c42c84137c5e35408b7fcd657cf",
          "blockNumber": "0x4137187",
          "transactionHash": "0x9a2f769b565094d73b18dc2bf80515460ffeaa5feb29d5dd7c6ecc10359e1cf8",
          "transactionIndex": "0x47",
          "logIndex": "0x16f",
          "removed": false
        },
        {
          "address": "0x0000000000000000000000000000000000001010",
          "topics": [
            "0x4dfe1bbbcf077ddc3e01291eea2d5c70c2b422b415d95645b9adcfd678cb1d63",
            "0x0000000000000000000000000000000000000000000000000000000000001010",
            "0x000000000000000000000000aebdfcf4a528de8b480a7b69ecaf17addb8b9959",
            "0x000000000000000000000000ca4793c93a94e7a70a4631b1cece6546e76eb19e"
          ],
          "data": "0x0000000000000000000000000000000000000000000000000024f6b3fc3405e6000000000000000000000000000000000000000000000000422fc0e9ad7b8685000000000000000000000000000000000000000000000e8f6b33b5247a2d59a7000000000000000000000000000000000000000000000000420aca35b147809f000000000000000000000000000000000000000000000e8f6b58abd876615f8d",
          "blockHash": "0x5fe84c32da16278c2b014c94702989c0a3ff2c42c84137c5e35408b7fcd657cf",
          "blockNumber": "0x4137187",
          "transactionHash": "0x9a2f769b565094d73b18dc2bf80515460ffeaa5feb29d5dd7c6ecc10359e1cf8",
          "transactionIndex": "0x47",
          "logIndex": "0x170",
          "removed": false
        }
      ],
      "logsBloom": "0x00080008202000000000000000000000010000000000000000000000000000000000000000000000000000000004000100008000200004000000000000200000000010000040000000000008002000800000040000000000c00100040000000010000000420000000000100000000800000000000000000080000010000000000000000000080001000002800000000000024800000800000010000000000000220000000000000010000000000000000800000000000100000000000000014002000002000000000011002058000080400000000000000000104000000020000010000000000000000000000000010040000000100020000000400000100000",
      "type": "0x2",
      "transactionHash": "0x9a2f769b565094d73b18dc2bf80515460ffeaa5feb29d5dd7c6ecc10359e1cf8",
      "transactionIndex": "0x47",
      "blockHash": "0x5fe84c32da16278c2b014c94702989c0a3ff2c42c84137c5e35408b7fcd657cf",
      "blockNumber": "0x4137187",
      "gasUsed": "0x59209",
      "effectiveGasPrice": "0x6a2bb8185",
      "from": "0xaebdfcf4a528de8b480a7b69ecaf17addb8b9959",
      "to": "0x52f052d2411735287989461721f4b49a13d65888",
      "contractAddress": null
    }
  ],
  "libraries": [],
  "pending": [],
  "returns": {},
  "timestamp": 1740547353,
  "chain": 137,
  "commit": "4328487"
}