{
  "transactions": [
    {
      "hash": "0x913a0365ba2ffdc32f937afb5d71ff8f6d71f1f194547dd85a879c9cb30f1083",
      "transactionType": "CALL",
      "contractName": null,
      "contractAddress": "0x3c499c542cef5e3811e1192ce70d8cc03d5c3359",
      "function": "approve(address,uint256)",
      "arguments": [
        "0x52f052d2411735287989461721f4B49A13d65888",
        "1000000"
      ],
      "transaction": {
        "from": "0xaebdfcf4a528de8b480a7b69ecaf17addb8b9959",
        "to": "0x3c499c542cef5e3811e1192ce70d8cc03d5c3359",
        "gas": "0x12b1b",
        "value": "0x0",
        "input": "0x095ea7b300000000000000000000000052f052d2411735287989461721f4b49a13d6588800000000000000000000000000000000000000000000000000000000000f4240",
        "nonce": "0xc",
        "chainId": "0x89"
      },
      "additionalContracts": [],
      "isFixedGasLimit": false
    },
    {
      "hash": "0xd3eecc04d37ceb330b1b8704cb60cb661bf4b06e62b46b514bd388ced93a795a",
      "transactionType": "CALL",
      "contractName": null,
      "contractAddress": "0xc2132d05d31c914a87c6611c10748aeb04b58e8f",
      "function": "approve(address,uint256)",
      "arguments": [
        "0x52f052d2411735287989461721f4B49A13d65888",
        "1000000"
      ],
      "transaction": {
        "from": "0xaebdfcf4a528de8b480a7b69ecaf17addb8b9959",
        "to": "0xc2132d05d31c914a87c6611c10748aeb04b58e8f",
        "gas": "0x11712",
        "value": "0x0",
        "input": "0x095ea7b300000000000000000000000052f052d2411735287989461721f4b49a13d6588800000000000000000000000000000000000000000000000000000000000f4240",
        "nonce": "0xd",
        "chainId": "0x89"
      },
      "additionalContracts": [],
      "isFixedGasLimit": false
    },
    {
      "hash": "0xa9f3e0e46b5ade9b0e0474d872504d9e01c88c5bf50357e84a015d412def331f",
      "transactionType": "CALL",
      "contractName": null,
      "contractAddress": "0x52f052d2411735287989461721f4b49a13d65888",
      "function": "deposit(uint256,uint256)",
      "arguments": [
        "1000000",
        "1000000"
      ],
      "transaction": {
        "from": "0xaebdfcf4a528de8b480a7b69ecaf17addb8b9959",
        "to": "0x52f052d2411735287989461721f4b49a13d65888",
        "gas": "0x7b1b1",
        "value": "0x0",
        "input": "0xe2bbb15800000000000000000000000000000000000000000000000000000000000f424000000000000000000000000000000000000000000000000000000000000f4240",
        "nonce": "0xe",
        "chainId": "0x89"
      },
      "additionalContracts": [],
      "isFixedGasLimit": false
    }
  ],
  "receipts": [
    {
      "status": "0x1",
      "cumulativeGasUsed": "0x991239",
      "logs": [
        {
          "address": "0x3c499c542cef5e3811e1192ce70d8cc03d5c3359",
          "topics": [
            "0x8c5be1e5ebec7d5bd14f71427d1e84f3dd0314c0f7b2291e5b200ac8c7c3b925",
            "0x000000000000000000000000aebdfcf4a528de8b480a7b69ecaf17addb8b9959",
            "0x00000000000000000000000052f052d2411735287989461721f4b49a13d65888"
          ],
          "data": "0x00000000000000000000000000000000000000000000000000000000000f4240",
          "blockHash": "0xd42e1dcab423fc4f024b60fc865ca3c079b4f57d9df76bb4d83e23e0ef129182",
          "blockNumber": "0x4136ca6",
          "transactionHash": "0x913a0365ba2ffdc32f937afb5d71ff8f6d71f1f194547dd85a879c9cb30f1083",
          "transactionIndex": "0x3a",
          "logIndex": "0x113",
          "removed": false
        },
        {
          "address": "0x0000000000000000000000000000000000001010",
          "topics": [
            "0x4dfe1bbbcf077ddc3e01291eea2d5c70c2b422b415d95645b9adcfd678cb1d63",
            "0x0000000000000000000000000000000000000000000000000000000000001010",
            "0x000000000000000000000000aebdfcf4a528de8b480a7b69ecaf17addb8b9959",
            "0x00000000000000000000000069f5c4d08f6bc8cd29fe5f004d46fb566270868d"
          ],
          "data": "0x0000000000000000000000000000000000000000000000000005e894ed1cf54a0000000000000000000000000000000000000000000000004481ef4e881c2df50000000000000000000000000000000000000000000000161fb329ff933f1888000000000000000000000000000000000000000000000000447c06b99aff38ab0000000000000000000000000000000000000000000000161fb91294805c0dd2",
          "blockHash": "0xd42e1dcab423fc4f024b60fc865ca3c079b4f57d9df76bb4d83e23e0ef129182",
          "blockNumber": "0x4136ca6",
          "transactionHash": "0x913a0365ba2ffdc32f937afb5d71ff8f6d71f1f194547dd85a879c9cb30f1083",
          "transactionIndex": "0x3a",
          "logIndex": "0x114",
          "removed": false
        }
      ],
      "logsBloom": "0x00000000000000000000000002000000000000000000000000000000000000000000000000000000200000000000000000008000000000000000000000200000000000000000000000000000000040800000000000000000000100000000000000000000000000000000000000000000000000000000000080000000000000000000000000000000000000000000000000000000000800000010000000000000220000000000000000000000000000000800000000000000000000000000004000000000000000000011000010000080000000000000000000100000000000000010000000000000000000000000010000000000100020000000000000100000",
      "type": "0x2",
      "transactionHash": "0x913a0365ba2ffdc32f937afb5d71ff8f6d71f1f194547dd85a879c9cb30f1083",
      "transactionIndex": "0x3a",
      "blockHash": "0xd42e1dcab423fc4f024b60fc865ca3c079b4f57d9df76bb4d83e23e0ef129182",
      "blockNumber": "0x4136ca6",
      "gasUsed": "0xd88d",
      "effectiveGasPrice": "0x6fc25a76d",
      "from": "0xaebdfcf4a528de8b480a7b69ecaf17addb8b9959",
      "to": "0x3c499c542cef5e3811e1192ce70d8cc03d5c3359",
      "contractAddress": null
    },
    {
      "status": "0x1",
      "cumulativeGasUsed": "0x99dc45",
      "logs": [
        {
          "address": "0xc2132d05d31c914a87c6611c10748aeb04b58e8f",
          "topics": [
            "0x8c5be1e5ebec7d5bd14f71427d1e84f3dd0314c0f7b2291e5b200ac8c7c3b925",
            "0x000000000000000000000000aebdfcf4a528de8b480a7b69ecaf17addb8b9959",
            "0x00000000000000000000000052f052d2411735287989461721f4b49a13d65888"
          ],
          "data": "0x00000000000000000000000000000000000000000000000000000000000f4240",
          "blockHash": "0xd42e1dcab423fc4f024b60fc865ca3c079b4f57d9df76bb4d83e23e0ef129182",
          "blockNumber": "0x4136ca6",
          "transactionHash": "0xd3eecc04d37ceb330b1b8704cb60cb661bf4b06e62b46b514bd388ced93a795a",
          "transactionIndex": "0x3b",
          "logIndex": "0x115",
          "removed": false
        },
        {
          "address": "0x0000000000000000000000000000000000001010",
          "topics": [
            "0x4dfe1bbbcf077ddc3e01291eea2d5c70c2b422b415d95645b9adcfd678cb1d63",
            "0x0000000000000000000000000000000000000000000000000000000000001010",
            "0x000000000000000000000000aebdfcf4a528de8b480a7b69ecaf17addb8b9959",
            "0x00000000000000000000000069f5c4d08f6bc8cd29fe5f004d46fb566270868d"
          ],
          "data": "0x000000000000000000000000000000000000000000000000000583460ecdff58000000000000000000000000000000000000000000000000447c06b5e21afeec0000000000000000000000000000000000000000000000161fb91294805c0dd20000000000000000000000000000000000000000000000004476836fd34cff940000000000000000000000000000000000000000000000161fbe95da8f2a0d2a",
          "blockHash": "0xd42e1dcab423fc4f024b60fc865ca3c079b4f57d9df76bb4d83e23e0ef129182",
          "blockNumber": "0x4136ca6",
          "transactionHash": "0xd3eecc04d37ceb330b1b8704cb60cb661bf4b06e62b46b514bd388ced93a795a",
          "transactionIndex": "0x3b",
          "logIndex": "0x116",
          "removed": false
        }
      ],
      "logsBloom": "0x00000000000000000000000002000000000000000000000000000000000000000000000000000000200000000000000100008000000000000000000000200000000000000000000000000000000040800000000000000000000100000000000000000000000000000000000000000000000000000000000080000000000000000000000000080000000000000000000000000000000800000010000000000000220000000000000000000000000000000000000000000000000000000000004000000000000000000011000010000080400000000000000000100000000000000010000000000000000000000000000000000000000020000000000000100000",
      "type": "0x2",
      "transactionHash": "0xd3eecc04d37ceb330b1b8704cb60cb661bf4b06e62b46b514bd388ced93a795a",
      "transactionIndex": "0x3b",
      "blockHash": "0xd42e1dcab423fc4f024b60fc865ca3c079b4f57d9df76bb4d83e23e0ef129182",
      "blockNumber": "0x4136ca6",
      "gasUsed": "0xca0c",
      "effectiveGasPrice": "0x6fc25a76d",
      "from": "0xaebdfcf4a528de8b480a7b69ecaf17addb8b9959",
      "to": "0xc2132d05d31c914a87c6611c10748aeb04b58e8f",
      "contractAddress": null
    },
    {
      "status": "0x1",
      "cumulativeGasUsed": "0x9f6e4b",
      "logs": [
        {
          "address": "0x3c499c542cef5e3811e1192ce70d8cc03d5c3359",
          "topics": [
            "0xddf252ad1be2c89b69c2b068fc378daa952ba7f163c4a11628f55a4df523b3ef",
            "0x000000000000000000000000aebdfcf4a528de8b480a7b69ecaf17addb8b9959",
            "0x00000000000000000000000052f052d2411735287989461721f4b49a13d65888"
          ],
          "data": "0x00000000000000000000000000000000000000000000000000000000000f4240",
          "blockHash": "0xd42e1dcab423fc4f024b60fc865ca3c079b4f57d9df76bb4d83e23e0ef129182",
          "blockNumber": "0x4136ca6",
          "transactionHash": "0xa9f3e0e46b5ade9b0e0474d872504d9e01c88c5bf50357e84a015d412def331f",
          "transactionIndex": "0x3c",
          "logIndex": "0x117",
          "removed": false
        },
        {
          "address": "0xc2132d05d31c914a87c6611c10748aeb04b58e8f",
          "topics": [
            "0xddf252ad1be2c89b69c2b068fc378daa952ba7f163c4a11628f55a4df523b3ef",
            "0x000000000000000000000000aebdfcf4a528de8b480a7b69ecaf17addb8b9959",
            "0x00000000000000000000000052f052d2411735287989461721f4b49a13d65888"
          ],
          "data": "0x00000000000000000000000000000000000000000000000000000000000f4240",
          "blockHash": "0xd42e1dcab423fc4f024b60fc865ca3c079b4f57d9df76bb4d83e23e0ef129182",
          "blockNumber": "0x4136ca6",
          "transactionHash": "0xa9f3e0e46b5ade9b0e0474d872504d9e01c88c5bf50357e84a015d412def331f",
          "transactionIndex": "0x3c",
          "logIndex": "0x118",
          "removed": false
        },
        {
          "address": "0xc2132d05d31c914a87c6611c10748aeb04b58e8f",
          "topics": [
            "0x8c5be1e5ebec7d5bd14f71427d1e84f3dd0314c0f7b2291e5b200ac8c7c3b925",
            "0x000000000000000000000000aebdfcf4a528de8b480a7b69ecaf17addb8b9959",
            "0x00000000000000000000000052f052d2411735287989461721f4b49a13d65888"
          ],
          "data": "0x0000000000000000000000000000000000000000000000000000000000000000",
          "blockHash": "0xd42e1dcab423fc4f024b60fc865ca3c079b4f57d9df76bb4d83e23e0ef129182",
          "blockNumber": "0x4136ca6",
          "transactionHash": "0xa9f3e0e46b5ade9b0e0474d872504d9e01c88c5bf50357e84a015d412def331f",
          "transactionIndex": "0x3c",
          "logIndex": "0x119",
          "removed": false
        },
        {
          "address": "0x794a61358d6845594f94dc1db02a252b5b4814ad",
          "topics": [
            "0x804c9b842b2748a22bb64b345453a3de7ca54a6ca45ce00d415894979e22897a",
            "0x0000000000000000000000003c499c542cef5e3811e1192ce70d8cc03d5c3359"
          ],
          "data": "0x00000000000000000000000000000000000000000021c06a4a00f09b645fe5b300000000000000000000000000000000000000000000000000000000000000000000000000000000000000000000000000000000003cb1912bb786cb787b65130000000000000000000000000000000000000000038c084f241317791833436d000000000000000000000000000000000000000003a0336e715860285419bfc3",
          "blockHash": "0xd42e1dcab423fc4f024b60fc865ca3c079b4f57d9df76bb4d83e23e0ef129182",
          "blockNumber": "0x4136ca6",
          "transactionHash": "0xa9f3e0e46b5ade9b0e0474d872504d9e01c88c5bf50357e84a015d412def331f",
          "transactionIndex": "0x3c",
          "logIndex": "0x11a",
          "removed": false
        },
        {
          "address": "0x3c499c542cef5e3811e1192ce70d8cc03d5c3359",
          "topics": [
            "0xddf252ad1be2c89b69c2b068fc378daa952ba7f163c4a11628f55a4df523b3ef",
            "0x00000000000000000000000052f052d2411735287989461721f4b49a13d65888",
            "0x000000000000000000000000a4d94019934d8333ef880abffbf2fdd611c762bd"
          ],
          "data": "0x00000000000000000000000000000000000000000000000000000000000f4240",
          "blockHash": "0xd42e1dcab423fc4f024b60fc865ca3c079b4f57d9df76bb4d83e23e0ef129182",
          "blockNumber": "0x4136ca6",
          "transactionHash": "0xa9f3e0e46b5ade9b0e0474d872504d9e01c88c5bf50357e84a015d412def331f",
          "transactionIndex": "0x3c",
          "logIndex": "0x11b",
          "removed": false
        },
        {
          "address": "0xa4d94019934d8333ef880abffbf2fdd611c762bd",
          "topics": [
            "0xddf252ad1be2c89b69c2b068fc378daa952ba7f163c4a11628f55a4df523b3ef",
            "0x0000000000000000000000000000000000000000000000000000000000000000",
            "0x00000000000000000000000052f052d2411735287989461721f4b49a13d65888"
          ],
          "data": "0x00000000000000000000000000000000000000000000000000000000000f4260",
          "blockHash": "0xd42e1dcab423fc4f024b60fc865ca3c079b4f57d9df76bb4d83e23e0ef129182",
          "blockNumber": "0x4136ca6",
          "transactionHash": "0xa9f3e0e46b5ade9b0e0474d872504d9e01c88c5bf50357e84a015d412def331f",
          "transactionIndex": "0x3c",
          "logIndex": "0x11c",
          "removed": false
        },
        {
          "address": "0xa4d94019934d8333ef880abffbf2fdd611c762bd",
          "topics": [
            "0x458f5fa412d0f69b08dd84872b0215675cc67bc1d5b6fd93300a1c3878b86196",
            "0x00000000000000000000000052f052d2411735287989461721f4b49a13d65888",
            "0x00000000000000000000000052f052d2411735287989461721f4b49a13d65888"
          ],
          "data": "0x00000000000000000000000000000000000000000000000000000000000f426000000000000000000000000000000000000000000000000000000000000000200000000000000000000000000000000000000000038c084f241317791833436d",
          "blockHash": "0xd42e1dcab423fc4f024b60fc865ca3c079b4f57d9df76bb4d83e23e0ef129182",
          "blockNumber": "0x4136ca6",
          "transactionHash": "0xa9f3e0e46b5ade9b0e0474d872504d9e01c88c5bf50357e84a015d412def331f",
          "transactionIndex": "0x3c",
          "logIndex": "0x11d",
          "removed": false
        },
        {
          "address": "0x794a61358d6845594f94dc1db02a252b5b4814ad",
          "topics": [
            "0x2b627736bca15cd5381dcf80b0bf11fd197d01a037c52b927a881a10fb73ba61",
            "0x0000000000000000000000003c499c542cef5e3811e1192ce70d8cc03d5c3359",
            "0x00000000000000000000000052f052d2411735287989461721f4b49a13d65888",
            "0x0000000000000000000000000000000000000000000000000000000000000000"
          ],
          "data": "0x00000000000000000000000052f052d2411735287989461721f4b49a13d6588800000000000000000000000000000000000000000000000000000000000f4240",
          "blockHash": "0xd42e1dcab423fc4f024b60fc865ca3c079b4f57d9df76bb4d83e23e0ef129182",
          "blockNumber": "0x4136ca6",
          "transactionHash": "0xa9f3e0e46b5ade9b0e0474d872504d9e01c88c5bf50357e84a015d412def331f",
          "transactionIndex": "0x3c",
          "logIndex": "0x11e",
          "removed": false
        },
        {
          "address": "0x794a61358d6845594f94dc1db02a252b5b4814ad",
          "topics": [
            "0x804c9b842b2748a22bb64b345453a3de7ca54a6ca45ce00d415894979e22897a",
            "0x000000000000000000000000c2132d05d31c914a87c6611c10748aeb04b58e8f"
          ],
          "data": "0x0000000000000000000000000000000000000000001e61239f26447ed6f40d5d00000000000000000000000000000000000000000000000000000000000000000000000000000000000000000000000000000000003b7864cb5b7e0a76dd4ef6000000000000000000000000000000000000000003c3f587cb77bf5b8ab28a10000000000000000000000000000000000000000003f1c689534cf86540992bad",
          "blockHash": "0xd42e1dcab423fc4f024b60fc865ca3c079b4f57d9df76bb4d83e23e0ef129182",
          "blockNumber": "0x4136ca6",
          "transactionHash": "0xa9f3e0e46b5ade9b0e0474d872504d9e01c88c5bf50357e84a015d412def331f",
          "transactionIndex": "0x3c",
          "logIndex": "0x11f",
          "removed": false
        },
        {
          "address": "0xc2132d05d31c914a87c6611c10748aeb04b58e8f",
          "topics": [
            "0xddf252ad1be2c89b69c2b068fc378daa952ba7f163c4a11628f55a4df523b3ef",
            "0x00000000000000000000000052f052d2411735287989461721f4b49a13d65888",
            "0x0000000000000000000000006ab707aca953edaefbc4fd23ba73294241490620"
          ],
          "data": "0x00000000000000000000000000000000000000000000000000000000000f4240",
          "blockHash": "0xd42e1dcab423fc4f024b60fc865ca3c079b4f57d9df76bb4d83e23e0ef129182",
          "blockNumber": "0x4136ca6",
          "transactionHash": "0xa9f3e0e46b5ade9b0e0474d872504d9e01c88c5bf50357e84a015d412def331f",
          "transactionIndex": "0x3c",
          "logIndex": "0x120",
          "removed": false
        },
        {
          "address": "0xc2132d05d31c914a87c6611c10748aeb04b58e8f",
          "topics": [
            "0x8c5be1e5ebec7d5bd14f71427d1e84f3dd0314c0f7b2291e5b200ac8c7c3b925",
            "0x00000000000000000000000052f052d2411735287989461721f4b49a13d65888",
            "0x000000000000000000000000794a61358d6845594f94dc1db02a252b5b4814ad"
          ],
          "data": "0xfffffffffffffffffffffffffffffffffffffffffffffffffffffffffe98e6f3",
          "blockHash": "0xd42e1dcab423fc4f024b60fc865ca3c079b4f57d9df76bb4d83e23e0ef129182",
          "blockNumber": "0x4136ca6",
          "transactionHash": "0xa9f3e0e46b5ade9b0e0474d872504d9e01c88c5bf50357e84a015d412def331f",
          "transactionIndex": "0x3c",
          "logIndex": "0x121",
          "removed": false
        },
        {
          "address": "0x6ab707aca953edaefbc4fd23ba73294241490620",
          "topics": [
            "0xddf252ad1be2c89b69c2b068fc378daa952ba7f163c4a11628f55a4df523b3ef",
            "0x0000000000000000000000000000000000000000000000000000000000000000",
            "0x00000000000000000000000052f052d2411735287989461721f4b49a13d65888"
          ],
          "data": "0x00000000000000000000000000000000000000000000000000000000000f43eb",
          "blockHash": "0xd42e1dcab423fc4f024b60fc865ca3c079b4f57d9df76bb4d83e23e0ef129182",
          "blockNumber": "0x4136ca6",
          "transactionHash": "0xa9f3e0e46b5ade9b0e0474d872504d9e01c88c5bf50357e84a015d412def331f",
          "transactionIndex": "0x3c",
          "logIndex": "0x122",
          "removed": false
        },
        {
          "address": "0x6ab707aca953edaefbc4fd23ba73294241490620",
          "topics": [
            "0x458f5fa412d0f69b08dd84872b0215675cc67bc1d5b6fd93300a1c3878b86196",
            "0x00000000000000000000000052f052d2411735287989461721f4b49a13d65888",
            "0x00000000000000000000000052f052d2411735287989461721f4b49a13d65888"
          ],
          "data": "0x00000000000000000000000000000000000000000000000000000000000f43eb00000000000000000000000000000000000000000000000000000000000001ab000000000000000000000000000000000000000003c3f587cb77bf5b8ab28a10",
          "blockHash": "0xd42e1dcab423fc4f024b60fc865ca3c079b4f57d9df76bb4d83e23e0ef129182",
          "blockNumber": "0x4136ca6",
          "transactionHash": "0xa9f3e0e46b5ade9b0e0474d872504d9e01c88c5bf50357e84a015d412def331f",
          "transactionIndex": "0x3c",
          "logIndex": "0x123",
          "removed": false
        },
        {
          "address": "0x794a61358d6845594f94dc1db02a252b5b4814ad",
          "topics": [
            "0x2b627736bca15cd5381dcf80b0bf11fd197d01a037c52b927a881a10fb73ba61",
            "0x000000000000000000000000c2132d05d31c914a87c6611c10748aeb04b58e8f",
            "0x00000000000000000000000052f052d2411735287989461721f4b49a13d65888",
            "0x0000000000000000000000000000000000000000000000000000000000000000"
          ],
          "data": "0x00000000000000000000000052f052d2411735287989461721f4b49a13d6588800000000000000000000000000000000000000000000000000000000000f4240",
          "blockHash": "0xd42e1dcab423fc4f024b60fc865ca3c079b4f57d9df76bb4d83e23e0ef129182",
          "blockNumber": "0x4136ca6",
          "transactionHash": "0xa9f3e0e46b5ade9b0e0474d872504d9e01c88c5bf50357e84a015d412def331f",
          "transactionIndex": "0x3c",
          "logIndex": "0x124",
          "removed": false
        },
        {
          "address": "0x0000000000000000000000000000000000001010",
          "topics": [
            "0x4dfe1bbbcf077ddc3e01291eea2d5c70c2b422b415d95645b9adcfd678cb1d63",
            "0x0000000000000000000000000000000000000000000000000000000000001010",
            "0x000000000000000000000000aebdfcf4a528de8b480a7b69ecaf17addb8b9959",
            "0x00000000000000000000000069f5c4d08f6bc8cd29fe5f004d46fb566270868d"
          ],
          "data": "0x0000000000000000000000000000000000000000000000000026e89b248b89ac0000000000000000000000000000000000000000000000004476836c5a3b23d00000000000000000000000000000000000000000000000161fbe95da8f2a0d2a000000000000000000000000000000000000000000000000444f9ad135af9a240000000000000000000000000000000000000000000000161fe57e75b3b596d6",
          "blockHash": "0xd42e1dcab423fc4f024b60fc865ca3c079b4f57d9df76bb4d83e23e0ef129182",
          "blockNumber": "0x4136ca6",
          "transactionHash": "0xa9f3e0e46b5ade9b0e0474d872504d9e01c88c5bf50357e84a015d412def331f",
          "transactionIndex": "0x3c",
          "logIndex": "0x125",
          "removed": false
        }
      ],
      "logsBloom": "0x00080008002000000000000002000000010000000000000000000000000000000000000000000000200000000004000100008000200004000000000000200000000000000040000000000008002040800000040000000000800100040000000010000000420000000000100000000800000000000000000080000010000000000000000000080001000002800000000000024800000800000010000000000000220000000000000010000000000000000800000000000100000000000000014002000002000000000011002058000080400000000000000000104000000020000010000000000000000000000000010040000000100020000000400000100000",
      "type": "0x2",
      "transactionHash": "0xa9f3e0e46b5ade9b0e0474d872504d9e01c88c5bf50357e84a015d412def331f",
      "transactionIndex": "0x3c",
      "blockHash": "0xd42e1dcab423fc4f024b60fc865ca3c079b4f57d9df76bb4d83e23e0ef129182",
      "blockNumber": "0x4136ca6",
      "gasUsed": "0x59206",
      "effectiveGasPrice": "0x6fc25a76d",
      "from": "0xaebdfcf4a528de8b480a7b69ecaf17addb8b9959",
      "to": "0x52f052d2411735287989461721f4b49a13d65888",
      "contractAddress": null
    }
  ],
  "libraries": [],
  "pending": [],
  "returns": {},
  "timestamp": 1740544692,
  "chain": 137,
  "commit": "4328487"
}