{
  "transactions": [
    {
      "hash": "0x181f6cb339f7890b97087514c96c4849bded972ab0cd2e4ad340105cd170121a",
      "transactionType": "CALL",
      "contractName": null,
      "contractAddress": "0x3c499c542cef5e3811e1192ce70d8cc03d5c3359",
      "function": "approve(address,uint256)",
      "arguments": [
        "0x52f052d2411735287989461721f4B49A13d65888",
        "1000000"
      ],
      "transaction": {
        "from": "0xaebdfcf4a528de8b480a7b69ecaf17addb8b9959",
        "to": "0x3c499c542cef5e3811e1192ce70d8cc03d5c3359",
        "gas": "0x12b1b",
        "value": "0x0",
        "input": "0x095ea7b300000000000000000000000052f052d2411735287989461721f4b49a13d6588800000000000000000000000000000000000000000000000000000000000f4240",
        "nonce": "0x0",
        "chainId": "0x89"
      },
      "additionalContracts": [],
      "isFixedGasLimit": false
    },
    {
      "hash": "0x5e8d819d5b810de6295a2482531c9fb0d0d4e41dbd251e303ce651b8bbeb97f2",
      "transactionType": "CALL",
      "contractName": null,
      "contractAddress": "0xc2132d05d31c914a87c6611c10748aeb04b58e8f",
      "function": "approve(address,uint256)",
      "arguments": [
        "0x52f052d2411735287989461721f4B49A13d65888",
        "1000000"
      ],
      "transaction": {
        "from": "0xaebdfcf4a528de8b480a7b69ecaf17addb8b9959",
        "to": "0xc2132d05d31c914a87c6611c10748aeb04b58e8f",
        "gas": "0x11712",
        "value": "0x0",
        "input": "0x095ea7b300000000000000000000000052f052d2411735287989461721f4b49a13d6588800000000000000000000000000000000000000000000000000000000000f4240",
        "nonce": "0x1",
        "chainId": "0x89"
      },
      "additionalContracts": [],
      "isFixedGasLimit": false
    },
    {
      "hash": "0x599ac74c1c94367bb3eb3ea0b73c69660d9e5abac87e5a982546bbc5a87394b6",
      "transactionType": "CALL",
      "contractName": null,
      "contractAddress": "0x52f052d2411735287989461721f4b49a13d65888",
      "function": "deposit(uint256,uint256)",
      "arguments": [
        "1000000",
        "1000000"
      ],
      "transaction": {
        "from": "0xaebdfcf4a528de8b480a7b69ecaf17addb8b9959",
        "to": "0x52f052d2411735287989461721f4b49a13d65888",
        "gas": "0x86a37",
        "value": "0x0",
        "input": "0xe2bbb15800000000000000000000000000000000000000000000000000000000000f424000000000000000000000000000000000000000000000000000000000000f4240",
        "nonce": "0x2",
        "chainId": "0x89"
      },
      "additionalContracts": [],
      "isFixedGasLimit": false
    }
  ],
  "receipts": [
    {
      "status": "0x1",
      "cumulativeGasUsed": "0x61e271",
      "logs": [
        {
          "address": "0x3c499c542cef5e3811e1192ce70d8cc03d5c3359",
          "topics": [
            "0x8c5be1e5ebec7d5bd14f71427d1e84f3dd0314c0f7b2291e5b200ac8c7c3b925",
            "0x000000000000000000000000aebdfcf4a528de8b480a7b69ecaf17addb8b9959",
            "0x00000000000000000000000052f052d2411735287989461721f4b49a13d65888"
          ],
          "data": "0x00000000000000000000000000000000000000000000000000000000000f4240",
          "blockHash": "0xa3f75f54c69eca4448eab2e2a669952ff738286509cad20f9d66e7e39bd4daec",
          "blockNumber": "0x41340bd",
          "transactionHash": "0x181f6cb339f7890b97087514c96c4849bded972ab0cd2e4ad340105cd170121a",
          "transactionIndex": "0x31",
          "logIndex": "0x9d",
          "removed": false
        },
        {
          "address": "0x0000000000000000000000000000000000001010",
          "topics": [
            "0x4dfe1bbbcf077ddc3e01291eea2d5c70c2b422b415d95645b9adcfd678cb1d63",
            "0x0000000000000000000000000000000000000000000000000000000000001010",
            "0x000000000000000000000000aebdfcf4a528de8b480a7b69ecaf17addb8b9959",
            "0x000000000000000000000000f0245f6251bef9447a08766b9da2b07b28ad80b0"
          ],
          "data": "0x0000000000000000000000000000000000000000000000000005e89695e4fa6c0000000000000000000000000000000000000000000000004563918244f40000000000000000000000000000000000000000000000000bb2e888b02e8fc7c24b000000000000000000000000000000000000000000000000455da8ebaf0f0594000000000000000000000000000000000000000000000bb2e88e98c525acbcb7",
          "blockHash": "0xa3f75f54c69eca4448eab2e2a669952ff738286509cad20f9d66e7e39bd4daec",
          "blockNumber": "0x41340bd",
          "transactionHash": "0x181f6cb339f7890b97087514c96c4849bded972ab0cd2e4ad340105cd170121a",
          "transactionIndex": "0x31",
          "logIndex": "0x9e",
          "removed": false
        }
      ],
      "logsBloom": "0x00000000000000000000000000000000000000000000000000000000000000000000000000008000000000000000000000008000000000000000000000200000000080000000000000000000000000800000000000000000000100000000000000000000000000000000000000000000000000000000000080000000000000000000000000000000000000000000000000000000000800000010000000080000220000000000000000000000000000000800000000000000000000000000004000000000000000000011000010000080000000000000000000100000000000000010000000000000000000000000010000000000100020000000000000100000",
      "type": "0x2",
      "transactionHash": "0x181f6cb339f7890b97087514c96c4849bded972ab0cd2e4ad340105cd170121a",
      "transactionIndex": "0x31",
      "blockHash": "0xa3f75f54c69eca4448eab2e2a669952ff738286509cad20f9d66e7e39bd4daec",
      "blockNumber": "0x41340bd",
      "gasUsed": "0xd88d",
      "effectiveGasPrice": "0x6fc2c5308",
      "from": "0xaebdfcf4a528de8b480a7b69ecaf17addb8b9959",
      "to": "0x3c499c542cef5e3811e1192ce70d8cc03d5c3359",
      "contractAddress": null
    },
    {
      "status": "0x1",
      "cumulativeGasUsed": "0x62ac7d",
      "logs": [
        {
          "address": "0xc2132d05d31c914a87c6611c10748aeb04b58e8f",
          "topics": [
            "0x8c5be1e5ebec7d5bd14f71427d1e84f3dd0314c0f7b2291e5b200ac8c7c3b925",
            "0x000000000000000000000000aebdfcf4a528de8b480a7b69ecaf17addb8b9959",
            "0x00000000000000000000000052f052d2411735287989461721f4b49a13d65888"
          ],
          "data": "0x00000000000000000000000000000000000000000000000000000000000f4240",
          "blockHash": "0xa3f75f54c69eca4448eab2e2a669952ff738286509cad20f9d66e7e39bd4daec",
          "blockNumber": "0x41340bd",
          "transactionHash": "0x5e8d819d5b810de6295a2482531c9fb0d0d4e41dbd251e303ce651b8bbeb97f2",
          "transactionIndex": "0x32",
          "logIndex": "0x9f",
          "removed": false
        },
        {
          "address": "0x0000000000000000000000000000000000001010",
          "topics": [
            "0x4dfe1bbbcf077ddc3e01291eea2d5c70c2b422b415d95645b9adcfd678cb1d63",
            "0x0000000000000000000000000000000000000000000000000000000000001010",
            "0x000000000000000000000000aebdfcf4a528de8b480a7b69ecaf17addb8b9959",
            "0x000000000000000000000000f0245f6251bef9447a08766b9da2b07b28ad80b0"
          ],
          "data": "0x000000000000000000000000000000000000000000000000000583479b22ad50000000000000000000000000000000000000000000000000455da8e3fa7b8498000000000000000000000000000000000000000000000bb2e88e98c525acbcb70000000000000000000000000000000000000000000000004558259c5f58d748000000000000000000000000000000000000000000000bb2e8941c0cc0cf6a07",
          "blockHash": "0xa3f75f54c69eca4448eab2e2a669952ff738286509cad20f9d66e7e39bd4daec",
          "blockNumber": "0x41340bd",
          "transactionHash": "0x5e8d819d5b810de6295a2482531c9fb0d0d4e41dbd251e303ce651b8bbeb97f2",
          "transactionIndex": "0x32",
          "logIndex": "0xa0",
          "removed": false
        }
      ],
      "logsBloom": "0x00000000000000000000000000000000000000000000000000000000000000000000000000008000000000000000000100008000000000000000000000200000000080000000000000000000000000800000000000000000000100000000000000000000000000000000000000000000000000000000000080000000000000000000000000080000000000000000000000000000000800000010000000080000220000000000000000000000000000000000000000000000000000000000004000000000000000000011000010000080400000000000000000100000000000000010000000000000000000000000000000000000000020000000000000100000",
      "type": "0x2",
      "transactionHash": "0x5e8d819d5b810de6295a2482531c9fb0d0d4e41dbd251e303ce651b8bbeb97f2",
      "transactionIndex": "0x32",
      "blockHash": "0xa3f75f54c69eca4448eab2e2a669952ff738286509cad20f9d66e7e39bd4daec",
      "blockNumber": "0x41340bd",
      "gasUsed": "0xca0c",
      "effectiveGasPrice": "0x6fc2c5308",
      "from": "0xaebdfcf4a528de8b480a7b69ecaf17addb8b9959",
      "to": "0xc2132d05d31c914a87c6611c10748aeb04b58e8f",
      "contractAddress": null
    },
    {
      "status": "0x1",
      "cumulativeGasUsed": "0x68c41b",
      "logs": [
        {
          "address": "0x3c499c542cef5e3811e1192ce70d8cc03d5c3359",
          "topics": [
            "0xddf252ad1be2c89b69c2b068fc378daa952ba7f163c4a11628f55a4df523b3ef",
            "0x000000000000000000000000aebdfcf4a528de8b480a7b69ecaf17addb8b9959",
            "0x00000000000000000000000052f052d2411735287989461721f4b49a13d65888"
          ],
          "data": "0x00000000000000000000000000000000000000000000000000000000000f4240",
          "blockHash": "0xa3f75f54c69eca4448eab2e2a669952ff738286509cad20f9d66e7e39bd4daec",
          "blockNumber": "0x41340bd",
          "transactionHash": "0x599ac74c1c94367bb3eb3ea0b73c69660d9e5abac87e5a982546bbc5a87394b6",
          "transactionIndex": "0x33",
          "logIndex": "0xa1",
          "removed": false
        },
        {
          "address": "0xc2132d05d31c914a87c6611c10748aeb04b58e8f",
          "topics": [
            "0xddf252ad1be2c89b69c2b068fc378daa952ba7f163c4a11628f55a4df523b3ef",
            "0x000000000000000000000000aebdfcf4a528de8b480a7b69ecaf17addb8b9959",
            "0x00000000000000000000000052f052d2411735287989461721f4b49a13d65888"
          ],
          "data": "0x00000000000000000000000000000000000000000000000000000000000f4240",
          "blockHash": "0xa3f75f54c69eca4448eab2e2a669952ff738286509cad20f9d66e7e39bd4daec",
          "blockNumber": "0x41340bd",
          "transactionHash": "0x599ac74c1c94367bb3eb3ea0b73c69660d9e5abac87e5a982546bbc5a87394b6",
          "transactionIndex": "0x33",
          "logIndex": "0xa2",
          "removed": false
        },
        {
          "address": "0xc2132d05d31c914a87c6611c10748aeb04b58e8f",
          "topics": [
            "0x8c5be1e5ebec7d5bd14f71427d1e84f3dd0314c0f7b2291e5b200ac8c7c3b925",
            "0x000000000000000000000000aebdfcf4a528de8b480a7b69ecaf17addb8b9959",
            "0x00000000000000000000000052f052d2411735287989461721f4b49a13d65888"
          ],
          "data": "0x0000000000000000000000000000000000000000000000000000000000000000",
          "blockHash": "0xa3f75f54c69eca4448eab2e2a669952ff738286509cad20f9d66e7e39bd4daec",
          "blockNumber": "0x41340bd",
          "transactionHash": "0x599ac74c1c94367bb3eb3ea0b73c69660d9e5abac87e5a982546bbc5a87394b6",
          "transactionIndex": "0x33",
          "logIndex": "0xa3",
          "removed": false
        },
        {
          "address": "0x794a61358d6845594f94dc1db02a252b5b4814ad",
          "topics": [
            "0x804c9b842b2748a22bb64b345453a3de7ca54a6ca45ce00d415894979e22897a",
            "0x0000000000000000000000003c499c542cef5e3811e1192ce70d8cc03d5c3359"
          ],
          "data": "0x000000000000000000000000000000000000000000215997de644130b8e83d2300000000000000000000000000000000000000000000000000000000000000000000000000000000000000000000000000000000003c54d748722e53c59dd0420000000000000000000000000000000000000000038c011121faf34caeb8f1a1000000000000000000000000000000000000000003a02634cbb374f8d52ce376",
          "blockHash": "0xa3f75f54c69eca4448eab2e2a669952ff738286509cad20f9d66e7e39bd4daec",
          "blockNumber": "0x41340bd",
          "transactionHash": "0x599ac74c1c94367bb3eb3ea0b73c69660d9e5abac87e5a982546bbc5a87394b6",
          "transactionIndex": "0x33",
          "logIndex": "0xa4",
          "removed": false
        },
        {
          "address": "0x3c499c542cef5e3811e1192ce70d8cc03d5c3359",
          "topics": [
            "0xddf252ad1be2c89b69c2b068fc378daa952ba7f163c4a11628f55a4df523b3ef",
            "0x00000000000000000000000052f052d2411735287989461721f4b49a13d65888",
            "0x000000000000000000000000a4d94019934d8333ef880abffbf2fdd611c762bd"
          ],
          "data": "0x00000000000000000000000000000000000000000000000000000000000f4240",
          "blockHash": "0xa3f75f54c69eca4448eab2e2a669952ff738286509cad20f9d66e7e39bd4daec",
          "blockNumber": "0x41340bd",
          "transactionHash": "0x599ac74c1c94367bb3eb3ea0b73c69660d9e5abac87e5a982546bbc5a87394b6",
          "transactionIndex": "0x33",
          "logIndex": "0xa5",
          "removed": false
        },
        {
          "address": "0xa4d94019934d8333ef880abffbf2fdd611c762bd",
          "topics": [
            "0xddf252ad1be2c89b69c2b068fc378daa952ba7f163c4a11628f55a4df523b3ef",
            "0x0000000000000000000000000000000000000000000000000000000000000000",
            "0x00000000000000000000000052f052d2411735287989461721f4b49a13d65888"
          ],
          "data": "0x00000000000000000000000000000000000000000000000000000000000f4256",
          "blockHash": "0xa3f75f54c69eca4448eab2e2a669952ff738286509cad20f9d66e7e39bd4daec",
          "blockNumber": "0x41340bd",
          "transactionHash": "0x599ac74c1c94367bb3eb3ea0b73c69660d9e5abac87e5a982546bbc5a87394b6",
          "transactionIndex": "0x33",
          "logIndex": "0xa6",
          "removed": false
        },
        {
          "address": "0xa4d94019934d8333ef880abffbf2fdd611c762bd",
          "topics": [
            "0x458f5fa412d0f69b08dd84872b0215675cc67bc1d5b6fd93300a1c3878b86196",
            "0x00000000000000000000000052f052d2411735287989461721f4b49a13d65888",
            "0x00000000000000000000000052f052d2411735287989461721f4b49a13d65888"
          ],
          "data": "0x00000000000000000000000000000000000000000000000000000000000f425600000000000000000000000000000000000000000000000000000000000000160000000000000000000000000000000000000000038c011121faf34caeb8f1a1",
          "blockHash": "0xa3f75f54c69eca4448eab2e2a669952ff738286509cad20f9d66e7e39bd4daec",
          "blockNumber": "0x41340bd",
          "transactionHash": "0x599ac74c1c94367bb3eb3ea0b73c69660d9e5abac87e5a982546bbc5a87394b6",
          "transactionIndex": "0x33",
          "logIndex": "0xa7",
          "removed": false
        },
        {
          "address": "0x794a61358d6845594f94dc1db02a252b5b4814ad",
          "topics": [
            "0x2b627736bca15cd5381dcf80b0bf11fd197d01a037c52b927a881a10fb73ba61",
            "0x0000000000000000000000003c499c542cef5e3811e1192ce70d8cc03d5c3359",
            "0x00000000000000000000000052f052d2411735287989461721f4b49a13d65888",
            "0x0000000000000000000000000000000000000000000000000000000000000000"
          ],
          "data": "0x00000000000000000000000052f052d2411735287989461721f4b49a13d6588800000000000000000000000000000000000000000000000000000000000f4240",
          "blockHash": "0xa3f75f54c69eca4448eab2e2a669952ff738286509cad20f9d66e7e39bd4daec",
          "blockNumber": "0x41340bd",
          "transactionHash": "0x599ac74c1c94367bb3eb3ea0b73c69660d9e5abac87e5a982546bbc5a87394b6",
          "transactionIndex": "0x33",
          "logIndex": "0xa8",
          "removed": false
        },
        {
          "address": "0x794a61358d6845594f94dc1db02a252b5b4814ad",
          "topics": [
            "0x804c9b842b2748a22bb64b345453a3de7ca54a6ca45ce00d415894979e22897a",
            "0x000000000000000000000000c2132d05d31c914a87c6611c10748aeb04b58e8f"
          ],
          "data": "0x0000000000000000000000000000000000000000001fa1c2bbca9ae05269a99b00000000000000000000000000000000000000000000000000000000000000000000000000000000000000000000000000000000003caf0bc0c33e6070a73367000000000000000000000000000000000000000003c3edffff4979991788b19c000000000000000000000000000000000000000003f1b86864745253aae68db0",
          "blockHash": "0xa3f75f54c69eca4448eab2e2a669952ff738286509cad20f9d66e7e39bd4daec",
          "blockNumber": "0x41340bd",
          "transactionHash": "0x599ac74c1c94367bb3eb3ea0b73c69660d9e5abac87e5a982546bbc5a87394b6",
          "transactionIndex": "0x33",
          "logIndex": "0xa9",
          "removed": false
        },
        {
          "address": "0xc2132d05d31c914a87c6611c10748aeb04b58e8f",
          "topics": [
            "0xddf252ad1be2c89b69c2b068fc378daa952ba7f163c4a11628f55a4df523b3ef",
            "0x00000000000000000000000052f052d2411735287989461721f4b49a13d65888",
            "0x0000000000000000000000006ab707aca953edaefbc4fd23ba73294241490620"
          ],
          "data": "0x00000000000000000000000000000000000000000000000000000000000f4240",
          "blockHash": "0xa3f75f54c69eca4448eab2e2a669952ff738286509cad20f9d66e7e39bd4daec",
          "blockNumber": "0x41340bd",
          "transactionHash": "0x599ac74c1c94367bb3eb3ea0b73c69660d9e5abac87e5a982546bbc5a87394b6",
          "transactionIndex": "0x33",
          "logIndex": "0xaa",
          "removed": false
        },
        {
          "address": "0xc2132d05d31c914a87c6611c10748aeb04b58e8f",
          "topics": [
            "0x8c5be1e5ebec7d5bd14f71427d1e84f3dd0314c0f7b2291e5b200ac8c7c3b925",
            "0x00000000000000000000000052f052d2411735287989461721f4b49a13d65888",
            "0x000000000000000000000000794a61358d6845594f94dc1db02a252b5b4814ad"
          ],
          "data": "0xffffffffffffffffffffffffffffffffffffffffffffffffffffffffffe17b7f",
          "blockHash": "0xa3f75f54c69eca4448eab2e2a669952ff738286509cad20f9d66e7e39bd4daec",
          "blockNumber": "0x41340bd",
          "transactionHash": "0x599ac74c1c94367bb3eb3ea0b73c69660d9e5abac87e5a982546bbc5a87394b6",
          "transactionIndex": "0x33",
          "logIndex": "0xab",
          "removed": false
        },
        {
          "address": "0x6ab707aca953edaefbc4fd23ba73294241490620",
          "topics": [
            "0xddf252ad1be2c89b69c2b068fc378daa952ba7f163c4a11628f55a4df523b3ef",
            "0x0000000000000000000000000000000000000000000000000000000000000000",
            "0x00000000000000000000000052f052d2411735287989461721f4b49a13d65888"
          ],
          "data": "0x00000000000000000000000000000000000000000000000000000000000f4250",
          "blockHash": "0xa3f75f54c69eca4448eab2e2a669952ff738286509cad20f9d66e7e39bd4daec",
          "blockNumber": "0x41340bd",
          "transactionHash": "0x599ac74c1c94367bb3eb3ea0b73c69660d9e5abac87e5a982546bbc5a87394b6",
          "transactionIndex": "0x33",
          "logIndex": "0xac",
          "removed": false
        },
        {
          "address": "0x6ab707aca953edaefbc4fd23ba73294241490620",
          "topics": [
            "0x458f5fa412d0f69b08dd84872b0215675cc67bc1d5b6fd93300a1c3878b86196",
            "0x00000000000000000000000052f052d2411735287989461721f4b49a13d65888",
            "0x00000000000000000000000052f052d2411735287989461721f4b49a13d65888"
          ],
          "data": "0x00000000000000000000000000000000000000000000000000000000000f42500000000000000000000000000000000000000000000000000000000000000010000000000000000000000000000000000000000003c3edffff4979991788b19c",
          "blockHash": "0xa3f75f54c69eca4448eab2e2a669952ff738286509cad20f9d66e7e39bd4daec",
          "blockNumber": "0x41340bd",
          "transactionHash": "0x599ac74c1c94367bb3eb3ea0b73c69660d9e5abac87e5a982546bbc5a87394b6",
          "transactionIndex": "0x33",
          "logIndex": "0xad",
          "removed": false
        },
        {
          "address": "0x794a61358d6845594f94dc1db02a252b5b4814ad",
          "topics": [
            "0x2b627736bca15cd5381dcf80b0bf11fd197d01a037c52b927a881a10fb73ba61",
            "0x000000000000000000000000c2132d05d31c914a87c6611c10748aeb04b58e8f",
            "0x00000000000000000000000052f052d2411735287989461721f4b49a13d65888",
            "0x0000000000000000000000000000000000000000000000000000000000000000"
          ],
          "data": "0x00000000000000000000000052f052d2411735287989461721f4b49a13d6588800000000000000000000000000000000000000000000000000000000000f4240",
          "blockHash": "0xa3f75f54c69eca4448eab2e2a669952ff738286509cad20f9d66e7e39bd4daec",
          "blockNumber": "0x41340bd",
          "transactionHash": "0x599ac74c1c94367bb3eb3ea0b73c69660d9e5abac87e5a982546bbc5a87394b6",
          "transactionIndex": "0x33",
          "logIndex": "0xae",
          "removed": false
        },
        {
          "address": "0x0000000000000000000000000000000000001010",
          "topics": [
            "0x4dfe1bbbcf077ddc3e01291eea2d5c70c2b422b415d95645b9adcfd678cb1d63",
            "0x0000000000000000000000000000000000000000000000000000000000001010",
            "0x000000000000000000000000aebdfcf4a528de8b480a7b69ecaf17addb8b9959",
            "0x000000000000000000000000f0245f6251bef9447a08766b9da2b07b28ad80b0"
          ],
          "data": "0x000000000000000000000000000000000000000000000000002a8dca12578748000000000000000000000000000000000000000000000000455825952ee35038000000000000000000000000000000000000000000000bb2e8941c0cc0cf6a07000000000000000000000000000000000000000000000000452d97cb1c8bc8f0000000000000000000000000000000000000000000000bb2e8bea9d6d326f14f",
          "blockHash": "0xa3f75f54c69eca4448eab2e2a669952ff738286509cad20f9d66e7e39bd4daec",
          "blockNumber": "0x41340bd",
          "transactionHash": "0x599ac74c1c94367bb3eb3ea0b73c69660d9e5abac87e5a982546bbc5a87394b6",
          "transactionIndex": "0x33",
          "logIndex": "0xaf",
          "removed": false
        }
      ],
      "logsBloom": "0x00080008002000000000000000000000010000000000000000000000000000000000000000008000000000000004000100008000200004000000000000200000000080000040000000000008002000800000040000000000800100040000000010000000420000000000100000000800000000000000000080000010000000000000000000080001000002800000000000024800000800000010000000080000220000000000000010000000000000000800000000000100000000000000014002000002000000000011002058000080400000000000000000104000000020000010000000000000000000000000010040000000100020000000400000100000",
      "type": "0x2",
      "transactionHash": "0x599ac74c1c94367bb3eb3ea0b73c69660d9e5abac87e5a982546bbc5a87394b6",
      "transactionIndex": "0x33",
      "blockHash": "0xa3f75f54c69eca4448eab2e2a669952ff738286509cad20f9d66e7e39bd4daec",
      "blockNumber": "0x41340bd",
      "gasUsed": "0x6179e",
      "effectiveGasPrice": "0x6fc2c5308",
      "from": "0xaebdfcf4a528de8b480a7b69ecaf17addb8b9959",
      "to": "0x52f052d2411735287989461721f4b49a13d65888",
      "contractAddress": null
    }
  ],
  "libraries": [],
  "pending": [],
  "returns": {},
  "timestamp": 1740520751,
  "chain": 137,
  "commit": "60deea6"
}