{
  "transactions": [
    {
      "hash": "0x95b35d3b9abfb97b50ecfca55c147133b29cb5e7535e6b715f3bc8926a1eab28",
      "transactionType": "CALL",
      "contractName": null,
      "contractAddress": "0x3c499c542cef5e3811e1192ce70d8cc03d5c3359",
      "function": "approve(address,uint256)",
      "arguments": [
        "0x52f052d2411735287989461721f4B49A13d65888",
        "1000000"
      ],
      "transaction": {
        "from": "0xda88261bfed59ab29ee3c1407cd0060411812347",
        "to": "0x3c499c542cef5e3811e1192ce70d8cc03d5c3359",
        "gas": "0x12b1b",
        "value": "0x0",
        "input": "0x095ea7b300000000000000000000000052f052d2411735287989461721f4b49a13d6588800000000000000000000000000000000000000000000000000000000000f4240",
        "nonce": "0x87",
        "chainId": "0x89"
      },
      "additionalContracts": [],
      "isFixedGasLimit": false
    },
    {
      "hash": "0x8f51323771aeb159d99f4091fe37f320a675ed0466b4fa21d2d0bd763919a7e2",
      "transactionType": "CALL",
      "contractName": null,
      "contractAddress": "0xc2132d05d31c914a87c6611c10748aeb04b58e8f",
      "function": "approve(address,uint256)",
      "arguments": [
        "0x52f052d2411735287989461721f4B49A13d65888",
        "1000000"
      ],
      "transaction": {
        "from": "0xda88261bfed59ab29ee3c1407cd0060411812347",
        "to": "0xc2132d05d31c914a87c6611c10748aeb04b58e8f",
        "gas": "0x11712",
        "value": "0x0",
        "input": "0x095ea7b300000000000000000000000052f052d2411735287989461721f4b49a13d6588800000000000000000000000000000000000000000000000000000000000f4240",
        "nonce": "0x88",
        "chainId": "0x89"
      },
      "additionalContracts": [],
      "isFixedGasLimit": false
    },
    {
      "hash": "0x78f51d5d924a7e289943c745f6899519d6a0dbfe4a53527532effefecb45f27c",
      "transactionType": "CALL",
      "contractName": null,
      "contractAddress": "0x67366782805870060151383f4bbff9dab53e5cd6",
      "function": "initialize((address,address,uint24,int24,address),uint160)",
      "arguments": [
        "(0x3c499c542cEF5E3811e1192ce70d8cC03d5c3359, 0xc2132D05D31c914a87C6611C10748AEb04B58e8F, 3000, 1, 0x52f052d2411735287989461721f4B49A13d65888)",
        "79228162514264337593543950336"
      ],
      "transaction": {
        "from": "0xda88261bfed59ab29ee3c1407cd0060411812347",
        "to": "0x67366782805870060151383f4bbff9dab53e5cd6",
        "gas": "0xcb40b",
        "value": "0x0",
        "input": "0x6276cbbe0000000000000000000000003c499c542cef5e3811e1192ce70d8cc03d5c3359000000000000000000000000c2132d05d31c914a87c6611c10748aeb04b58e8f0000000000000000000000000000000000000000000000000000000000000bb8000000000000000000000000000000000000000000000000000000000000000100000000000000000000000052f052d2411735287989461721f4b49a13d658880000000000000000000000000000000000000001000000000000000000000000",
        "nonce": "0x89",
        "chainId": "0x89"
      },
      "additionalContracts": [],
      "isFixedGasLimit": false
    }
  ],
  "receipts": [
    {
      "status": "0x1",
      "cumulativeGasUsed": "0xcbcf60",
      "logs": [
        {
          "address": "0x3c499c542cef5e3811e1192ce70d8cc03d5c3359",
          "topics": [
            "0x8c5be1e5ebec7d5bd14f71427d1e84f3dd0314c0f7b2291e5b200ac8c7c3b925",
            "0x000000000000000000000000da88261bfed59ab29ee3c1407cd0060411812347",
            "0x00000000000000000000000052f052d2411735287989461721f4b49a13d65888"
          ],
          "data": "0x00000000000000000000000000000000000000000000000000000000000f4240",
          "blockHash": "0x9fe516f9c5a67689d6f078d2256bb353a9b031855bd2df44fb4c74d42a52e2ba",
          "blockNumber": "0x412e02f",
          "transactionHash": "0x95b35d3b9abfb97b50ecfca55c147133b29cb5e7535e6b715f3bc8926a1eab28",
          "transactionIndex": "0x55",
          "logIndex": "0x1a5",
          "removed": false
        },
        {
          "address": "0x0000000000000000000000000000000000001010",
          "topics": [
            "0x4dfe1bbbcf077ddc3e01291eea2d5c70c2b422b415d95645b9adcfd678cb1d63",
            "0x0000000000000000000000000000000000000000000000000000000000001010",
            "0x000000000000000000000000da88261bfed59ab29ee3c1407cd0060411812347",
            "0x00000000000000000000000067b94473d81d0cd00849d563c94d0432ac988b49"
          ],
          "data": "0x00000000000000000000000000000000000000000000000000066798cb412cc0000000000000000000000000000000000000000000000014f8bd606e07b85d28000000000000000000000000000000000000000000000031506f8c7700df548b000000000000000000000000000000000000000000000014f8b6f8d53c7730680000000000000000000000000000000000000000000000315075f40fcc20814b",
          "blockHash": "0x9fe516f9c5a67689d6f078d2256bb353a9b031855bd2df44fb4c74d42a52e2ba",
          "blockNumber": "0x412e02f",
          "transactionHash": "0x95b35d3b9abfb97b50ecfca55c147133b29cb5e7535e6b715f3bc8926a1eab28",
          "transactionIndex": "0x55",
          "logIndex": "0x1a6",
          "removed": false
        }
      ],
      "logsBloom": "0x000000000000000000000000000000000000000000000000000000000000000000000000000000000000000000000000000080000000000000000000002000000000000000000000000000000000008000000000000000000001000000000000000000000200000000000000000000000000000000000000800000000000000000000000000000000000000000000000000000000000000000000000000000002200000000000000000000000000000008000000000000000000000000000040008000000000000000110000100080c0002000000000000000100000000000000010020000000000000000000000010000000000100000000000000000100000",
      "type": "0x2",
      "transactionHash": "0x95b35d3b9abfb97b50ecfca55c147133b29cb5e7535e6b715f3bc8926a1eab28",
      "transactionIndex": "0x55",
      "blockHash": "0x9fe516f9c5a67689d6f078d2256bb353a9b031855bd2df44fb4c74d42a52e2ba",
      "blockNumber": "0x412e02f",
      "gasUsed": "0xd88d",
      "effectiveGasPrice": "0x18c8a629ce9",
      "from": "0xda88261bfed59ab29ee3c1407cd0060411812347",
      "to": "0x3c499c542cef5e3811e1192ce70d8cc03d5c3359",
      "contractAddress": null
    },
    {
      "status": "0x1",
      "cumulativeGasUsed": "0xcc996c",
      "logs": [
        {
          "address": "0xc2132d05d31c914a87c6611c10748aeb04b58e8f",
          "topics": [
            "0x8c5be1e5ebec7d5bd14f71427d1e84f3dd0314c0f7b2291e5b200ac8c7c3b925",
            "0x000000000000000000000000da88261bfed59ab29ee3c1407cd0060411812347",
            "0x00000000000000000000000052f052d2411735287989461721f4b49a13d65888"
          ],
          "data": "0x00000000000000000000000000000000000000000000000000000000000f4240",
          "blockHash": "0x9fe516f9c5a67689d6f078d2256bb353a9b031855bd2df44fb4c74d42a52e2ba",
          "blockNumber": "0x412e02f",
          "transactionHash": "0x8f51323771aeb159d99f4091fe37f320a675ed0466b4fa21d2d0bd763919a7e2",
          "transactionIndex": "0x56",
          "logIndex": "0x1a7",
          "removed": false
        },
        {
          "address": "0x0000000000000000000000000000000000001010",
          "topics": [
            "0x4dfe1bbbcf077ddc3e01291eea2d5c70c2b422b415d95645b9adcfd678cb1d63",
            "0x0000000000000000000000000000000000000000000000000000000000001010",
            "0x000000000000000000000000da88261bfed59ab29ee3c1407cd0060411812347",
            "0x00000000000000000000000067b94473d81d0cd00849d563c94d0432ac988b49"
          ],
          "data": "0x0000000000000000000000000000000000000000000000000005f9c81cd43d00000000000000000000000000000000000000000000000014f76df1429b0358d30000000000000000000000000000000000000000000000315075f40fcc20814b000000000000000000000000000000000000000000000014f767f77a7e2f1bd3000000000000000000000000000000000000000000000031507bedd7e8f4be4b",
          "blockHash": "0x9fe516f9c5a67689d6f078d2256bb353a9b031855bd2df44fb4c74d42a52e2ba",
          "blockNumber": "0x412e02f",
          "transactionHash": "0x8f51323771aeb159d99f4091fe37f320a675ed0466b4fa21d2d0bd763919a7e2",
          "transactionIndex": "0x56",
          "logIndex": "0x1a8",
          "removed": false
        }
      ],
      "logsBloom": "0x000000000000000000000000000000000000000000000000000000000000000000000000000000000000000000000001000080000000000000000000002000000000000000000000000000000000008000000000000000000001000000000000000000000200000000000000000000000000000000000000800000000000000000000000000800000000000000000000000000000000000000000000000000002200000000000000000000000000000000000000000000000000000000000040008000000000000000110000100080c0402000000000000000100000000000000010020000000000000000000000000000000000000000000000000000100000",
      "type": "0x2",
      "transactionHash": "0x8f51323771aeb159d99f4091fe37f320a675ed0466b4fa21d2d0bd763919a7e2",
      "transactionIndex": "0x56",
      "blockHash": "0x9fe516f9c5a67689d6f078d2256bb353a9b031855bd2df44fb4c74d42a52e2ba",
      "blockNumber": "0x412e02f",
      "gasUsed": "0xca0c",
      "effectiveGasPrice": "0x18c8a629ce9",
      "from": "0xda88261bfed59ab29ee3c1407cd0060411812347",
      "to": "0xc2132d05d31c914a87c6611c10748aeb04b58e8f",
      "contractAddress": null
    },
    {
      "status": "0x1",
      "cumulativeGasUsed": "0xd5cbd9",
      "logs": [
        {
          "address": "0x67366782805870060151383f4bbff9dab53e5cd6",
          "topics": [
            "0xdd466e674ea557f56295e2d0218a125ea4b4f0f6f3307b95f85e6110838d6438",
            "0xe6147b657c2ffffa955a68a0f8932201aa2e1e86dd24c52f1765c3db2fb87591",
            "0x0000000000000000000000003c499c542cef5e3811e1192ce70d8cc03d5c3359",
            "0x000000000000000000000000c2132d05d31c914a87c6611c10748aeb04b58e8f"
          ],
          "data": "0x0000000000000000000000000000000000000000000000000000000000000bb8000000000000000000000000000000000000000000000000000000000000000100000000000000000000000052f052d2411735287989461721f4b49a13d6588800000000000000000000000000000000000000010000000000000000000000000000000000000000000000000000000000000000000000000000000000000000",
          "blockHash": "0x9fe516f9c5a67689d6f078d2256bb353a9b031855bd2df44fb4c74d42a52e2ba",
          "blockNumber": "0x412e02f",
          "transactionHash": "0x78f51d5d924a7e289943c745f6899519d6a0dbfe4a53527532effefecb45f27c",
          "transactionIndex": "0x57",
          "logIndex": "0x1a9",
          "removed": false
        },
        {
          "address": "0x3c499c542cef5e3811e1192ce70d8cc03d5c3359",
          "topics": [
            "0x8c5be1e5ebec7d5bd14f71427d1e84f3dd0314c0f7b2291e5b200ac8c7c3b925",
            "0x00000000000000000000000052f052d2411735287989461721f4b49a13d65888",
            "0x000000000000000000000000794a61358d6845594f94dc1db02a252b5b4814ad"
          ],
          "data": "0xffffffffffffffffffffffffffffffffffffffffffffffffffffffffffffffff",
          "blockHash": "0x9fe516f9c5a67689d6f078d2256bb353a9b031855bd2df44fb4c74d42a52e2ba",
          "blockNumber": "0x412e02f",
          "transactionHash": "0x78f51d5d924a7e289943c745f6899519d6a0dbfe4a53527532effefecb45f27c",
          "transactionIndex": "0x57",
          "logIndex": "0x1aa",
          "removed": false
        },
        {
          "address": "0xc2132d05d31c914a87c6611c10748aeb04b58e8f",
          "topics": [
            "0x8c5be1e5ebec7d5bd14f71427d1e84f3dd0314c0f7b2291e5b200ac8c7c3b925",
            "0x00000000000000000000000052f052d2411735287989461721f4b49a13d65888",
            "0x000000000000000000000000794a61358d6845594f94dc1db02a252b5b4814ad"
          ],
          "data": "0xffffffffffffffffffffffffffffffffffffffffffffffffffffffffffffffff",
          "blockHash": "0x9fe516f9c5a67689d6f078d2256bb353a9b031855bd2df44fb4c74d42a52e2ba",
          "blockNumber": "0x412e02f",
          "transactionHash": "0x78f51d5d924a7e289943c745f6899519d6a0dbfe4a53527532effefecb45f27c",
          "transactionIndex": "0x57",
          "logIndex": "0x1ab",
          "removed": false
        },
        {
          "address": "0x3c499c542cef5e3811e1192ce70d8cc03d5c3359",
          "topics": [
            "0xddf252ad1be2c89b69c2b068fc378daa952ba7f163c4a11628f55a4df523b3ef",
            "0x000000000000000000000000da88261bfed59ab29ee3c1407cd0060411812347",
            "0x00000000000000000000000052f052d2411735287989461721f4b49a13d65888"
          ],
          "data": "0x00000000000000000000000000000000000000000000000000000000000f4240",
          "blockHash": "0x9fe516f9c5a67689d6f078d2256bb353a9b031855bd2df44fb4c74d42a52e2ba",
          "blockNumber": "0x412e02f",
          "transactionHash": "0x78f51d5d924a7e289943c745f6899519d6a0dbfe4a53527532effefecb45f27c",
          "transactionIndex": "0x57",
          "logIndex": "0x1ac",
          "removed": false
        },
        {
          "address": "0xc2132d05d31c914a87c6611c10748aeb04b58e8f",
          "topics": [
            "0xddf252ad1be2c89b69c2b068fc378daa952ba7f163c4a11628f55a4df523b3ef",
            "0x000000000000000000000000da88261bfed59ab29ee3c1407cd0060411812347",
            "0x00000000000000000000000052f052d2411735287989461721f4b49a13d65888"
          ],
          "data": "0x00000000000000000000000000000000000000000000000000000000000f4240",
          "blockHash": "0x9fe516f9c5a67689d6f078d2256bb353a9b031855bd2df44fb4c74d42a52e2ba",
          "blockNumber": "0x412e02f",
          "transactionHash": "0x78f51d5d924a7e289943c745f6899519d6a0dbfe4a53527532effefecb45f27c",
          "transactionIndex": "0x57",
          "logIndex": "0x1ad",
          "removed": false
        },
        {
          "address": "0xc2132d05d31c914a87c6611c10748aeb04b58e8f",
          "topics": [
            "0x8c5be1e5ebec7d5bd14f71427d1e84f3dd0314c0f7b2291e5b200ac8c7c3b925",
            "0x000000000000000000000000da88261bfed59ab29ee3c1407cd0060411812347",
            "0x00000000000000000000000052f052d2411735287989461721f4b49a13d65888"
          ],
          "data": "0x0000000000000000000000000000000000000000000000000000000000000000",
          "blockHash": "0x9fe516f9c5a67689d6f078d2256bb353a9b031855bd2df44fb4c74d42a52e2ba",
          "blockNumber": "0x412e02f",
          "transactionHash": "0x78f51d5d924a7e289943c745f6899519d6a0dbfe4a53527532effefecb45f27c",
          "transactionIndex": "0x57",
          "logIndex": "0x1ae",
          "removed": false
        },
        {
          "address": "0x794a61358d6845594f94dc1db02a252b5b4814ad",
          "topics": [
            "0x804c9b842b2748a22bb64b345453a3de7ca54a6ca45ce00d415894979e22897a",
            "0x0000000000000000000000003c499c542cef5e3811e1192ce70d8cc03d5c3359"
          ],
          "data": "0x000000000000000000000000000000000000000000258bc3a73ba07abf7e8e3b00000000000000000000000000000000000000000000000000000000000000000000000000000000000000000000000000000000003c5a7208a36ae51e05d9660000000000000000000000000000000000000000038beeebb8c3b9423e124105000000000000000000000000000000000000000003a00988c252eadc66597cc7",
          "blockHash": "0x9fe516f9c5a67689d6f078d2256bb353a9b031855bd2df44fb4c74d42a52e2ba",
          "blockNumber": "0x412e02f",
          "transactionHash": "0x78f51d5d924a7e289943c745f6899519d6a0dbfe4a53527532effefecb45f27c",
          "transactionIndex": "0x57",
          "logIndex": "0x1af",
          "removed": false
        },
        {
          "address": "0x3c499c542cef5e3811e1192ce70d8cc03d5c3359",
          "topics": [
            "0xddf252ad1be2c89b69c2b068fc378daa952ba7f163c4a11628f55a4df523b3ef",
            "0x00000000000000000000000052f052d2411735287989461721f4b49a13d65888",
            "0x000000000000000000000000a4d94019934d8333ef880abffbf2fdd611c762bd"
          ],
          "data": "0x00000000000000000000000000000000000000000000000000000000000f4240",
          "blockHash": "0x9fe516f9c5a67689d6f078d2256bb353a9b031855bd2df44fb4c74d42a52e2ba",
          "blockNumber": "0x412e02f",
          "transactionHash": "0x78f51d5d924a7e289943c745f6899519d6a0dbfe4a53527532effefecb45f27c",
          "transactionIndex": "0x57",
          "logIndex": "0x1b0",
          "removed": false
        },
        {
          "address": "0xa4d94019934d8333ef880abffbf2fdd611c762bd",
          "topics": [
            "0xddf252ad1be2c89b69c2b068fc378daa952ba7f163c4a11628f55a4df523b3ef",
            "0x0000000000000000000000000000000000000000000000000000000000000000",
            "0x00000000000000000000000052f052d2411735287989461721f4b49a13d65888"
          ],
          "data": "0x00000000000000000000000000000000000000000000000000000000000f4240",
          "blockHash": "0x9fe516f9c5a67689d6f078d2256bb353a9b031855bd2df44fb4c74d42a52e2ba",
          "blockNumber": "0x412e02f",
          "transactionHash": "0x78f51d5d924a7e289943c745f6899519d6a0dbfe4a53527532effefecb45f27c",
          "transactionIndex": "0x57",
          "logIndex": "0x1b1",
          "removed": false
        },
        {
          "address": "0xa4d94019934d8333ef880abffbf2fdd611c762bd",
          "topics": [
            "0x458f5fa412d0f69b08dd84872b0215675cc67bc1d5b6fd93300a1c3878b86196",
            "0x00000000000000000000000052f052d2411735287989461721f4b49a13d65888",
            "0x00000000000000000000000052f052d2411735287989461721f4b49a13d65888"
          ],
          "data": "0x00000000000000000000000000000000000000000000000000000000000f424000000000000000000000000000000000000000000000000000000000000000000000000000000000000000000000000000000000038beeebb8c3b9423e124105",
          "blockHash": "0x9fe516f9c5a67689d6f078d2256bb353a9b031855bd2df44fb4c74d42a52e2ba",
          "blockNumber": "0x412e02f",
          "transactionHash": "0x78f51d5d924a7e289943c745f6899519d6a0dbfe4a53527532effefecb45f27c",
          "transactionIndex": "0x57",
          "logIndex": "0x1b2",
          "removed": false
        },
        {
          "address": "0x794a61358d6845594f94dc1db02a252b5b4814ad",
          "topics": [
            "0x00058a56ea94653cdf4f152d227ace22d4c00ad99e2a43f58cb7d9e3feb295f2",
            "0x0000000000000000000000003c499c542cef5e3811e1192ce70d8cc03d5c3359",
            "0x00000000000000000000000052f052d2411735287989461721f4b49a13d65888"
          ],
          "data": "0x",
          "blockHash": "0x9fe516f9c5a67689d6f078d2256bb353a9b031855bd2df44fb4c74d42a52e2ba",
          "blockNumber": "0x412e02f",
          "transactionHash": "0x78f51d5d924a7e289943c745f6899519d6a0dbfe4a53527532effefecb45f27c",
          "transactionIndex": "0x57",
          "logIndex": "0x1b3",
          "removed": false
        },
        {
          "address": "0x794a61358d6845594f94dc1db02a252b5b4814ad",
          "topics": [
            "0x2b627736bca15cd5381dcf80b0bf11fd197d01a037c52b927a881a10fb73ba61",
            "0x0000000000000000000000003c499c542cef5e3811e1192ce70d8cc03d5c3359",
            "0x00000000000000000000000052f052d2411735287989461721f4b49a13d65888",
            "0x0000000000000000000000000000000000000000000000000000000000000000"
          ],
          "data": "0x00000000000000000000000052f052d2411735287989461721f4b49a13d6588800000000000000000000000000000000000000000000000000000000000f4240",
          "blockHash": "0x9fe516f9c5a67689d6f078d2256bb353a9b031855bd2df44fb4c74d42a52e2ba",
          "blockNumber": "0x412e02f",
          "transactionHash": "0x78f51d5d924a7e289943c745f6899519d6a0dbfe4a53527532effefecb45f27c",
          "transactionIndex": "0x57",
          "logIndex": "0x1b4",
          "removed": false
        },
        {
          "address": "0x794a61358d6845594f94dc1db02a252b5b4814ad",
          "topics": [
            "0x804c9b842b2748a22bb64b345453a3de7ca54a6ca45ce00d415894979e22897a",
            "0x000000000000000000000000c2132d05d31c914a87c6611c10748aeb04b58e8f"
          ],
          "data": "0x0000000000000000000000000000000000000000002601292701454f6276938c00000000000000000000000000000000000000000000000000000000000000000000000000000000000000000000000000000000003cb8837f4485f8c8378bd6000000000000000000000000000000000000000003c3db604356b41c2aa703bd000000000000000000000000000000000000000003f198b397a470b871ccadb7",
          "blockHash": "0x9fe516f9c5a67689d6f078d2256bb353a9b031855bd2df44fb4c74d42a52e2ba",
          "blockNumber": "0x412e02f",
          "transactionHash": "0x78f51d5d924a7e289943c745f6899519d6a0dbfe4a53527532effefecb45f27c",
          "transactionIndex": "0x57",
          "logIndex": "0x1b5",
          "removed": false
        },
        {
          "address": "0xc2132d05d31c914a87c6611c10748aeb04b58e8f",
          "topics": [
            "0xddf252ad1be2c89b69c2b068fc378daa952ba7f163c4a11628f55a4df523b3ef",
            "0x00000000000000000000000052f052d2411735287989461721f4b49a13d65888",
            "0x0000000000000000000000006ab707aca953edaefbc4fd23ba73294241490620"
          ],
          "data": "0x00000000000000000000000000000000000000000000000000000000000f4240",
          "blockHash": "0x9fe516f9c5a67689d6f078d2256bb353a9b031855bd2df44fb4c74d42a52e2ba",
          "blockNumber": "0x412e02f",
          "transactionHash": "0x78f51d5d924a7e289943c745f6899519d6a0dbfe4a53527532effefecb45f27c",
          "transactionIndex": "0x57",
          "logIndex": "0x1b6",
          "removed": false
        },
        {
          "address": "0xc2132d05d31c914a87c6611c10748aeb04b58e8f",
          "topics": [
            "0x8c5be1e5ebec7d5bd14f71427d1e84f3dd0314c0f7b2291e5b200ac8c7c3b925",
            "0x00000000000000000000000052f052d2411735287989461721f4b49a13d65888",
            "0x000000000000000000000000794a61358d6845594f94dc1db02a252b5b4814ad"
          ],
          "data": "0xfffffffffffffffffffffffffffffffffffffffffffffffffffffffffff0bdbf",
          "blockHash": "0x9fe516f9c5a67689d6f078d2256bb353a9b031855bd2df44fb4c74d42a52e2ba",
          "blockNumber": "0x412e02f",
          "transactionHash": "0x78f51d5d924a7e289943c745f6899519d6a0dbfe4a53527532effefecb45f27c",
          "transactionIndex": "0x57",
          "logIndex": "0x1b7",
          "removed": false
        },
        {
          "address": "0x6ab707aca953edaefbc4fd23ba73294241490620",
          "topics": [
            "0xddf252ad1be2c89b69c2b068fc378daa952ba7f163c4a11628f55a4df523b3ef",
            "0x0000000000000000000000000000000000000000000000000000000000000000",
            "0x00000000000000000000000052f052d2411735287989461721f4b49a13d65888"
          ],
          "data": "0x00000000000000000000000000000000000000000000000000000000000f4240",
          "blockHash": "0x9fe516f9c5a67689d6f078d2256bb353a9b031855bd2df44fb4c74d42a52e2ba",
          "blockNumber": "0x412e02f",
          "transactionHash": "0x78f51d5d924a7e289943c745f6899519d6a0dbfe4a53527532effefecb45f27c",
          "transactionIndex": "0x57",
          "logIndex": "0x1b8",
          "removed": false
        },
        {
          "address": "0x6ab707aca953edaefbc4fd23ba73294241490620",
          "topics": [
            "0x458f5fa412d0f69b08dd84872b0215675cc67bc1d5b6fd93300a1c3878b86196",
            "0x00000000000000000000000052f052d2411735287989461721f4b49a13d65888",
            "0x00000000000000000000000052f052d2411735287989461721f4b49a13d65888"
          ],
          "data": "0x00000000000000000000000000000000000000000000000000000000000f42400000000000000000000000000000000000000000000000000000000000000000000000000000000000000000000000000000000003c3db604356b41c2aa703bd",
          "blockHash": "0x9fe516f9c5a67689d6f078d2256bb353a9b031855bd2df44fb4c74d42a52e2ba",
          "blockNumber": "0x412e02f",
          "transactionHash": "0x78f51d5d924a7e289943c745f6899519d6a0dbfe4a53527532effefecb45f27c",
          "transactionIndex": "0x57",
          "logIndex": "0x1b9",
          "removed": false
        },
        {
          "address": "0x794a61358d6845594f94dc1db02a252b5b4814ad",
          "topics": [
            "0x00058a56ea94653cdf4f152d227ace22d4c00ad99e2a43f58cb7d9e3feb295f2",
            "0x000000000000000000000000c2132d05d31c914a87c6611c10748aeb04b58e8f",
            "0x00000000000000000000000052f052d2411735287989461721f4b49a13d65888"
          ],
          "data": "0x",
          "blockHash": "0x9fe516f9c5a67689d6f078d2256bb353a9b031855bd2df44fb4c74d42a52e2ba",
          "blockNumber": "0x412e02f",
          "transactionHash": "0x78f51d5d924a7e289943c745f6899519d6a0dbfe4a53527532effefecb45f27c",
          "transactionIndex": "0x57",
          "logIndex": "0x1ba",
          "removed": false
        },
        {
          "address": "0x794a61358d6845594f94dc1db02a252b5b4814ad",
          "topics": [
            "0x2b627736bca15cd5381dcf80b0bf11fd197d01a037c52b927a881a10fb73ba61",
            "0x000000000000000000000000c2132d05d31c914a87c6611c10748aeb04b58e8f",
            "0x00000000000000000000000052f052d2411735287989461721f4b49a13d65888",
            "0x0000000000000000000000000000000000000000000000000000000000000000"
          ],
          "data": "0x00000000000000000000000052f052d2411735287989461721f4b49a13d6588800000000000000000000000000000000000000000000000000000000000f4240",
          "blockHash": "0x9fe516f9c5a67689d6f078d2256bb353a9b031855bd2df44fb4c74d42a52e2ba",
          "blockNumber": "0x412e02f",
          "transactionHash": "0x78f51d5d924a7e289943c745f6899519d6a0dbfe4a53527532effefecb45f27c",
          "transactionIndex": "0x57",
          "logIndex": "0x1bb",
          "removed": false
        },
        {
          "address": "0x0000000000000000000000000000000000001010",
          "topics": [
            "0x4dfe1bbbcf077ddc3e01291eea2d5c70c2b422b415d95645b9adcfd678cb1d63",
            "0x0000000000000000000000000000000000000000000000000000000000001010",
            "0x000000000000000000000000da88261bfed59ab29ee3c1407cd0060411812347",
            "0x00000000000000000000000067b94473d81d0cd00849d563c94d0432ac988b49"
          ],
          "data": "0x0000000000000000000000000000000000000000000000000045a25882b8b4c0000000000000000000000000000000000000000000000014f634f97a4e9423e7000000000000000000000000000000000000000000000031507bedd7e8f4be4b000000000000000000000000000000000000000000000014f5ef5721cbdb6f2700000000000000000000000000000000000000000000003150c190306bad730b",
          "blockHash": "0x9fe516f9c5a67689d6f078d2256bb353a9b031855bd2df44fb4c74d42a52e2ba",
          "blockNumber": "0x412e02f",
          "transactionHash": "0x78f51d5d924a7e289943c745f6899519d6a0dbfe4a53527532effefecb45f27c",
          "transactionIndex": "0x57",
          "logIndex": "0x1bc",
          "removed": false
        }
      ],
      "logsBloom": "0x000800080020080000800000000000000100000080000090000000000000000000000000000000000000400000044001000080002000040000000000002000000000000000400000000000080020008000000400000000008001000400000000100000004200000000001000000008000000000000000000800000100000000000000000800800090000028000000000000248010000000000000000002000002200000000000000100000000000000008000000000001000000000000000140028000020000000000110020580080c0402000000000000000104000000020000010020000000000000000000000010044000000100000000000400000100000",
      "type": "0x2",
      "transactionHash": "0x78f51d5d924a7e289943c745f6899519d6a0dbfe4a53527532effefecb45f27c",
      "transactionIndex": "0x57",
      "blockHash": "0x9fe516f9c5a67689d6f078d2256bb353a9b031855bd2df44fb4c74d42a52e2ba",
      "blockNumber": "0x412e02f",
      "gasUsed": "0x9326d",
      "effectiveGasPrice": "0x18c8a629ce9",
      "from": "0xda88261bfed59ab29ee3c1407cd0060411812347",
      "to": "0x67366782805870060151383f4bbff9dab53e5cd6",
      "contractAddress": null
    }
  ],
  "libraries": [],
  "pending": [],
  "returns": {},
  "timestamp": 1740467618,
  "chain": 137,
  "commit": "9293243"
}