{
  "transactions": [
    {
      "hash": "0x5ff94521f46f50ceb7dec94ab75f0ca219b70af0be6713b6817350b0ca6b028b",
      "transactionType": "CREATE2",
      "contractName": "StableSwap",
      "contractAddress": "0xd9f47bac4019fc199cb5d769ca2c2f501a999888",
      "function": null,
      "arguments": [
        "0x67366782805870060151383F4BbFF9daB53e5cD6",
        "0x794a61358D6845594F94dc1DB02A252b5b4814aD"
      ],
      "transaction": {
        "from": "0xaebdfcf4a528de8b480a7b69ecaf17addb8b9959",
        "to": "0x4e59b44847b379578588920ca78fbf26c0b4956c",
        "gas": "0x3d8dce",
        "value": "0x0",
        "input": "0x000000000000000000000000000000000000000000000000000000000000087f60a0604052671bc16d674ec800005f5534801561001a575f80fd5b506040516139cc3803806139cc833981810160405281019061003c9190610695565b81808073ffffffffffffffffffffffffffffffffffffffff1660808173ffffffffffffffffffffffffffffffffffffffff168152505050610082306100fe60201b60201c565b508173ffffffffffffffffffffffffffffffffffffffff1660808173ffffffffffffffffffffffffffffffffffffffff16815250508060065f6101000a81548173ffffffffffffffffffffffffffffffffffffffff021916908373ffffffffffffffffffffffffffffffffffffffff16021790555050506106d3565b61011b8161011061011e60201b60201c565b6101a960201b60201c565b50565b61012661057f565b604051806101c001604052805f151581526020016001151581526020016001151581526020015f151581526020015f151581526020015f151581526020016001151581526020015f151581526020015f151581526020015f151581526020016001151581526020015f151581526020015f151581526020015f1515815250905090565b6101d46120008373ffffffffffffffffffffffffffffffffffffffff1661053860201b90919060201c565b1515815f0151151514158061021b575061020f6110008373ffffffffffffffffffffffffffffffffffffffff1661053860201b90919060201c565b15158160200151151514155b80610258575061024c6108008373ffffffffffffffffffffffffffffffffffffffff1661053860201b90919060201c565b15158160400151151514155b8061029557506102896104008373ffffffffffffffffffffffffffffffffffffffff1661053860201b90919060201c565b15158160600151151514155b806102d257506102c66102008373ffffffffffffffffffffffffffffffffffffffff1661053860201b90919060201c565b15158160800151151514155b8061030f57506103036101008373ffffffffffffffffffffffffffffffffffffffff1661053860201b90919060201c565b15158160a00151151514155b8061034b575061033f60808373ffffffffffffffffffffffffffffffffffffffff1661053860201b90919060201c565b15158160c00151151514155b80610387575061037b60408373ffffffffffffffffffffffffffffffffffffffff1661053860201b90919060201c565b15158160e00151151514155b806103c457506103b760208373ffffffffffffffffffffffffffffffffffffffff1661053860201b90919060201c565b1515816101000151151514155b8061040157506103f460108373ffffffffffffffffffffffffffffffffffffffff1661053860201b90919060201c565b1515816101200151151514155b8061043e575061043160088373ffffffffffffffffffffffffffffffffffffffff1661053860201b90919060201c565b1515816101400151151514155b8061047b575061046e60048373ffffffffffffffffffffffffffffffffffffffff1661053860201b90919060201c565b1515816101600151151514155b806104b857506104ab60028373ffffffffffffffffffffffffffffffffffffffff1661053860201b90919060201c565b1515816101800151151514155b806104f557506104e860018373ffffffffffffffffffffffffffffffffffffffff1661053860201b90919060201c565b1515816101a00151151514155b15610534576105338263e65af6a060e01b7bffffffffffffffffffffffffffffffffffffffffffffffffffffffff191661055d60201b90919060201c565b5b5050565b5f8082841673ffffffffffffffffffffffffffffffffffffffff161415905092915050565b815f5273ffffffffffffffffffffffffffffffffffffffff811660045260245ffd5b604051806101c001604052805f151581526020015f151581526020015f151581526020015f151581526020015f151581526020015f151581526020015f151581526020015f151581526020015f151581526020015f151581526020015f151581526020015f151581526020015f151581526020015f151581525090565b5f80fd5b5f73ffffffffffffffffffffffffffffffffffffffff82169050919050565b5f61062982610600565b9050919050565b5f61063a8261061f565b9050919050565b61064a81610630565b8114610654575f80fd5b50565b5f8151905061066581610641565b92915050565b6106748161061f565b811461067e575f80fd5b50565b5f8151905061068f8161066b565b92915050565b5f80604083850312156106ab576106aa6105fc565b5b5f6106b885828601610657565b92505060206106c985828601610681565b9150509250929050565b6080516132866107465f395f81816104d60152818161057401528181610808015281816108b201528181610957015281816109f401528181610abf01528181610b6201528181610cb101528181610cd601528181610d70015281816111770152818161145c015261152e01526132865ff3fe608060405234801561000f575f80fd5b5060043610610134575f3560e01c80639f063efc116100b6578063d21220a71161007a578063d21220a71461038d578063dc4c90d3146103ab578063dc98354e146103c9578063e1b4af69146103f9578063e2bbb15814610429578063eaa35bc91461044557610134565b80639f063efc146102bf578063a03e4bc3146102f0578063b47b2fb11461030e578063b6a8b0fa1461033f578063c4e833ce1461036f57610134565b8063441a3e70116100fd578063441a3e70146101f2578063575e24b41461020e5780636360c3ee146102405780636c2bbe7e1461025e5780636fe7e6eb1461028f57610134565b8062953ae8146101385780630dfe168114610156578063164d1f0a1461017457806321d0ee7014610192578063259982e5146101c2575b5f80fd5b610140610464565b60405161014d9190612426565b60405180910390f35b61015e610489565b60405161016b9190612426565b60405180910390f35b61017c6104ae565b6040516101899190612426565b60405180910390f35b6101ac60048036038101906101a79190612512565b6104d3565b6040516101b991906125d2565b60405180910390f35b6101dc60048036038101906101d79190612512565b610571565b6040516101e991906125d2565b60405180910390f35b61020c6004803603810190610207919061261e565b61060f565b005b6102286004803603810190610223919061267a565b610803565b6040516102379392919061275f565b60405180910390f35b6102486108a9565b60405161025591906127a3565b60405180910390f35b610278600480360381019061027391906127e6565b6108ae565b6040516102869291906128a3565b60405180910390f35b6102a960048036038101906102a4919061292a565b610954565b6040516102b691906125d2565b60405180910390f35b6102d960048036038101906102d491906127e6565b6109f0565b6040516102e79291906128a3565b60405180910390f35b6102f8610a96565b60405161030591906129e1565b60405180910390f35b610328600480360381019061032391906129fa565b610abb565b604051610336929190612aae565b60405180910390f35b61035960048036038101906103549190612ad5565b610b5f565b60405161036691906125d2565b60405180910390f35b610377610bff565b6040516103849190612ca5565b60405180910390f35b610395610c8a565b6040516103a29190612426565b60405180910390f35b6103b3610caf565b6040516103c09190612cdf565b60405180910390f35b6103e360048036038101906103de9190612cf8565b610cd3565b6040516103f091906125d2565b60405180910390f35b610413600480360381019061040e9190612ad5565b610d6d565b60405161042091906125d2565b60405180910390f35b610443600480360381019061043e919061261e565b610e0d565b005b61044d611005565b60405161045b929190612d48565b60405180910390f35b60055f9054906101000a900473ffffffffffffffffffffffffffffffffffffffff1681565b60025f9054906101000a900473ffffffffffffffffffffffffffffffffffffffff1681565b60045f9054906101000a900473ffffffffffffffffffffffffffffffffffffffff1681565b5f7f000000000000000000000000000000000000000000000000000000000000000073ffffffffffffffffffffffffffffffffffffffff163373ffffffffffffffffffffffffffffffffffffffff1614610559576040517fae18210a00000000000000000000000000000000000000000000000000000000815260040160405180910390fd5b6105668686868686611141565b905095945050505050565b5f7f000000000000000000000000000000000000000000000000000000000000000073ffffffffffffffffffffffffffffffffffffffff163373ffffffffffffffffffffffffffffffffffffffff16146105f7576040517fae18210a00000000000000000000000000000000000000000000000000000000815260040160405180910390fd5b6106048686868686611174565b905095945050505050565b5f80610619611005565b915091505f818361062a9190612d9c565b84866106369190612d9c565b5f546106429190612dcf565b61064c9190612e3d565b9050805f8082825461065e9190612e6d565b925050819055508060015f3373ffffffffffffffffffffffffffffffffffffffff1673ffffffffffffffffffffffffffffffffffffffff1681526020019081526020015f205f8282546106b19190612e6d565b925050819055506106c2858561122c565b60025f9054906101000a900473ffffffffffffffffffffffffffffffffffffffff1673ffffffffffffffffffffffffffffffffffffffff1663a9059cbb33876040518363ffffffff1660e01b815260040161071e929190612ea0565b6020604051808303815f875af115801561073a573d5f803e3d5ffd5b505050506040513d601f19601f8201168201806040525081019061075e9190612ef1565b5060035f9054906101000a900473ffffffffffffffffffffffffffffffffffffffff1673ffffffffffffffffffffffffffffffffffffffff1663a9059cbb33866040518363ffffffff1660e01b81526004016107bb929190612ea0565b6020604051808303815f875af11580156107d7573d5f803e3d5ffd5b505050506040513d601f19601f820116820180604052508101906107fb9190612ef1565b505050505050565b5f805f7f000000000000000000000000000000000000000000000000000000000000000073ffffffffffffffffffffffffffffffffffffffff163373ffffffffffffffffffffffffffffffffffffffff161461088b576040517fae18210a00000000000000000000000000000000000000000000000000000000815260040160405180910390fd5b61089888888888886113c0565b925092509250955095509592505050565b5f5481565b5f807f000000000000000000000000000000000000000000000000000000000000000073ffffffffffffffffffffffffffffffffffffffff163373ffffffffffffffffffffffffffffffffffffffff1614610935576040517fae18210a00000000000000000000000000000000000000000000000000000000815260040160405180910390fd5b610944898989898989896115d9565b9150915097509795505050505050565b5f7f000000000000000000000000000000000000000000000000000000000000000073ffffffffffffffffffffffffffffffffffffffff163373ffffffffffffffffffffffffffffffffffffffff16146109da576040517fae18210a00000000000000000000000000000000000000000000000000000000815260040160405180910390fd5b6109e68585858561160d565b9050949350505050565b5f807f000000000000000000000000000000000000000000000000000000000000000073ffffffffffffffffffffffffffffffffffffffff163373ffffffffffffffffffffffffffffffffffffffff1614610a77576040517fae18210a00000000000000000000000000000000000000000000000000000000815260040160405180910390fd5b610a8689898989898989611cf6565b9150915097509795505050505050565b60065f9054906101000a900473ffffffffffffffffffffffffffffffffffffffff1681565b5f807f000000000000000000000000000000000000000000000000000000000000000073ffffffffffffffffffffffffffffffffffffffff163373ffffffffffffffffffffffffffffffffffffffff1614610b42576040517fae18210a00000000000000000000000000000000000000000000000000000000815260040160405180910390fd5b610b50888888888888611d2a565b91509150965096945050505050565b5f7f000000000000000000000000000000000000000000000000000000000000000073ffffffffffffffffffffffffffffffffffffffff163373ffffffffffffffffffffffffffffffffffffffff1614610be5576040517fae18210a00000000000000000000000000000000000000000000000000000000815260040160405180910390fd5b610bf3878787878787611d5e565b90509695505050505050565b610c0761236a565b604051806101c001604052805f151581526020016001151581526020016001151581526020015f151581526020015f151581526020015f151581526020016001151581526020015f151581526020015f151581526020015f151581526020016001151581526020015f151581526020015f151581526020015f1515815250905090565b60035f9054906101000a900473ffffffffffffffffffffffffffffffffffffffff1681565b7f000000000000000000000000000000000000000000000000000000000000000081565b5f7f000000000000000000000000000000000000000000000000000000000000000073ffffffffffffffffffffffffffffffffffffffff163373ffffffffffffffffffffffffffffffffffffffff1614610d59576040517fae18210a00000000000000000000000000000000000000000000000000000000815260040160405180910390fd5b610d64848484611d91565b90509392505050565b5f7f000000000000000000000000000000000000000000000000000000000000000073ffffffffffffffffffffffffffffffffffffffff163373ffffffffffffffffffffffffffffffffffffffff1614610df3576040517fae18210a00000000000000000000000000000000000000000000000000000000815260040160405180910390fd5b610e01878787878787611dc4565b90509695505050505050565b5f80610e17611005565b915091505f8183610e289190612d9c565b8486610e349190612d9c565b5f54610e409190612dcf565b610e4a9190612e3d565b9050805f80828254610e5c9190612d9c565b925050819055508060015f3373ffffffffffffffffffffffffffffffffffffffff1673ffffffffffffffffffffffffffffffffffffffff1681526020019081526020015f205f828254610eaf9190612d9c565b9250508190555060025f9054906101000a900473ffffffffffffffffffffffffffffffffffffffff1673ffffffffffffffffffffffffffffffffffffffff166323b872dd3330886040518463ffffffff1660e01b8152600401610f1493929190612f1c565b6020604051808303815f875af1158015610f30573d5f803e3d5ffd5b505050506040513d601f19601f82011682018060405250810190610f549190612ef1565b5060035f9054906101000a900473ffffffffffffffffffffffffffffffffffffffff1673ffffffffffffffffffffffffffffffffffffffff166323b872dd3330876040518463ffffffff1660e01b8152600401610fb393929190612f1c565b6020604051808303815f875af1158015610fcf573d5f803e3d5ffd5b505050506040513d601f19601f82011682018060405250810190610ff39190612ef1565b50610ffe8585611df7565b5050505050565b5f8060045f9054906101000a900473ffffffffffffffffffffffffffffffffffffffff1673ffffffffffffffffffffffffffffffffffffffff166370a08231306040518263ffffffff1660e01b81526004016110619190612426565b602060405180830381865afa15801561107c573d5f803e3d5ffd5b505050506040513d601f19601f820116820180604052508101906110a09190612f65565b60055f9054906101000a900473ffffffffffffffffffffffffffffffffffffffff1673ffffffffffffffffffffffffffffffffffffffff166370a08231306040518263ffffffff1660e01b81526004016110fa9190612426565b602060405180830381865afa158015611115573d5f803e3d5ffd5b505050506040513d601f19601f820116820180604052508101906111399190612f65565b915091509091565b5f6040517f0a85dc2900000000000000000000000000000000000000000000000000000000815260040160405180910390fd5b5f7f000000000000000000000000000000000000000000000000000000000000000073ffffffffffffffffffffffffffffffffffffffff163373ffffffffffffffffffffffffffffffffffffffff16146111fa576040517fae18210a00000000000000000000000000000000000000000000000000000000815260040160405180910390fd5b6040517f6be789ec00000000000000000000000000000000000000000000000000000000815260040160405180910390fd5b5f82146112f45760065f9054906101000a900473ffffffffffffffffffffffffffffffffffffffff1673ffffffffffffffffffffffffffffffffffffffff166369328dec60025f9054906101000a900473ffffffffffffffffffffffffffffffffffffffff1684306040518463ffffffff1660e01b81526004016112b293929190612f90565b6020604051808303815f875af11580156112ce573d5f803e3d5ffd5b505050506040513d601f19601f820116820180604052508101906112f29190612f65565b505b5f81146113bc5760065f9054906101000a900473ffffffffffffffffffffffffffffffffffffffff1673ffffffffffffffffffffffffffffffffffffffff166369328dec60035f9054906101000a900473ffffffffffffffffffffffffffffffffffffffff1683306040518463ffffffff1660e01b815260040161137a93929190612f90565b6020604051808303815f875af1158015611396573d5f803e3d5ffd5b505050506040513d601f19601f820116820180604052508101906113ba9190612f65565b505b5050565b5f805f805f875f0160208101906113d79190612fd9565b611405578860200160208101906113ee919061302e565b895f016020810190611400919061302e565b61142b565b885f016020810190611417919061302e565b89602001602081019061142a919061302e565b5b915091505f8089602001351290505f81611449578960200135611458565b896020013561145790613059565b5b90507f000000000000000000000000000000000000000000000000000000000000000073ffffffffffffffffffffffffffffffffffffffff16630b0d9c098530846040518463ffffffff1660e01b81526004016114b7939291906130bf565b5f604051808303815f87803b1580156114ce575f80fd5b505af11580156114e0573d5f803e3d5ffd5b50505050895f0160208101906114f69190612fd9565b15611514576115055f8261122c565b61150f815f611df7565b611529565b61151e815f61122c565b6115285f82611df7565b5b6115787f000000000000000000000000000000000000000000000000000000000000000030835f8773ffffffffffffffffffffffffffffffffffffffff16611f6790949392919063ffffffff16565b5f611582826122a5565b90505f836115a25761159d82611597906130f4565b836122f5565b6115b6565b6115b582836115b0906130f4565b6122f5565b5b905063575e24b460e01b815f985098509850505050505050955095509592505050565b5f806040517f0a85dc2900000000000000000000000000000000000000000000000000000000815260040160405180910390fd5b5f8073ffffffffffffffffffffffffffffffffffffffff1660025f9054906101000a900473ffffffffffffffffffffffffffffffffffffffff1673ffffffffffffffffffffffffffffffffffffffff16141580156116b857505f73ffffffffffffffffffffffffffffffffffffffff1660035f9054906101000a900473ffffffffffffffffffffffffffffffffffffffff1673ffffffffffffffffffffffffffffffffffffffff1614155b156116ef576040517f0dc149f000000000000000000000000000000000000000000000000000000000815260040160405180910390fd5b835f016020810190611701919061302e565b60025f6101000a81548173ffffffffffffffffffffffffffffffffffffffff021916908373ffffffffffffffffffffffffffffffffffffffff160217905550836020016020810190611753919061302e565b60035f6101000a81548173ffffffffffffffffffffffffffffffffffffffff021916908373ffffffffffffffffffffffffffffffffffffffff16021790555060065f9054906101000a900473ffffffffffffffffffffffffffffffffffffffff1673ffffffffffffffffffffffffffffffffffffffff1663cff027d960025f9054906101000a900473ffffffffffffffffffffffffffffffffffffffff166040518263ffffffff1660e01b815260040161180d9190612426565b6020604051808303815f875af1158015611829573d5f803e3d5ffd5b505050506040513d601f19601f8201168201806040525081019061184d919061314e565b60045f6101000a81548173ffffffffffffffffffffffffffffffffffffffff021916908373ffffffffffffffffffffffffffffffffffffffff16021790555060065f9054906101000a900473ffffffffffffffffffffffffffffffffffffffff1673ffffffffffffffffffffffffffffffffffffffff1663cff027d960035f9054906101000a900473ffffffffffffffffffffffffffffffffffffffff166040518263ffffffff1660e01b81526004016119079190612426565b6020604051808303815f875af1158015611923573d5f803e3d5ffd5b505050506040513d601f19601f82011682018060405250810190611947919061314e565b60055f6101000a81548173ffffffffffffffffffffffffffffffffffffffff021916908373ffffffffffffffffffffffffffffffffffffffff16021790555060025f9054906101000a900473ffffffffffffffffffffffffffffffffffffffff1673ffffffffffffffffffffffffffffffffffffffff1663095ea7b360065f9054906101000a900473ffffffffffffffffffffffffffffffffffffffff167fffffffffffffffffffffffffffffffffffffffffffffffffffffffffffffffff6040518363ffffffff1660e01b8152600401611a23929190612ea0565b6020604051808303815f875af1158015611a3f573d5f803e3d5ffd5b505050506040513d601f19601f82011682018060405250810190611a639190612ef1565b5060035f9054906101000a900473ffffffffffffffffffffffffffffffffffffffff1673ffffffffffffffffffffffffffffffffffffffff1663095ea7b360065f9054906101000a900473ffffffffffffffffffffffffffffffffffffffff167fffffffffffffffffffffffffffffffffffffffffffffffffffffffffffffffff6040518363ffffffff1660e01b8152600401611b01929190612ea0565b6020604051808303815f875af1158015611b1d573d5f803e3d5ffd5b505050506040513d601f19601f82011682018060405250810190611b419190612ef1565b505f620f424090505f620f42409050671bc16d674ec8000060015f8973ffffffffffffffffffffffffffffffffffffffff1673ffffffffffffffffffffffffffffffffffffffff1681526020019081526020015f208190555060025f9054906101000a900473ffffffffffffffffffffffffffffffffffffffff1673ffffffffffffffffffffffffffffffffffffffff166323b872dd8830856040518463ffffffff1660e01b8152600401611bf893929190612f1c565b6020604051808303815f875af1158015611c14573d5f803e3d5ffd5b505050506040513d601f19601f82011682018060405250810190611c389190612ef1565b5060035f9054906101000a900473ffffffffffffffffffffffffffffffffffffffff1673ffffffffffffffffffffffffffffffffffffffff166323b872dd8830846040518463ffffffff1660e01b8152600401611c9793929190612f1c565b6020604051808303815f875af1158015611cb3573d5f803e3d5ffd5b505050506040513d601f19601f82011682018060405250810190611cd79190612ef1565b50611ce28282611df7565b636fe7e6eb60e01b92505050949350505050565b5f806040517f0a85dc2900000000000000000000000000000000000000000000000000000000815260040160405180910390fd5b5f806040517f0a85dc2900000000000000000000000000000000000000000000000000000000815260040160405180910390fd5b5f6040517f0a85dc2900000000000000000000000000000000000000000000000000000000815260040160405180910390fd5b5f6040517f0a85dc2900000000000000000000000000000000000000000000000000000000815260040160405180910390fd5b5f6040517f0a85dc2900000000000000000000000000000000000000000000000000000000815260040160405180910390fd5b5f8214611ead5760065f9054906101000a900473ffffffffffffffffffffffffffffffffffffffff1673ffffffffffffffffffffffffffffffffffffffff1663e8eda9df60025f9054906101000a900473ffffffffffffffffffffffffffffffffffffffff1684305f6040518563ffffffff1660e01b8152600401611e7f94939291906131bf565b5f604051808303815f87803b158015611e96575f80fd5b505af1158015611ea8573d5f803e3d5ffd5b505050505b5f8114611f635760065f9054906101000a900473ffffffffffffffffffffffffffffffffffffffff1673ffffffffffffffffffffffffffffffffffffffff1663e8eda9df60035f9054906101000a900473ffffffffffffffffffffffffffffffffffffffff1683305f6040518563ffffffff1660e01b8152600401611f3594939291906131bf565b5f604051808303815f87803b158015611f4c575f80fd5b505af1158015611f5e573d5f803e3d5ffd5b505050505b5050565b8015611ffa578373ffffffffffffffffffffffffffffffffffffffff1663f5298aca84611fa98873ffffffffffffffffffffffffffffffffffffffff1661230c565b856040518463ffffffff1660e01b8152600401611fc893929190613202565b5f604051808303815f87803b158015611fdf575f80fd5b505af1158015611ff1573d5f803e3d5ffd5b5050505061229e565b6120198573ffffffffffffffffffffffffffffffffffffffff1661232b565b15612094578373ffffffffffffffffffffffffffffffffffffffff166311da60b4836040518263ffffffff1660e01b815260040160206040518083038185885af1158015612069573d5f803e3d5ffd5b50505050506040513d601f19601f8201168201806040525081019061208e9190612f65565b5061229d565b8373ffffffffffffffffffffffffffffffffffffffff1663a5841194866040518263ffffffff1660e01b81526004016120cd9190613237565b5f604051808303815f87803b1580156120e4575f80fd5b505af11580156120f6573d5f803e3d5ffd5b505050503073ffffffffffffffffffffffffffffffffffffffff168373ffffffffffffffffffffffffffffffffffffffff16146121b0578473ffffffffffffffffffffffffffffffffffffffff166323b872dd8486856040518463ffffffff1660e01b815260040161216a93929190612f1c565b6020604051808303815f875af1158015612186573d5f803e3d5ffd5b505050506040513d601f19601f820116820180604052508101906121aa9190612ef1565b5061222d565b8473ffffffffffffffffffffffffffffffffffffffff1663a9059cbb85846040518363ffffffff1660e01b81526004016121eb929190612ea0565b6020604051808303815f875af1158015612207573d5f803e3d5ffd5b505050506040513d601f19601f8201168201806040525081019061222b9190612ef1565b505b8373ffffffffffffffffffffffffffffffffffffffff166311da60b46040518163ffffffff1660e01b81526004016020604051808303815f875af1158015612277573d5f803e3d5ffd5b505050506040513d601f19601f8201168201806040525081019061229b9190612f65565b505b5b5050505050565b5f6f8000000000000000000000000000000082106122ed576122ec6393dafdf160e01b7bffffffffffffffffffffffffffffffffffffffffffffffffffffffff1916612362565b5b819050919050565b5f8160018060801b03168360801b17905092915050565b5f8173ffffffffffffffffffffffffffffffffffffffff169050919050565b5f8073ffffffffffffffffffffffffffffffffffffffff168273ffffffffffffffffffffffffffffffffffffffff16149050919050565b805f5260045ffd5b604051806101c001604052805f151581526020015f151581526020015f151581526020015f151581526020015f151581526020015f151581526020015f151581526020015f151581526020015f151581526020015f151581526020015f151581526020015f151581526020015f151581526020015f151581525090565b5f73ffffffffffffffffffffffffffffffffffffffff82169050919050565b5f612410826123e7565b9050919050565b61242081612406565b82525050565b5f6020820190506124395f830184612417565b92915050565b5f80fd5b5f80fd5b61245081612406565b811461245a575f80fd5b50565b5f8135905061246b81612447565b92915050565b5f80fd5b5f60a0828403121561248a57612489612471565b5b81905092915050565b5f608082840312156124a8576124a7612471565b5b81905092915050565b5f80fd5b5f80fd5b5f80fd5b5f8083601f8401126124d2576124d16124b1565b5b8235905067ffffffffffffffff8111156124ef576124ee6124b5565b5b60208301915083600182028301111561250b5761250a6124b9565b5b9250929050565b5f805f805f610160868803121561252c5761252b61243f565b5b5f6125398882890161245d565b955050602061254a88828901612475565b94505060c061255b88828901612493565b93505061014086013567ffffffffffffffff81111561257d5761257c612443565b5b612589888289016124bd565b92509250509295509295909350565b5f7fffffffff0000000000000000000000000000000000000000000000000000000082169050919050565b6125cc81612598565b82525050565b5f6020820190506125e55f8301846125c3565b92915050565b5f819050919050565b6125fd816125eb565b8114612607575f80fd5b50565b5f81359050612618816125f4565b92915050565b5f80604083850312156126345761263361243f565b5b5f6126418582860161260a565b92505060206126528582860161260a565b9150509250929050565b5f6060828403121561267157612670612471565b5b81905092915050565b5f805f805f61014086880312156126945761269361243f565b5b5f6126a18882890161245d565b95505060206126b288828901612475565b94505060c06126c38882890161265c565b93505061012086013567ffffffffffffffff8111156126e5576126e4612443565b5b6126f1888289016124bd565b92509250509295509295909350565b5f819050919050565b5f819050919050565b5f61272c61272761272284612700565b612709565b612700565b9050919050565b61273c81612712565b82525050565b5f62ffffff82169050919050565b61275981612742565b82525050565b5f6060820190506127725f8301866125c3565b61277f6020830185612733565b61278c6040830184612750565b949350505050565b61279d816125eb565b82525050565b5f6020820190506127b65f830184612794565b92915050565b6127c581612700565b81146127cf575f80fd5b50565b5f813590506127e0816127bc565b92915050565b5f805f805f805f6101a0888a0312156128025761280161243f565b5b5f61280f8a828b0161245d565b97505060206128208a828b01612475565b96505060c06128318a828b01612493565b9550506101406128438a828b016127d2565b9450506101606128558a828b016127d2565b93505061018088013567ffffffffffffffff81111561287757612876612443565b5b6128838a828b016124bd565b925092505092959891949750929550565b61289d81612712565b82525050565b5f6040820190506128b65f8301856125c3565b6128c36020830184612894565b9392505050565b6128d3816123e7565b81146128dd575f80fd5b50565b5f813590506128ee816128ca565b92915050565b5f8160020b9050919050565b612909816128f4565b8114612913575f80fd5b50565b5f8135905061292481612900565b92915050565b5f805f8061010085870312156129435761294261243f565b5b5f6129508782880161245d565b945050602061296187828801612475565b93505060c0612972878288016128e0565b92505060e061298387828801612916565b91505092959194509250565b5f6129a96129a461299f846123e7565b612709565b6123e7565b9050919050565b5f6129ba8261298f565b9050919050565b5f6129cb826129b0565b9050919050565b6129db816129c1565b82525050565b5f6020820190506129f45f8301846129d2565b92915050565b5f805f805f806101608789031215612a1557612a1461243f565b5b5f612a2289828a0161245d565b9650506020612a3389828a01612475565b95505060c0612a4489828a0161265c565b945050610120612a5689828a016127d2565b93505061014087013567ffffffffffffffff811115612a7857612a77612443565b5b612a8489828a016124bd565b92509250509295509295509295565b5f81600f0b9050919050565b612aa881612a93565b82525050565b5f604082019050612ac15f8301856125c3565b612ace6020830184612a9f565b9392505050565b5f805f805f806101208789031215612af057612aef61243f565b5b5f612afd89828a0161245d565b9650506020612b0e89828a01612475565b95505060c0612b1f89828a0161260a565b94505060e0612b3089828a0161260a565b93505061010087013567ffffffffffffffff811115612b5257612b51612443565b5b612b5e89828a016124bd565b92509250509295509295509295565b5f8115159050919050565b612b8181612b6d565b82525050565b6101c082015f820151612b9c5f850182612b78565b506020820151612baf6020850182612b78565b506040820151612bc26040850182612b78565b506060820151612bd56060850182612b78565b506080820151612be86080850182612b78565b5060a0820151612bfb60a0850182612b78565b5060c0820151612c0e60c0850182612b78565b5060e0820151612c2160e0850182612b78565b50610100820151612c36610100850182612b78565b50610120820151612c4b610120850182612b78565b50610140820151612c60610140850182612b78565b50610160820151612c75610160850182612b78565b50610180820151612c8a610180850182612b78565b506101a0820151612c9f6101a0850182612b78565b50505050565b5f6101c082019050612cb95f830184612b87565b92915050565b5f612cc9826129b0565b9050919050565b612cd981612cbf565b82525050565b5f602082019050612cf25f830184612cd0565b92915050565b5f805f60e08486031215612d0f57612d0e61243f565b5b5f612d1c8682870161245d565b9350506020612d2d86828701612475565b92505060c0612d3e868287016128e0565b9150509250925092565b5f604082019050612d5b5f830185612794565b612d686020830184612794565b9392505050565b7f4e487b71000000000000000000000000000000000000000000000000000000005f52601160045260245ffd5b5f612da6826125eb565b9150612db1836125eb565b9250828201905080821115612dc957612dc8612d6f565b5b92915050565b5f612dd9826125eb565b9150612de4836125eb565b9250828202612df2816125eb565b91508282048414831517612e0957612e08612d6f565b5b5092915050565b7f4e487b71000000000000000000000000000000000000000000000000000000005f52601260045260245ffd5b5f612e47826125eb565b9150612e52836125eb565b925082612e6257612e61612e10565b5b828204905092915050565b5f612e77826125eb565b9150612e82836125eb565b9250828203905081811115612e9a57612e99612d6f565b5b92915050565b5f604082019050612eb35f830185612417565b612ec06020830184612794565b9392505050565b612ed081612b6d565b8114612eda575f80fd5b50565b5f81519050612eeb81612ec7565b92915050565b5f60208284031215612f0657612f0561243f565b5b5f612f1384828501612edd565b91505092915050565b5f606082019050612f2f5f830186612417565b612f3c6020830185612417565b612f496040830184612794565b949350505050565b5f81519050612f5f816125f4565b92915050565b5f60208284031215612f7a57612f7961243f565b5b5f612f8784828501612f51565b91505092915050565b5f606082019050612fa35f830186612417565b612fb06020830185612794565b612fbd6040830184612417565b949350505050565b5f81359050612fd381612ec7565b92915050565b5f60208284031215612fee57612fed61243f565b5b5f612ffb84828501612fc5565b91505092915050565b61300d81612406565b8114613017575f80fd5b50565b5f8135905061302881613004565b92915050565b5f602082840312156130435761304261243f565b5b5f6130508482850161301a565b91505092915050565b5f61306382612700565b91507f8000000000000000000000000000000000000000000000000000000000000000820361309557613094612d6f565b5b815f039050919050565b5f6130a9826129b0565b9050919050565b6130b98161309f565b82525050565b5f6060820190506130d25f8301866130b0565b6130df6020830185612417565b6130ec6040830184612794565b949350505050565b5f6130fe82612a93565b91507fffffffffffffffffffffffffffffffff8000000000000000000000000000000082036131305761312f612d6f565b5b815f039050919050565b5f8151905061314881612447565b92915050565b5f602082840312156131635761316261243f565b5b5f6131708482850161313a565b91505092915050565b5f819050919050565b5f61ffff82169050919050565b5f6131a96131a461319f84613179565b612709565b613182565b9050919050565b6131b98161318f565b82525050565b5f6080820190506131d25f830187612417565b6131df6020830186612794565b6131ec6040830185612417565b6131f960608301846131b0565b95945050505050565b5f6060820190506132155f830186612417565b6132226020830185612794565b61322f6040830184612794565b949350505050565b5f60208201905061324a5f8301846130b0565b9291505056fea2646970667358221220bf1d63c45c575075358db8131bb05e84bf6844159169ef815bb24c26da5b62c664736f6c634300081a003300000000000000000000000067366782805870060151383f4bbff9dab53e5cd6000000000000000000000000794a61358d6845594f94dc1db02a252b5b4814ad",
        "nonce": "0x14",
        "chainId": "0x89"
      },
      "additionalContracts": [],
      "isFixedGasLimit": false
    },
    {
      "hash": "0x7509da8c8377b4474b752ddfffbd6bea5b2e7a101a049bf2f9f43ea8dc7395a6",
      "transactionType": "CALL",
      "contractName": null,
      "contractAddress": "0x3c499c542cef5e3811e1192ce70d8cc03d5c3359",
      "function": "approve(address,uint256)",
      "arguments": [
        "0xD9F47BAc4019FC199cb5D769CA2c2F501A999888",
        "1000000"
      ],
      "transaction": {
        "from": "0xaebdfcf4a528de8b480a7b69ecaf17addb8b9959",
        "to": "0x3c499c542cef5e3811e1192ce70d8cc03d5c3359",
        "gas": "0x12b1b",
        "value": "0x0",
        "input": "0x095ea7b3000000000000000000000000d9f47bac4019fc199cb5d769ca2c2f501a99988800000000000000000000000000000000000000000000000000000000000f4240",
        "nonce": "0x15",
        "chainId": "0x89"
      },
      "additionalContracts": [],
      "isFixedGasLimit": false
    },
    {
      "hash": "0xefc952343554b01940dc290e27b902700b820f50f46152f34516648ffb150084",
      "transactionType": "CALL",
      "contractName": null,
      "contractAddress": "0xc2132d05d31c914a87c6611c10748aeb04b58e8f",
      "function": "approve(address,uint256)",
      "arguments": [
        "0xD9F47BAc4019FC199cb5D769CA2c2F501A999888",
        "1000000"
      ],
      "transaction": {
        "from": "0xaebdfcf4a528de8b480a7b69ecaf17addb8b9959",
        "to": "0xc2132d05d31c914a87c6611c10748aeb04b58e8f",
        "gas": "0x11712",
        "value": "0x0",
        "input": "0x095ea7b3000000000000000000000000d9f47bac4019fc199cb5d769ca2c2f501a99988800000000000000000000000000000000000000000000000000000000000f4240",
        "nonce": "0x16",
        "chainId": "0x89"
      },
      "additionalContracts": [],
      "isFixedGasLimit": false
    },
    {
      "hash": "0x221692de441220740181be45d886a1b64205a5cb753403165d821e71b94f27f0",
      "transactionType": "CALL",
      "contractName": null,
      "contractAddress": "0x67366782805870060151383f4bbff9dab53e5cd6",
      "function": "initialize((address,address,uint24,int24,address),uint160)",
      "arguments": [
        "(0x3c499c542cEF5E3811e1192ce70d8cC03d5c3359, 0xc2132D05D31c914a87C6611C10748AEb04B58e8F, 3000, 1, 0xD9F47BAc4019FC199cb5D769CA2c2F501A999888)",
        "79228162514264337593543950336"
      ],
      "transaction": {
        "from": "0xaebdfcf4a528de8b480a7b69ecaf17addb8b9959",
        "to": "0x67366782805870060151383f4bbff9dab53e5cd6",
        "gas": "0xbb027",
        "value": "0x0",
        "input": "0x6276cbbe0000000000000000000000003c499c542cef5e3811e1192ce70d8cc03d5c3359000000000000000000000000c2132d05d31c914a87c6611c10748aeb04b58e8f0000000000000000000000000000000000000000000000000000000000000bb80000000000000000000000000000000000000000000000000000000000000001000000000000000000000000d9f47bac4019fc199cb5d769ca2c2f501a9998880000000000000000000000000000000000000001000000000000000000000000",
        "nonce": "0x17",
        "chainId": "0x89"
      },
      "additionalContracts": [],
      "isFixedGasLimit": false
    }
  ],
  "receipts": [
    {
      "status": "0x1",
      "cumulativeGasUsed": "0xd04cc9",
      "logs": [
        {
          "address": "0x0000000000000000000000000000000000001010",
          "topics": [
            "0x4dfe1bbbcf077ddc3e01291eea2d5c70c2b422b415d95645b9adcfd678cb1d63",
            "0x0000000000000000000000000000000000000000000000000000000000001010",
            "0x000000000000000000000000aebdfcf4a528de8b480a7b69ecaf17addb8b9959",
            "0x00000000000000000000000069f5c4d08f6bc8cd29fe5f004d46fb566270868d"
          ],
          "data": "0x0000000000000000000000000000000000000000000000000137468d275e6d5d00000000000000000000000000000000000000000000000043b86835693b6f02000000000000000000000000000000000000000000000019b68937289ebb70d5000000000000000000000000000000000000000000000000428121a841dd01a5000000000000000000000000000000000000000000000019b7c07db5c619de32",
          "blockHash": "0x9bd74c0f113c008752322729a90374821ff19dd474152dcd440f2f82127784de",
          "blockNumber": "0x4137120",
          "transactionHash": "0x5ff94521f46f50ceb7dec94ab75f0ca219b70af0be6713b6817350b0ca6b028b",
          "transactionIndex": "0x41",
          "logIndex": "0x1a1",
          "removed": false
        }
      ],
      "logsBloom": "0x00000000000000000000000002000000000000000000000000000000000000000000000000000000200000000000000000008000000000000000000000000000000000000000000000000000000040800000000000000000000100000000000000000000000000000000000000000000000000000000000080000000000000000000000000000000000000000000000000000000000800000010000000000000200000000000000000000000000000000000000000000000000000000000004000000000000000000001000000000000000000000000000000100000000000000000000000000000000000000000000000000000000020000000000000100000",
      "type": "0x2",
      "transactionHash": "0x5ff94521f46f50ceb7dec94ab75f0ca219b70af0be6713b6817350b0ca6b028b",
      "transactionIndex": "0x41",
      "blockHash": "0x9bd74c0f113c008752322729a90374821ff19dd474152dcd440f2f82127784de",
      "blockNumber": "0x4137120",
      "gasUsed": "0x2c905f",
      "effectiveGasPrice": "0x6fc23b280",
      "from": "0xaebdfcf4a528de8b480a7b69ecaf17addb8b9959",
      "to": "0x4e59b44847b379578588920ca78fbf26c0b4956c",
      "contractAddress": null
    },
    {
      "status": "0x1",
      "cumulativeGasUsed": "0xd12556",
      "logs": [
        {
          "address": "0x3c499c542cef5e3811e1192ce70d8cc03d5c3359",
          "topics": [
            "0x8c5be1e5ebec7d5bd14f71427d1e84f3dd0314c0f7b2291e5b200ac8c7c3b925",
            "0x000000000000000000000000aebdfcf4a528de8b480a7b69ecaf17addb8b9959",
            "0x000000000000000000000000d9f47bac4019fc199cb5d769ca2c2f501a999888"
          ],
          "data": "0x00000000000000000000000000000000000000000000000000000000000f4240",
          "blockHash": "0x9bd74c0f113c008752322729a90374821ff19dd474152dcd440f2f82127784de",
          "blockNumber": "0x4137120",
          "transactionHash": "0x7509da8c8377b4474b752ddfffbd6bea5b2e7a101a049bf2f9f43ea8dc7395a6",
          "transactionIndex": "0x42",
          "logIndex": "0x1a2",
          "removed": false
        },
        {
          "address": "0x0000000000000000000000000000000000001010",
          "topics": [
            "0x4dfe1bbbcf077ddc3e01291eea2d5c70c2b422b415d95645b9adcfd678cb1d63",
            "0x0000000000000000000000000000000000000000000000000000000000001010",
            "0x000000000000000000000000aebdfcf4a528de8b480a7b69ecaf17addb8b9959",
            "0x00000000000000000000000069f5c4d08f6bc8cd29fe5f004d46fb566270868d"
          ],
          "data": "0x0000000000000000000000000000000000000000000000000005e896f8922267000000000000000000000000000000000000000000000000428121a715943182000000000000000000000000000000000000000000000019b7c07db5c619de32000000000000000000000000000000000000000000000000427b39101d020f1b000000000000000000000000000000000000000000000019b7c6664cbeac0099",
          "blockHash": "0x9bd74c0f113c008752322729a90374821ff19dd474152dcd440f2f82127784de",
          "blockNumber": "0x4137120",
          "transactionHash": "0x7509da8c8377b4474b752ddfffbd6bea5b2e7a101a049bf2f9f43ea8dc7395a6",
          "transactionIndex": "0x42",
          "logIndex": "0x1a3",
          "removed": false
        }
      ],
      "logsBloom": "0x00000000000000000000000002000000000000000000000000000000000000000000000000000000200000000000000000008000000000000000000010200000000000000000010000000000000040800000000000000000000100000000000000000000000000000000000000000000000000000000000080000000000000000000000000000000000000000000000000000000000800000010000000000000220000000000000000000000000000000800000000000000000000000000004000000000000000000001000000000000000000040000000000100000000000000010000000000000000000000000010000000000100020000000000000100000",
      "type": "0x2",
      "transactionHash": "0x7509da8c8377b4474b752ddfffbd6bea5b2e7a101a049bf2f9f43ea8dc7395a6",
      "transactionIndex": "0x42",
      "blockHash": "0x9bd74c0f113c008752322729a90374821ff19dd474152dcd440f2f82127784de",
      "blockNumber": "0x4137120",
      "gasUsed": "0xd88d",
      "effectiveGasPrice": "0x6fc23b280",
      "from": "0xaebdfcf4a528de8b480a7b69ecaf17addb8b9959",
      "to": "0x3c499c542cef5e3811e1192ce70d8cc03d5c3359",
      "contractAddress": null
    },
    {
      "status": "0x1",
      "cumulativeGasUsed": "0xd1ef62",
      "logs": [
        {
          "address": "0xc2132d05d31c914a87c6611c10748aeb04b58e8f",
          "topics": [
            "0x8c5be1e5ebec7d5bd14f71427d1e84f3dd0314c0f7b2291e5b200ac8c7c3b925",
            "0x000000000000000000000000aebdfcf4a528de8b480a7b69ecaf17addb8b9959",
            "0x000000000000000000000000d9f47bac4019fc199cb5d769ca2c2f501a999888"
          ],
          "data": "0x00000000000000000000000000000000000000000000000000000000000f4240",
          "blockHash": "0x9bd74c0f113c008752322729a90374821ff19dd474152dcd440f2f82127784de",
          "blockNumber": "0x4137120",
          "transactionHash": "0xefc952343554b01940dc290e27b902700b820f50f46152f34516648ffb150084",
          "transactionIndex": "0x43",
          "logIndex": "0x1a4",
          "removed": false
        },
        {
          "address": "0x0000000000000000000000000000000000001010",
          "topics": [
            "0x4dfe1bbbcf077ddc3e01291eea2d5c70c2b422b415d95645b9adcfd678cb1d63",
            "0x0000000000000000000000000000000000000000000000000000000000001010",
            "0x000000000000000000000000aebdfcf4a528de8b480a7b69ecaf17addb8b9959",
            "0x00000000000000000000000069f5c4d08f6bc8cd29fe5f004d46fb566270868d"
          ],
          "data": "0x00000000000000000000000000000000000000000000000000058347f733eb24000000000000000000000000000000000000000000000000427b3910174ee102000000000000000000000000000000000000000000000019b7c6664cbeac00990000000000000000000000000000000000000000000000004275b5c8201af5de000000000000000000000000000000000000000000000019b7cbe994b5dfebbd",
          "blockHash": "0x9bd74c0f113c008752322729a90374821ff19dd474152dcd440f2f82127784de",
          "blockNumber": "0x4137120",
          "transactionHash": "0xefc952343554b01940dc290e27b902700b820f50f46152f34516648ffb150084",
          "transactionIndex": "0x43",
          "logIndex": "0x1a5",
          "removed": false
        }
      ],
      "logsBloom": "0x00000000000000000000000002000000000000000000000000000000000000000000000000000000200000000000000100008000000000000000000010200000000000000000010000000000000040800000000000000000000100000000000000000000000000000000000000000000000000000000000080000000000000000000000000080000000000000000000000000000000800000010000000000000220000000000000000000000000000000000000000000000000000000000004000000000000000000001000000000000400000040000000000100000000000000010000000000000000000000000000000000000000020000000000000100000",
      "type": "0x2",
      "transactionHash": "0xefc952343554b01940dc290e27b902700b820f50f46152f34516648ffb150084",
      "transactionIndex": "0x43",
      "blockHash": "0x9bd74c0f113c008752322729a90374821ff19dd474152dcd440f2f82127784de",
      "blockNumber": "0x4137120",
      "gasUsed": "0xca0c",
      "effectiveGasPrice": "0x6fc23b280",
      "from": "0xaebdfcf4a528de8b480a7b69ecaf17addb8b9959",
      "to": "0xc2132d05d31c914a87c6611c10748aeb04b58e8f",
      "contractAddress": null
    },
    {
      "status": "0x1",
      "cumulativeGasUsed": "0xda65a6",
      "logs": [
        {
          "address": "0x67366782805870060151383f4bbff9dab53e5cd6",
          "topics": [
            "0xdd466e674ea557f56295e2d0218a125ea4b4f0f6f3307b95f85e6110838d6438",
            "0xdcf730159202c5f66916941f2d13a677c23438abbc8feb35fecdea4e58af3a34",
            "0x0000000000000000000000003c499c542cef5e3811e1192ce70d8cc03d5c3359",
            "0x000000000000000000000000c2132d05d31c914a87c6611c10748aeb04b58e8f"
          ],
          "data": "0x0000000000000000000000000000000000000000000000000000000000000bb80000000000000000000000000000000000000000000000000000000000000001000000000000000000000000d9f47bac4019fc199cb5d769ca2c2f501a99988800000000000000000000000000000000000000010000000000000000000000000000000000000000000000000000000000000000000000000000000000000000",
          "blockHash": "0x9bd74c0f113c008752322729a90374821ff19dd474152dcd440f2f82127784de",
          "blockNumber": "0x4137120",
          "transactionHash": "0x221692de441220740181be45d886a1b64205a5cb753403165d821e71b94f27f0",
          "transactionIndex": "0x44",
          "logIndex": "0x1a6",
          "removed": false
        },
        {
          "address": "0x3c499c542cef5e3811e1192ce70d8cc03d5c3359",
          "topics": [
            "0x8c5be1e5ebec7d5bd14f71427d1e84f3dd0314c0f7b2291e5b200ac8c7c3b925",
            "0x000000000000000000000000d9f47bac4019fc199cb5d769ca2c2f501a999888",
            "0x000000000000000000000000794a61358d6845594f94dc1db02a252b5b4814ad"
          ],
          "data": "0xffffffffffffffffffffffffffffffffffffffffffffffffffffffffffffffff",
          "blockHash": "0x9bd74c0f113c008752322729a90374821ff19dd474152dcd440f2f82127784de",
          "blockNumber": "0x4137120",
          "transactionHash": "0x221692de441220740181be45d886a1b64205a5cb753403165d821e71b94f27f0",
          "transactionIndex": "0x44",
          "logIndex": "0x1a7",
          "removed": false
        },
        {
          "address": "0xc2132d05d31c914a87c6611c10748aeb04b58e8f",
          "topics": [
            "0x8c5be1e5ebec7d5bd14f71427d1e84f3dd0314c0f7b2291e5b200ac8c7c3b925",
            "0x000000000000000000000000d9f47bac4019fc199cb5d769ca2c2f501a999888",
            "0x000000000000000000000000794a61358d6845594f94dc1db02a252b5b4814ad"
          ],
          "data": "0xffffffffffffffffffffffffffffffffffffffffffffffffffffffffffffffff",
          "blockHash": "0x9bd74c0f113c008752322729a90374821ff19dd474152dcd440f2f82127784de",
          "blockNumber": "0x4137120",
          "transactionHash": "0x221692de441220740181be45d886a1b64205a5cb753403165d821e71b94f27f0",
          "transactionIndex": "0x44",
          "logIndex": "0x1a8",
          "removed": false
        },
        {
          "address": "0x3c499c542cef5e3811e1192ce70d8cc03d5c3359",
          "topics": [
            "0xddf252ad1be2c89b69c2b068fc378daa952ba7f163c4a11628f55a4df523b3ef",
            "0x000000000000000000000000aebdfcf4a528de8b480a7b69ecaf17addb8b9959",
            "0x000000000000000000000000d9f47bac4019fc199cb5d769ca2c2f501a999888"
          ],
          "data": "0x00000000000000000000000000000000000000000000000000000000000f4240",
          "blockHash": "0x9bd74c0f113c008752322729a90374821ff19dd474152dcd440f2f82127784de",
          "blockNumber": "0x4137120",
          "transactionHash": "0x221692de441220740181be45d886a1b64205a5cb753403165d821e71b94f27f0",
          "transactionIndex": "0x44",
          "logIndex": "0x1a9",
          "removed": false
        },
        {
          "address": "0xc2132d05d31c914a87c6611c10748aeb04b58e8f",
          "topics": [
            "0xddf252ad1be2c89b69c2b068fc378daa952ba7f163c4a11628f55a4df523b3ef",
            "0x000000000000000000000000aebdfcf4a528de8b480a7b69ecaf17addb8b9959",
            "0x000000000000000000000000d9f47bac4019fc199cb5d769ca2c2f501a999888"
          ],
          "data": "0x00000000000000000000000000000000000000000000000000000000000f4240",
          "blockHash": "0x9bd74c0f113c008752322729a90374821ff19dd474152dcd440f2f82127784de",
          "blockNumber": "0x4137120",
          "transactionHash": "0x221692de441220740181be45d886a1b64205a5cb753403165d821e71b94f27f0",
          "transactionIndex": "0x44",
          "logIndex": "0x1aa",
          "removed": false
        },
        {
          "address": "0xc2132d05d31c914a87c6611c10748aeb04b58e8f",
          "topics": [
            "0x8c5be1e5ebec7d5bd14f71427d1e84f3dd0314c0f7b2291e5b200ac8c7c3b925",
            "0x000000000000000000000000aebdfcf4a528de8b480a7b69ecaf17addb8b9959",
            "0x000000000000000000000000d9f47bac4019fc199cb5d769ca2c2f501a999888"
          ],
          "data": "0x0000000000000000000000000000000000000000000000000000000000000000",
          "blockHash": "0x9bd74c0f113c008752322729a90374821ff19dd474152dcd440f2f82127784de",
          "blockNumber": "0x4137120",
          "transactionHash": "0x221692de441220740181be45d886a1b64205a5cb753403165d821e71b94f27f0",
          "transactionIndex": "0x44",
          "logIndex": "0x1ab",
          "removed": false
        },
        {
          "address": "0x794a61358d6845594f94dc1db02a252b5b4814ad",
          "topics": [
            "0x804c9b842b2748a22bb64b345453a3de7ca54a6ca45ce00d415894979e22897a",
            "0x0000000000000000000000003c499c542cef5e3811e1192ce70d8cc03d5c3359"
          ],
          "data": "0x00000000000000000000000000000000000000000021bbff37007dd5cab3191d00000000000000000000000000000000000000000000000000000000000000000000000000000000000000000000000000000000003cad9811488ed2a01076950000000000000000000000000000000000000000038c090ac688b4ee9d0a1bea000000000000000000000000000000000000000003a034c75ae431c7bd5add3e",
          "blockHash": "0x9bd74c0f113c008752322729a90374821ff19dd474152dcd440f2f82127784de",
          "blockNumber": "0x4137120",
          "transactionHash": "0x221692de441220740181be45d886a1b64205a5cb753403165d821e71b94f27f0",
          "transactionIndex": "0x44",
          "logIndex": "0x1ac",
          "removed": false
        },
        {
          "address": "0x3c499c542cef5e3811e1192ce70d8cc03d5c3359",
          "topics": [
            "0xddf252ad1be2c89b69c2b068fc378daa952ba7f163c4a11628f55a4df523b3ef",
            "0x000000000000000000000000d9f47bac4019fc199cb5d769ca2c2f501a999888",
            "0x000000000000000000000000a4d94019934d8333ef880abffbf2fdd611c762bd"
          ],
          "data": "0x00000000000000000000000000000000000000000000000000000000000f4240",
          "blockHash": "0x9bd74c0f113c008752322729a90374821ff19dd474152dcd440f2f82127784de",
          "blockNumber": "0x4137120",
          "transactionHash": "0x221692de441220740181be45d886a1b64205a5cb753403165d821e71b94f27f0",
          "transactionIndex": "0x44",
          "logIndex": "0x1ad",
          "removed": false
        },
        {
          "address": "0xa4d94019934d8333ef880abffbf2fdd611c762bd",
          "topics": [
            "0xddf252ad1be2c89b69c2b068fc378daa952ba7f163c4a11628f55a4df523b3ef",
            "0x0000000000000000000000000000000000000000000000000000000000000000",
            "0x000000000000000000000000d9f47bac4019fc199cb5d769ca2c2f501a999888"
          ],
          "data": "0x00000000000000000000000000000000000000000000000000000000000f4240",
          "blockHash": "0x9bd74c0f113c008752322729a90374821ff19dd474152dcd440f2f82127784de",
          "blockNumber": "0x4137120",
          "transactionHash": "0x221692de441220740181be45d886a1b64205a5cb753403165d821e71b94f27f0",
          "transactionIndex": "0x44",
          "logIndex": "0x1ae",
          "removed": false
        },
        {
          "address": "0xa4d94019934d8333ef880abffbf2fdd611c762bd",
          "topics": [
            "0x458f5fa412d0f69b08dd84872b0215675cc67bc1d5b6fd93300a1c3878b86196",
            "0x000000000000000000000000d9f47bac4019fc199cb5d769ca2c2f501a999888",
            "0x000000000000000000000000d9f47bac4019fc199cb5d769ca2c2f501a999888"
          ],
          "data": "0x00000000000000000000000000000000000000000000000000000000000f424000000000000000000000000000000000000000000000000000000000000000000000000000000000000000000000000000000000038c090ac688b4ee9d0a1bea",
          "blockHash": "0x9bd74c0f113c008752322729a90374821ff19dd474152dcd440f2f82127784de",
          "blockNumber": "0x4137120",
          "transactionHash": "0x221692de441220740181be45d886a1b64205a5cb753403165d821e71b94f27f0",
          "transactionIndex": "0x44",
          "logIndex": "0x1af",
          "removed": false
        },
        {
          "address": "0x794a61358d6845594f94dc1db02a252b5b4814ad",
          "topics": [
            "0x2b627736bca15cd5381dcf80b0bf11fd197d01a037c52b927a881a10fb73ba61",
            "0x0000000000000000000000003c499c542cef5e3811e1192ce70d8cc03d5c3359",
            "0x000000000000000000000000d9f47bac4019fc199cb5d769ca2c2f501a999888",
            "0x0000000000000000000000000000000000000000000000000000000000000000"
          ],
          "data": "0x000000000000000000000000d9f47bac4019fc199cb5d769ca2c2f501a99988800000000000000000000000000000000000000000000000000000000000f4240",
          "blockHash": "0x9bd74c0f113c008752322729a90374821ff19dd474152dcd440f2f82127784de",
          "blockNumber": "0x4137120",
          "transactionHash": "0x221692de441220740181be45d886a1b64205a5cb753403165d821e71b94f27f0",
          "transactionIndex": "0x44",
          "logIndex": "0x1b0",
          "removed": false
        },
        {
          "address": "0x794a61358d6845594f94dc1db02a252b5b4814ad",
          "topics": [
            "0x804c9b842b2748a22bb64b345453a3de7ca54a6ca45ce00d415894979e22897a",
            "0x000000000000000000000000c2132d05d31c914a87c6611c10748aeb04b58e8f"
          ],
          "data": "0x0000000000000000000000000000000000000000001e73e7f9452425ea85d8fb00000000000000000000000000000000000000000000000000000000000000000000000000000000000000000000000000000000003b8ac06b594bc4b23d4af4000000000000000000000000000000000000000003c3f668638da7cd25e11fce000000000000000000000000000000000000000003f1c7f97b6cdb7252c672c8",
          "blockHash": "0x9bd74c0f113c008752322729a90374821ff19dd474152dcd440f2f82127784de",
          "blockNumber": "0x4137120",
          "transactionHash": "0x221692de441220740181be45d886a1b64205a5cb753403165d821e71b94f27f0",
          "transactionIndex": "0x44",
          "logIndex": "0x1b1",
          "removed": false
        },
        {
          "address": "0xc2132d05d31c914a87c6611c10748aeb04b58e8f",
          "topics": [
            "0xddf252ad1be2c89b69c2b068fc378daa952ba7f163c4a11628f55a4df523b3ef",
            "0x000000000000000000000000d9f47bac4019fc199cb5d769ca2c2f501a999888",
            "0x0000000000000000000000006ab707aca953edaefbc4fd23ba73294241490620"
          ],
          "data": "0x00000000000000000000000000000000000000000000000000000000000f4240",
          "blockHash": "0x9bd74c0f113c008752322729a90374821ff19dd474152dcd440f2f82127784de",
          "blockNumber": "0x4137120",
          "transactionHash": "0x221692de441220740181be45d886a1b64205a5cb753403165d821e71b94f27f0",
          "transactionIndex": "0x44",
          "logIndex": "0x1b2",
          "removed": false
        },
        {
          "address": "0xc2132d05d31c914a87c6611c10748aeb04b58e8f",
          "topics": [
            "0x8c5be1e5ebec7d5bd14f71427d1e84f3dd0314c0f7b2291e5b200ac8c7c3b925",
            "0x000000000000000000000000d9f47bac4019fc199cb5d769ca2c2f501a999888",
            "0x000000000000000000000000794a61358d6845594f94dc1db02a252b5b4814ad"
          ],
          "data": "0xfffffffffffffffffffffffffffffffffffffffffffffffffffffffffff0bdbf",
          "blockHash": "0x9bd74c0f113c008752322729a90374821ff19dd474152dcd440f2f82127784de",
          "blockNumber": "0x4137120",
          "transactionHash": "0x221692de441220740181be45d886a1b64205a5cb753403165d821e71b94f27f0",
          "transactionIndex": "0x44",
          "logIndex": "0x1b3",
          "removed": false
        },
        {
          "address": "0x6ab707aca953edaefbc4fd23ba73294241490620",
          "topics": [
            "0xddf252ad1be2c89b69c2b068fc378daa952ba7f163c4a11628f55a4df523b3ef",
            "0x0000000000000000000000000000000000000000000000000000000000000000",
            "0x000000000000000000000000d9f47bac4019fc199cb5d769ca2c2f501a999888"
          ],
          "data": "0x00000000000000000000000000000000000000000000000000000000000f4240",
          "blockHash": "0x9bd74c0f113c008752322729a90374821ff19dd474152dcd440f2f82127784de",
          "blockNumber": "0x4137120",
          "transactionHash": "0x221692de441220740181be45d886a1b64205a5cb753403165d821e71b94f27f0",
          "transactionIndex": "0x44",
          "logIndex": "0x1b4",
          "removed": false
        },
        {
          "address": "0x6ab707aca953edaefbc4fd23ba73294241490620",
          "topics": [
            "0x458f5fa412d0f69b08dd84872b0215675cc67bc1d5b6fd93300a1c3878b86196",
            "0x000000000000000000000000d9f47bac4019fc199cb5d769ca2c2f501a999888",
            "0x000000000000000000000000d9f47bac4019fc199cb5d769ca2c2f501a999888"
          ],
          "data": "0x00000000000000000000000000000000000000000000000000000000000f42400000000000000000000000000000000000000000000000000000000000000000000000000000000000000000000000000000000003c3f668638da7cd25e11fce",
          "blockHash": "0x9bd74c0f113c008752322729a90374821ff19dd474152dcd440f2f82127784de",
          "blockNumber": "0x4137120",
          "transactionHash": "0x221692de441220740181be45d886a1b64205a5cb753403165d821e71b94f27f0",
          "transactionIndex": "0x44",
          "logIndex": "0x1b5",
          "removed": false
        },
        {
          "address": "0x794a61358d6845594f94dc1db02a252b5b4814ad",
          "topics": [
            "0x2b627736bca15cd5381dcf80b0bf11fd197d01a037c52b927a881a10fb73ba61",
            "0x000000000000000000000000c2132d05d31c914a87c6611c10748aeb04b58e8f",
            "0x000000000000000000000000d9f47bac4019fc199cb5d769ca2c2f501a999888",
            "0x0000000000000000000000000000000000000000000000000000000000000000"
          ],
          "data": "0x000000000000000000000000d9f47bac4019fc199cb5d769ca2c2f501a99988800000000000000000000000000000000000000000000000000000000000f4240",
          "blockHash": "0x9bd74c0f113c008752322729a90374821ff19dd474152dcd440f2f82127784de",
          "blockNumber": "0x4137120",
          "transactionHash": "0x221692de441220740181be45d886a1b64205a5cb753403165d821e71b94f27f0",
          "transactionIndex": "0x44",
          "logIndex": "0x1b6",
          "removed": false
        },
        {
          "address": "0x0000000000000000000000000000000000001010",
          "topics": [
            "0x4dfe1bbbcf077ddc3e01291eea2d5c70c2b422b415d95645b9adcfd678cb1d63",
            "0x0000000000000000000000000000000000000000000000000000000000001010",
            "0x000000000000000000000000aebdfcf4a528de8b480a7b69ecaf17addb8b9959",
            "0x00000000000000000000000069f5c4d08f6bc8cd29fe5f004d46fb566270868d"
          ],
          "data": "0x000000000000000000000000000000000000000000000000003b1b30c8bd81cc0000000000000000000000000000000000000000000000004275b5c81ac98302000000000000000000000000000000000000000000000019b7cbe994b5dfebbd000000000000000000000000000000000000000000000000423a9a97520c0136000000000000000000000000000000000000000000000019b80704c57e9d6d89",
          "blockHash": "0x9bd74c0f113c008752322729a90374821ff19dd474152dcd440f2f82127784de",
          "blockNumber": "0x4137120",
          "transactionHash": "0x221692de441220740181be45d886a1b64205a5cb753403165d821e71b94f27f0",
          "transactionIndex": "0x44",
          "logIndex": "0x1b7",
          "removed": false
        }
      ],
      "logsBloom": "0x00080008002000000000000002000000010000000000001000000000000000000000000000000000200000000004400101048000200004000000000010200000000000000040010000000008002040800000040000000000800100040000000010000000420000000000100000000800000000000000000080000010000000000000000000080009000002800000000000024801000800000010000000200000220000000000000010000000000000000800000000000100000000000000014002000002000000000001002048000000400000040000000000104000000820000010000000000000000000000000010044000000100020000000400000100000",
      "type": "0x2",
      "transactionHash": "0x221692de441220740181be45d886a1b64205a5cb753403165d821e71b94f27f0",
      "transactionIndex": "0x44",
      "blockHash": "0x9bd74c0f113c008752322729a90374821ff19dd474152dcd440f2f82127784de",
      "blockNumber": "0x4137120",
      "gasUsed": "0x87644",
      "effectiveGasPrice": "0x6fc23b280",
      "from": "0xaebdfcf4a528de8b480a7b69ecaf17addb8b9959",
      "to": "0x67366782805870060151383f4bbff9dab53e5cd6",
      "contractAddress": null
    }
  ],
  "libraries": [],
  "pending": [],
  "returns": {},
  "timestamp": 1740547130,
  "chain": 137,
  "commit": "4328487"
}