{
  "transactions": [
    {
      "hash": "0xe9933b32cc4e1e83bceebc82214ad174cbfe23b9c770a97c9c33f9e3ca5d3fc4",
      "transactionType": "CREATE2",
      "contractName": "StableSwap",
      "contractAddress": "0xc0db3c05eda0a0ad64ae139003f6324cd7e59888",
      "function": null,
      "arguments": [
        "0x67366782805870060151383F4BbFF9daB53e5cD6",
        "0x794a61358D6845594F94dc1DB02A252b5b4814aD"
      ],
      "transaction": {
        "from": "0xaebdfcf4a528de8b480a7b69ecaf17addb8b9959",
        "to": "0x4e59b44847b379578588920ca78fbf26c0b4956c",
        "gas": "0x2d3164",
        "value": "0x0",
        "input": "0x00000000000000000000000000000000000000000000000000000000000002d860a0604052670de0b6b3a76400005f5534801561001a575f80fd5b5060405161260c38038061260c833981016040819052610039916102e8565b6001600160a01b0382166080528161005030610079565b506001600160a01b03918216608052600680546001600160a01b03191691909216179055610320565b61016c81610167604080516101c0810182525f80825260208201819052918101829052606081018290526080810182905260a0810182905260c0810182905260e08101829052610100810182905261012081018290526101408101829052610160810182905261018081018290526101a081019190915250604080516101c0810182525f808252600160208301819052928201839052606082018190526080820181905260a0820181905260c0820183905260e0820181905261010082018190526101208201819052610140820192909252610160810182905261018081018290526101a081019190915290565b61016f565b50565b80511515612000831615151415806101935750602081015115156110008316151514155b806101aa5750604081015115156108008316151514155b806101c15750606081015115156104008316151514155b806101d85750608081015115156102008316151514155b806101ef575060a081015115156101008316151514155b80610205575060c0810151151560808316151514155b8061021b575060e0810151151560408316151514155b806102325750610100810151151560208316151514155b806102495750610120810151151560108316151514155b806102605750610140810151151560088316151514155b806102775750610160810151151560048316151514155b8061028e5750610180810151151560028316151514155b806102a557506101a0810151151560018316151514155b156102bb576102bb630732d7b560e51b836102bf565b5050565b815f526001600160a01b03811660045260245ffd5b6001600160a01b038116811461016c575f80fd5b5f80604083850312156102f9575f80fd5b8251610304816102d4565b6020840151909250610315816102d4565b809150509250929050565b6080516122876103855f395f8181610454015281816104f6015281816105570152818161073b0152818161087f015281816108e801528181610948015281816109af01528181610c0f01528181610ee9015281816111b9015261127201526122875ff3fe608060405234801561000f575f80fd5b5060043610610186575f3560e01c8063b47b2fb1116100d9578063dc98354e11610093578063e2bbb1581161006e578063e2bbb158146104a8578063e3691178146104bb578063eaa35bc9146104c4578063ff50abdc146104e1575f80fd5b8063dc98354e14610476578063de67bd3314610489578063e1b4af691461032a575f80fd5b8063b47b2fb1146102f4578063b6a8b0fa1461032a578063c4e833ce1461033d578063d21220a714610434578063db2e21bc14610447578063dc4c90d31461044f575f80fd5b8063575e24b4116101445780636c2bbe7e1161011f5780636c2bbe7e1461029b5780636fe7e6eb146102ce5780639f063efc1461029b578063a03e4bc3146102e1575f80fd5b8063575e24b4146102345780636360c3ee1461027257806363fb0b9614610288575f80fd5b8062953ae81461018a5780630dfe1681146101ba578063164d1f0a146101cd57806321d0ee70146101e0578063259982e51461020c578063441a3e701461021f575b5f80fd5b60055461019d906001600160a01b031681565b6040516001600160a01b0390911681526020015b60405180910390f35b60025461019d906001600160a01b031681565b60045461019d906001600160a01b031681565b6101f36101ee366004611b6b565b6104ea565b6040516001600160e01b031990911681526020016101b1565b6101f361021a366004611b6b565b61054b565b61023261022d366004611be2565b6105a2565b005b610247610242366004611c12565b61072d565b604080516001600160e01b03199094168452602084019290925262ffffff16908201526060016101b1565b61027a5f5481565b6040519081526020016101b1565b610232610296366004611cad565b610797565b6102ae6102a9366004611d19565b610872565b604080516001600160e01b031990931683526020830191909152016101b1565b6101f36102dc366004611da4565b6108dc565b60065461019d906001600160a01b031681565b610307610302366004611e03565b61093b565b604080516001600160e01b03199093168352600f9190910b6020830152016101b1565b6101f3610338366004611e84565b6109a3565b610427604080516101c0810182525f80825260208201819052918101829052606081018290526080810182905260a0810182905260c0810182905260e08101829052610100810182905261012081018290526101408101829052610160810182905261018081018290526101a081019190915250604080516101c0810182525f808252600160208301819052928201839052606082018190526080820181905260a0820181905260c0820183905260e0820181905261010082018190526101208201819052610140820192909252610160810182905261018081018290526101a081019190915290565b6040516101b19190611ede565b60035461019d906001600160a01b031681565b610232610a06565b61019d7f000000000000000000000000000000000000000000000000000000000000000081565b6101f3610484366004611fff565b610c03565b61027a610497366004612046565b60016020525f908152604090205481565b6102326104b6366004611be2565b610c60565b61027a60085481565b6104cc610de2565b604080519283526020830191909152016101b1565b61027a60075481565b5f336001600160a01b037f000000000000000000000000000000000000000000000000000000000000000016146105345760405163570c108560e11b815260040160405180910390fd5b6105418686868686610ec3565b9695505050505050565b5f336001600160a01b037f000000000000000000000000000000000000000000000000000000000000000016146105955760405163570c108560e11b815260040160405180910390fd5b6105418686868686610edd565b5f806105ac610de2565b90925090505f6105bc828461207c565b6105c6858761207c565b5f546105d29190612095565b6105dc91906120ac565b9050805f808282546105ee91906120cb565b9091555050335f90815260016020526040812080548392906106119084906120cb565b9091555061062190508585610f40565b60025460405163a9059cbb60e01b8152336004820152602481018790526001600160a01b039091169063a9059cbb906044016020604051808303815f875af115801561066f573d5f803e3d5ffd5b505050506040513d601f19601f8201168201806040525081019061069391906120eb565b5060035460405163a9059cbb60e01b8152336004820152602481018690526001600160a01b039091169063a9059cbb906044016020604051808303815f875af11580156106e2573d5f803e3d5ffd5b505050506040513d601f19601f8201168201806040525081019061070691906120eb565b50610711848661207c565b60075f82825461072191906120cb565b90915550505050505050565b5f8080336001600160a01b037f000000000000000000000000000000000000000000000000000000000000000016146107795760405163570c108560e11b815260040160405180910390fd5b610786888888888861104a565b925092509250955095509592505050565b3373aebdfcf4a528de8b480a7b69ecaf17addb8b9959146107b6575f80fd5b5f5b8381101561086b578484828181106107d2576107d2612106565b90506020020160208101906107e79190612046565b6001600160a01b031683838381811061080257610802612106565b9050602002810190610814919061211a565b60405161082292919061215d565b5f604051808303815f865af19150503d805f811461085b576040519150601f19603f3d011682016040523d82523d5f602084013e610860565b606091505b5050506001016107b8565b5050505050565b5f80336001600160a01b037f000000000000000000000000000000000000000000000000000000000000000016146108bd5760405163570c108560e11b815260040160405180910390fd5b6108cc8989898989898961133d565b9150915097509795505050505050565b5f336001600160a01b037f000000000000000000000000000000000000000000000000000000000000000016146109265760405163570c108560e11b815260040160405180910390fd5b61093285858585611358565b95945050505050565b5f80336001600160a01b037f000000000000000000000000000000000000000000000000000000000000000016146109865760405163570c108560e11b815260040160405180910390fd5b61099488888888888861133d565b91509150965096945050505050565b5f336001600160a01b037f000000000000000000000000000000000000000000000000000000000000000016146109ed5760405163570c108560e11b815260040160405180910390fd5b6109fb878787878787610ec3565b979650505050505050565b3373aebdfcf4a528de8b480a7b69ecaf17addb8b995914610a25575f80fd5b5f80610a2f610de2565b91509150610a3d8282610f40565b6002546040516370a0823160e01b81523060048201526001600160a01b039091169063a9059cbb90339083906370a0823190602401602060405180830381865afa158015610a8d573d5f803e3d5ffd5b505050506040513d601f19601f82011682018060405250810190610ab1919061216c565b6040516001600160e01b031960e085901b1681526001600160a01b03909216600483015260248201526044016020604051808303815f875af1158015610af9573d5f803e3d5ffd5b505050506040513d601f19601f82011682018060405250810190610b1d91906120eb565b506003546040516370a0823160e01b81523060048201526001600160a01b039091169063a9059cbb90339083906370a0823190602401602060405180830381865afa158015610b6e573d5f803e3d5ffd5b505050506040513d601f19601f82011682018060405250810190610b92919061216c565b6040516001600160e01b031960e085901b1681526001600160a01b03909216600483015260248201526044016020604051808303815f875af1158015610bda573d5f803e3d5ffd5b505050506040513d601f19601f82011682018060405250810190610bfe91906120eb565b505050565b5f336001600160a01b037f00000000000000000000000000000000000000000000000000000000000000001614610c4d5760405163570c108560e11b815260040160405180910390fd5b610c58848484610ec3565b949350505050565b5f80610c6a610de2565b90925090505f610c7a828461207c565b610c84858761207c565b5f54610c909190612095565b610c9a91906120ac565b9050805f80828254610cac919061207c565b9091555050335f9081526001602052604081208054839290610ccf90849061207c565b90915550506002546040516323b872dd60e01b81526001600160a01b03909116906323b872dd90610d0890339030908a90600401612183565b6020604051808303815f875af1158015610d24573d5f803e3d5ffd5b505050506040513d601f19601f82011682018060405250810190610d4891906120eb565b506003546040516323b872dd60e01b81526001600160a01b03909116906323b872dd90610d7d90339030908990600401612183565b6020604051808303815f875af1158015610d99573d5f803e3d5ffd5b505050506040513d601f19601f82011682018060405250810190610dbd91906120eb565b50610dc88585611718565b610dd2848661207c565b60075f828254610721919061207c565b600480546040516370a0823160e01b815230928101929092525f9182916001600160a01b0316906370a0823190602401602060405180830381865afa158015610e2d573d5f803e3d5ffd5b505050506040513d601f19601f82011682018060405250810190610e51919061216c565b6005546040516370a0823160e01b81523060048201526001600160a01b03909116906370a0823190602401602060405180830381865afa158015610e97573d5f803e3d5ffd5b505050506040513d601f19601f82011682018060405250810190610ebb919061216c565b915091509091565b5f604051630a85dc2960e01b815260040160405180910390fd5b5f336001600160a01b037f00000000000000000000000000000000000000000000000000000000000000001614610f275760405163570c108560e11b815260040160405180910390fd5b604051631af9e27b60e21b815260040160405180910390fd5b8115610fc457600654600254604051631a4ca37b60e21b81526001600160a01b039182166004820152602481018590523060448201529116906369328dec906064016020604051808303815f875af1158015610f9e573d5f803e3d5ffd5b505050506040513d601f19601f82011682018060405250810190610fc2919061216c565b505b801561104657600654600354604051631a4ca37b60e21b81526001600160a01b039182166004820152602481018490523060448201529116906369328dec906064016020604051808303815f875af1158015611022573d5f803e3d5ffd5b505050506040513d601f19601f82011682018060405250810190610bfe919061216c565b5050565b5f8080808061105c60208901896121a7565b6110825761107060408a0160208b01612046565b61107d60208b018b612046565b61109f565b61108f60208a018a612046565b61109f60408b0160208c01612046565b915091505f8089602001351290505f816110bd5789602001356110ca565b6110ca60208b01356121c2565b90505f6127106110dc8361270b612095565b6110e691906120ac565b90505f806110f2610de2565b90925090505f611102828461207c565b90505f611110600854611807565b6111266007548461112191906120cb565b611807565b61113091906121dc565b600f0b90505f811315611191575f61114983600a612095565b6111538884612095565b61115d91906120ac565b9050611169818761207c565b955061117581836120cb565b60085f828254611185919061207c565b909155506111a2915050565b60075461119e90836120cb565b6008555b604051630b0d9c0960e01b81526001600160a01b037f00000000000000000000000000000000000000000000000000000000000000001690630b0d9c09906111f2908c9030908b90600401612183565b5f604051808303815f87803b158015611209575f80fd5b505af115801561121b573d5f803e3d5ffd5b505050508e5f01602081019061123191906121a7565b1561124f576112405f86610f40565b61124a865f611718565b611263565b611259855f610f40565b6112635f87611718565b6112996001600160a01b0389167f000000000000000000000000000000000000000000000000000000000000000030885f611827565b5f876112de576112d96112ab88611807565b6112b490612212565b6112bd88611807565b6fffffffffffffffffffffffffffffffff1660809190911b1790565b6112fc565b6112fc6112ea88611807565b6112f388611807565b6112bd90612212565b9050858760075461130d919061207c565b61131791906120cb565b6007556315d7892d60e21b9c509a505f9950505050505050505050955095509592505050565b5f80604051630a85dc2960e01b815260040160405180910390fd5b6002545f906001600160a01b03161580159061137e57506003546001600160a01b031615155b1561139b5760405162dc149f60e41b815260040160405180910390fd5b6113a86020850185612046565b600280546001600160a01b0319166001600160a01b03929092169190911790556113d86040850160208601612046565b600380546001600160a01b0319166001600160a01b0392831617905560065460025460405163cff027d960e01b8152908316600482015291169063cff027d9906024016020604051808303815f875af1158015611437573d5f803e3d5ffd5b505050506040513d601f19601f8201168201806040525081019061145b9190612236565b600480546001600160a01b0319166001600160a01b0392831617815560065460035460405163cff027d960e01b8152908416928101929092529091169063cff027d9906024016020604051808303815f875af11580156114bd573d5f803e3d5ffd5b505050506040513d601f19601f820116820180604052508101906114e19190612236565b600580546001600160a01b0319166001600160a01b0392831617905560025460065460405163095ea7b360e01b815290831660048201525f19602482015291169063095ea7b3906044016020604051808303815f875af1158015611547573d5f803e3d5ffd5b505050506040513d601f19601f8201168201806040525081019061156b91906120eb565b5060035460065460405163095ea7b360e01b81526001600160a01b0391821660048201525f19602482015291169063095ea7b3906044016020604051808303815f875af11580156115be573d5f803e3d5ffd5b505050506040513d601f19601f820116820180604052508101906115e291906120eb565b506001600160a01b038086165f9081526001602052604090819020670de0b6b3a7640000905560025490516323b872dd60e01b8152620f424092839216906323b872dd90611638908a9030908690600401612183565b6020604051808303815f875af1158015611654573d5f803e3d5ffd5b505050506040513d601f19601f8201168201806040525081019061167891906120eb565b506003546040516323b872dd60e01b81526001600160a01b03909116906323b872dd906116ad908a9030908690600401612183565b6020604051808303815f875af11580156116c9573d5f803e3d5ffd5b505050506040513d601f19601f820116820180604052508101906116ed91906120eb565b506116f88282611718565b611702818361207c565b60075550636fe7e6eb60e01b9695505050505050565b811561178e5760065460025460405163e8eda9df60e01b81526001600160a01b039182166004820152602481018590523060448201525f606482015291169063e8eda9df906084015f604051808303815f87803b158015611777575f80fd5b505af1158015611789573d5f803e3d5ffd5b505050505b80156110465760065460035460405163e8eda9df60e01b81526001600160a01b039182166004820152602481018490523060448201525f606482015291169063e8eda9df906084015f604051808303815f87803b1580156117ed575f80fd5b505af11580156117ff573d5f803e3d5ffd5b505050505050565b5f6001607f1b8210611823576118236393dafdf160e01b611ae1565b5090565b80156118bb57836001600160a01b031663f5298aca84611856886001600160a01b03166001600160a01b031690565b6040516001600160e01b031960e085901b1681526001600160a01b0390921660048301526024820152604481018590526064015f604051808303815f87803b1580156118a0575f80fd5b505af11580156118b2573d5f803e3d5ffd5b5050505061086b565b6001600160a01b03851661193257836001600160a01b03166311da60b4836040518263ffffffff1660e01b815260040160206040518083038185885af1158015611907573d5f803e3d5ffd5b50505050506040513d601f19601f8201168201806040525081019061192c919061216c565b5061086b565b604051632961046560e21b81526001600160a01b03868116600483015285169063a5841194906024015f604051808303815f87803b158015611972575f80fd5b505af1158015611984573d5f803e3d5ffd5b505050506001600160a01b0383163014611a0e576040516323b872dd60e01b81526001600160a01b038616906323b872dd906119c890869088908790600401612183565b6020604051808303815f875af11580156119e4573d5f803e3d5ffd5b505050506040513d601f19601f82011682018060405250810190611a0891906120eb565b50611a80565b60405163a9059cbb60e01b81526001600160a01b0385811660048301526024820184905286169063a9059cbb906044016020604051808303815f875af1158015611a5a573d5f803e3d5ffd5b505050506040513d601f19601f82011682018060405250810190611a7e91906120eb565b505b836001600160a01b03166311da60b46040518163ffffffff1660e01b81526004016020604051808303815f875af1158015611abd573d5f803e3d5ffd5b505050506040513d601f19601f820116820180604052508101906117ff919061216c565b805f5260045ffd5b6001600160a01b0381168114611afd575f80fd5b50565b5f60a08284031215611b10575f80fd5b50919050565b5f60808284031215611b10575f80fd5b5f8083601f840112611b36575f80fd5b50813567ffffffffffffffff811115611b4d575f80fd5b602083019150836020828501011115611b64575f80fd5b9250929050565b5f805f805f6101608688031215611b80575f80fd5b8535611b8b81611ae9565b9450611b9a8760208801611b00565b9350611ba98760c08801611b16565b925061014086013567ffffffffffffffff811115611bc5575f80fd5b611bd188828901611b26565b969995985093965092949392505050565b5f8060408385031215611bf3575f80fd5b50508035926020909101359150565b5f60608284031215611b10575f80fd5b5f805f805f6101408688031215611c27575f80fd5b8535611c3281611ae9565b9450611c418760208801611b00565b9350611c508760c08801611c02565b925061012086013567ffffffffffffffff811115611bc5575f80fd5b5f8083601f840112611c7c575f80fd5b50813567ffffffffffffffff811115611c93575f80fd5b6020830191508360208260051b8501011115611b64575f80fd5b5f805f8060408587031215611cc0575f80fd5b843567ffffffffffffffff811115611cd6575f80fd5b611ce287828801611c6c565b909550935050602085013567ffffffffffffffff811115611d01575f80fd5b611d0d87828801611c6c565b95989497509550505050565b5f805f805f805f6101a0888a031215611d30575f80fd5b8735611d3b81611ae9565b9650611d4a8960208a01611b00565b9550611d598960c08a01611b16565b94506101408801359350610160880135925061018088013567ffffffffffffffff811115611d85575f80fd5b611d918a828b01611b26565b989b979a50959850939692959293505050565b5f805f806101008587031215611db8575f80fd5b8435611dc381611ae9565b9350611dd28660208701611b00565b925060c0850135611de281611ae9565b915060e0850135600281900b8114611df8575f80fd5b939692955090935050565b5f805f805f806101608789031215611e19575f80fd5b8635611e2481611ae9565b9550611e338860208901611b00565b9450611e428860c08901611c02565b9350610120870135925061014087013567ffffffffffffffff811115611e66575f80fd5b611e7289828a01611b26565b979a9699509497509295939492505050565b5f805f805f806101208789031215611e9a575f80fd5b8635611ea581611ae9565b9550611eb48860208901611b00565b945060c0870135935060e0870135925061010087013567ffffffffffffffff811115611e66575f80fd5b8151151581526101c081016020830151611efc602084018215159052565b506040830151611f10604084018215159052565b506060830151611f24606084018215159052565b506080830151611f38608084018215159052565b5060a0830151611f4c60a084018215159052565b5060c0830151611f6060c084018215159052565b5060e0830151611f7460e084018215159052565b50610100830151611f8a61010084018215159052565b50610120830151611fa061012084018215159052565b50610140830151611fb661014084018215159052565b50610160830151611fcc61016084018215159052565b50610180830151611fe261018084018215159052565b506101a0830151611ff86101a084018215159052565b5092915050565b5f805f60e08486031215612011575f80fd5b833561201c81611ae9565b925061202b8560208601611b00565b915060c084013561203b81611ae9565b809150509250925092565b5f60208284031215612056575f80fd5b813561206181611ae9565b9392505050565b634e487b7160e01b5f52601160045260245ffd5b8082018082111561208f5761208f612068565b92915050565b808202811582820484141761208f5761208f612068565b5f826120c657634e487b7160e01b5f52601260045260245ffd5b500490565b8181038181111561208f5761208f612068565b8015158114611afd575f80fd5b5f602082840312156120fb575f80fd5b8151612061816120de565b634e487b7160e01b5f52603260045260245ffd5b5f808335601e1984360301811261212f575f80fd5b83018035915067ffffffffffffffff821115612149575f80fd5b602001915036819003821315611b64575f80fd5b818382375f9101908152919050565b5f6020828403121561217c575f80fd5b5051919050565b6001600160a01b039384168152919092166020820152604081019190915260600190565b5f602082840312156121b7575f80fd5b8135612061816120de565b5f600160ff1b82016121d6576121d6612068565b505f0390565b600f82810b9082900b036f7fffffffffffffffffffffffffffffff19811260016001607f1b038213171561208f5761208f612068565b5f81600f0b60016001607f1b0319810361222e5761222e612068565b5f0392915050565b5f60208284031215612246575f80fd5b815161206181611ae956fea2646970667358221220cfeabbe9aebd26a6893579399a6d1ac2c559cbcc41732cb9453d22cae00ab8c264736f6c634300081a003300000000000000000000000067366782805870060151383f4bbff9dab53e5cd6000000000000000000000000794a61358d6845594f94dc1db02a252b5b4814ad",
        "nonce": "0x34",
        "chainId": "0x89"
      },
      "additionalContracts": [],
      "isFixedGasLimit": false
    },
    {
      "hash": "0xed75cf6d216542a10c9dcabbbb99c4fe8af794d85b7d615154449bda6bbf71a0",
      "transactionType": "CALL",
      "contractName": null,
      "contractAddress": "0x3c499c542cef5e3811e1192ce70d8cc03d5c3359",
      "function": "approve(address,uint256)",
      "arguments": [
        "0xC0DB3c05eDA0a0ad64aE139003f6324Cd7E59888",
        "1000000"
      ],
      "transaction": {
        "from": "0xaebdfcf4a528de8b480a7b69ecaf17addb8b9959",
        "to": "0x3c499c542cef5e3811e1192ce70d8cc03d5c3359",
        "gas": "0x12b1b",
        "value": "0x0",
        "input": "0x095ea7b3000000000000000000000000c0db3c05eda0a0ad64ae139003f6324cd7e5988800000000000000000000000000000000000000000000000000000000000f4240",
        "nonce": "0x35",
        "chainId": "0x89"
      },
      "additionalContracts": [],
      "isFixedGasLimit": false
    },
    {
      "hash": "0xc06f2fb6313a35de3b2147f3fb827a3db4424718a5d19e3c2dc8d85d4e245b7e",
      "transactionType": "CALL",
      "contractName": null,
      "contractAddress": "0xc2132d05d31c914a87c6611c10748aeb04b58e8f",
      "function": "approve(address,uint256)",
      "arguments": [
        "0xC0DB3c05eDA0a0ad64aE139003f6324Cd7E59888",
        "1000000"
      ],
      "transaction": {
        "from": "0xaebdfcf4a528de8b480a7b69ecaf17addb8b9959",
        "to": "0xc2132d05d31c914a87c6611c10748aeb04b58e8f",
        "gas": "0x11712",
        "value": "0x0",
        "input": "0x095ea7b3000000000000000000000000c0db3c05eda0a0ad64ae139003f6324cd7e5988800000000000000000000000000000000000000000000000000000000000f4240",
        "nonce": "0x36",
        "chainId": "0x89"
      },
      "additionalContracts": [],
      "isFixedGasLimit": false
    },
    {
      "hash": "0x4e050ea0ed6237abae02e4b370d42071eb35c915d1b448a348643cc15dffb2bc",
      "transactionType": "CALL",
      "contractName": null,
      "contractAddress": "0x67366782805870060151383f4bbff9dab53e5cd6",
      "function": "initialize((address,address,uint24,int24,address),uint160)",
      "arguments": [
        "(0x3c499c542cEF5E3811e1192ce70d8cC03d5c3359, 0xc2132D05D31c914a87C6611C10748AEb04B58e8F, 3000, 1, 0xC0DB3c05eDA0a0ad64aE139003f6324Cd7E59888)",
        "79228162514264337593543950336"
      ],
      "transaction": {
        "from": "0xaebdfcf4a528de8b480a7b69ecaf17addb8b9959",
        "to": "0x67366782805870060151383f4bbff9dab53e5cd6",
        "gas": "0xcc46d",
        "value": "0x0",
        "input": "0x6276cbbe0000000000000000000000003c499c542cef5e3811e1192ce70d8cc03d5c3359000000000000000000000000c2132d05d31c914a87c6611c10748aeb04b58e8f0000000000000000000000000000000000000000000000000000000000000bb80000000000000000000000000000000000000000000000000000000000000001000000000000000000000000c0db3c05eda0a0ad64ae139003f6324cd7e598880000000000000000000000000000000000000001000000000000000000000000",
        "nonce": "0x37",
        "chainId": "0x89"
      },
      "additionalContracts": [],
      "isFixedGasLimit": false
    }
  ],
  "receipts": [
    {
      "status": "0x1",
      "cumulativeGasUsed": "0xbe55dc",
      "logs": [
        {
          "address": "0x0000000000000000000000000000000000001010",
          "topics": [
            "0x4dfe1bbbcf077ddc3e01291eea2d5c70c2b422b415d95645b9adcfd678cb1d63",
            "0x0000000000000000000000000000000000000000000000000000000000001010",
            "0x000000000000000000000000aebdfcf4a528de8b480a7b69ecaf17addb8b9959",
            "0x000000000000000000000000a8b52f02108aa5f4b675bdcc973760022d7c6020"
          ],
          "data": "0x00000000000000000000000000000000000000000000000000d7d7918517ca9c000000000000000000000000000000000000000000000001532d783ad52771b200000000000000000000000000000000000000000000013e8632977235a0abed0000000000000000000000000000000000000000000000015255a0a9500fa71600000000000000000000000000000000000000000000013e870a6f03bab87689",
          "blockHash": "0x289313c0817455eeb25df33bcc825a390346665085199bfcfe6063ddc5b6b96b",
          "blockNumber": "0x413824d",
          "transactionHash": "0xe9933b32cc4e1e83bceebc82214ad174cbfe23b9c770a97c9c33f9e3ca5d3fc4",
          "transactionIndex": "0x4a",
          "logIndex": "0x12f",
          "removed": false
        }
      ],
      "logsBloom": "0x00000000000000000000000000000000000000000000000000000000000000000000000000000000000000000002000000008000000000000000000000000000000000000000000000000000000000800000000000000000000100000000000000000000000000000000000000000000000000000000000080000000000000000000000000000000000000000000000000000000000800040010000000000000200000000000004000000000000000000000000000000000000000000000004000000000000000000001000000000000000000000000000000100000000000000000000000000000000000000000000000000000000020000000000000100000",
      "type": "0x2",
      "transactionHash": "0xe9933b32cc4e1e83bceebc82214ad174cbfe23b9c770a97c9c33f9e3ca5d3fc4",
      "transactionIndex": "0x4a",
      "blockHash": "0x289313c0817455eeb25df33bcc825a390346665085199bfcfe6063ddc5b6b96b",
      "blockNumber": "0x413824d",
      "gasUsed": "0x1ee6b2",
      "effectiveGasPrice": "0x6fc23d2f2",
      "from": "0xaebdfcf4a528de8b480a7b69ecaf17addb8b9959",
      "to": "0x4e59b44847b379578588920ca78fbf26c0b4956c",
      "contractAddress": "0xc0db3c05eda0a0ad64ae139003f6324cd7e59888"
    },
    {
      "status": "0x1",
      "cumulativeGasUsed": "0xbf2e69",
      "logs": [
        {
          "address": "0x3c499c542cef5e3811e1192ce70d8cc03d5c3359",
          "topics": [
            "0x8c5be1e5ebec7d5bd14f71427d1e84f3dd0314c0f7b2291e5b200ac8c7c3b925",
            "0x000000000000000000000000aebdfcf4a528de8b480a7b69ecaf17addb8b9959",
            "0x000000000000000000000000c0db3c05eda0a0ad64ae139003f6324cd7e59888"
          ],
          "data": "0x00000000000000000000000000000000000000000000000000000000000f4240",
          "blockHash": "0x289313c0817455eeb25df33bcc825a390346665085199bfcfe6063ddc5b6b96b",
          "blockNumber": "0x413824d",
          "transactionHash": "0xed75cf6d216542a10c9dcabbbb99c4fe8af794d85b7d615154449bda6bbf71a0",
          "transactionIndex": "0x4b",
          "logIndex": "0x130",
          "removed": false
        },
        {
          "address": "0x0000000000000000000000000000000000001010",
          "topics": [
            "0x4dfe1bbbcf077ddc3e01291eea2d5c70c2b422b415d95645b9adcfd678cb1d63",
            "0x0000000000000000000000000000000000000000000000000000000000001010",
            "0x000000000000000000000000aebdfcf4a528de8b480a7b69ecaf17addb8b9959",
            "0x000000000000000000000000a8b52f02108aa5f4b675bdcc973760022d7c6020"
          ],
          "data": "0x0000000000000000000000000000000000000000000000000005e896f8c40ae60000000000000000000000000000000000000000000000015255a0a49c5d596e00000000000000000000000000000000000000000000013e870a6f03bab87689000000000000000000000000000000000000000000000001524fb80da3994e8800000000000000000000000000000000000000000000013e8710579ab37c816f",
          "blockHash": "0x289313c0817455eeb25df33bcc825a390346665085199bfcfe6063ddc5b6b96b",
          "blockNumber": "0x413824d",
          "transactionHash": "0xed75cf6d216542a10c9dcabbbb99c4fe8af794d85b7d615154449bda6bbf71a0",
          "transactionIndex": "0x4b",
          "logIndex": "0x131",
          "removed": false
        }
      ],
      "logsBloom": "0x00000000000000000000000000000000000000000000000000000000000000000000000000000000000000000002000000008000000000000000000000200000000000000000000000000000000000800000000000000000000100000000000000000000200000000000000000000000000000000000000080000000000000000000000000000000000000000002000000000000000800040010000001000000220000000000004000000000000000000800000000000000000000000000004000000000000000000001000000000000000000000000000000100000000000000010000000000000000000000000010000000000100020000000000000100000",
      "type": "0x2",
      "transactionHash": "0xed75cf6d216542a10c9dcabbbb99c4fe8af794d85b7d615154449bda6bbf71a0",
      "transactionIndex": "0x4b",
      "blockHash": "0x289313c0817455eeb25df33bcc825a390346665085199bfcfe6063ddc5b6b96b",
      "blockNumber": "0x413824d",
      "gasUsed": "0xd88d",
      "effectiveGasPrice": "0x6fc23d2f2",
      "from": "0xaebdfcf4a528de8b480a7b69ecaf17addb8b9959",
      "to": "0x3c499c542cef5e3811e1192ce70d8cc03d5c3359",
      "contractAddress": null
    },
    {
      "status": "0x1",
      "cumulativeGasUsed": "0xbff875",
      "logs": [
        {
          "address": "0xc2132d05d31c914a87c6611c10748aeb04b58e8f",
          "topics": [
            "0x8c5be1e5ebec7d5bd14f71427d1e84f3dd0314c0f7b2291e5b200ac8c7c3b925",
            "0x000000000000000000000000aebdfcf4a528de8b480a7b69ecaf17addb8b9959",
            "0x000000000000000000000000c0db3c05eda0a0ad64ae139003f6324cd7e59888"
          ],
          "data": "0x00000000000000000000000000000000000000000000000000000000000f4240",
          "blockHash": "0x289313c0817455eeb25df33bcc825a390346665085199bfcfe6063ddc5b6b96b",
          "blockNumber": "0x413824d",
          "transactionHash": "0xc06f2fb6313a35de3b2147f3fb827a3db4424718a5d19e3c2dc8d85d4e245b7e",
          "transactionIndex": "0x4c",
          "logIndex": "0x132",
          "removed": false
        },
        {
          "address": "0x0000000000000000000000000000000000001010",
          "topics": [
            "0x4dfe1bbbcf077ddc3e01291eea2d5c70c2b422b415d95645b9adcfd678cb1d63",
            "0x0000000000000000000000000000000000000000000000000000000000001010",
            "0x000000000000000000000000aebdfcf4a528de8b480a7b69ecaf17addb8b9959",
            "0x000000000000000000000000a8b52f02108aa5f4b675bdcc973760022d7c6020"
          ],
          "data": "0x00000000000000000000000000000000000000000000000000058347f7627be8000000000000000000000000000000000000000000000001524fb80d82a5fa2400000000000000000000000000000000000000000000013e8710579ab37c816f000000000000000000000000000000000000000000000001524a34c58b437e3c00000000000000000000000000000000000000000000013e8715dae2aadefd57",
          "blockHash": "0x289313c0817455eeb25df33bcc825a390346665085199bfcfe6063ddc5b6b96b",
          "blockNumber": "0x413824d",
          "transactionHash": "0xc06f2fb6313a35de3b2147f3fb827a3db4424718a5d19e3c2dc8d85d4e245b7e",
          "transactionIndex": "0x4c",
          "logIndex": "0x133",
          "removed": false
        }
      ],
      "logsBloom": "0x00000000000000000000000000000000000000000000000000000000000000000000000000000000000000000002000100008000000000000000000000200000000000000000000000000000000000800000000000000000000100000000000000000000200000000000000000000000000000000000000080000000000000000000000000080000000000000002000000000000000800040010000001000000220000000000004000000000000000000000000000000000000000000000004000000000000000000001000000000000400000000000000000100000000000000010000000000000000000000000000000000000000020000000000000100000",
      "type": "0x2",
      "transactionHash": "0xc06f2fb6313a35de3b2147f3fb827a3db4424718a5d19e3c2dc8d85d4e245b7e",
      "transactionIndex": "0x4c",
      "blockHash": "0x289313c0817455eeb25df33bcc825a390346665085199bfcfe6063ddc5b6b96b",
      "blockNumber": "0x413824d",
      "gasUsed": "0xca0c",
      "effectiveGasPrice": "0x6fc23d2f2",
      "from": "0xaebdfcf4a528de8b480a7b69ecaf17addb8b9959",
      "to": "0xc2132d05d31c914a87c6611c10748aeb04b58e8f",
      "contractAddress": null
    },
    {
      "status": "0x1",
      "cumulativeGasUsed": "0xc8b348",
      "logs": [
        {
          "address": "0x67366782805870060151383f4bbff9dab53e5cd6",
          "topics": [
            "0xdd466e674ea557f56295e2d0218a125ea4b4f0f6f3307b95f85e6110838d6438",
            "0x69a9f6720565ae40c3bcf897f8bab092aeb5645ad8fbbb0c00fb63f7efae5a20",
            "0x0000000000000000000000003c499c542cef5e3811e1192ce70d8cc03d5c3359",
            "0x000000000000000000000000c2132d05d31c914a87c6611c10748aeb04b58e8f"
          ],
          "data": "0x0000000000000000000000000000000000000000000000000000000000000bb80000000000000000000000000000000000000000000000000000000000000001000000000000000000000000c0db3c05eda0a0ad64ae139003f6324cd7e5988800000000000000000000000000000000000000010000000000000000000000000000000000000000000000000000000000000000000000000000000000000000",
          "blockHash": "0x289313c0817455eeb25df33bcc825a390346665085199bfcfe6063ddc5b6b96b",
          "blockNumber": "0x413824d",
          "transactionHash": "0x4e050ea0ed6237abae02e4b370d42071eb35c915d1b448a348643cc15dffb2bc",
          "transactionIndex": "0x4d",
          "logIndex": "0x134",
          "removed": false
        },
        {
          "address": "0x3c499c542cef5e3811e1192ce70d8cc03d5c3359",
          "topics": [
            "0x8c5be1e5ebec7d5bd14f71427d1e84f3dd0314c0f7b2291e5b200ac8c7c3b925",
            "0x000000000000000000000000c0db3c05eda0a0ad64ae139003f6324cd7e59888",
            "0x000000000000000000000000794a61358d6845594f94dc1db02a252b5b4814ad"
          ],
          "data": "0xffffffffffffffffffffffffffffffffffffffffffffffffffffffffffffffff",
          "blockHash": "0x289313c0817455eeb25df33bcc825a390346665085199bfcfe6063ddc5b6b96b",
          "blockNumber": "0x413824d",
          "transactionHash": "0x4e050ea0ed6237abae02e4b370d42071eb35c915d1b448a348643cc15dffb2bc",
          "transactionIndex": "0x4d",
          "logIndex": "0x135",
          "removed": false
        },
        {
          "address": "0xc2132d05d31c914a87c6611c10748aeb04b58e8f",
          "topics": [
            "0x8c5be1e5ebec7d5bd14f71427d1e84f3dd0314c0f7b2291e5b200ac8c7c3b925",
            "0x000000000000000000000000c0db3c05eda0a0ad64ae139003f6324cd7e59888",
            "0x000000000000000000000000794a61358d6845594f94dc1db02a252b5b4814ad"
          ],
          "data": "0xffffffffffffffffffffffffffffffffffffffffffffffffffffffffffffffff",
          "blockHash": "0x289313c0817455eeb25df33bcc825a390346665085199bfcfe6063ddc5b6b96b",
          "blockNumber": "0x413824d",
          "transactionHash": "0x4e050ea0ed6237abae02e4b370d42071eb35c915d1b448a348643cc15dffb2bc",
          "transactionIndex": "0x4d",
          "logIndex": "0x136",
          "removed": false
        },
        {
          "address": "0x3c499c542cef5e3811e1192ce70d8cc03d5c3359",
          "topics": [
            "0xddf252ad1be2c89b69c2b068fc378daa952ba7f163c4a11628f55a4df523b3ef",
            "0x000000000000000000000000aebdfcf4a528de8b480a7b69ecaf17addb8b9959",
            "0x000000000000000000000000c0db3c05eda0a0ad64ae139003f6324cd7e59888"
          ],
          "data": "0x00000000000000000000000000000000000000000000000000000000000f4240",
          "blockHash": "0x289313c0817455eeb25df33bcc825a390346665085199bfcfe6063ddc5b6b96b",
          "blockNumber": "0x413824d",
          "transactionHash": "0x4e050ea0ed6237abae02e4b370d42071eb35c915d1b448a348643cc15dffb2bc",
          "transactionIndex": "0x4d",
          "logIndex": "0x137",
          "removed": false
        },
        {
          "address": "0xc2132d05d31c914a87c6611c10748aeb04b58e8f",
          "topics": [
            "0xddf252ad1be2c89b69c2b068fc378daa952ba7f163c4a11628f55a4df523b3ef",
            "0x000000000000000000000000aebdfcf4a528de8b480a7b69ecaf17addb8b9959",
            "0x000000000000000000000000c0db3c05eda0a0ad64ae139003f6324cd7e59888"
          ],
          "data": "0x00000000000000000000000000000000000000000000000000000000000f4240",
          "blockHash": "0x289313c0817455eeb25df33bcc825a390346665085199bfcfe6063ddc5b6b96b",
          "blockNumber": "0x413824d",
          "transactionHash": "0x4e050ea0ed6237abae02e4b370d42071eb35c915d1b448a348643cc15dffb2bc",
          "transactionIndex": "0x4d",
          "logIndex": "0x138",
          "removed": false
        },
        {
          "address": "0xc2132d05d31c914a87c6611c10748aeb04b58e8f",
          "topics": [
            "0x8c5be1e5ebec7d5bd14f71427d1e84f3dd0314c0f7b2291e5b200ac8c7c3b925",
            "0x000000000000000000000000aebdfcf4a528de8b480a7b69ecaf17addb8b9959",
            "0x000000000000000000000000c0db3c05eda0a0ad64ae139003f6324cd7e59888"
          ],
          "data": "0x0000000000000000000000000000000000000000000000000000000000000000",
          "blockHash": "0x289313c0817455eeb25df33bcc825a390346665085199bfcfe6063ddc5b6b96b",
          "blockNumber": "0x413824d",
          "transactionHash": "0x4e050ea0ed6237abae02e4b370d42071eb35c915d1b448a348643cc15dffb2bc",
          "transactionIndex": "0x4d",
          "logIndex": "0x139",
          "removed": false
        },
        {
          "address": "0x794a61358d6845594f94dc1db02a252b5b4814ad",
          "topics": [
            "0x804c9b842b2748a22bb64b345453a3de7ca54a6ca45ce00d415894979e22897a",
            "0x0000000000000000000000003c499c542cef5e3811e1192ce70d8cc03d5c3359"
          ],
          "data": "0x00000000000000000000000000000000000000000021c41facbee4791fde845900000000000000000000000000000000000000000000000000000000000000000000000000000000000000000000000000000000003cb4e6b13ddf6ea903f82a0000000000000000000000000000000000000000038c0bfd4616295727090889000000000000000000000000000000000000000003a039f17d12b5cb82baceac",
          "blockHash": "0x289313c0817455eeb25df33bcc825a390346665085199bfcfe6063ddc5b6b96b",
          "blockNumber": "0x413824d",
          "transactionHash": "0x4e050ea0ed6237abae02e4b370d42071eb35c915d1b448a348643cc15dffb2bc",
          "transactionIndex": "0x4d",
          "logIndex": "0x13a",
          "removed": false
        },
        {
          "address": "0x3c499c542cef5e3811e1192ce70d8cc03d5c3359",
          "topics": [
            "0xddf252ad1be2c89b69c2b068fc378daa952ba7f163c4a11628f55a4df523b3ef",
            "0x000000000000000000000000c0db3c05eda0a0ad64ae139003f6324cd7e59888",
            "0x000000000000000000000000a4d94019934d8333ef880abffbf2fdd611c762bd"
          ],
          "data": "0x00000000000000000000000000000000000000000000000000000000000f4240",
          "blockHash": "0x289313c0817455eeb25df33bcc825a390346665085199bfcfe6063ddc5b6b96b",
          "blockNumber": "0x413824d",
          "transactionHash": "0x4e050ea0ed6237abae02e4b370d42071eb35c915d1b448a348643cc15dffb2bc",
          "transactionIndex": "0x4d",
          "logIndex": "0x13b",
          "removed": false
        },
        {
          "address": "0xa4d94019934d8333ef880abffbf2fdd611c762bd",
          "topics": [
            "0xddf252ad1be2c89b69c2b068fc378daa952ba7f163c4a11628f55a4df523b3ef",
            "0x0000000000000000000000000000000000000000000000000000000000000000",
            "0x000000000000000000000000c0db3c05eda0a0ad64ae139003f6324cd7e59888"
          ],
          "data": "0x00000000000000000000000000000000000000000000000000000000000f4240",
          "blockHash": "0x289313c0817455eeb25df33bcc825a390346665085199bfcfe6063ddc5b6b96b",
          "blockNumber": "0x413824d",
          "transactionHash": "0x4e050ea0ed6237abae02e4b370d42071eb35c915d1b448a348643cc15dffb2bc",
          "transactionIndex": "0x4d",
          "logIndex": "0x13c",
          "removed": false
        },
        {
          "address": "0xa4d94019934d8333ef880abffbf2fdd611c762bd",
          "topics": [
            "0x458f5fa412d0f69b08dd84872b0215675cc67bc1d5b6fd93300a1c3878b86196",
            "0x000000000000000000000000c0db3c05eda0a0ad64ae139003f6324cd7e59888",
            "0x000000000000000000000000c0db3c05eda0a0ad64ae139003f6324cd7e59888"
          ],
          "data": "0x00000000000000000000000000000000000000000000000000000000000f424000000000000000000000000000000000000000000000000000000000000000000000000000000000000000000000000000000000038c0bfd4616295727090889",
          "blockHash": "0x289313c0817455eeb25df33bcc825a390346665085199bfcfe6063ddc5b6b96b",
          "blockNumber": "0x413824d",
          "transactionHash": "0x4e050ea0ed6237abae02e4b370d42071eb35c915d1b448a348643cc15dffb2bc",
          "transactionIndex": "0x4d",
          "logIndex": "0x13d",
          "removed": false
        },
        {
          "address": "0x794a61358d6845594f94dc1db02a252b5b4814ad",
          "topics": [
            "0x2b627736bca15cd5381dcf80b0bf11fd197d01a037c52b927a881a10fb73ba61",
            "0x0000000000000000000000003c499c542cef5e3811e1192ce70d8cc03d5c3359",
            "0x000000000000000000000000c0db3c05eda0a0ad64ae139003f6324cd7e59888",
            "0x0000000000000000000000000000000000000000000000000000000000000000"
          ],
          "data": "0x000000000000000000000000c0db3c05eda0a0ad64ae139003f6324cd7e5988800000000000000000000000000000000000000000000000000000000000f4240",
          "blockHash": "0x289313c0817455eeb25df33bcc825a390346665085199bfcfe6063ddc5b6b96b",
          "blockNumber": "0x413824d",
          "transactionHash": "0x4e050ea0ed6237abae02e4b370d42071eb35c915d1b448a348643cc15dffb2bc",
          "transactionIndex": "0x4d",
          "logIndex": "0x13e",
          "removed": false
        },
        {
          "address": "0x794a61358d6845594f94dc1db02a252b5b4814ad",
          "topics": [
            "0x804c9b842b2748a22bb64b345453a3de7ca54a6ca45ce00d415894979e22897a",
            "0x000000000000000000000000c2132d05d31c914a87c6611c10748aeb04b58e8f"
          ],
          "data": "0x0000000000000000000000000000000000000000001e785a8a8fe36ea17c7ffa00000000000000000000000000000000000000000000000000000000000000000000000000000000000000000000000000000000003b8f1956ac52d1b1c85013000000000000000000000000000000000000000003c3f91b220f3dd30240e9fe000000000000000000000000000000000000000003f1cd7c4870bf02d3d666ba",
          "blockHash": "0x289313c0817455eeb25df33bcc825a390346665085199bfcfe6063ddc5b6b96b",
          "blockNumber": "0x413824d",
          "transactionHash": "0x4e050ea0ed6237abae02e4b370d42071eb35c915d1b448a348643cc15dffb2bc",
          "transactionIndex": "0x4d",
          "logIndex": "0x13f",
          "removed": false
        },
        {
          "address": "0xc2132d05d31c914a87c6611c10748aeb04b58e8f",
          "topics": [
            "0xddf252ad1be2c89b69c2b068fc378daa952ba7f163c4a11628f55a4df523b3ef",
            "0x000000000000000000000000c0db3c05eda0a0ad64ae139003f6324cd7e59888",
            "0x0000000000000000000000006ab707aca953edaefbc4fd23ba73294241490620"
          ],
          "data": "0x00000000000000000000000000000000000000000000000000000000000f4240",
          "blockHash": "0x289313c0817455eeb25df33bcc825a390346665085199bfcfe6063ddc5b6b96b",
          "blockNumber": "0x413824d",
          "transactionHash": "0x4e050ea0ed6237abae02e4b370d42071eb35c915d1b448a348643cc15dffb2bc",
          "transactionIndex": "0x4d",
          "logIndex": "0x140",
          "removed": false
        },
        {
          "address": "0xc2132d05d31c914a87c6611c10748aeb04b58e8f",
          "topics": [
            "0x8c5be1e5ebec7d5bd14f71427d1e84f3dd0314c0f7b2291e5b200ac8c7c3b925",
            "0x000000000000000000000000c0db3c05eda0a0ad64ae139003f6324cd7e59888",
            "0x000000000000000000000000794a61358d6845594f94dc1db02a252b5b4814ad"
          ],
          "data": "0xfffffffffffffffffffffffffffffffffffffffffffffffffffffffffff0bdbf",
          "blockHash": "0x289313c0817455eeb25df33bcc825a390346665085199bfcfe6063ddc5b6b96b",
          "blockNumber": "0x413824d",
          "transactionHash": "0x4e050ea0ed6237abae02e4b370d42071eb35c915d1b448a348643cc15dffb2bc",
          "transactionIndex": "0x4d",
          "logIndex": "0x141",
          "removed": false
        },
        {
          "address": "0x6ab707aca953edaefbc4fd23ba73294241490620",
          "topics": [
            "0xddf252ad1be2c89b69c2b068fc378daa952ba7f163c4a11628f55a4df523b3ef",
            "0x0000000000000000000000000000000000000000000000000000000000000000",
            "0x000000000000000000000000c0db3c05eda0a0ad64ae139003f6324cd7e59888"
          ],
          "data": "0x00000000000000000000000000000000000000000000000000000000000f4240",
          "blockHash": "0x289313c0817455eeb25df33bcc825a390346665085199bfcfe6063ddc5b6b96b",
          "blockNumber": "0x413824d",
          "transactionHash": "0x4e050ea0ed6237abae02e4b370d42071eb35c915d1b448a348643cc15dffb2bc",
          "transactionIndex": "0x4d",
          "logIndex": "0x142",
          "removed": false
        },
        {
          "address": "0x6ab707aca953edaefbc4fd23ba73294241490620",
          "topics": [
            "0x458f5fa412d0f69b08dd84872b0215675cc67bc1d5b6fd93300a1c3878b86196",
            "0x000000000000000000000000c0db3c05eda0a0ad64ae139003f6324cd7e59888",
            "0x000000000000000000000000c0db3c05eda0a0ad64ae139003f6324cd7e59888"
          ],
          "data": "0x00000000000000000000000000000000000000000000000000000000000f42400000000000000000000000000000000000000000000000000000000000000000000000000000000000000000000000000000000003c3f91b220f3dd30240e9fe",
          "blockHash": "0x289313c0817455eeb25df33bcc825a390346665085199bfcfe6063ddc5b6b96b",
          "blockNumber": "0x413824d",
          "transactionHash": "0x4e050ea0ed6237abae02e4b370d42071eb35c915d1b448a348643cc15dffb2bc",
          "transactionIndex": "0x4d",
          "logIndex": "0x143",
          "removed": false
        },
        {
          "address": "0x794a61358d6845594f94dc1db02a252b5b4814ad",
          "topics": [
            "0x2b627736bca15cd5381dcf80b0bf11fd197d01a037c52b927a881a10fb73ba61",
            "0x000000000000000000000000c2132d05d31c914a87c6611c10748aeb04b58e8f",
            "0x000000000000000000000000c0db3c05eda0a0ad64ae139003f6324cd7e59888",
            "0x0000000000000000000000000000000000000000000000000000000000000000"
          ],
          "data": "0x000000000000000000000000c0db3c05eda0a0ad64ae139003f6324cd7e5988800000000000000000000000000000000000000000000000000000000000f4240",
          "blockHash": "0x289313c0817455eeb25df33bcc825a390346665085199bfcfe6063ddc5b6b96b",
          "blockNumber": "0x413824d",
          "transactionHash": "0x4e050ea0ed6237abae02e4b370d42071eb35c915d1b448a348643cc15dffb2bc",
          "transactionIndex": "0x4d",
          "logIndex": "0x144",
          "removed": false
        },
        {
          "address": "0x0000000000000000000000000000000000001010",
          "topics": [
            "0x4dfe1bbbcf077ddc3e01291eea2d5c70c2b422b415d95645b9adcfd678cb1d63",
            "0x0000000000000000000000000000000000000000000000000000000000001010",
            "0x000000000000000000000000aebdfcf4a528de8b480a7b69ecaf17addb8b9959",
            "0x000000000000000000000000a8b52f02108aa5f4b675bdcc973760022d7c6020"
          ],
          "data": "0x000000000000000000000000000000000000000000000000003cfa111c4d4e5a000000000000000000000000000000000000000000000001524a34c56c8522cc00000000000000000000000000000000000000000000013e8715dae2aadefd57000000000000000000000000000000000000000000000001520d3ab45037d47200000000000000000000000000000000000000000000013e8752d4f3c72c4bb1",
          "blockHash": "0x289313c0817455eeb25df33bcc825a390346665085199bfcfe6063ddc5b6b96b",
          "blockNumber": "0x413824d",
          "transactionHash": "0x4e050ea0ed6237abae02e4b370d42071eb35c915d1b448a348643cc15dffb2bc",
          "transactionIndex": "0x4d",
          "logIndex": "0x145",
          "removed": false
        }
      ],
      "logsBloom": "0x0008000800200000000000002000000001000000000000100000000000000000000000000000000000000000000640010000800020000400000000000020000000000000004000000000000800a000800000040000000000800100040000000010000000620000000000100000000800000000000000000080000010000000000001000000080009000002800002000000024801000800040010000001200000220000000000004010000000000000000800000000000100000000000000014002000002000000000001002048000000400000000000000000104000000020000010000000000000000000000000010044000000100020000000400000100000",
      "type": "0x2",
      "transactionHash": "0x4e050ea0ed6237abae02e4b370d42071eb35c915d1b448a348643cc15dffb2bc",
      "transactionIndex": "0x4d",
      "blockHash": "0x289313c0817455eeb25df33bcc825a390346665085199bfcfe6063ddc5b6b96b",
      "blockNumber": "0x413824d",
      "gasUsed": "0x8bad3",
      "effectiveGasPrice": "0x6fc23d2f2",
      "from": "0xaebdfcf4a528de8b480a7b69ecaf17addb8b9959",
      "to": "0x67366782805870060151383f4bbff9dab53e5cd6",
      "contractAddress": null
    }
  ],
  "libraries": [],
  "pending": [],
  "returns": {},
  "timestamp": 1740556511,
  "chain": 137,
  "commit": "f2aad93"
}