{
  "transactions": [
    {
      "hash": "0x587b36d48af3e402a5522645558861f0349c14ac459ebbcbc14f1ef7411d8e55",
      "transactionType": "CALL",
      "contractName": null,
      "contractAddress": "0x52f052d2411735287989461721f4b49a13d65888",
      "function": "withdraw(uint256,uint256)",
      "arguments": [
        "0",
        "900000"
      ],
      "transaction": {
        "from": "0xaebdfcf4a528de8b480a7b69ecaf17addb8b9959",
        "to": "0x52f052d2411735287989461721f4b49a13d65888",
        "gas": "0x55473",
        "value": "0x0",
        "input": "0x441a3e70000000000000000000000000000000000000000000000000000000000000000000000000000000000000000000000000000000000000000000000000000dbba0",
        "nonce": "0x8",
        "chainId": "0x89"
      },
      "additionalContracts": [],
      "isFixedGasLimit": false
    }
  ],
  "receipts": [
    {
      "status": "0x1",
      "cumulativeGasUsed": "0xbca276",
      "logs": [
        {
          "address": "0x794a61358d6845594f94dc1db02a252b5b4814ad",
          "topics": [
            "0x804c9b842b2748a22bb64b345453a3de7ca54a6ca45ce00d415894979e22897a",
            "0x000000000000000000000000c2132d05d31c914a87c6611c10748aeb04b58e8f"
          ],
          "data": "0x0000000000000000000000000000000000000000001f80e867745946cdc8524c00000000000000000000000000000000000000000000000000000000000000000000000000000000000000000000000000000000003c8f803590a4d047830a79000000000000000000000000000000000000000003c3eebc9c21d13864b066e4000000000000000000000000000000000000000003f1b9e28883d6c9a53d36db",
          "blockHash": "0x7cc90a704d72e4c9deec4cbe4f1b93f8ea1aab7a98103b5100d5ff49dcf2744a",
          "blockNumber": "0x4134541",
          "transactionHash": "0x587b36d48af3e402a5522645558861f0349c14ac459ebbcbc14f1ef7411d8e55",
          "transactionIndex": "0x54",
          "logIndex": "0x17c",
          "removed": false
        },
        {
          "address": "0x6ab707aca953edaefbc4fd23ba73294241490620",
          "topics": [
            "0xddf252ad1be2c89b69c2b068fc378daa952ba7f163c4a11628f55a4df523b3ef",
            "0x00000000000000000000000052f052d2411735287989461721f4b49a13d65888",
            "0x0000000000000000000000000000000000000000000000000000000000000000"
          ],
          "data": "0x00000000000000000000000000000000000000000000000000000000000dbba0",
          "blockHash": "0x7cc90a704d72e4c9deec4cbe4f1b93f8ea1aab7a98103b5100d5ff49dcf2744a",
          "blockNumber": "0x4134541",
          "transactionHash": "0x587b36d48af3e402a5522645558861f0349c14ac459ebbcbc14f1ef7411d8e55",
          "transactionIndex": "0x54",
          "logIndex": "0x17d",
          "removed": false
        },
        {
          "address": "0x6ab707aca953edaefbc4fd23ba73294241490620",
          "topics": [
            "0x4cf25bc1d991c17529c25213d3cc0cda295eeaad5f13f361969b12ea48015f90",
            "0x00000000000000000000000052f052d2411735287989461721f4b49a13d65888",
            "0x00000000000000000000000052f052d2411735287989461721f4b49a13d65888"
          ],
          "data": "0x00000000000000000000000000000000000000000000000000000000000dbba00000000000000000000000000000000000000000000000000000000000000000000000000000000000000000000000000000000003c3eebc9c21d13864b066e4",
          "blockHash": "0x7cc90a704d72e4c9deec4cbe4f1b93f8ea1aab7a98103b5100d5ff49dcf2744a",
          "blockNumber": "0x4134541",
          "transactionHash": "0x587b36d48af3e402a5522645558861f0349c14ac459ebbcbc14f1ef7411d8e55",
          "transactionIndex": "0x54",
          "logIndex": "0x17e",
          "removed": false
        },
        {
          "address": "0xc2132d05d31c914a87c6611c10748aeb04b58e8f",
          "topics": [
            "0xddf252ad1be2c89b69c2b068fc378daa952ba7f163c4a11628f55a4df523b3ef",
            "0x0000000000000000000000006ab707aca953edaefbc4fd23ba73294241490620",
            "0x00000000000000000000000052f052d2411735287989461721f4b49a13d65888"
          ],
          "data": "0x00000000000000000000000000000000000000000000000000000000000dbba0",
          "blockHash": "0x7cc90a704d72e4c9deec4cbe4f1b93f8ea1aab7a98103b5100d5ff49dcf2744a",
          "blockNumber": "0x4134541",
          "transactionHash": "0x587b36d48af3e402a5522645558861f0349c14ac459ebbcbc14f1ef7411d8e55",
          "transactionIndex": "0x54",
          "logIndex": "0x17f",
          "removed": false
        },
        {
          "address": "0x794a61358d6845594f94dc1db02a252b5b4814ad",
          "topics": [
            "0x3115d1449a7b732c986cba18244e897a450f61e1bb8d589cd2e69e6c8924f9f7",
            "0x000000000000000000000000c2132d05d31c914a87c6611c10748aeb04b58e8f",
            "0x00000000000000000000000052f052d2411735287989461721f4b49a13d65888",
            "0x00000000000000000000000052f052d2411735287989461721f4b49a13d65888"
          ],
          "data": "0x00000000000000000000000000000000000000000000000000000000000dbba0",
          "blockHash": "0x7cc90a704d72e4c9deec4cbe4f1b93f8ea1aab7a98103b5100d5ff49dcf2744a",
          "blockNumber": "0x4134541",
          "transactionHash": "0x587b36d48af3e402a5522645558861f0349c14ac459ebbcbc14f1ef7411d8e55",
          "transactionIndex": "0x54",
          "logIndex": "0x180",
          "removed": false
        },
        {
          "address": "0x3c499c542cef5e3811e1192ce70d8cc03d5c3359",
          "topics": [
            "0xddf252ad1be2c89b69c2b068fc378daa952ba7f163c4a11628f55a4df523b3ef",
            "0x00000000000000000000000052f052d2411735287989461721f4b49a13d65888",
            "0x000000000000000000000000aebdfcf4a528de8b480a7b69ecaf17addb8b9959"
          ],
          "data": "0x0000000000000000000000000000000000000000000000000000000000000000",
          "blockHash": "0x7cc90a704d72e4c9deec4cbe4f1b93f8ea1aab7a98103b5100d5ff49dcf2744a",
          "blockNumber": "0x4134541",
          "transactionHash": "0x587b36d48af3e402a5522645558861f0349c14ac459ebbcbc14f1ef7411d8e55",
          "transactionIndex": "0x54",
          "logIndex": "0x181",
          "removed": false
        },
        {
          "address": "0xc2132d05d31c914a87c6611c10748aeb04b58e8f",
          "topics": [
            "0xddf252ad1be2c89b69c2b068fc378daa952ba7f163c4a11628f55a4df523b3ef",
            "0x00000000000000000000000052f052d2411735287989461721f4b49a13d65888",
            "0x000000000000000000000000aebdfcf4a528de8b480a7b69ecaf17addb8b9959"
          ],
          "data": "0x00000000000000000000000000000000000000000000000000000000000dbba0",
          "blockHash": "0x7cc90a704d72e4c9deec4cbe4f1b93f8ea1aab7a98103b5100d5ff49dcf2744a",
          "blockNumber": "0x4134541",
          "transactionHash": "0x587b36d48af3e402a5522645558861f0349c14ac459ebbcbc14f1ef7411d8e55",
          "transactionIndex": "0x54",
          "logIndex": "0x182",
          "removed": false
        },
        {
          "address": "0x0000000000000000000000000000000000001010",
          "topics": [
            "0x4dfe1bbbcf077ddc3e01291eea2d5c70c2b422b415d95645b9adcfd678cb1d63",
            "0x0000000000000000000000000000000000000000000000000000000000001010",
            "0x000000000000000000000000aebdfcf4a528de8b480a7b69ecaf17addb8b9959",
            "0x000000000000000000000000eedba2484aaf940f37cd3cd21a5d7c4a7dafbfc0"
          ],
          "data": "0x0000000000000000000000000000000000000000000000000019d3e39e0362b700000000000000000000000000000000000000000000000044c86f8c14ec0b1500000000000000000000000000000000000000000001dcfa393080cfdac16bb700000000000000000000000000000000000000000000000044ae9ba876e8a85e00000000000000000000000000000000000000000001dcfa394a54b378c4ce6e",
          "blockHash": "0x7cc90a704d72e4c9deec4cbe4f1b93f8ea1aab7a98103b5100d5ff49dcf2744a",
          "blockNumber": "0x4134541",
          "transactionHash": "0x587b36d48af3e402a5522645558861f0349c14ac459ebbcbc14f1ef7411d8e55",
          "transactionIndex": "0x54",
          "logIndex": "0x183",
          "removed": false
        }
      ],
      "logsBloom": "0x10080008002000000000000000000000018000000000000000000000000000000000000000000000000000000000000100018000000004000000000000000000000000000000000000000008000000800000040000000000000100000000000010000000420000000000000000000800000000000100020080000010000000000000004000080001000000000000000000020000000800000010000000000000200000000080000010000000000000000800000000000000000020000000014000000002000000000011002018000080400000000000000000100000000020040000000000000000000000000000010000000000100020000000000000100000",
      "type": "0x2",
      "transactionHash": "0x587b36d48af3e402a5522645558861f0349c14ac459ebbcbc14f1ef7411d8e55",
      "transactionIndex": "0x54",
      "blockHash": "0x7cc90a704d72e4c9deec4cbe4f1b93f8ea1aab7a98103b5100d5ff49dcf2744a",
      "blockNumber": "0x4134541",
      "gasUsed": "0x3dbd7",
      "effectiveGasPrice": "0x6b1c45984",
      "from": "0xaebdfcf4a528de8b480a7b69ecaf17addb8b9959",
      "to": "0x52f052d2411735287989461721f4b49a13d65888",
      "contractAddress": null
    }
  ],
  "libraries": [],
  "pending": [],
  "returns": {},
  "timestamp": 1740523210,
  "chain": 137,
  "commit": "5a169c0"
}