{
  "transactions": [
    {
      "hash": "0x40ff0bb9cd910384bab161c50cf4884c766c9ab1a5157a48f3154a157ca477c9",
      "transactionType": "CALL",
      "contractName": null,
      "contractAddress": "0xd9f47bac4019fc199cb5d769ca2c2f501a999888",
      "function": "withdraw(uint256,uint256)",
      "arguments": [
        "1000000",
        "1000000"
      ],
      "transaction": {
        "from": "0xaebdfcf4a528de8b480a7b69ecaf17addb8b9959",
        "to": "0xd9f47bac4019fc199cb5d769ca2c2f501a999888",
        "gas": "0x76767",
        "value": "0x0",
        "input": "0x441a3e7000000000000000000000000000000000000000000000000000000000000f424000000000000000000000000000000000000000000000000000000000000f4240",
        "nonce": "0x1f",
        "chainId": "0x89"
      },
      "additionalContracts": [],
      "isFixedGasLimit": false
    }
  ],
  "receipts": [
    {
      "status": "0x1",
      "cumulativeGasUsed": "0x798233",
      "logs": [
        {
          "address": "0x794a61358d6845594f94dc1db02a252b5b4814ad",
          "topics": [
            "0x804c9b842b2748a22bb64b345453a3de7ca54a6ca45ce00d415894979e22897a",
            "0x0000000000000000000000003c499c542cef5e3811e1192ce70d8cc03d5c3359"
          ],
          "data": "0x00000000000000000000000000000000000000000021b52aa9f43dd7d157e1d300000000000000000000000000000000000000000000000000000000000000000000000000000000000000000000000000000000003ca77331c9071cbc917c040000000000000000000000000000000000000000038c095f37b76b21f0839e96000000000000000000000000000000000000000003a03562aae4c5ad9c9473bc",
          "blockHash": "0x990354b8dbcce29bf4c0672a3f052b82ea8e316acc822147109f49d736c452f4",
          "blockNumber": "0x4137323",
          "transactionHash": "0x40ff0bb9cd910384bab161c50cf4884c766c9ab1a5157a48f3154a157ca477c9",
          "transactionIndex": "0x30",
          "logIndex": "0x111",
          "removed": false
        },
        {
          "address": "0xa4d94019934d8333ef880abffbf2fdd611c762bd",
          "topics": [
            "0xddf252ad1be2c89b69c2b068fc378daa952ba7f163c4a11628f55a4df523b3ef",
            "0x000000000000000000000000d9f47bac4019fc199cb5d769ca2c2f501a999888",
            "0x0000000000000000000000000000000000000000000000000000000000000000"
          ],
          "data": "0x00000000000000000000000000000000000000000000000000000000000f4240",
          "blockHash": "0x990354b8dbcce29bf4c0672a3f052b82ea8e316acc822147109f49d736c452f4",
          "blockNumber": "0x4137323",
          "transactionHash": "0x40ff0bb9cd910384bab161c50cf4884c766c9ab1a5157a48f3154a157ca477c9",
          "transactionIndex": "0x30",
          "logIndex": "0x112",
          "removed": false
        },
        {
          "address": "0xa4d94019934d8333ef880abffbf2fdd611c762bd",
          "topics": [
            "0x4cf25bc1d991c17529c25213d3cc0cda295eeaad5f13f361969b12ea48015f90",
            "0x000000000000000000000000d9f47bac4019fc199cb5d769ca2c2f501a999888",
            "0x000000000000000000000000d9f47bac4019fc199cb5d769ca2c2f501a999888"
          ],
          "data": "0x00000000000000000000000000000000000000000000000000000000000f424000000000000000000000000000000000000000000000000000000000000000000000000000000000000000000000000000000000038c095f37b76b21f0839e96",
          "blockHash": "0x990354b8dbcce29bf4c0672a3f052b82ea8e316acc822147109f49d736c452f4",
          "blockNumber": "0x4137323",
          "transactionHash": "0x40ff0bb9cd910384bab161c50cf4884c766c9ab1a5157a48f3154a157ca477c9",
          "transactionIndex": "0x30",
          "logIndex": "0x113",
          "removed": false
        },
        {
          "address": "0x3c499c542cef5e3811e1192ce70d8cc03d5c3359",
          "topics": [
            "0xddf252ad1be2c89b69c2b068fc378daa952ba7f163c4a11628f55a4df523b3ef",
            "0x000000000000000000000000a4d94019934d8333ef880abffbf2fdd611c762bd",
            "0x000000000000000000000000d9f47bac4019fc199cb5d769ca2c2f501a999888"
          ],
          "data": "0x00000000000000000000000000000000000000000000000000000000000f4240",
          "blockHash": "0x990354b8dbcce29bf4c0672a3f052b82ea8e316acc822147109f49d736c452f4",
          "blockNumber": "0x4137323",
          "transactionHash": "0x40ff0bb9cd910384bab161c50cf4884c766c9ab1a5157a48f3154a157ca477c9",
          "transactionIndex": "0x30",
          "logIndex": "0x114",
          "removed": false
        },
        {
          "address": "0x794a61358d6845594f94dc1db02a252b5b4814ad",
          "topics": [
            "0x3115d1449a7b732c986cba18244e897a450f61e1bb8d589cd2e69e6c8924f9f7",
            "0x0000000000000000000000003c499c542cef5e3811e1192ce70d8cc03d5c3359",
            "0x000000000000000000000000d9f47bac4019fc199cb5d769ca2c2f501a999888",
            "0x000000000000000000000000d9f47bac4019fc199cb5d769ca2c2f501a999888"
          ],
          "data": "0x00000000000000000000000000000000000000000000000000000000000f4240",
          "blockHash": "0x990354b8dbcce29bf4c0672a3f052b82ea8e316acc822147109f49d736c452f4",
          "blockNumber": "0x4137323",
          "transactionHash": "0x40ff0bb9cd910384bab161c50cf4884c766c9ab1a5157a48f3154a157ca477c9",
          "transactionIndex": "0x30",
          "logIndex": "0x115",
          "removed": false
        },
        {
          "address": "0x794a61358d6845594f94dc1db02a252b5b4814ad",
          "topics": [
            "0x804c9b842b2748a22bb64b345453a3de7ca54a6ca45ce00d415894979e22897a",
            "0x000000000000000000000000c2132d05d31c914a87c6611c10748aeb04b58e8f"
          ],
          "data": "0x0000000000000000000000000000000000000000001e5eb4c7e192f866dca4d100000000000000000000000000000000000000000000000000000000000000000000000000000000000000000000000000000000003b76031d89273acdf32b62000000000000000000000000000000000000000003c3f6bbbc5c70ee827a7a11000000000000000000000000000000000000000003f1c89f2a49a534edcbf189",
          "blockHash": "0x990354b8dbcce29bf4c0672a3f052b82ea8e316acc822147109f49d736c452f4",
          "blockNumber": "0x4137323",
          "transactionHash": "0x40ff0bb9cd910384bab161c50cf4884c766c9ab1a5157a48f3154a157ca477c9",
          "transactionIndex": "0x30",
          "logIndex": "0x116",
          "removed": false
        },
        {
          "address": "0x6ab707aca953edaefbc4fd23ba73294241490620",
          "topics": [
            "0xddf252ad1be2c89b69c2b068fc378daa952ba7f163c4a11628f55a4df523b3ef",
            "0x000000000000000000000000d9f47bac4019fc199cb5d769ca2c2f501a999888",
            "0x0000000000000000000000000000000000000000000000000000000000000000"
          ],
          "data": "0x00000000000000000000000000000000000000000000000000000000000f4240",
          "blockHash": "0x990354b8dbcce29bf4c0672a3f052b82ea8e316acc822147109f49d736c452f4",
          "blockNumber": "0x4137323",
          "transactionHash": "0x40ff0bb9cd910384bab161c50cf4884c766c9ab1a5157a48f3154a157ca477c9",
          "transactionIndex": "0x30",
          "logIndex": "0x117",
          "removed": false
        },
        {
          "address": "0x6ab707aca953edaefbc4fd23ba73294241490620",
          "topics": [
            "0x4cf25bc1d991c17529c25213d3cc0cda295eeaad5f13f361969b12ea48015f90",
            "0x000000000000000000000000d9f47bac4019fc199cb5d769ca2c2f501a999888",
            "0x000000000000000000000000d9f47bac4019fc199cb5d769ca2c2f501a999888"
          ],
          "data": "0x00000000000000000000000000000000000000000000000000000000000f42400000000000000000000000000000000000000000000000000000000000000000000000000000000000000000000000000000000003c3f6bbbc5c70ee827a7a11",
          "blockHash": "0x990354b8dbcce29bf4c0672a3f052b82ea8e316acc822147109f49d736c452f4",
          "blockNumber": "0x4137323",
          "transactionHash": "0x40ff0bb9cd910384bab161c50cf4884c766c9ab1a5157a48f3154a157ca477c9",
          "transactionIndex": "0x30",
          "logIndex": "0x118",
          "removed": false
        },
        {
          "address": "0xc2132d05d31c914a87c6611c10748aeb04b58e8f",
          "topics": [
            "0xddf252ad1be2c89b69c2b068fc378daa952ba7f163c4a11628f55a4df523b3ef",
            "0x0000000000000000000000006ab707aca953edaefbc4fd23ba73294241490620",
            "0x000000000000000000000000d9f47bac4019fc199cb5d769ca2c2f501a999888"
          ],
          "data": "0x00000000000000000000000000000000000000000000000000000000000f4240",
          "blockHash": "0x990354b8dbcce29bf4c0672a3f052b82ea8e316acc822147109f49d736c452f4",
          "blockNumber": "0x4137323",
          "transactionHash": "0x40ff0bb9cd910384bab161c50cf4884c766c9ab1a5157a48f3154a157ca477c9",
          "transactionIndex": "0x30",
          "logIndex": "0x119",
          "removed": false
        },
        {
          "address": "0x794a61358d6845594f94dc1db02a252b5b4814ad",
          "topics": [
            "0x3115d1449a7b732c986cba18244e897a450f61e1bb8d589cd2e69e6c8924f9f7",
            "0x000000000000000000000000c2132d05d31c914a87c6611c10748aeb04b58e8f",
            "0x000000000000000000000000d9f47bac4019fc199cb5d769ca2c2f501a999888",
            "0x000000000000000000000000d9f47bac4019fc199cb5d769ca2c2f501a999888"
          ],
          "data": "0x00000000000000000000000000000000000000000000000000000000000f4240",
          "blockHash": "0x990354b8dbcce29bf4c0672a3f052b82ea8e316acc822147109f49d736c452f4",
          "blockNumber": "0x4137323",
          "transactionHash": "0x40ff0bb9cd910384bab161c50cf4884c766c9ab1a5157a48f3154a157ca477c9",
          "transactionIndex": "0x30",
          "logIndex": "0x11a",
          "removed": false
        },
        {
          "address": "0x3c499c542cef5e3811e1192ce70d8cc03d5c3359",
          "topics": [
            "0xddf252ad1be2c89b69c2b068fc378daa952ba7f163c4a11628f55a4df523b3ef",
            "0x000000000000000000000000d9f47bac4019fc199cb5d769ca2c2f501a999888",
            "0x000000000000000000000000aebdfcf4a528de8b480a7b69ecaf17addb8b9959"
          ],
          "data": "0x00000000000000000000000000000000000000000000000000000000000f4240",
          "blockHash": "0x990354b8dbcce29bf4c0672a3f052b82ea8e316acc822147109f49d736c452f4",
          "blockNumber": "0x4137323",
          "transactionHash": "0x40ff0bb9cd910384bab161c50cf4884c766c9ab1a5157a48f3154a157ca477c9",
          "transactionIndex": "0x30",
          "logIndex": "0x11b",
          "removed": false
        },
        {
          "address": "0xc2132d05d31c914a87c6611c10748aeb04b58e8f",
          "topics": [
            "0xddf252ad1be2c89b69c2b068fc378daa952ba7f163c4a11628f55a4df523b3ef",
            "0x000000000000000000000000d9f47bac4019fc199cb5d769ca2c2f501a999888",
            "0x000000000000000000000000aebdfcf4a528de8b480a7b69ecaf17addb8b9959"
          ],
          "data": "0x00000000000000000000000000000000000000000000000000000000000f4240",
          "blockHash": "0x990354b8dbcce29bf4c0672a3f052b82ea8e316acc822147109f49d736c452f4",
          "blockNumber": "0x4137323",
          "transactionHash": "0x40ff0bb9cd910384bab161c50cf4884c766c9ab1a5157a48f3154a157ca477c9",
          "transactionIndex": "0x30",
          "logIndex": "0x11c",
          "removed": false
        },
        {
          "address": "0x0000000000000000000000000000000000001010",
          "topics": [
            "0x4dfe1bbbcf077ddc3e01291eea2d5c70c2b422b415d95645b9adcfd678cb1d63",
            "0x0000000000000000000000000000000000000000000000000000000000001010",
            "0x000000000000000000000000aebdfcf4a528de8b480a7b69ecaf17addb8b9959",
            "0x00000000000000000000000067b94473d81d0cd00849d563c94d0432ac988b49"
          ],
          "data": "0x000000000000000000000000000000000000000000000000002571003e73a80000000000000000000000000000000000000000000000000041b4d54891b6f8cb0000000000000000000000000000000000000000000001255c91364ada0f44f3000000000000000000000000000000000000000000000000418f6448534350cb0000000000000000000000000000000000000000000001255cb6a74b1882ecf3",
          "blockHash": "0x990354b8dbcce29bf4c0672a3f052b82ea8e316acc822147109f49d736c452f4",
          "blockNumber": "0x4137323",
          "transactionHash": "0x40ff0bb9cd910384bab161c50cf4884c766c9ab1a5157a48f3154a157ca477c9",
          "transactionIndex": "0x30",
          "logIndex": "0x11d",
          "removed": false
        }
      ],
      "logsBloom": "0x10080008002000000000000000000000018000000000000000000000000000000000000000000000000000000000000100018000200004000000000010000000000000000040010000000008002000800000040000000000000100000000000010000000420000000000100000000800000000000000020080000010000000000000000000080001000002800000000000024000000800000010000000000000200000000080000010000000000000000800000000000000000000000000014000800002000000000001002008008000400000040000000000104000000020040000020000000000000000000000010000000000100020000000000000100000",
      "type": "0x2",
      "transactionHash": "0x40ff0bb9cd910384bab161c50cf4884c766c9ab1a5157a48f3154a157ca477c9",
      "transactionIndex": "0x30",
      "blockHash": "0x990354b8dbcce29bf4c0672a3f052b82ea8e316acc822147109f49d736c452f4",
      "blockNumber": "0x4137323",
      "gasUsed": "0x55c3e",
      "effectiveGasPrice": "0x6fc23ae16",
      "from": "0xaebdfcf4a528de8b480a7b69ecaf17addb8b9959",
      "to": "0xd9f47bac4019fc199cb5d769ca2c2f501a999888",
      "contractAddress": null
    }
  ],
  "libraries": [],
  "pending": [],
  "returns": {},
  "timestamp": 1740548231,
  "chain": 137,
  "commit": "4328487"
}