{
  "transactions": [
    {
      "hash": "0x6101156248cca4820073360585162b70703b5350c449d6e02686fe6dbf911964",
      "transactionType": "CALL",
      "contractName": null,
      "contractAddress": "0x52f052d2411735287989461721f4b49a13d65888",
      "function": "withdraw(uint256,uint256)",
      "arguments": [
        "500000",
        "400000"
      ],
      "transaction": {
        "from": "0xaebdfcf4a528de8b480a7b69ecaf17addb8b9959",
        "to": "0x52f052d2411735287989461721f4b49a13d65888",
        "gas": "0x78d43",
        "value": "0x0",
        "input": "0x441a3e70000000000000000000000000000000000000000000000000000000000007a1200000000000000000000000000000000000000000000000000000000000061a80",
        "nonce": "0x13",
        "chainId": "0x89"
      },
      "additionalContracts": [],
      "isFixedGasLimit": false
    }
  ],
  "receipts": [
    {
      "status": "0x1",
      "cumulativeGasUsed": "0xc54742",
      "logs": [
        {
          "address": "0x794a61358d6845594f94dc1db02a252b5b4814ad",
          "topics": [
            "0x804c9b842b2748a22bb64b345453a3de7ca54a6ca45ce00d415894979e22897a",
            "0x0000000000000000000000003c499c542cef5e3811e1192ce70d8cc03d5c3359"
          ],
          "data": "0x00000000000000000000000000000000000000000021c3d7ae698579df52560300000000000000000000000000000000000000000000000000000000000000000000000000000000000000000000000000000000003cb4a5f98d4bc76cfb75a10000000000000000000000000000000000000000038c088f5da91f4931076b47000000000000000000000000000000000000000003a033e47da3ef506dd5b593",
          "blockHash": "0x65a874ff47348619aac561cdb8773f39a8d1758959e8b46b2a5ec7846643cd31",
          "blockNumber": "0x4136e2f",
          "transactionHash": "0x6101156248cca4820073360585162b70703b5350c449d6e02686fe6dbf911964",
          "transactionIndex": "0x42",
          "logIndex": "0x135",
          "removed": false
        },
        {
          "address": "0xa4d94019934d8333ef880abffbf2fdd611c762bd",
          "topics": [
            "0xddf252ad1be2c89b69c2b068fc378daa952ba7f163c4a11628f55a4df523b3ef",
            "0x00000000000000000000000052f052d2411735287989461721f4b49a13d65888",
            "0x0000000000000000000000000000000000000000000000000000000000000000"
          ],
          "data": "0x000000000000000000000000000000000000000000000000000000000007a11f",
          "blockHash": "0x65a874ff47348619aac561cdb8773f39a8d1758959e8b46b2a5ec7846643cd31",
          "blockNumber": "0x4136e2f",
          "transactionHash": "0x6101156248cca4820073360585162b70703b5350c449d6e02686fe6dbf911964",
          "transactionIndex": "0x42",
          "logIndex": "0x136",
          "removed": false
        },
        {
          "address": "0xa4d94019934d8333ef880abffbf2fdd611c762bd",
          "topics": [
            "0x4cf25bc1d991c17529c25213d3cc0cda295eeaad5f13f361969b12ea48015f90",
            "0x00000000000000000000000052f052d2411735287989461721f4b49a13d65888",
            "0x00000000000000000000000052f052d2411735287989461721f4b49a13d65888"
          ],
          "data": "0x000000000000000000000000000000000000000000000000000000000007a11f00000000000000000000000000000000000000000000000000000000000000010000000000000000000000000000000000000000038c088f5da91f4931076b47",
          "blockHash": "0x65a874ff47348619aac561cdb8773f39a8d1758959e8b46b2a5ec7846643cd31",
          "blockNumber": "0x4136e2f",
          "transactionHash": "0x6101156248cca4820073360585162b70703b5350c449d6e02686fe6dbf911964",
          "transactionIndex": "0x42",
          "logIndex": "0x137",
          "removed": false
        },
        {
          "address": "0x3c499c542cef5e3811e1192ce70d8cc03d5c3359",
          "topics": [
            "0xddf252ad1be2c89b69c2b068fc378daa952ba7f163c4a11628f55a4df523b3ef",
            "0x000000000000000000000000a4d94019934d8333ef880abffbf2fdd611c762bd",
            "0x00000000000000000000000052f052d2411735287989461721f4b49a13d65888"
          ],
          "data": "0x000000000000000000000000000000000000000000000000000000000007a120",
          "blockHash": "0x65a874ff47348619aac561cdb8773f39a8d1758959e8b46b2a5ec7846643cd31",
          "blockNumber": "0x4136e2f",
          "transactionHash": "0x6101156248cca4820073360585162b70703b5350c449d6e02686fe6dbf911964",
          "transactionIndex": "0x42",
          "logIndex": "0x138",
          "removed": false
        },
        {
          "address": "0x794a61358d6845594f94dc1db02a252b5b4814ad",
          "topics": [
            "0x3115d1449a7b732c986cba18244e897a450f61e1bb8d589cd2e69e6c8924f9f7",
            "0x0000000000000000000000003c499c542cef5e3811e1192ce70d8cc03d5c3359",
            "0x00000000000000000000000052f052d2411735287989461721f4b49a13d65888",
            "0x00000000000000000000000052f052d2411735287989461721f4b49a13d65888"
          ],
          "data": "0x000000000000000000000000000000000000000000000000000000000007a120",
          "blockHash": "0x65a874ff47348619aac561cdb8773f39a8d1758959e8b46b2a5ec7846643cd31",
          "blockNumber": "0x4136e2f",
          "transactionHash": "0x6101156248cca4820073360585162b70703b5350c449d6e02686fe6dbf911964",
          "transactionIndex": "0x42",
          "logIndex": "0x139",
          "removed": false
        },
        {
          "address": "0x794a61358d6845594f94dc1db02a252b5b4814ad",
          "topics": [
            "0x804c9b842b2748a22bb64b345453a3de7ca54a6ca45ce00d415894979e22897a",
            "0x000000000000000000000000c2132d05d31c914a87c6611c10748aeb04b58e8f"
          ],
          "data": "0x0000000000000000000000000000000000000000001e77577f0e64d2f464366100000000000000000000000000000000000000000000000000000000000000000000000000000000000000000000000000000000003b8e1c282f23ebb6de129a000000000000000000000000000000000000000003c3f5f21cfa3a26c75197ae000000000000000000000000000000000000000003f1c7074a929fbc30afdc76",
          "blockHash": "0x65a874ff47348619aac561cdb8773f39a8d1758959e8b46b2a5ec7846643cd31",
          "blockNumber": "0x4136e2f",
          "transactionHash": "0x6101156248cca4820073360585162b70703b5350c449d6e02686fe6dbf911964",
          "transactionIndex": "0x42",
          "logIndex": "0x13a",
          "removed": false
        },
        {
          "address": "0x6ab707aca953edaefbc4fd23ba73294241490620",
          "topics": [
            "0xddf252ad1be2c89b69c2b068fc378daa952ba7f163c4a11628f55a4df523b3ef",
            "0x00000000000000000000000052f052d2411735287989461721f4b49a13d65888",
            "0x0000000000000000000000000000000000000000000000000000000000000000"
          ],
          "data": "0x0000000000000000000000000000000000000000000000000000000000061a80",
          "blockHash": "0x65a874ff47348619aac561cdb8773f39a8d1758959e8b46b2a5ec7846643cd31",
          "blockNumber": "0x4136e2f",
          "transactionHash": "0x6101156248cca4820073360585162b70703b5350c449d6e02686fe6dbf911964",
          "transactionIndex": "0x42",
          "logIndex": "0x13b",
          "removed": false
        },
        {
          "address": "0x6ab707aca953edaefbc4fd23ba73294241490620",
          "topics": [
            "0x4cf25bc1d991c17529c25213d3cc0cda295eeaad5f13f361969b12ea48015f90",
            "0x00000000000000000000000052f052d2411735287989461721f4b49a13d65888",
            "0x00000000000000000000000052f052d2411735287989461721f4b49a13d65888"
          ],
          "data": "0x0000000000000000000000000000000000000000000000000000000000061a800000000000000000000000000000000000000000000000000000000000000000000000000000000000000000000000000000000003c3f5f21cfa3a26c75197ae",
          "blockHash": "0x65a874ff47348619aac561cdb8773f39a8d1758959e8b46b2a5ec7846643cd31",
          "blockNumber": "0x4136e2f",
          "transactionHash": "0x6101156248cca4820073360585162b70703b5350c449d6e02686fe6dbf911964",
          "transactionIndex": "0x42",
          "logIndex": "0x13c",
          "removed": false
        },
        {
          "address": "0xc2132d05d31c914a87c6611c10748aeb04b58e8f",
          "topics": [
            "0xddf252ad1be2c89b69c2b068fc378daa952ba7f163c4a11628f55a4df523b3ef",
            "0x0000000000000000000000006ab707aca953edaefbc4fd23ba73294241490620",
            "0x00000000000000000000000052f052d2411735287989461721f4b49a13d65888"
          ],
          "data": "0x0000000000000000000000000000000000000000000000000000000000061a80",
          "blockHash": "0x65a874ff47348619aac561cdb8773f39a8d1758959e8b46b2a5ec7846643cd31",
          "blockNumber": "0x4136e2f",
          "transactionHash": "0x6101156248cca4820073360585162b70703b5350c449d6e02686fe6dbf911964",
          "transactionIndex": "0x42",
          "logIndex": "0x13d",
          "removed": false
        },
        {
          "address": "0x794a61358d6845594f94dc1db02a252b5b4814ad",
          "topics": [
            "0x3115d1449a7b732c986cba18244e897a450f61e1bb8d589cd2e69e6c8924f9f7",
            "0x000000000000000000000000c2132d05d31c914a87c6611c10748aeb04b58e8f",
            "0x00000000000000000000000052f052d2411735287989461721f4b49a13d65888",
            "0x00000000000000000000000052f052d2411735287989461721f4b49a13d65888"
          ],
          "data": "0x0000000000000000000000000000000000000000000000000000000000061a80",
          "blockHash": "0x65a874ff47348619aac561cdb8773f39a8d1758959e8b46b2a5ec7846643cd31",
          "blockNumber": "0x4136e2f",
          "transactionHash": "0x6101156248cca4820073360585162b70703b5350c449d6e02686fe6dbf911964",
          "transactionIndex": "0x42",
          "logIndex": "0x13e",
          "removed": false
        },
        {
          "address": "0x3c499c542cef5e3811e1192ce70d8cc03d5c3359",
          "topics": [
            "0xddf252ad1be2c89b69c2b068fc378daa952ba7f163c4a11628f55a4df523b3ef",
            "0x00000000000000000000000052f052d2411735287989461721f4b49a13d65888",
            "0x000000000000000000000000aebdfcf4a528de8b480a7b69ecaf17addb8b9959"
          ],
          "data": "0x000000000000000000000000000000000000000000000000000000000007a120",
          "blockHash": "0x65a874ff47348619aac561cdb8773f39a8d1758959e8b46b2a5ec7846643cd31",
          "blockNumber": "0x4136e2f",
          "transactionHash": "0x6101156248cca4820073360585162b70703b5350c449d6e02686fe6dbf911964",
          "transactionIndex": "0x42",
          "logIndex": "0x13f",
          "removed": false
        },
        {
          "address": "0xc2132d05d31c914a87c6611c10748aeb04b58e8f",
          "topics": [
            "0xddf252ad1be2c89b69c2b068fc378daa952ba7f163c4a11628f55a4df523b3ef",
            "0x00000000000000000000000052f052d2411735287989461721f4b49a13d65888",
            "0x000000000000000000000000aebdfcf4a528de8b480a7b69ecaf17addb8b9959"
          ],
          "data": "0x0000000000000000000000000000000000000000000000000000000000061a80",
          "blockHash": "0x65a874ff47348619aac561cdb8773f39a8d1758959e8b46b2a5ec7846643cd31",
          "blockNumber": "0x4136e2f",
          "transactionHash": "0x6101156248cca4820073360585162b70703b5350c449d6e02686fe6dbf911964",
          "transactionIndex": "0x42",
          "logIndex": "0x140",
          "removed": false
        },
        {
          "address": "0x0000000000000000000000000000000000001010",
          "topics": [
            "0x4dfe1bbbcf077ddc3e01291eea2d5c70c2b422b415d95645b9adcfd678cb1d63",
            "0x0000000000000000000000000000000000000000000000000000000000001010",
            "0x000000000000000000000000aebdfcf4a528de8b480a7b69ecaf17addb8b9959",
            "0x000000000000000000000000ce7fcb674ba27a952c71061b649fb5a5746f3b2b"
          ],
          "data": "0x0000000000000000000000000000000000000000000000000023a4aad7c43f6600000000000000000000000000000000000000000000000043dc0ce13b68ac560000000000000000000000000000000000000000000000194859abd2dd378b5100000000000000000000000000000000000000000000000043b8683663a46cf0000000000000000000000000000000000000000000000019487d507db4fbcab7",
          "blockHash": "0x65a874ff47348619aac561cdb8773f39a8d1758959e8b46b2a5ec7846643cd31",
          "blockNumber": "0x4136e2f",
          "transactionHash": "0x6101156248cca4820073360585162b70703b5350c449d6e02686fe6dbf911964",
          "transactionIndex": "0x42",
          "logIndex": "0x141",
          "removed": false
        }
      ],
      "logsBloom": "0x10080008002000000000000000000000018000000000000000000000000000000000000000000000000000000000000100018000200004000000000000000000000000000040000000000008002000800000040000000000000120000000000010000000420000000000100000000800000000000000020080000010000000000000000000080001000002800080000000024000000800000010000000000000200000000080000010000000000000000800000000000000000000000000014000000002004000000011002018000080400000000000000000104000000020040000000000000000000000000000010000000000100020000000000000100000",
      "type": "0x2",
      "transactionHash": "0x6101156248cca4820073360585162b70703b5350c449d6e02686fe6dbf911964",
      "transactionIndex": "0x42",
      "blockHash": "0x65a874ff47348619aac561cdb8773f39a8d1758959e8b46b2a5ec7846643cd31",
      "blockNumber": "0x4136e2f",
      "gasUsed": "0x577a6",
      "effectiveGasPrice": "0x684ee2e6e",
      "from": "0xaebdfcf4a528de8b480a7b69ecaf17addb8b9959",
      "to": "0x52f052d2411735287989461721f4b49a13d65888",
      "contractAddress": null
    }
  ],
  "libraries": [],
  "pending": [],
  "returns": {},
  "timestamp": 1740545527,
  "chain": 137,
  "commit": "4328487"
}