{
  "transactions": [
    {
      "hash": "0x775926e9456e8d89e522432e883db74b9fa33731d0ad85761081ce1543952c10",
      "transactionType": "CALL",
      "contractName": null,
      "contractAddress": "0x52f052d2411735287989461721f4b49a13d65888",
      "function": "withdraw(uint256,uint256)",
      "arguments": [
        "0",
        "4000000"
      ],
      "transaction": {
        "from": "0xaebdfcf4a528de8b480a7b69ecaf17addb8b9959",
        "to": "0x52f052d2411735287989461721f4b49a13d65888",
        "gas": "0x5a4a5",
        "value": "0x0",
        "input": "0x441a3e70000000000000000000000000000000000000000000000000000000000000000000000000000000000000000000000000000000000000000000000000003d0900",
        "nonce": "0x11",
        "chainId": "0x89"
      },
      "additionalContracts": [],
      "isFixedGasLimit": false
    }
  ],
  "receipts": [
    {
      "status": "0x1",
      "cumulativeGasUsed": "0xaecd6f",
      "logs": [
        {
          "address": "0x794a61358d6845594f94dc1db02a252b5b4814ad",
          "topics": [
            "0x804c9b842b2748a22bb64b345453a3de7ca54a6ca45ce00d415894979e22897a",
            "0x000000000000000000000000c2132d05d31c914a87c6611c10748aeb04b58e8f"
          ],
          "data": "0x0000000000000000000000000000000000000000001e774c2979acd1bfff29d400000000000000000000000000000000000000000000000000000000000000000000000000000000000000000000000000000000003b8e11142ed753adf265cd000000000000000000000000000000000000000003c3f5cfa07555283e8092ab000000000000000000000000000000000000000003f1c6c0e2ed4aa633361086",
          "blockHash": "0x8110d4c1a674f19cf52a7adfddf65584a0d06b5af7e3f1f78fbbcde2930b182a",
          "blockNumber": "0x4136d53",
          "transactionHash": "0x775926e9456e8d89e522432e883db74b9fa33731d0ad85761081ce1543952c10",
          "transactionIndex": "0x57",
          "logIndex": "0x1ad",
          "removed": false
        },
        {
          "address": "0x6ab707aca953edaefbc4fd23ba73294241490620",
          "topics": [
            "0xddf252ad1be2c89b69c2b068fc378daa952ba7f163c4a11628f55a4df523b3ef",
            "0x00000000000000000000000052f052d2411735287989461721f4b49a13d65888",
            "0x0000000000000000000000000000000000000000000000000000000000000000"
          ],
          "data": "0x00000000000000000000000000000000000000000000000000000000003d08ff",
          "blockHash": "0x8110d4c1a674f19cf52a7adfddf65584a0d06b5af7e3f1f78fbbcde2930b182a",
          "blockNumber": "0x4136d53",
          "transactionHash": "0x775926e9456e8d89e522432e883db74b9fa33731d0ad85761081ce1543952c10",
          "transactionIndex": "0x57",
          "logIndex": "0x1ae",
          "removed": false
        },
        {
          "address": "0x6ab707aca953edaefbc4fd23ba73294241490620",
          "topics": [
            "0x4cf25bc1d991c17529c25213d3cc0cda295eeaad5f13f361969b12ea48015f90",
            "0x00000000000000000000000052f052d2411735287989461721f4b49a13d65888",
            "0x00000000000000000000000052f052d2411735287989461721f4b49a13d65888"
          ],
          "data": "0x00000000000000000000000000000000000000000000000000000000003d08ff0000000000000000000000000000000000000000000000000000000000000001000000000000000000000000000000000000000003c3f5cfa07555283e8092ab",
          "blockHash": "0x8110d4c1a674f19cf52a7adfddf65584a0d06b5af7e3f1f78fbbcde2930b182a",
          "blockNumber": "0x4136d53",
          "transactionHash": "0x775926e9456e8d89e522432e883db74b9fa33731d0ad85761081ce1543952c10",
          "transactionIndex": "0x57",
          "logIndex": "0x1af",
          "removed": false
        },
        {
          "address": "0xc2132d05d31c914a87c6611c10748aeb04b58e8f",
          "topics": [
            "0xddf252ad1be2c89b69c2b068fc378daa952ba7f163c4a11628f55a4df523b3ef",
            "0x0000000000000000000000006ab707aca953edaefbc4fd23ba73294241490620",
            "0x00000000000000000000000052f052d2411735287989461721f4b49a13d65888"
          ],
          "data": "0x00000000000000000000000000000000000000000000000000000000003d0900",
          "blockHash": "0x8110d4c1a674f19cf52a7adfddf65584a0d06b5af7e3f1f78fbbcde2930b182a",
          "blockNumber": "0x4136d53",
          "transactionHash": "0x775926e9456e8d89e522432e883db74b9fa33731d0ad85761081ce1543952c10",
          "transactionIndex": "0x57",
          "logIndex": "0x1b0",
          "removed": false
        },
        {
          "address": "0x794a61358d6845594f94dc1db02a252b5b4814ad",
          "topics": [
            "0x3115d1449a7b732c986cba18244e897a450f61e1bb8d589cd2e69e6c8924f9f7",
            "0x000000000000000000000000c2132d05d31c914a87c6611c10748aeb04b58e8f",
            "0x00000000000000000000000052f052d2411735287989461721f4b49a13d65888",
            "0x00000000000000000000000052f052d2411735287989461721f4b49a13d65888"
          ],
          "data": "0x00000000000000000000000000000000000000000000000000000000003d0900",
          "blockHash": "0x8110d4c1a674f19cf52a7adfddf65584a0d06b5af7e3f1f78fbbcde2930b182a",
          "blockNumber": "0x4136d53",
          "transactionHash": "0x775926e9456e8d89e522432e883db74b9fa33731d0ad85761081ce1543952c10",
          "transactionIndex": "0x57",
          "logIndex": "0x1b1",
          "removed": false
        },
        {
          "address": "0x3c499c542cef5e3811e1192ce70d8cc03d5c3359",
          "topics": [
            "0xddf252ad1be2c89b69c2b068fc378daa952ba7f163c4a11628f55a4df523b3ef",
            "0x00000000000000000000000052f052d2411735287989461721f4b49a13d65888",
            "0x000000000000000000000000aebdfcf4a528de8b480a7b69ecaf17addb8b9959"
          ],
          "data": "0x0000000000000000000000000000000000000000000000000000000000000000",
          "blockHash": "0x8110d4c1a674f19cf52a7adfddf65584a0d06b5af7e3f1f78fbbcde2930b182a",
          "blockNumber": "0x4136d53",
          "transactionHash": "0x775926e9456e8d89e522432e883db74b9fa33731d0ad85761081ce1543952c10",
          "transactionIndex": "0x57",
          "logIndex": "0x1b2",
          "removed": false
        },
        {
          "address": "0xc2132d05d31c914a87c6611c10748aeb04b58e8f",
          "topics": [
            "0xddf252ad1be2c89b69c2b068fc378daa952ba7f163c4a11628f55a4df523b3ef",
            "0x00000000000000000000000052f052d2411735287989461721f4b49a13d65888",
            "0x000000000000000000000000aebdfcf4a528de8b480a7b69ecaf17addb8b9959"
          ],
          "data": "0x00000000000000000000000000000000000000000000000000000000003d0900",
          "blockHash": "0x8110d4c1a674f19cf52a7adfddf65584a0d06b5af7e3f1f78fbbcde2930b182a",
          "blockNumber": "0x4136d53",
          "transactionHash": "0x775926e9456e8d89e522432e883db74b9fa33731d0ad85761081ce1543952c10",
          "transactionIndex": "0x57",
          "logIndex": "0x1b3",
          "removed": false
        },
        {
          "address": "0x0000000000000000000000000000000000001010",
          "topics": [
            "0x4dfe1bbbcf077ddc3e01291eea2d5c70c2b422b415d95645b9adcfd678cb1d63",
            "0x0000000000000000000000000000000000000000000000000000000000001010",
            "0x000000000000000000000000aebdfcf4a528de8b480a7b69ecaf17addb8b9959",
            "0x00000000000000000000000069f5c4d08f6bc8cd29fe5f004d46fb566270868d"
          ],
          "data": "0x0000000000000000000000000000000000000000000000000018ee2c3fc86c58000000000000000000000000000000000000000000000000440fef0d0bec23b200000000000000000000000000000000000000000000001678f1126351c0a8a900000000000000000000000000000000000000000000000043f700e0cc23b75a000000000000000000000000000000000000000000000016790a008f91891501",
          "blockHash": "0x8110d4c1a674f19cf52a7adfddf65584a0d06b5af7e3f1f78fbbcde2930b182a",
          "blockNumber": "0x4136d53",
          "transactionHash": "0x775926e9456e8d89e522432e883db74b9fa33731d0ad85761081ce1543952c10",
          "transactionIndex": "0x57",
          "logIndex": "0x1b4",
          "removed": false
        }
      ],
      "logsBloom": "0x10080008002000000000000002000000018000000000000000000000000000000000000000000000200000000000000100018000000004000000000000000000000000000000000000000008000040800000040000000000000100000000000010000000420000000000000000000800000000000000020080000010000000000000000000080001000000000000000000020000000800000010000000000000200000000080000010000000000000000800000000000000000000000000014000000002000000000011002018000080400000000000000000100000000020040000000000000000000000000000010000000000100020000000000000100000",
      "type": "0x2",
      "transactionHash": "0x775926e9456e8d89e522432e883db74b9fa33731d0ad85761081ce1543952c10",
      "transactionIndex": "0x57",
      "blockHash": "0x8110d4c1a674f19cf52a7adfddf65584a0d06b5af7e3f1f78fbbcde2930b182a",
      "blockNumber": "0x4136d53",
      "gasUsed": "0x3dbcb",
      "effectiveGasPrice": "0x67607eed9",
      "from": "0xaebdfcf4a528de8b480a7b69ecaf17addb8b9959",
      "to": "0x52f052d2411735287989461721f4b49a13d65888",
      "contractAddress": null
    }
  ],
  "libraries": [],
  "pending": [],
  "returns": {},
  "timestamp": 1740545060,
  "chain": 137,
  "commit": "4328487"
}