{
  "transactions": [
    {
      "hash": "0xdd4a62480abc657e0916a68cc2982f212a067d817a73303664df33efc1a4eb9b",
      "transactionType": "CALL",
      "contractName": null,
      "contractAddress": "0x3aba8060b5f767de54a19602ce345c06fcb91888",
      "function": "withdraw(uint256,uint256)",
      "arguments": [
        "1000000",
        "1000000"
      ],
      "transaction": {
        "from": "0xaebdfcf4a528de8b480a7b69ecaf17addb8b9959",
        "to": "0x3aba8060b5f767de54a19602ce345c06fcb91888",
        "gas": "0x755e2",
        "value": "0x0",
        "input": "0x441a3e7000000000000000000000000000000000000000000000000000000000000f424000000000000000000000000000000000000000000000000000000000000f4240",
        "nonce": "0x33",
        "chainId": "0x89"
      },
      "additionalContracts": [],
      "isFixedGasLimit": false
    }
  ],
  "receipts": [
    {
      "status": "0x1",
      "cumulativeGasUsed": "0xb98af5",
      "logs": [
        {
          "address": "0x794a61358d6845594f94dc1db02a252b5b4814ad",
          "topics": [
            "0x804c9b842b2748a22bb64b345453a3de7ca54a6ca45ce00d415894979e22897a",
            "0x0000000000000000000000003c499c542cef5e3811e1192ce70d8cc03d5c3359"
          ],
          "data": "0x00000000000000000000000000000000000000000021c41f8817e22bf901766f00000000000000000000000000000000000000000000000000000000000000000000000000000000000000000000000000000000003cb4e6904b3789335af0790000000000000000000000000000000000000000038c0bf792d297fc4771259f000000000000000000000000000000000000000003a039e70338b7fe54e933f5",
          "blockHash": "0xcecdf955c4257673f87559da1a9d61e04c8b128191a2f5ee08aaced6c0ece52c",
          "blockNumber": "0x413822a",
          "transactionHash": "0xdd4a62480abc657e0916a68cc2982f212a067d817a73303664df33efc1a4eb9b",
          "transactionIndex": "0x51",
          "logIndex": "0x19b",
          "removed": false
        },
        {
          "address": "0xa4d94019934d8333ef880abffbf2fdd611c762bd",
          "topics": [
            "0xddf252ad1be2c89b69c2b068fc378daa952ba7f163c4a11628f55a4df523b3ef",
            "0x0000000000000000000000003aba8060b5f767de54a19602ce345c06fcb91888",
            "0x0000000000000000000000000000000000000000000000000000000000000000"
          ],
          "data": "0x00000000000000000000000000000000000000000000000000000000000f423f",
          "blockHash": "0xcecdf955c4257673f87559da1a9d61e04c8b128191a2f5ee08aaced6c0ece52c",
          "blockNumber": "0x413822a",
          "transactionHash": "0xdd4a62480abc657e0916a68cc2982f212a067d817a73303664df33efc1a4eb9b",
          "transactionIndex": "0x51",
          "logIndex": "0x19c",
          "removed": false
        },
        {
          "address": "0xa4d94019934d8333ef880abffbf2fdd611c762bd",
          "topics": [
            "0x4cf25bc1d991c17529c25213d3cc0cda295eeaad5f13f361969b12ea48015f90",
            "0x0000000000000000000000003aba8060b5f767de54a19602ce345c06fcb91888",
            "0x0000000000000000000000003aba8060b5f767de54a19602ce345c06fcb91888"
          ],
          "data": "0x00000000000000000000000000000000000000000000000000000000000f423f00000000000000000000000000000000000000000000000000000000000000010000000000000000000000000000000000000000038c0bf792d297fc4771259f",
          "blockHash": "0xcecdf955c4257673f87559da1a9d61e04c8b128191a2f5ee08aaced6c0ece52c",
          "blockNumber": "0x413822a",
          "transactionHash": "0xdd4a62480abc657e0916a68cc2982f212a067d817a73303664df33efc1a4eb9b",
          "transactionIndex": "0x51",
          "logIndex": "0x19d",
          "removed": false
        },
        {
          "address": "0x3c499c542cef5e3811e1192ce70d8cc03d5c3359",
          "topics": [
            "0xddf252ad1be2c89b69c2b068fc378daa952ba7f163c4a11628f55a4df523b3ef",
            "0x000000000000000000000000a4d94019934d8333ef880abffbf2fdd611c762bd",
            "0x0000000000000000000000003aba8060b5f767de54a19602ce345c06fcb91888"
          ],
          "data": "0x00000000000000000000000000000000000000000000000000000000000f4240",
          "blockHash": "0xcecdf955c4257673f87559da1a9d61e04c8b128191a2f5ee08aaced6c0ece52c",
          "blockNumber": "0x413822a",
          "transactionHash": "0xdd4a62480abc657e0916a68cc2982f212a067d817a73303664df33efc1a4eb9b",
          "transactionIndex": "0x51",
          "logIndex": "0x19e",
          "removed": false
        },
        {
          "address": "0x794a61358d6845594f94dc1db02a252b5b4814ad",
          "topics": [
            "0x3115d1449a7b732c986cba18244e897a450f61e1bb8d589cd2e69e6c8924f9f7",
            "0x0000000000000000000000003c499c542cef5e3811e1192ce70d8cc03d5c3359",
            "0x0000000000000000000000003aba8060b5f767de54a19602ce345c06fcb91888",
            "0x0000000000000000000000003aba8060b5f767de54a19602ce345c06fcb91888"
          ],
          "data": "0x00000000000000000000000000000000000000000000000000000000000f4240",
          "blockHash": "0xcecdf955c4257673f87559da1a9d61e04c8b128191a2f5ee08aaced6c0ece52c",
          "blockNumber": "0x413822a",
          "transactionHash": "0xdd4a62480abc657e0916a68cc2982f212a067d817a73303664df33efc1a4eb9b",
          "transactionIndex": "0x51",
          "logIndex": "0x19f",
          "removed": false
        },
        {
          "address": "0x794a61358d6845594f94dc1db02a252b5b4814ad",
          "topics": [
            "0x804c9b842b2748a22bb64b345453a3de7ca54a6ca45ce00d415894979e22897a",
            "0x000000000000000000000000c2132d05d31c914a87c6611c10748aeb04b58e8f"
          ],
          "data": "0x0000000000000000000000000000000000000000001e7859c4b92edea3617a6000000000000000000000000000000000000000000000000000000000000000000000000000000000000000000000000000000000003b8f189551949d4dfd80b1000000000000000000000000000000000000000003c3f915ac227d37e60e4dca000000000000000000000000000000000000000003f1cd711a0da2804b01fbda",
          "blockHash": "0xcecdf955c4257673f87559da1a9d61e04c8b128191a2f5ee08aaced6c0ece52c",
          "blockNumber": "0x413822a",
          "transactionHash": "0xdd4a62480abc657e0916a68cc2982f212a067d817a73303664df33efc1a4eb9b",
          "transactionIndex": "0x51",
          "logIndex": "0x1a0",
          "removed": false
        },
        {
          "address": "0x6ab707aca953edaefbc4fd23ba73294241490620",
          "topics": [
            "0xddf252ad1be2c89b69c2b068fc378daa952ba7f163c4a11628f55a4df523b3ef",
            "0x0000000000000000000000003aba8060b5f767de54a19602ce345c06fcb91888",
            "0x0000000000000000000000000000000000000000000000000000000000000000"
          ],
          "data": "0x00000000000000000000000000000000000000000000000000000000000f423f",
          "blockHash": "0xcecdf955c4257673f87559da1a9d61e04c8b128191a2f5ee08aaced6c0ece52c",
          "blockNumber": "0x413822a",
          "transactionHash": "0xdd4a62480abc657e0916a68cc2982f212a067d817a73303664df33efc1a4eb9b",
          "transactionIndex": "0x51",
          "logIndex": "0x1a1",
          "removed": false
        },
        {
          "address": "0x6ab707aca953edaefbc4fd23ba73294241490620",
          "topics": [
            "0x4cf25bc1d991c17529c25213d3cc0cda295eeaad5f13f361969b12ea48015f90",
            "0x0000000000000000000000003aba8060b5f767de54a19602ce345c06fcb91888",
            "0x0000000000000000000000003aba8060b5f767de54a19602ce345c06fcb91888"
          ],
          "data": "0x00000000000000000000000000000000000000000000000000000000000f423f0000000000000000000000000000000000000000000000000000000000000001000000000000000000000000000000000000000003c3f915ac227d37e60e4dca",
          "blockHash": "0xcecdf955c4257673f87559da1a9d61e04c8b128191a2f5ee08aaced6c0ece52c",
          "blockNumber": "0x413822a",
          "transactionHash": "0xdd4a62480abc657e0916a68cc2982f212a067d817a73303664df33efc1a4eb9b",
          "transactionIndex": "0x51",
          "logIndex": "0x1a2",
          "removed": false
        },
        {
          "address": "0xc2132d05d31c914a87c6611c10748aeb04b58e8f",
          "topics": [
            "0xddf252ad1be2c89b69c2b068fc378daa952ba7f163c4a11628f55a4df523b3ef",
            "0x0000000000000000000000006ab707aca953edaefbc4fd23ba73294241490620",
            "0x0000000000000000000000003aba8060b5f767de54a19602ce345c06fcb91888"
          ],
          "data": "0x00000000000000000000000000000000000000000000000000000000000f4240",
          "blockHash": "0xcecdf955c4257673f87559da1a9d61e04c8b128191a2f5ee08aaced6c0ece52c",
          "blockNumber": "0x413822a",
          "transactionHash": "0xdd4a62480abc657e0916a68cc2982f212a067d817a73303664df33efc1a4eb9b",
          "transactionIndex": "0x51",
          "logIndex": "0x1a3",
          "removed": false
        },
        {
          "address": "0x794a61358d6845594f94dc1db02a252b5b4814ad",
          "topics": [
            "0x3115d1449a7b732c986cba18244e897a450f61e1bb8d589cd2e69e6c8924f9f7",
            "0x000000000000000000000000c2132d05d31c914a87c6611c10748aeb04b58e8f",
            "0x0000000000000000000000003aba8060b5f767de54a19602ce345c06fcb91888",
            "0x0000000000000000000000003aba8060b5f767de54a19602ce345c06fcb91888"
          ],
          "data": "0x00000000000000000000000000000000000000000000000000000000000f4240",
          "blockHash": "0xcecdf955c4257673f87559da1a9d61e04c8b128191a2f5ee08aaced6c0ece52c",
          "blockNumber": "0x413822a",
          "transactionHash": "0xdd4a62480abc657e0916a68cc2982f212a067d817a73303664df33efc1a4eb9b",
          "transactionIndex": "0x51",
          "logIndex": "0x1a4",
          "removed": false
        },
        {
          "address": "0x3c499c542cef5e3811e1192ce70d8cc03d5c3359",
          "topics": [
            "0xddf252ad1be2c89b69c2b068fc378daa952ba7f163c4a11628f55a4df523b3ef",
            "0x0000000000000000000000003aba8060b5f767de54a19602ce345c06fcb91888",
            "0x000000000000000000000000aebdfcf4a528de8b480a7b69ecaf17addb8b9959"
          ],
          "data": "0x00000000000000000000000000000000000000000000000000000000000f4240",
          "blockHash": "0xcecdf955c4257673f87559da1a9d61e04c8b128191a2f5ee08aaced6c0ece52c",
          "blockNumber": "0x413822a",
          "transactionHash": "0xdd4a62480abc657e0916a68cc2982f212a067d817a73303664df33efc1a4eb9b",
          "transactionIndex": "0x51",
          "logIndex": "0x1a5",
          "removed": false
        },
        {
          "address": "0xc2132d05d31c914a87c6611c10748aeb04b58e8f",
          "topics": [
            "0xddf252ad1be2c89b69c2b068fc378daa952ba7f163c4a11628f55a4df523b3ef",
            "0x0000000000000000000000003aba8060b5f767de54a19602ce345c06fcb91888",
            "0x000000000000000000000000aebdfcf4a528de8b480a7b69ecaf17addb8b9959"
          ],
          "data": "0x00000000000000000000000000000000000000000000000000000000000f4240",
          "blockHash": "0xcecdf955c4257673f87559da1a9d61e04c8b128191a2f5ee08aaced6c0ece52c",
          "blockNumber": "0x413822a",
          "transactionHash": "0xdd4a62480abc657e0916a68cc2982f212a067d817a73303664df33efc1a4eb9b",
          "transactionIndex": "0x51",
          "logIndex": "0x1a6",
          "removed": false
        },
        {
          "address": "0x0000000000000000000000000000000000001010",
          "topics": [
            "0x4dfe1bbbcf077ddc3e01291eea2d5c70c2b422b415d95645b9adcfd678cb1d63",
            "0x0000000000000000000000000000000000000000000000000000000000001010",
            "0x000000000000000000000000aebdfcf4a528de8b480a7b69ecaf17addb8b9959",
            "0x000000000000000000000000eedba2484aaf940f37cd3cd21a5d7c4a7dafbfc0"
          ],
          "data": "0x000000000000000000000000000000000000000000000000002518682f0358c1000000000000000000000000000000000000000000000001535290a3e4cbdee700000000000000000000000000000000000000000001dd2a7789e7118f1467c2000000000000000000000000000000000000000000000001532d783bb5c8862600000000000000000000000000000000000000000001dd2a77aeff79be17c083",
          "blockHash": "0xcecdf955c4257673f87559da1a9d61e04c8b128191a2f5ee08aaced6c0ece52c",
          "blockNumber": "0x413822a",
          "transactionHash": "0xdd4a62480abc657e0916a68cc2982f212a067d817a73303664df33efc1a4eb9b",
          "transactionIndex": "0x51",
          "logIndex": "0x1a7",
          "removed": false
        }
      ],
      "logsBloom": "0x10080008002000000000000000000000018000000000800000000000000000000000000000000000000000000000000100018000200004000000000000000000000000000040000000000008002000800000040000000000000100000000000010000000420000000000100000000800000000000100020080000010000000000000004000080001000002800000000000024000000800000010000000000000200000000080000010000000000000000800000000000000000020000000014000000002000400000001002008000000400000000000000000104000000020040002000000000000000000000000010000000000100020000000000000100000",
      "type": "0x2",
      "transactionHash": "0xdd4a62480abc657e0916a68cc2982f212a067d817a73303664df33efc1a4eb9b",
      "transactionIndex": "0x51",
      "blockHash": "0xcecdf955c4257673f87559da1a9d61e04c8b128191a2f5ee08aaced6c0ece52c",
      "blockNumber": "0x413822a",
      "gasUsed": "0x54f8f",
      "effectiveGasPrice": "0x6fc23d4fb",
      "from": "0xaebdfcf4a528de8b480a7b69ecaf17addb8b9959",
      "to": "0x3aba8060b5f767de54a19602ce345c06fcb91888",
      "contractAddress": null
    }
  ],
  "libraries": [],
  "pending": [],
  "returns": {},
  "timestamp": 1740556408,
  "chain": 137,
  "commit": "f2aad93"
}