{
  "transactions": [
    {
      "hash": "0xa5364df72b3ad3de2701d6b9afc2f42695bee3234ff5bf3fac6796272948b664",
      "transactionType": "CALL",
      "contractName": null,
      "contractAddress": "0x52f052d2411735287989461721f4b49a13d65888",
      "function": "withdraw(uint256,uint256)",
      "arguments": [
        "0",
        "5000000"
      ],
      "transaction": {
        "from": "0xaebdfcf4a528de8b480a7b69ecaf17addb8b9959",
        "to": "0x52f052d2411735287989461721f4b49a13d65888",
        "gas": "0x55473",
        "value": "0x0",
        "input": "0x441a3e70000000000000000000000000000000000000000000000000000000000000000000000000000000000000000000000000000000000000000000000000004c4b40",
        "nonce": "0x10",
        "chainId": "0x89"
      },
      "additionalContracts": [],
      "isFixedGasLimit": false
    }
  ],
  "receipts": [
    {
      "status": "0x1",
      "cumulativeGasUsed": "0x6eac4d",
      "logs": [
        {
          "address": "0x794a61358d6845594f94dc1db02a252b5b4814ad",
          "topics": [
            "0x804c9b842b2748a22bb64b345453a3de7ca54a6ca45ce00d415894979e22897a",
            "0x000000000000000000000000c2132d05d31c914a87c6611c10748aeb04b58e8f"
          ],
          "data": "0x0000000000000000000000000000000000000000001e774c3fedb0ad81c14a5800000000000000000000000000000000000000000000000000000000000000000000000000000000000000000000000000000000003b8e112a20f372c9fd598d000000000000000000000000000000000000000003c3f5c88b342da1566218b1000000000000000000000000000000000000000003f1c6b261e862989f004853",
          "blockHash": "0x009070d7525a0dce89fb14c4d25d677923e0bee44abe153735a9777fb193752d",
          "blockNumber": "0x4136d26",
          "transactionHash": "0xa5364df72b3ad3de2701d6b9afc2f42695bee3234ff5bf3fac6796272948b664",
          "transactionIndex": "0x3f",
          "logIndex": "0xff",
          "removed": false
        },
        {
          "address": "0x6ab707aca953edaefbc4fd23ba73294241490620",
          "topics": [
            "0xddf252ad1be2c89b69c2b068fc378daa952ba7f163c4a11628f55a4df523b3ef",
            "0x00000000000000000000000052f052d2411735287989461721f4b49a13d65888",
            "0x0000000000000000000000000000000000000000000000000000000000000000"
          ],
          "data": "0x00000000000000000000000000000000000000000000000000000000004c4b3f",
          "blockHash": "0x009070d7525a0dce89fb14c4d25d677923e0bee44abe153735a9777fb193752d",
          "blockNumber": "0x4136d26",
          "transactionHash": "0xa5364df72b3ad3de2701d6b9afc2f42695bee3234ff5bf3fac6796272948b664",
          "transactionIndex": "0x3f",
          "logIndex": "0x100",
          "removed": false
        },
        {
          "address": "0x6ab707aca953edaefbc4fd23ba73294241490620",
          "topics": [
            "0x4cf25bc1d991c17529c25213d3cc0cda295eeaad5f13f361969b12ea48015f90",
            "0x00000000000000000000000052f052d2411735287989461721f4b49a13d65888",
            "0x00000000000000000000000052f052d2411735287989461721f4b49a13d65888"
          ],
          "data": "0x00000000000000000000000000000000000000000000000000000000004c4b3f0000000000000000000000000000000000000000000000000000000000000001000000000000000000000000000000000000000003c3f5c88b342da1566218b1",
          "blockHash": "0x009070d7525a0dce89fb14c4d25d677923e0bee44abe153735a9777fb193752d",
          "blockNumber": "0x4136d26",
          "transactionHash": "0xa5364df72b3ad3de2701d6b9afc2f42695bee3234ff5bf3fac6796272948b664",
          "transactionIndex": "0x3f",
          "logIndex": "0x101",
          "removed": false
        },
        {
          "address": "0xc2132d05d31c914a87c6611c10748aeb04b58e8f",
          "topics": [
            "0xddf252ad1be2c89b69c2b068fc378daa952ba7f163c4a11628f55a4df523b3ef",
            "0x0000000000000000000000006ab707aca953edaefbc4fd23ba73294241490620",
            "0x00000000000000000000000052f052d2411735287989461721f4b49a13d65888"
          ],
          "data": "0x00000000000000000000000000000000000000000000000000000000004c4b40",
          "blockHash": "0x009070d7525a0dce89fb14c4d25d677923e0bee44abe153735a9777fb193752d",
          "blockNumber": "0x4136d26",
          "transactionHash": "0xa5364df72b3ad3de2701d6b9afc2f42695bee3234ff5bf3fac6796272948b664",
          "transactionIndex": "0x3f",
          "logIndex": "0x102",
          "removed": false
        },
        {
          "address": "0x794a61358d6845594f94dc1db02a252b5b4814ad",
          "topics": [
            "0x3115d1449a7b732c986cba18244e897a450f61e1bb8d589cd2e69e6c8924f9f7",
            "0x000000000000000000000000c2132d05d31c914a87c6611c10748aeb04b58e8f",
            "0x00000000000000000000000052f052d2411735287989461721f4b49a13d65888",
            "0x00000000000000000000000052f052d2411735287989461721f4b49a13d65888"
          ],
          "data": "0x00000000000000000000000000000000000000000000000000000000004c4b40",
          "blockHash": "0x009070d7525a0dce89fb14c4d25d677923e0bee44abe153735a9777fb193752d",
          "blockNumber": "0x4136d26",
          "transactionHash": "0xa5364df72b3ad3de2701d6b9afc2f42695bee3234ff5bf3fac6796272948b664",
          "transactionIndex": "0x3f",
          "logIndex": "0x103",
          "removed": false
        },
        {
          "address": "0x3c499c542cef5e3811e1192ce70d8cc03d5c3359",
          "topics": [
            "0xddf252ad1be2c89b69c2b068fc378daa952ba7f163c4a11628f55a4df523b3ef",
            "0x00000000000000000000000052f052d2411735287989461721f4b49a13d65888",
            "0x000000000000000000000000aebdfcf4a528de8b480a7b69ecaf17addb8b9959"
          ],
          "data": "0x0000000000000000000000000000000000000000000000000000000000000000",
          "blockHash": "0x009070d7525a0dce89fb14c4d25d677923e0bee44abe153735a9777fb193752d",
          "blockNumber": "0x4136d26",
          "transactionHash": "0xa5364df72b3ad3de2701d6b9afc2f42695bee3234ff5bf3fac6796272948b664",
          "transactionIndex": "0x3f",
          "logIndex": "0x104",
          "removed": false
        },
        {
          "address": "0xc2132d05d31c914a87c6611c10748aeb04b58e8f",
          "topics": [
            "0xddf252ad1be2c89b69c2b068fc378daa952ba7f163c4a11628f55a4df523b3ef",
            "0x00000000000000000000000052f052d2411735287989461721f4b49a13d65888",
            "0x000000000000000000000000aebdfcf4a528de8b480a7b69ecaf17addb8b9959"
          ],
          "data": "0x00000000000000000000000000000000000000000000000000000000004c4b40",
          "blockHash": "0x009070d7525a0dce89fb14c4d25d677923e0bee44abe153735a9777fb193752d",
          "blockNumber": "0x4136d26",
          "transactionHash": "0xa5364df72b3ad3de2701d6b9afc2f42695bee3234ff5bf3fac6796272948b664",
          "transactionIndex": "0x3f",
          "logIndex": "0x105",
          "removed": false
        },
        {
          "address": "0x0000000000000000000000000000000000001010",
          "topics": [
            "0x4dfe1bbbcf077ddc3e01291eea2d5c70c2b422b415d95645b9adcfd678cb1d63",
            "0x0000000000000000000000000000000000000000000000000000000000001010",
            "0x000000000000000000000000aebdfcf4a528de8b480a7b69ecaf17addb8b9959",
            "0x00000000000000000000000067b94473d81d0cd00849d563c94d0432ac988b49"
          ],
          "data": "0x000000000000000000000000000000000000000000000000001a1e230e15f900000000000000000000000000000000000000000000000000442a0d365aa3b644000000000000000000000000000000000000000000000119c62315b2489d1826000000000000000000000000000000000000000000000000440fef134c8dbd44000000000000000000000000000000000000000000000119c63d33d556b31126",
          "blockHash": "0x009070d7525a0dce89fb14c4d25d677923e0bee44abe153735a9777fb193752d",
          "blockNumber": "0x4136d26",
          "transactionHash": "0xa5364df72b3ad3de2701d6b9afc2f42695bee3234ff5bf3fac6796272948b664",
          "transactionIndex": "0x3f",
          "logIndex": "0x106",
          "removed": false
        }
      ],
      "logsBloom": "0x10080008002000000000000000000000018000000000000000000000000000000000000000000000000000000000000100018000000004000000000000000000000000000000000000000008000000800000040000000000000100000000000010000000420000000000000000000800000000000000020080000010000000000000000000080001000000000000000000020000000800000010000000000000200000000080000010000000000000000800000000000000000000000000014000800002000000000011002018008080400000000000000000100000000020040000020000000000000000000000010000000000100020000000000000100000",
      "type": "0x2",
      "transactionHash": "0xa5364df72b3ad3de2701d6b9afc2f42695bee3234ff5bf3fac6796272948b664",
      "transactionIndex": "0x3f",
      "blockHash": "0x009070d7525a0dce89fb14c4d25d677923e0bee44abe153735a9777fb193752d",
      "blockNumber": "0x4136d26",
      "gasUsed": "0x3dbda",
      "effectiveGasPrice": "0x6c4b4fd4d",
      "from": "0xaebdfcf4a528de8b480a7b69ecaf17addb8b9959",
      "to": "0x52f052d2411735287989461721f4b49a13d65888",
      "contractAddress": null
    }
  ],
  "libraries": [],
  "pending": [],
  "returns": {},
  "timestamp": 1740544964,
  "chain": 137,
  "commit": "4328487"
}