{
  "transactions": [
    {
      "hash": "0xac6d00683d32e07a6da864a00611d8cbba65af9e38843bf4d66a8349b940b98f",
      "transactionType": "CALL",
      "contractName": null,
      "contractAddress": "0xd9f47bac4019fc199cb5d769ca2c2f501a999888",
      "function": "withdraw(uint256,uint256)",
      "arguments": [
        "1000000",
        "1000000"
      ],
      "transaction": {
        "from": "0xaebdfcf4a528de8b480a7b69ecaf17addb8b9959",
        "to": "0xd9f47bac4019fc199cb5d769ca2c2f501a999888",
        "gas": "0x76767",
        "value": "0x0",
        "input": "0x441a3e7000000000000000000000000000000000000000000000000000000000000f424000000000000000000000000000000000000000000000000000000000000f4240",
        "nonce": "0x1e",
        "chainId": "0x89"
      },
      "additionalContracts": [],
      "isFixedGasLimit": false
    }
  ],
  "receipts": [
    {
      "status": "0x1",
      "cumulativeGasUsed": "0x904de2",
      "logs": [
        {
          "address": "0x794a61358d6845594f94dc1db02a252b5b4814ad",
          "topics": [
            "0x804c9b842b2748a22bb64b345453a3de7ca54a6ca45ce00d415894979e22897a",
            "0x0000000000000000000000003c499c542cef5e3811e1192ce70d8cc03d5c3359"
          ],
          "data": "0x00000000000000000000000000000000000000000021b52a4f1d7ddb2f0fb6fd00000000000000000000000000000000000000000000000000000000000000000000000000000000000000000000000000000000003ca772e00e8e7e6399377c0000000000000000000000000000000000000000038c0958e982b0c6072da280000000000000000000000000000000000000000003a0355711bdd16f3dba9ab8",
          "blockHash": "0xa4ad5659d311138209412d34bc5f6f38c9c4e096850e45e0f26be1249499d47d",
          "blockNumber": "0x41372fd",
          "transactionHash": "0xac6d00683d32e07a6da864a00611d8cbba65af9e38843bf4d66a8349b940b98f",
          "transactionIndex": "0x37",
          "logIndex": "0x16b",
          "removed": false
        },
        {
          "address": "0xa4d94019934d8333ef880abffbf2fdd611c762bd",
          "topics": [
            "0xddf252ad1be2c89b69c2b068fc378daa952ba7f163c4a11628f55a4df523b3ef",
            "0x000000000000000000000000d9f47bac4019fc199cb5d769ca2c2f501a999888",
            "0x0000000000000000000000000000000000000000000000000000000000000000"
          ],
          "data": "0x00000000000000000000000000000000000000000000000000000000000f423e",
          "blockHash": "0xa4ad5659d311138209412d34bc5f6f38c9c4e096850e45e0f26be1249499d47d",
          "blockNumber": "0x41372fd",
          "transactionHash": "0xac6d00683d32e07a6da864a00611d8cbba65af9e38843bf4d66a8349b940b98f",
          "transactionIndex": "0x37",
          "logIndex": "0x16c",
          "removed": false
        },
        {
          "address": "0xa4d94019934d8333ef880abffbf2fdd611c762bd",
          "topics": [
            "0x4cf25bc1d991c17529c25213d3cc0cda295eeaad5f13f361969b12ea48015f90",
            "0x000000000000000000000000d9f47bac4019fc199cb5d769ca2c2f501a999888",
            "0x000000000000000000000000d9f47bac4019fc199cb5d769ca2c2f501a999888"
          ],
          "data": "0x00000000000000000000000000000000000000000000000000000000000f423e00000000000000000000000000000000000000000000000000000000000000020000000000000000000000000000000000000000038c0958e982b0c6072da280",
          "blockHash": "0xa4ad5659d311138209412d34bc5f6f38c9c4e096850e45e0f26be1249499d47d",
          "blockNumber": "0x41372fd",
          "transactionHash": "0xac6d00683d32e07a6da864a00611d8cbba65af9e38843bf4d66a8349b940b98f",
          "transactionIndex": "0x37",
          "logIndex": "0x16d",
          "removed": false
        },
        {
          "address": "0x3c499c542cef5e3811e1192ce70d8cc03d5c3359",
          "topics": [
            "0xddf252ad1be2c89b69c2b068fc378daa952ba7f163c4a11628f55a4df523b3ef",
            "0x000000000000000000000000a4d94019934d8333ef880abffbf2fdd611c762bd",
            "0x000000000000000000000000d9f47bac4019fc199cb5d769ca2c2f501a999888"
          ],
          "data": "0x00000000000000000000000000000000000000000000000000000000000f4240",
          "blockHash": "0xa4ad5659d311138209412d34bc5f6f38c9c4e096850e45e0f26be1249499d47d",
          "blockNumber": "0x41372fd",
          "transactionHash": "0xac6d00683d32e07a6da864a00611d8cbba65af9e38843bf4d66a8349b940b98f",
          "transactionIndex": "0x37",
          "logIndex": "0x16e",
          "removed": false
        },
        {
          "address": "0x794a61358d6845594f94dc1db02a252b5b4814ad",
          "topics": [
            "0x3115d1449a7b732c986cba18244e897a450f61e1bb8d589cd2e69e6c8924f9f7",
            "0x0000000000000000000000003c499c542cef5e3811e1192ce70d8cc03d5c3359",
            "0x000000000000000000000000d9f47bac4019fc199cb5d769ca2c2f501a999888",
            "0x000000000000000000000000d9f47bac4019fc199cb5d769ca2c2f501a999888"
          ],
          "data": "0x00000000000000000000000000000000000000000000000000000000000f4240",
          "blockHash": "0xa4ad5659d311138209412d34bc5f6f38c9c4e096850e45e0f26be1249499d47d",
          "blockNumber": "0x41372fd",
          "transactionHash": "0xac6d00683d32e07a6da864a00611d8cbba65af9e38843bf4d66a8349b940b98f",
          "transactionIndex": "0x37",
          "logIndex": "0x16f",
          "removed": false
        },
        {
          "address": "0x794a61358d6845594f94dc1db02a252b5b4814ad",
          "topics": [
            "0x804c9b842b2748a22bb64b345453a3de7ca54a6ca45ce00d415894979e22897a",
            "0x000000000000000000000000c2132d05d31c914a87c6611c10748aeb04b58e8f"
          ],
          "data": "0x0000000000000000000000000000000000000000001e5eb4729f63c20a958c8100000000000000000000000000000000000000000000000000000000000000000000000000000000000000000000000000000000003b7602ca12874b076eef9e000000000000000000000000000000000000000003c3f6b5b46ada730b44abd5000000000000000000000000000000000000000003f1c892cbbb4ebd8c089ec3",
          "blockHash": "0xa4ad5659d311138209412d34bc5f6f38c9c4e096850e45e0f26be1249499d47d",
          "blockNumber": "0x41372fd",
          "transactionHash": "0xac6d00683d32e07a6da864a00611d8cbba65af9e38843bf4d66a8349b940b98f",
          "transactionIndex": "0x37",
          "logIndex": "0x170",
          "removed": false
        },
        {
          "address": "0x6ab707aca953edaefbc4fd23ba73294241490620",
          "topics": [
            "0xddf252ad1be2c89b69c2b068fc378daa952ba7f163c4a11628f55a4df523b3ef",
            "0x000000000000000000000000d9f47bac4019fc199cb5d769ca2c2f501a999888",
            "0x0000000000000000000000000000000000000000000000000000000000000000"
          ],
          "data": "0x00000000000000000000000000000000000000000000000000000000000f423f",
          "blockHash": "0xa4ad5659d311138209412d34bc5f6f38c9c4e096850e45e0f26be1249499d47d",
          "blockNumber": "0x41372fd",
          "transactionHash": "0xac6d00683d32e07a6da864a00611d8cbba65af9e38843bf4d66a8349b940b98f",
          "transactionIndex": "0x37",
          "logIndex": "0x171",
          "removed": false
        },
        {
          "address": "0x6ab707aca953edaefbc4fd23ba73294241490620",
          "topics": [
            "0x4cf25bc1d991c17529c25213d3cc0cda295eeaad5f13f361969b12ea48015f90",
            "0x000000000000000000000000d9f47bac4019fc199cb5d769ca2c2f501a999888",
            "0x000000000000000000000000d9f47bac4019fc199cb5d769ca2c2f501a999888"
          ],
          "data": "0x00000000000000000000000000000000000000000000000000000000000f423f0000000000000000000000000000000000000000000000000000000000000001000000000000000000000000000000000000000003c3f6b5b46ada730b44abd5",
          "blockHash": "0xa4ad5659d311138209412d34bc5f6f38c9c4e096850e45e0f26be1249499d47d",
          "blockNumber": "0x41372fd",
          "transactionHash": "0xac6d00683d32e07a6da864a00611d8cbba65af9e38843bf4d66a8349b940b98f",
          "transactionIndex": "0x37",
          "logIndex": "0x172",
          "removed": false
        },
        {
          "address": "0xc2132d05d31c914a87c6611c10748aeb04b58e8f",
          "topics": [
            "0xddf252ad1be2c89b69c2b068fc378daa952ba7f163c4a11628f55a4df523b3ef",
            "0x0000000000000000000000006ab707aca953edaefbc4fd23ba73294241490620",
            "0x000000000000000000000000d9f47bac4019fc199cb5d769ca2c2f501a999888"
          ],
          "data": "0x00000000000000000000000000000000000000000000000000000000000f4240",
          "blockHash": "0xa4ad5659d311138209412d34bc5f6f38c9c4e096850e45e0f26be1249499d47d",
          "blockNumber": "0x41372fd",
          "transactionHash": "0xac6d00683d32e07a6da864a00611d8cbba65af9e38843bf4d66a8349b940b98f",
          "transactionIndex": "0x37",
          "logIndex": "0x173",
          "removed": false
        },
        {
          "address": "0x794a61358d6845594f94dc1db02a252b5b4814ad",
          "topics": [
            "0x3115d1449a7b732c986cba18244e897a450f61e1bb8d589cd2e69e6c8924f9f7",
            "0x000000000000000000000000c2132d05d31c914a87c6611c10748aeb04b58e8f",
            "0x000000000000000000000000d9f47bac4019fc199cb5d769ca2c2f501a999888",
            "0x000000000000000000000000d9f47bac4019fc199cb5d769ca2c2f501a999888"
          ],
          "data": "0x00000000000000000000000000000000000000000000000000000000000f4240",
          "blockHash": "0xa4ad5659d311138209412d34bc5f6f38c9c4e096850e45e0f26be1249499d47d",
          "blockNumber": "0x41372fd",
          "transactionHash": "0xac6d00683d32e07a6da864a00611d8cbba65af9e38843bf4d66a8349b940b98f",
          "transactionIndex": "0x37",
          "logIndex": "0x174",
          "removed": false
        },
        {
          "address": "0x3c499c542cef5e3811e1192ce70d8cc03d5c3359",
          "topics": [
            "0xddf252ad1be2c89b69c2b068fc378daa952ba7f163c4a11628f55a4df523b3ef",
            "0x000000000000000000000000d9f47bac4019fc199cb5d769ca2c2f501a999888",
            "0x000000000000000000000000aebdfcf4a528de8b480a7b69ecaf17addb8b9959"
          ],
          "data": "0x00000000000000000000000000000000000000000000000000000000000f4240",
          "blockHash": "0xa4ad5659d311138209412d34bc5f6f38c9c4e096850e45e0f26be1249499d47d",
          "blockNumber": "0x41372fd",
          "transactionHash": "0xac6d00683d32e07a6da864a00611d8cbba65af9e38843bf4d66a8349b940b98f",
          "transactionIndex": "0x37",
          "logIndex": "0x175",
          "removed": false
        },
        {
          "address": "0xc2132d05d31c914a87c6611c10748aeb04b58e8f",
          "topics": [
            "0xddf252ad1be2c89b69c2b068fc378daa952ba7f163c4a11628f55a4df523b3ef",
            "0x000000000000000000000000d9f47bac4019fc199cb5d769ca2c2f501a999888",
            "0x000000000000000000000000aebdfcf4a528de8b480a7b69ecaf17addb8b9959"
          ],
          "data": "0x00000000000000000000000000000000000000000000000000000000000f4240",
          "blockHash": "0xa4ad5659d311138209412d34bc5f6f38c9c4e096850e45e0f26be1249499d47d",
          "blockNumber": "0x41372fd",
          "transactionHash": "0xac6d00683d32e07a6da864a00611d8cbba65af9e38843bf4d66a8349b940b98f",
          "transactionIndex": "0x37",
          "logIndex": "0x176",
          "removed": false
        },
        {
          "address": "0x0000000000000000000000000000000000001010",
          "topics": [
            "0x4dfe1bbbcf077ddc3e01291eea2d5c70c2b422b415d95645b9adcfd678cb1d63",
            "0x0000000000000000000000000000000000000000000000000000000000001010",
            "0x000000000000000000000000aebdfcf4a528de8b480a7b69ecaf17addb8b9959",
            "0x00000000000000000000000083d69448f88bf9c701c1b93f43e1f753d39b2632"
          ],
          "data": "0x0000000000000000000000000000000000000000000000000024508bad07cec400000000000000000000000000000000000000000000000041d925d44dd5a3ed0000000000000000000000000000000000000000000011867d7556d1b6dc7ddd00000000000000000000000000000000000000000000000041b4d548a0cdd5290000000000000000000000000000000000000000000011867d99a75d63e44ca1",
          "blockHash": "0xa4ad5659d311138209412d34bc5f6f38c9c4e096850e45e0f26be1249499d47d",
          "blockNumber": "0x41372fd",
          "transactionHash": "0xac6d00683d32e07a6da864a00611d8cbba65af9e38843bf4d66a8349b940b98f",
          "transactionIndex": "0x37",
          "logIndex": "0x177",
          "removed": false
        }
      ],
      "logsBloom": "0x10080008002000000000000000000000018000000000000000000000000000000000000000000000000000000000000100018000200004000000000010000000000000000040018000000008002000800000040000000000000100000000000010000000420000000000100000000800000000000800120080000010000000000000000000080001000002800000000000024000000800000010000000000000200000000080000010000000000000000800000000000000000000000000014000000002000000000001002008000000400000040000000000104000000020040000000000000000000000000000010000000000100020000000000000100000",
      "type": "0x2",
      "transactionHash": "0xac6d00683d32e07a6da864a00611d8cbba65af9e38843bf4d66a8349b940b98f",
      "transactionIndex": "0x37",
      "blockHash": "0xa4ad5659d311138209412d34bc5f6f38c9c4e096850e45e0f26be1249499d47d",
      "blockNumber": "0x41372fd",
      "gasUsed": "0x532f2",
      "effectiveGasPrice": "0x6fc23aed9",
      "from": "0xaebdfcf4a528de8b480a7b69ecaf17addb8b9959",
      "to": "0xd9f47bac4019fc199cb5d769ca2c2f501a999888",
      "contractAddress": null
    }
  ],
  "libraries": [],
  "pending": [],
  "returns": {},
  "timestamp": 1740548148,
  "chain": 137,
  "commit": "4328487"
}