{
  "transactions": [
    {
      "hash": "0xa7425a16f17957af5f919f396af992d4154bf836c8e522c437ecdeb947458d43",
      "transactionType": "CALL",
      "contractName": null,
      "contractAddress": "0x52f052d2411735287989461721f4b49a13d65888",
      "function": "withdraw(uint256,uint256)",
      "arguments": [
        "2000000",
        "1000000"
      ],
      "transaction": {
        "from": "0xaebdfcf4a528de8b480a7b69ecaf17addb8b9959",
        "to": "0x52f052d2411735287989461721f4b49a13d65888",
        "gas": "0x78d43",
        "value": "0x0",
        "input": "0x441a3e7000000000000000000000000000000000000000000000000000000000001e848000000000000000000000000000000000000000000000000000000000000f4240",
        "nonce": "0x6",
        "chainId": "0x89"
      },
      "additionalContracts": [],
      "isFixedGasLimit": false
    }
  ],
  "receipts": [
    {
      "status": "0x1",
      "cumulativeGasUsed": "0x81c73b",
      "logs": [
        {
          "address": "0x794a61358d6845594f94dc1db02a252b5b4814ad",
          "topics": [
            "0x804c9b842b2748a22bb64b345453a3de7ca54a6ca45ce00d415894979e22897a",
            "0x0000000000000000000000003c499c542cef5e3811e1192ce70d8cc03d5c3359"
          ],
          "data": "0x000000000000000000000000000000000000000000218f2424f471654a970fb700000000000000000000000000000000000000000000000000000000000000000000000000000000000000000000000000000000003c85334e342ee5cf79b17f0000000000000000000000000000000000000000038c01958f5e15ed92d69bfe000000000000000000000000000000000000000003a02725e541986782a843ed",
          "blockHash": "0x7b45cde210a8e31c1a94d9123b896820e5c3d8993c1ed2816fb8a75f32a777fd",
          "blockNumber": "0x41343e0",
          "transactionHash": "0xa7425a16f17957af5f919f396af992d4154bf836c8e522c437ecdeb947458d43",
          "transactionIndex": "0x41",
          "logIndex": "0x13f",
          "removed": false
        },
        {
          "address": "0xa4d94019934d8333ef880abffbf2fdd611c762bd",
          "topics": [
            "0xddf252ad1be2c89b69c2b068fc378daa952ba7f163c4a11628f55a4df523b3ef",
            "0x00000000000000000000000052f052d2411735287989461721f4b49a13d65888",
            "0x0000000000000000000000000000000000000000000000000000000000000000"
          ],
          "data": "0x00000000000000000000000000000000000000000000000000000000001e8480",
          "blockHash": "0x7b45cde210a8e31c1a94d9123b896820e5c3d8993c1ed2816fb8a75f32a777fd",
          "blockNumber": "0x41343e0",
          "transactionHash": "0xa7425a16f17957af5f919f396af992d4154bf836c8e522c437ecdeb947458d43",
          "transactionIndex": "0x41",
          "logIndex": "0x140",
          "removed": false
        },
        {
          "address": "0xa4d94019934d8333ef880abffbf2fdd611c762bd",
          "topics": [
            "0x4cf25bc1d991c17529c25213d3cc0cda295eeaad5f13f361969b12ea48015f90",
            "0x00000000000000000000000052f052d2411735287989461721f4b49a13d65888",
            "0x00000000000000000000000052f052d2411735287989461721f4b49a13d65888"
          ],
          "data": "0x00000000000000000000000000000000000000000000000000000000001e848000000000000000000000000000000000000000000000000000000000000000000000000000000000000000000000000000000000038c01958f5e15ed92d69bfe",
          "blockHash": "0x7b45cde210a8e31c1a94d9123b896820e5c3d8993c1ed2816fb8a75f32a777fd",
          "blockNumber": "0x41343e0",
          "transactionHash": "0xa7425a16f17957af5f919f396af992d4154bf836c8e522c437ecdeb947458d43",
          "transactionIndex": "0x41",
          "logIndex": "0x141",
          "removed": false
        },
        {
          "address": "0x3c499c542cef5e3811e1192ce70d8cc03d5c3359",
          "topics": [
            "0xddf252ad1be2c89b69c2b068fc378daa952ba7f163c4a11628f55a4df523b3ef",
            "0x000000000000000000000000a4d94019934d8333ef880abffbf2fdd611c762bd",
            "0x00000000000000000000000052f052d2411735287989461721f4b49a13d65888"
          ],
          "data": "0x00000000000000000000000000000000000000000000000000000000001e8480",
          "blockHash": "0x7b45cde210a8e31c1a94d9123b896820e5c3d8993c1ed2816fb8a75f32a777fd",
          "blockNumber": "0x41343e0",
          "transactionHash": "0xa7425a16f17957af5f919f396af992d4154bf836c8e522c437ecdeb947458d43",
          "transactionIndex": "0x41",
          "logIndex": "0x142",
          "removed": false
        },
        {
          "address": "0x794a61358d6845594f94dc1db02a252b5b4814ad",
          "topics": [
            "0x3115d1449a7b732c986cba18244e897a450f61e1bb8d589cd2e69e6c8924f9f7",
            "0x0000000000000000000000003c499c542cef5e3811e1192ce70d8cc03d5c3359",
            "0x00000000000000000000000052f052d2411735287989461721f4b49a13d65888",
            "0x00000000000000000000000052f052d2411735287989461721f4b49a13d65888"
          ],
          "data": "0x00000000000000000000000000000000000000000000000000000000001e8480",
          "blockHash": "0x7b45cde210a8e31c1a94d9123b896820e5c3d8993c1ed2816fb8a75f32a777fd",
          "blockNumber": "0x41343e0",
          "transactionHash": "0xa7425a16f17957af5f919f396af992d4154bf836c8e522c437ecdeb947458d43",
          "transactionIndex": "0x41",
          "logIndex": "0x143",
          "removed": false
        },
        {
          "address": "0x794a61358d6845594f94dc1db02a252b5b4814ad",
          "topics": [
            "0x804c9b842b2748a22bb64b345453a3de7ca54a6ca45ce00d415894979e22897a",
            "0x000000000000000000000000c2132d05d31c914a87c6611c10748aeb04b58e8f"
          ],
          "data": "0x0000000000000000000000000000000000000000001f9f1e5f6d72f9b991cd4800000000000000000000000000000000000000000000000000000000000000000000000000000000000000000000000000000000003cac82ec13653312f6a6d7000000000000000000000000000000000000000003c3ee8350c8528a3ee9092c000000000000000000000000000000000000000003f1b96f3cd58ba4f9c71527",
          "blockHash": "0x7b45cde210a8e31c1a94d9123b896820e5c3d8993c1ed2816fb8a75f32a777fd",
          "blockNumber": "0x41343e0",
          "transactionHash": "0xa7425a16f17957af5f919f396af992d4154bf836c8e522c437ecdeb947458d43",
          "transactionIndex": "0x41",
          "logIndex": "0x144",
          "removed": false
        },
        {
          "address": "0x6ab707aca953edaefbc4fd23ba73294241490620",
          "topics": [
            "0xddf252ad1be2c89b69c2b068fc378daa952ba7f163c4a11628f55a4df523b3ef",
            "0x00000000000000000000000052f052d2411735287989461721f4b49a13d65888",
            "0x0000000000000000000000000000000000000000000000000000000000000000"
          ],
          "data": "0x00000000000000000000000000000000000000000000000000000000000f4240",
          "blockHash": "0x7b45cde210a8e31c1a94d9123b896820e5c3d8993c1ed2816fb8a75f32a777fd",
          "blockNumber": "0x41343e0",
          "transactionHash": "0xa7425a16f17957af5f919f396af992d4154bf836c8e522c437ecdeb947458d43",
          "transactionIndex": "0x41",
          "logIndex": "0x145",
          "removed": false
        },
        {
          "address": "0x6ab707aca953edaefbc4fd23ba73294241490620",
          "topics": [
            "0x4cf25bc1d991c17529c25213d3cc0cda295eeaad5f13f361969b12ea48015f90",
            "0x00000000000000000000000052f052d2411735287989461721f4b49a13d65888",
            "0x00000000000000000000000052f052d2411735287989461721f4b49a13d65888"
          ],
          "data": "0x00000000000000000000000000000000000000000000000000000000000f42400000000000000000000000000000000000000000000000000000000000000000000000000000000000000000000000000000000003c3ee8350c8528a3ee9092c",
          "blockHash": "0x7b45cde210a8e31c1a94d9123b896820e5c3d8993c1ed2816fb8a75f32a777fd",
          "blockNumber": "0x41343e0",
          "transactionHash": "0xa7425a16f17957af5f919f396af992d4154bf836c8e522c437ecdeb947458d43",
          "transactionIndex": "0x41",
          "logIndex": "0x146",
          "removed": false
        },
        {
          "address": "0xc2132d05d31c914a87c6611c10748aeb04b58e8f",
          "topics": [
            "0xddf252ad1be2c89b69c2b068fc378daa952ba7f163c4a11628f55a4df523b3ef",
            "0x0000000000000000000000006ab707aca953edaefbc4fd23ba73294241490620",
            "0x00000000000000000000000052f052d2411735287989461721f4b49a13d65888"
          ],
          "data": "0x00000000000000000000000000000000000000000000000000000000000f4240",
          "blockHash": "0x7b45cde210a8e31c1a94d9123b896820e5c3d8993c1ed2816fb8a75f32a777fd",
          "blockNumber": "0x41343e0",
          "transactionHash": "0xa7425a16f17957af5f919f396af992d4154bf836c8e522c437ecdeb947458d43",
          "transactionIndex": "0x41",
          "logIndex": "0x147",
          "removed": false
        },
        {
          "address": "0x794a61358d6845594f94dc1db02a252b5b4814ad",
          "topics": [
            "0x3115d1449a7b732c986cba18244e897a450f61e1bb8d589cd2e69e6c8924f9f7",
            "0x000000000000000000000000c2132d05d31c914a87c6611c10748aeb04b58e8f",
            "0x00000000000000000000000052f052d2411735287989461721f4b49a13d65888",
            "0x00000000000000000000000052f052d2411735287989461721f4b49a13d65888"
          ],
          "data": "0x00000000000000000000000000000000000000000000000000000000000f4240",
          "blockHash": "0x7b45cde210a8e31c1a94d9123b896820e5c3d8993c1ed2816fb8a75f32a777fd",
          "blockNumber": "0x41343e0",
          "transactionHash": "0xa7425a16f17957af5f919f396af992d4154bf836c8e522c437ecdeb947458d43",
          "transactionIndex": "0x41",
          "logIndex": "0x148",
          "removed": false
        },
        {
          "address": "0x3c499c542cef5e3811e1192ce70d8cc03d5c3359",
          "topics": [
            "0xddf252ad1be2c89b69c2b068fc378daa952ba7f163c4a11628f55a4df523b3ef",
            "0x00000000000000000000000052f052d2411735287989461721f4b49a13d65888",
            "0x000000000000000000000000aebdfcf4a528de8b480a7b69ecaf17addb8b9959"
          ],
          "data": "0x00000000000000000000000000000000000000000000000000000000001e8480",
          "blockHash": "0x7b45cde210a8e31c1a94d9123b896820e5c3d8993c1ed2816fb8a75f32a777fd",
          "blockNumber": "0x41343e0",
          "transactionHash": "0xa7425a16f17957af5f919f396af992d4154bf836c8e522c437ecdeb947458d43",
          "transactionIndex": "0x41",
          "logIndex": "0x149",
          "removed": false
        },
        {
          "address": "0xc2132d05d31c914a87c6611c10748aeb04b58e8f",
          "topics": [
            "0xddf252ad1be2c89b69c2b068fc378daa952ba7f163c4a11628f55a4df523b3ef",
            "0x00000000000000000000000052f052d2411735287989461721f4b49a13d65888",
            "0x000000000000000000000000aebdfcf4a528de8b480a7b69ecaf17addb8b9959"
          ],
          "data": "0x00000000000000000000000000000000000000000000000000000000000f4240",
          "blockHash": "0x7b45cde210a8e31c1a94d9123b896820e5c3d8993c1ed2816fb8a75f32a777fd",
          "blockNumber": "0x41343e0",
          "transactionHash": "0xa7425a16f17957af5f919f396af992d4154bf836c8e522c437ecdeb947458d43",
          "transactionIndex": "0x41",
          "logIndex": "0x14a",
          "removed": false
        },
        {
          "address": "0x0000000000000000000000000000000000001010",
          "topics": [
            "0x4dfe1bbbcf077ddc3e01291eea2d5c70c2b422b415d95645b9adcfd678cb1d63",
            "0x0000000000000000000000000000000000000000000000000000000000001010",
            "0x000000000000000000000000aebdfcf4a528de8b480a7b69ecaf17addb8b9959",
            "0x0000000000000000000000001efecb61a2f80aa34d3b9218b564a64d05946290"
          ],
          "data": "0x000000000000000000000000000000000000000000000000002141a925e206040000000000000000000000000000000000000000000000004501be16983a9a02000000000000000000000000000000000000000000001b1fa365fa7dba99d88300000000000000000000000000000000000000000000000044e07c6d725893fe000000000000000000000000000000000000000000001b1fa3873c26e07bde87",
          "blockHash": "0x7b45cde210a8e31c1a94d9123b896820e5c3d8993c1ed2816fb8a75f32a777fd",
          "blockNumber": "0x41343e0",
          "transactionHash": "0xa7425a16f17957af5f919f396af992d4154bf836c8e522c437ecdeb947458d43",
          "transactionIndex": "0x41",
          "logIndex": "0x14b",
          "removed": false
        }
      ],
      "logsBloom": "0x10080008002000000000000000000000018000000000000000000000000000000000000000000000000000000000000100018000200004000000000000000000200000000040000000000008002000800000040000000000000100000000000010000000420000000000100000000800000000000000020080000010000000000000000000080001000002800000000000024000000800000010000000000000200000000080000010000000000000000800000000000000000000000000014000000102000000000011002018000080400000000000000000104000000020042000000000000000000000000000010000000000100020000000000000100000",
      "type": "0x2",
      "transactionHash": "0xa7425a16f17957af5f919f396af992d4154bf836c8e522c437ecdeb947458d43",
      "transactionIndex": "0x41",
      "blockHash": "0x7b45cde210a8e31c1a94d9123b896820e5c3d8993c1ed2816fb8a75f32a777fd",
      "blockNumber": "0x41343e0",
      "gasUsed": "0x577a6",
      "effectiveGasPrice": "0x615c3322f",
      "from": "0xaebdfcf4a528de8b480a7b69ecaf17addb8b9959",
      "to": "0x52f052d2411735287989461721f4b49a13d65888",
      "contractAddress": null
    }
  ],
  "libraries": [],
  "pending": [],
  "returns": {},
  "timestamp": 1740522461,
  "chain": 137,
  "commit": "5a169c0"
}