{
  "transactions": [
    {
      "hash": "0x21049a70e62333f842b3be5ed784150ec22ba935b24ecdfee61eaed624f96ee5",
      "transactionType": "CALL",
      "contractName": null,
      "contractAddress": "0x52f052d2411735287989461721f4b49a13d65888",
      "function": "withdraw(uint256,uint256)",
      "arguments": [
        "0",
        "100000"
      ],
      "transaction": {
        "from": "0xaebdfcf4a528de8b480a7b69ecaf17addb8b9959",
        "to": "0x52f052d2411735287989461721f4b49a13d65888",
        "gas": "0x55473",
        "value": "0x0",
        "input": "0x441a3e70000000000000000000000000000000000000000000000000000000000000000000000000000000000000000000000000000000000000000000000000000186a0",
        "nonce": "0x7",
        "chainId": "0x89"
      },
      "additionalContracts": [],
      "isFixedGasLimit": false
    }
  ],
  "receipts": [
    {
      "status": "0x1",
      "cumulativeGasUsed": "0xce80ce",
      "logs": [
        {
          "address": "0x794a61358d6845594f94dc1db02a252b5b4814ad",
          "topics": [
            "0x804c9b842b2748a22bb64b345453a3de7ca54a6ca45ce00d415894979e22897a",
            "0x000000000000000000000000c2132d05d31c914a87c6611c10748aeb04b58e8f"
          ],
          "data": "0x0000000000000000000000000000000000000000001f804140cf07482fac5f4400000000000000000000000000000000000000000000000000000000000000000000000000000000000000000000000000000000003c8edf8ba1c1f39fec29b8000000000000000000000000000000000000000003c3eeb4ad0a5cf0a0b8d4fb000000000000000000000000000000000000000003f1b9d28e780269b2bebbbd",
          "blockHash": "0x00c377bf553542f6e2b7100c13dd5bcd31dcfdfeed9bca7847f6cffe16e68cce",
          "blockNumber": "0x4134510",
          "transactionHash": "0x21049a70e62333f842b3be5ed784150ec22ba935b24ecdfee61eaed624f96ee5",
          "transactionIndex": "0x68",
          "logIndex": "0x1d4",
          "removed": false
        },
        {
          "address": "0x6ab707aca953edaefbc4fd23ba73294241490620",
          "topics": [
            "0xddf252ad1be2c89b69c2b068fc378daa952ba7f163c4a11628f55a4df523b3ef",
            "0x00000000000000000000000052f052d2411735287989461721f4b49a13d65888",
            "0x0000000000000000000000000000000000000000000000000000000000000000"
          ],
          "data": "0x000000000000000000000000000000000000000000000000000000000001869e",
          "blockHash": "0x00c377bf553542f6e2b7100c13dd5bcd31dcfdfeed9bca7847f6cffe16e68cce",
          "blockNumber": "0x4134510",
          "transactionHash": "0x21049a70e62333f842b3be5ed784150ec22ba935b24ecdfee61eaed624f96ee5",
          "transactionIndex": "0x68",
          "logIndex": "0x1d5",
          "removed": false
        },
        {
          "address": "0x6ab707aca953edaefbc4fd23ba73294241490620",
          "topics": [
            "0x4cf25bc1d991c17529c25213d3cc0cda295eeaad5f13f361969b12ea48015f90",
            "0x00000000000000000000000052f052d2411735287989461721f4b49a13d65888",
            "0x00000000000000000000000052f052d2411735287989461721f4b49a13d65888"
          ],
          "data": "0x000000000000000000000000000000000000000000000000000000000001869e0000000000000000000000000000000000000000000000000000000000000002000000000000000000000000000000000000000003c3eeb4ad0a5cf0a0b8d4fb",
          "blockHash": "0x00c377bf553542f6e2b7100c13dd5bcd31dcfdfeed9bca7847f6cffe16e68cce",
          "blockNumber": "0x4134510",
          "transactionHash": "0x21049a70e62333f842b3be5ed784150ec22ba935b24ecdfee61eaed624f96ee5",
          "transactionIndex": "0x68",
          "logIndex": "0x1d6",
          "removed": false
        },
        {
          "address": "0xc2132d05d31c914a87c6611c10748aeb04b58e8f",
          "topics": [
            "0xddf252ad1be2c89b69c2b068fc378daa952ba7f163c4a11628f55a4df523b3ef",
            "0x0000000000000000000000006ab707aca953edaefbc4fd23ba73294241490620",
            "0x00000000000000000000000052f052d2411735287989461721f4b49a13d65888"
          ],
          "data": "0x00000000000000000000000000000000000000000000000000000000000186a0",
          "blockHash": "0x00c377bf553542f6e2b7100c13dd5bcd31dcfdfeed9bca7847f6cffe16e68cce",
          "blockNumber": "0x4134510",
          "transactionHash": "0x21049a70e62333f842b3be5ed784150ec22ba935b24ecdfee61eaed624f96ee5",
          "transactionIndex": "0x68",
          "logIndex": "0x1d7",
          "removed": false
        },
        {
          "address": "0x794a61358d6845594f94dc1db02a252b5b4814ad",
          "topics": [
            "0x3115d1449a7b732c986cba18244e897a450f61e1bb8d589cd2e69e6c8924f9f7",
            "0x000000000000000000000000c2132d05d31c914a87c6611c10748aeb04b58e8f",
            "0x00000000000000000000000052f052d2411735287989461721f4b49a13d65888",
            "0x00000000000000000000000052f052d2411735287989461721f4b49a13d65888"
          ],
          "data": "0x00000000000000000000000000000000000000000000000000000000000186a0",
          "blockHash": "0x00c377bf553542f6e2b7100c13dd5bcd31dcfdfeed9bca7847f6cffe16e68cce",
          "blockNumber": "0x4134510",
          "transactionHash": "0x21049a70e62333f842b3be5ed784150ec22ba935b24ecdfee61eaed624f96ee5",
          "transactionIndex": "0x68",
          "logIndex": "0x1d8",
          "removed": false
        },
        {
          "address": "0x3c499c542cef5e3811e1192ce70d8cc03d5c3359",
          "topics": [
            "0xddf252ad1be2c89b69c2b068fc378daa952ba7f163c4a11628f55a4df523b3ef",
            "0x00000000000000000000000052f052d2411735287989461721f4b49a13d65888",
            "0x000000000000000000000000aebdfcf4a528de8b480a7b69ecaf17addb8b9959"
          ],
          "data": "0x0000000000000000000000000000000000000000000000000000000000000000",
          "blockHash": "0x00c377bf553542f6e2b7100c13dd5bcd31dcfdfeed9bca7847f6cffe16e68cce",
          "blockNumber": "0x4134510",
          "transactionHash": "0x21049a70e62333f842b3be5ed784150ec22ba935b24ecdfee61eaed624f96ee5",
          "transactionIndex": "0x68",
          "logIndex": "0x1d9",
          "removed": false
        },
        {
          "address": "0xc2132d05d31c914a87c6611c10748aeb04b58e8f",
          "topics": [
            "0xddf252ad1be2c89b69c2b068fc378daa952ba7f163c4a11628f55a4df523b3ef",
            "0x00000000000000000000000052f052d2411735287989461721f4b49a13d65888",
            "0x000000000000000000000000aebdfcf4a528de8b480a7b69ecaf17addb8b9959"
          ],
          "data": "0x00000000000000000000000000000000000000000000000000000000000186a0",
          "blockHash": "0x00c377bf553542f6e2b7100c13dd5bcd31dcfdfeed9bca7847f6cffe16e68cce",
          "blockNumber": "0x4134510",
          "transactionHash": "0x21049a70e62333f842b3be5ed784150ec22ba935b24ecdfee61eaed624f96ee5",
          "transactionIndex": "0x68",
          "logIndex": "0x1da",
          "removed": false
        },
        {
          "address": "0x0000000000000000000000000000000000001010",
          "topics": [
            "0x4dfe1bbbcf077ddc3e01291eea2d5c70c2b422b415d95645b9adcfd678cb1d63",
            "0x0000000000000000000000000000000000000000000000000000000000001010",
            "0x000000000000000000000000aebdfcf4a528de8b480a7b69ecaf17addb8b9959",
            "0x00000000000000000000000069f5c4d08f6bc8cd29fe5f004d46fb566270868d"
          ],
          "data": "0x0000000000000000000000000000000000000000000000000018087bccbd188000000000000000000000000000000000000000000000000044e07936c46936880000000000000000000000000000000000000000000001a0607531eadef081c300000000000000000000000000000000000000000000000044c870baf7ac1e080000000000000000000000000000000000000000000001a0608d3a66abad9a43",
          "blockHash": "0x00c377bf553542f6e2b7100c13dd5bcd31dcfdfeed9bca7847f6cffe16e68cce",
          "blockNumber": "0x4134510",
          "transactionHash": "0x21049a70e62333f842b3be5ed784150ec22ba935b24ecdfee61eaed624f96ee5",
          "transactionIndex": "0x68",
          "logIndex": "0x1db",
          "removed": false
        }
      ],
      "logsBloom": "0x10080008002000000000000002000000018000000000000000000000000000000000000000000000200000000000000100018000000004000000000000000000000000000000000000000008000040800000040000000000000100000000000010000000420000000000000000000800000000000000020080000010000000000000000000080001000000000000000000020000000800000010000000000000200000000080000010000000000000000800000000000000000000000000014000000002000000000011002018000080400000000000000000100000000020040000000000000000000000000000010000000000100020000000000000100000",
      "type": "0x2",
      "transactionHash": "0x21049a70e62333f842b3be5ed784150ec22ba935b24ecdfee61eaed624f96ee5",
      "transactionIndex": "0x68",
      "blockHash": "0x00c377bf553542f6e2b7100c13dd5bcd31dcfdfeed9bca7847f6cffe16e68cce",
      "blockNumber": "0x4134510",
      "gasUsed": "0x3dbd7",
      "effectiveGasPrice": "0x63abb19c5",
      "from": "0xaebdfcf4a528de8b480a7b69ecaf17addb8b9959",
      "to": "0x52f052d2411735287989461721f4b49a13d65888",
      "contractAddress": null
    }
  ],
  "libraries": [],
  "pending": [],
  "returns": {},
  "timestamp": 1740523108,
  "chain": 137,
  "commit": "5a169c0"
}