{
  "transactions": [
    {
      "hash": "0xa578c183a9d82274f6a3334d65bc5361fec34867a242b1cf3175a3303b57bcf0",
      "transactionType": "CALL",
      "contractName": null,
      "contractAddress": "0x52f052d2411735287989461721f4b49a13d65888",
      "function": "withdraw(uint256,uint256)",
      "arguments": [
        "1000000",
        "10000000"
      ],
      "transaction": {
        "from": "0xaebdfcf4a528de8b480a7b69ecaf17addb8b9959",
        "to": "0x52f052d2411735287989461721f4b49a13d65888",
        "gas": "0x78d43",
        "value": "0x0",
        "input": "0x441a3e7000000000000000000000000000000000000000000000000000000000000f42400000000000000000000000000000000000000000000000000000000000989680",
        "nonce": "0xf",
        "chainId": "0x89"
      },
      "additionalContracts": [],
      "isFixedGasLimit": false
    }
  ],
  "receipts": [
    {
      "status": "0x1",
      "cumulativeGasUsed": "0x98aa8d",
      "logs": [
        {
          "address": "0x794a61358d6845594f94dc1db02a252b5b4814ad",
          "topics": [
            "0x804c9b842b2748a22bb64b345453a3de7ca54a6ca45ce00d415894979e22897a",
            "0x0000000000000000000000003c499c542cef5e3811e1192ce70d8cc03d5c3359"
          ],
          "data": "0x00000000000000000000000000000000000000000021bf029c34624bf9aa845d00000000000000000000000000000000000000000000000000000000000000000000000000000000000000000000000000000000003cb04dc337a12961a01a6f0000000000000000000000000000000000000000038c085fc59f40b5336f9275000000000000000000000000000000000000000003a0338d038836bf28ea5b24",
          "blockHash": "0xb63a03697d23905097b7917f3be37d28eaf6fe9fc8131dca90768b0b34ceb52d",
          "blockNumber": "0x4136d0c",
          "transactionHash": "0xa578c183a9d82274f6a3334d65bc5361fec34867a242b1cf3175a3303b57bcf0",
          "transactionIndex": "0x32",
          "logIndex": "0x15e",
          "removed": false
        },
        {
          "address": "0xa4d94019934d8333ef880abffbf2fdd611c762bd",
          "topics": [
            "0xddf252ad1be2c89b69c2b068fc378daa952ba7f163c4a11628f55a4df523b3ef",
            "0x00000000000000000000000052f052d2411735287989461721f4b49a13d65888",
            "0x0000000000000000000000000000000000000000000000000000000000000000"
          ],
          "data": "0x00000000000000000000000000000000000000000000000000000000000f423f",
          "blockHash": "0xb63a03697d23905097b7917f3be37d28eaf6fe9fc8131dca90768b0b34ceb52d",
          "blockNumber": "0x4136d0c",
          "transactionHash": "0xa578c183a9d82274f6a3334d65bc5361fec34867a242b1cf3175a3303b57bcf0",
          "transactionIndex": "0x32",
          "logIndex": "0x15f",
          "removed": false
        },
        {
          "address": "0xa4d94019934d8333ef880abffbf2fdd611c762bd",
          "topics": [
            "0x4cf25bc1d991c17529c25213d3cc0cda295eeaad5f13f361969b12ea48015f90",
            "0x00000000000000000000000052f052d2411735287989461721f4b49a13d65888",
            "0x00000000000000000000000052f052d2411735287989461721f4b49a13d65888"
          ],
          "data": "0x00000000000000000000000000000000000000000000000000000000000f423f00000000000000000000000000000000000000000000000000000000000000010000000000000000000000000000000000000000038c085fc59f40b5336f9275",
          "blockHash": "0xb63a03697d23905097b7917f3be37d28eaf6fe9fc8131dca90768b0b34ceb52d",
          "blockNumber": "0x4136d0c",
          "transactionHash": "0xa578c183a9d82274f6a3334d65bc5361fec34867a242b1cf3175a3303b57bcf0",
          "transactionIndex": "0x32",
          "logIndex": "0x160",
          "removed": false
        },
        {
          "address": "0x3c499c542cef5e3811e1192ce70d8cc03d5c3359",
          "topics": [
            "0xddf252ad1be2c89b69c2b068fc378daa952ba7f163c4a11628f55a4df523b3ef",
            "0x000000000000000000000000a4d94019934d8333ef880abffbf2fdd611c762bd",
            "0x00000000000000000000000052f052d2411735287989461721f4b49a13d65888"
          ],
          "data": "0x00000000000000000000000000000000000000000000000000000000000f4240",
          "blockHash": "0xb63a03697d23905097b7917f3be37d28eaf6fe9fc8131dca90768b0b34ceb52d",
          "blockNumber": "0x4136d0c",
          "transactionHash": "0xa578c183a9d82274f6a3334d65bc5361fec34867a242b1cf3175a3303b57bcf0",
          "transactionIndex": "0x32",
          "logIndex": "0x161",
          "removed": false
        },
        {
          "address": "0x794a61358d6845594f94dc1db02a252b5b4814ad",
          "topics": [
            "0x3115d1449a7b732c986cba18244e897a450f61e1bb8d589cd2e69e6c8924f9f7",
            "0x0000000000000000000000003c499c542cef5e3811e1192ce70d8cc03d5c3359",
            "0x00000000000000000000000052f052d2411735287989461721f4b49a13d65888",
            "0x00000000000000000000000052f052d2411735287989461721f4b49a13d65888"
          ],
          "data": "0x00000000000000000000000000000000000000000000000000000000000f4240",
          "blockHash": "0xb63a03697d23905097b7917f3be37d28eaf6fe9fc8131dca90768b0b34ceb52d",
          "blockNumber": "0x4136d0c",
          "transactionHash": "0xa578c183a9d82274f6a3334d65bc5361fec34867a242b1cf3175a3303b57bcf0",
          "transactionIndex": "0x32",
          "logIndex": "0x162",
          "removed": false
        },
        {
          "address": "0x794a61358d6845594f94dc1db02a252b5b4814ad",
          "topics": [
            "0x804c9b842b2748a22bb64b345453a3de7ca54a6ca45ce00d415894979e22897a",
            "0x000000000000000000000000c2132d05d31c914a87c6611c10748aeb04b58e8f"
          ],
          "data": "0x0000000000000000000000000000000000000000001e761c921b17afb6ad20aa00000000000000000000000000000000000000000000000000000000000000000000000000000000000000000000000000000000003b8ce856623b83a424a2e5000000000000000000000000000000000000000003c3f5c46982182d96a8e33a000000000000000000000000000000000000000003f1c6a9ec0469d3d23a9e3c",
          "blockHash": "0xb63a03697d23905097b7917f3be37d28eaf6fe9fc8131dca90768b0b34ceb52d",
          "blockNumber": "0x4136d0c",
          "transactionHash": "0xa578c183a9d82274f6a3334d65bc5361fec34867a242b1cf3175a3303b57bcf0",
          "transactionIndex": "0x32",
          "logIndex": "0x163",
          "removed": false
        },
        {
          "address": "0x6ab707aca953edaefbc4fd23ba73294241490620",
          "topics": [
            "0xddf252ad1be2c89b69c2b068fc378daa952ba7f163c4a11628f55a4df523b3ef",
            "0x00000000000000000000000052f052d2411735287989461721f4b49a13d65888",
            "0x0000000000000000000000000000000000000000000000000000000000000000"
          ],
          "data": "0x000000000000000000000000000000000000000000000000000000000098966b",
          "blockHash": "0xb63a03697d23905097b7917f3be37d28eaf6fe9fc8131dca90768b0b34ceb52d",
          "blockNumber": "0x4136d0c",
          "transactionHash": "0xa578c183a9d82274f6a3334d65bc5361fec34867a242b1cf3175a3303b57bcf0",
          "transactionIndex": "0x32",
          "logIndex": "0x164",
          "removed": false
        },
        {
          "address": "0x6ab707aca953edaefbc4fd23ba73294241490620",
          "topics": [
            "0x4cf25bc1d991c17529c25213d3cc0cda295eeaad5f13f361969b12ea48015f90",
            "0x00000000000000000000000052f052d2411735287989461721f4b49a13d65888",
            "0x00000000000000000000000052f052d2411735287989461721f4b49a13d65888"
          ],
          "data": "0x000000000000000000000000000000000000000000000000000000000098966b0000000000000000000000000000000000000000000000000000000000000015000000000000000000000000000000000000000003c3f5c46982182d96a8e33a",
          "blockHash": "0xb63a03697d23905097b7917f3be37d28eaf6fe9fc8131dca90768b0b34ceb52d",
          "blockNumber": "0x4136d0c",
          "transactionHash": "0xa578c183a9d82274f6a3334d65bc5361fec34867a242b1cf3175a3303b57bcf0",
          "transactionIndex": "0x32",
          "logIndex": "0x165",
          "removed": false
        },
        {
          "address": "0xc2132d05d31c914a87c6611c10748aeb04b58e8f",
          "topics": [
            "0xddf252ad1be2c89b69c2b068fc378daa952ba7f163c4a11628f55a4df523b3ef",
            "0x0000000000000000000000006ab707aca953edaefbc4fd23ba73294241490620",
            "0x00000000000000000000000052f052d2411735287989461721f4b49a13d65888"
          ],
          "data": "0x0000000000000000000000000000000000000000000000000000000000989680",
          "blockHash": "0xb63a03697d23905097b7917f3be37d28eaf6fe9fc8131dca90768b0b34ceb52d",
          "blockNumber": "0x4136d0c",
          "transactionHash": "0xa578c183a9d82274f6a3334d65bc5361fec34867a242b1cf3175a3303b57bcf0",
          "transactionIndex": "0x32",
          "logIndex": "0x166",
          "removed": false
        },
        {
          "address": "0x794a61358d6845594f94dc1db02a252b5b4814ad",
          "topics": [
            "0x3115d1449a7b732c986cba18244e897a450f61e1bb8d589cd2e69e6c8924f9f7",
            "0x000000000000000000000000c2132d05d31c914a87c6611c10748aeb04b58e8f",
            "0x00000000000000000000000052f052d2411735287989461721f4b49a13d65888",
            "0x00000000000000000000000052f052d2411735287989461721f4b49a13d65888"
          ],
          "data": "0x0000000000000000000000000000000000000000000000000000000000989680",
          "blockHash": "0xb63a03697d23905097b7917f3be37d28eaf6fe9fc8131dca90768b0b34ceb52d",
          "blockNumber": "0x4136d0c",
          "transactionHash": "0xa578c183a9d82274f6a3334d65bc5361fec34867a242b1cf3175a3303b57bcf0",
          "transactionIndex": "0x32",
          "logIndex": "0x167",
          "removed": false
        },
        {
          "address": "0x3c499c542cef5e3811e1192ce70d8cc03d5c3359",
          "topics": [
            "0xddf252ad1be2c89b69c2b068fc378daa952ba7f163c4a11628f55a4df523b3ef",
            "0x00000000000000000000000052f052d2411735287989461721f4b49a13d65888",
            "0x000000000000000000000000aebdfcf4a528de8b480a7b69ecaf17addb8b9959"
          ],
          "data": "0x00000000000000000000000000000000000000000000000000000000000f4240",
          "blockHash": "0xb63a03697d23905097b7917f3be37d28eaf6fe9fc8131dca90768b0b34ceb52d",
          "blockNumber": "0x4136d0c",
          "transactionHash": "0xa578c183a9d82274f6a3334d65bc5361fec34867a242b1cf3175a3303b57bcf0",
          "transactionIndex": "0x32",
          "logIndex": "0x168",
          "removed": false
        },
        {
          "address": "0xc2132d05d31c914a87c6611c10748aeb04b58e8f",
          "topics": [
            "0xddf252ad1be2c89b69c2b068fc378daa952ba7f163c4a11628f55a4df523b3ef",
            "0x00000000000000000000000052f052d2411735287989461721f4b49a13d65888",
            "0x000000000000000000000000aebdfcf4a528de8b480a7b69ecaf17addb8b9959"
          ],
          "data": "0x0000000000000000000000000000000000000000000000000000000000989680",
          "blockHash": "0xb63a03697d23905097b7917f3be37d28eaf6fe9fc8131dca90768b0b34ceb52d",
          "blockNumber": "0x4136d0c",
          "transactionHash": "0xa578c183a9d82274f6a3334d65bc5361fec34867a242b1cf3175a3303b57bcf0",
          "transactionIndex": "0x32",
          "logIndex": "0x169",
          "removed": false
        },
        {
          "address": "0x0000000000000000000000000000000000001010",
          "topics": [
            "0x4dfe1bbbcf077ddc3e01291eea2d5c70c2b422b415d95645b9adcfd678cb1d63",
            "0x0000000000000000000000000000000000000000000000000000000000001010",
            "0x000000000000000000000000aebdfcf4a528de8b480a7b69ecaf17addb8b9959",
            "0x000000000000000000000000127685d6dd6683085da4b6a041efcef1681e5c9c"
          ],
          "data": "0x00000000000000000000000000000000000000000000000000258d77ab8f5c02000000000000000000000000000000000000000000000000444f9ab8b2bc0d4200000000000000000000000000000000000000000000052d964aab0b2e90740d000000000000000000000000000000000000000000000000442a0d41072cb14000000000000000000000000000000000000000000000052d96703882da1fd00f",
          "blockHash": "0xb63a03697d23905097b7917f3be37d28eaf6fe9fc8131dca90768b0b34ceb52d",
          "blockNumber": "0x4136d0c",
          "transactionHash": "0xa578c183a9d82274f6a3334d65bc5361fec34867a242b1cf3175a3303b57bcf0",
          "transactionIndex": "0x32",
          "logIndex": "0x16a",
          "removed": false
        }
      ],
      "logsBloom": "0x10080008002000000000000000000000018000000000000000000000000000000000000000000000000000000000000100018000200004000000000000000000000000000040000000000008002000800000040000000000000100000000000010000000420000000000100000000800000000000000020080000010000000000000000000080001000002800000000000024000000800000010000000000000200000000080000010000000000000000800000000000000000000000000014000000002000000000011002018000080480000000000000000104000000020040000000000000000000000000000010000000000100024000000000000100020",
      "type": "0x2",
      "transactionHash": "0xa578c183a9d82274f6a3334d65bc5361fec34867a242b1cf3175a3303b57bcf0",
      "transactionIndex": "0x32",
      "blockHash": "0xb63a03697d23905097b7917f3be37d28eaf6fe9fc8131dca90768b0b34ceb52d",
      "blockNumber": "0x4136d0c",
      "gasUsed": "0x577a6",
      "effectiveGasPrice": "0x6de572225",
      "from": "0xaebdfcf4a528de8b480a7b69ecaf17addb8b9959",
      "to": "0x52f052d2411735287989461721f4b49a13d65888",
      "contractAddress": null
    }
  ],
  "libraries": [],
  "pending": [],
  "returns": {},
  "timestamp": 1740544908,
  "chain": 137,
  "commit": "4328487"
}