{
  "transactions": [
    {
      "hash": "0x81a2fe6313fd1d3e18eb7319f03b06c953e161ba8bba7168211a0e3e682e43e5",
      "transactionType": "CALL",
      "contractName": null,
      "contractAddress": "0x52f052d2411735287989461721f4b49a13d65888",
      "function": "withdraw(uint256,uint256)",
      "arguments": [
        "0",
        "100000"
      ],
      "transaction": {
        "from": "0xaebdfcf4a528de8b480a7b69ecaf17addb8b9959",
        "to": "0x52f052d2411735287989461721f4b49a13d65888",
        "gas": "0x55473",
        "value": "0x0",
        "input": "0x441a3e70000000000000000000000000000000000000000000000000000000000000000000000000000000000000000000000000000000000000000000000000000186a0",
        "nonce": "0x12",
        "chainId": "0x89"
      },
      "additionalContracts": [],
      "isFixedGasLimit": false
    }
  ],
  "receipts": [
    {
      "status": "0x1",
      "cumulativeGasUsed": "0x13ca046",
      "logs": [
        {
          "address": "0x794a61358d6845594f94dc1db02a252b5b4814ad",
          "topics": [
            "0x804c9b842b2748a22bb64b345453a3de7ca54a6ca45ce00d415894979e22897a",
            "0x000000000000000000000000c2132d05d31c914a87c6611c10748aeb04b58e8f"
          ],
          "data": "0x0000000000000000000000000000000000000000001e775763b6a50711dda48400000000000000000000000000000000000000000000000000000000000000000000000000000000000000000000000000000000003b8e1c0d759ad3ccb42308000000000000000000000000000000000000000003c3f5f00c1bb74263687932000000000000000000000000000000000000000003f1c7030f9ac45ab04b2826",
          "blockHash": "0x0d045d60ca72e8e859d6a33b500fa47522e291e7e181ceca265b4d8226016256",
          "blockNumber": "0x4136e21",
          "transactionHash": "0x81a2fe6313fd1d3e18eb7319f03b06c953e161ba8bba7168211a0e3e682e43e5",
          "transactionIndex": "0x5a",
          "logIndex": "0x196",
          "removed": false
        },
        {
          "address": "0x6ab707aca953edaefbc4fd23ba73294241490620",
          "topics": [
            "0xddf252ad1be2c89b69c2b068fc378daa952ba7f163c4a11628f55a4df523b3ef",
            "0x00000000000000000000000052f052d2411735287989461721f4b49a13d65888",
            "0x0000000000000000000000000000000000000000000000000000000000000000"
          ],
          "data": "0x000000000000000000000000000000000000000000000000000000000001869f",
          "blockHash": "0x0d045d60ca72e8e859d6a33b500fa47522e291e7e181ceca265b4d8226016256",
          "blockNumber": "0x4136e21",
          "transactionHash": "0x81a2fe6313fd1d3e18eb7319f03b06c953e161ba8bba7168211a0e3e682e43e5",
          "transactionIndex": "0x5a",
          "logIndex": "0x197",
          "removed": false
        },
        {
          "address": "0x6ab707aca953edaefbc4fd23ba73294241490620",
          "topics": [
            "0x4cf25bc1d991c17529c25213d3cc0cda295eeaad5f13f361969b12ea48015f90",
            "0x00000000000000000000000052f052d2411735287989461721f4b49a13d65888",
            "0x00000000000000000000000052f052d2411735287989461721f4b49a13d65888"
          ],
          "data": "0x000000000000000000000000000000000000000000000000000000000001869f0000000000000000000000000000000000000000000000000000000000000001000000000000000000000000000000000000000003c3f5f00c1bb74263687932",
          "blockHash": "0x0d045d60ca72e8e859d6a33b500fa47522e291e7e181ceca265b4d8226016256",
          "blockNumber": "0x4136e21",
          "transactionHash": "0x81a2fe6313fd1d3e18eb7319f03b06c953e161ba8bba7168211a0e3e682e43e5",
          "transactionIndex": "0x5a",
          "logIndex": "0x198",
          "removed": false
        },
        {
          "address": "0xc2132d05d31c914a87c6611c10748aeb04b58e8f",
          "topics": [
            "0xddf252ad1be2c89b69c2b068fc378daa952ba7f163c4a11628f55a4df523b3ef",
            "0x0000000000000000000000006ab707aca953edaefbc4fd23ba73294241490620",
            "0x00000000000000000000000052f052d2411735287989461721f4b49a13d65888"
          ],
          "data": "0x00000000000000000000000000000000000000000000000000000000000186a0",
          "blockHash": "0x0d045d60ca72e8e859d6a33b500fa47522e291e7e181ceca265b4d8226016256",
          "blockNumber": "0x4136e21",
          "transactionHash": "0x81a2fe6313fd1d3e18eb7319f03b06c953e161ba8bba7168211a0e3e682e43e5",
          "transactionIndex": "0x5a",
          "logIndex": "0x199",
          "removed": false
        },
        {
          "address": "0x794a61358d6845594f94dc1db02a252b5b4814ad",
          "topics": [
            "0x3115d1449a7b732c986cba18244e897a450f61e1bb8d589cd2e69e6c8924f9f7",
            "0x000000000000000000000000c2132d05d31c914a87c6611c10748aeb04b58e8f",
            "0x00000000000000000000000052f052d2411735287989461721f4b49a13d65888",
            "0x00000000000000000000000052f052d2411735287989461721f4b49a13d65888"
          ],
          "data": "0x00000000000000000000000000000000000000000000000000000000000186a0",
          "blockHash": "0x0d045d60ca72e8e859d6a33b500fa47522e291e7e181ceca265b4d8226016256",
          "blockNumber": "0x4136e21",
          "transactionHash": "0x81a2fe6313fd1d3e18eb7319f03b06c953e161ba8bba7168211a0e3e682e43e5",
          "transactionIndex": "0x5a",
          "logIndex": "0x19a",
          "removed": false
        },
        {
          "address": "0x3c499c542cef5e3811e1192ce70d8cc03d5c3359",
          "topics": [
            "0xddf252ad1be2c89b69c2b068fc378daa952ba7f163c4a11628f55a4df523b3ef",
            "0x00000000000000000000000052f052d2411735287989461721f4b49a13d65888",
            "0x000000000000000000000000aebdfcf4a528de8b480a7b69ecaf17addb8b9959"
          ],
          "data": "0x0000000000000000000000000000000000000000000000000000000000000000",
          "blockHash": "0x0d045d60ca72e8e859d6a33b500fa47522e291e7e181ceca265b4d8226016256",
          "blockNumber": "0x4136e21",
          "transactionHash": "0x81a2fe6313fd1d3e18eb7319f03b06c953e161ba8bba7168211a0e3e682e43e5",
          "transactionIndex": "0x5a",
          "logIndex": "0x19b",
          "removed": false
        },
        {
          "address": "0xc2132d05d31c914a87c6611c10748aeb04b58e8f",
          "topics": [
            "0xddf252ad1be2c89b69c2b068fc378daa952ba7f163c4a11628f55a4df523b3ef",
            "0x00000000000000000000000052f052d2411735287989461721f4b49a13d65888",
            "0x000000000000000000000000aebdfcf4a528de8b480a7b69ecaf17addb8b9959"
          ],
          "data": "0x00000000000000000000000000000000000000000000000000000000000186a0",
          "blockHash": "0x0d045d60ca72e8e859d6a33b500fa47522e291e7e181ceca265b4d8226016256",
          "blockNumber": "0x4136e21",
          "transactionHash": "0x81a2fe6313fd1d3e18eb7319f03b06c953e161ba8bba7168211a0e3e682e43e5",
          "transactionIndex": "0x5a",
          "logIndex": "0x19c",
          "removed": false
        },
        {
          "address": "0x0000000000000000000000000000000000001010",
          "topics": [
            "0x4dfe1bbbcf077ddc3e01291eea2d5c70c2b422b415d95645b9adcfd678cb1d63",
            "0x0000000000000000000000000000000000000000000000000000000000001010",
            "0x000000000000000000000000aebdfcf4a528de8b480a7b69ecaf17addb8b9959",
            "0x000000000000000000000000ce7fcb674ba27a952c71061b649fb5a5746f3b2b"
          ],
          "data": "0x000000000000000000000000000000000000000000000000001af3fad965957d00000000000000000000000000000000000000000000000043f700dcddc31a9f000000000000000000000000000000000000000000000018e6195867ae677a8f00000000000000000000000000000000000000000000000043dc0ce2045d8522000000000000000000000000000000000000000000000018e6344c6287cd100c",
          "blockHash": "0x0d045d60ca72e8e859d6a33b500fa47522e291e7e181ceca265b4d8226016256",
          "blockNumber": "0x4136e21",
          "transactionHash": "0x81a2fe6313fd1d3e18eb7319f03b06c953e161ba8bba7168211a0e3e682e43e5",
          "transactionIndex": "0x5a",
          "logIndex": "0x19d",
          "removed": false
        }
      ],
      "logsBloom": "0x10080008002000000000000000000000018000000000000000000000000000000000000000000000000000000000000100018000000004000000000000000000000000000000000000000008000000800000040000000000000120000000000010000000420000000000000000000800000000000000020080000010000000000000000000080001000000000080000000020000000800000010000000000000200000000080000010000000000000000800000000000000000000000000014000000002004000000011002018000080400000000000000000100000000020040000000000000000000000000000010000000000100020000000000000100000",
      "type": "0x2",
      "transactionHash": "0x81a2fe6313fd1d3e18eb7319f03b06c953e161ba8bba7168211a0e3e682e43e5",
      "transactionIndex": "0x5a",
      "blockHash": "0x0d045d60ca72e8e859d6a33b500fa47522e291e7e181ceca265b4d8226016256",
      "blockNumber": "0x4136e21",
      "gasUsed": "0x3dbd7",
      "effectiveGasPrice": "0x6fc23c2df",
      "from": "0xaebdfcf4a528de8b480a7b69ecaf17addb8b9959",
      "to": "0x52f052d2411735287989461721f4b49a13d65888",
      "contractAddress": null
    }
  ],
  "libraries": [],
  "pending": [],
  "returns": {},
  "timestamp": 1740545503,
  "chain": 137,
  "commit": "4328487"
}