{
  "transactions": [
    {
      "hash": "0x58bb5e3660c37375186e186481dd56e883cda8825b53da38e636a3166da8dda1",
      "transactionType": "CALL",
      "contractName": null,
      "contractAddress": "0x1095692a6237d83c6a72f3f5efedb9a670c49223",
      "function": "execute(bytes,bytes[],uint256)",
      "arguments": [
        "0x10",
        "[0x000000000000000000000000000000000000000000000000000000000000004000000000000000000000000000000000000000000000000000000000000000800000000000000000000000000000000000000000000000000000000000000003060c0f00000000000000000000000000000000000000000000000000000000000000000000000000000000000000000000000000000000000000000000000003000000000000000000000000000000000000000000000000000000000000006000000000000000000000000000000000000000000000000000000000000001e00000000000000000000000000000000000000000000000000000000000000240000000000000000000000000000000000000000000000000000000000000016000000000000000000000000000000000000000000000000000000000000000200000000000000000000000003c499c542cef5e3811e1192ce70d8cc03d5c3359000000000000000000000000c2132d05d31c914a87c6611c10748aeb04b58e8f0000000000000000000000000000000000000000000000000000000000000bb80000000000000000000000000000000000000000000000000000000000000001000000000000000000000000c0db3c05eda0a0ad64ae139003f6324cd7e59888000000000000000000000000000000000000000000000000000000000000000100000000000000000000000000000000000000000000000000000000000f424000000000000000000000000000000000000000000000000000000000000f404c0000000000000000000000000000000000000000000000000000000000000120000000000000000000000000000000000000000000000000000000000000000000000000000000000000000000000000000000000000000000000000000000400000000000000000000000003c499c542cef5e3811e1192ce70d8cc03d5c335900000000000000000000000000000000000000000000000000000000000f42400000000000000000000000000000000000000000000000000000000000000040000000000000000000000000c2132d05d31c914a87c6611c10748aeb04b58e8f00000000000000000000000000000000000000000000000000000000000f404c]",
        "3481370688"
      ],
      "transaction": {
        "from": "0xaebdfcf4a528de8b480a7b69ecaf17addb8b9959",
        "to": "0x1095692a6237d83c6a72f3f5efedb9a670c49223",
        "gas": "0x94e56",
        "value": "0x0",
        "input": "0x3593564c000000000000000000000000000000000000000000000000000000000000006000000000000000000000000000000000000000000000000000000000000000a000000000000000000000000000000000000000000000000000000000cf81804000000000000000000000000000000000000000000000000000000000000000011000000000000000000000000000000000000000000000000000000000000000000000000000000000000000000000000000000000000000000000000000000100000000000000000000000000000000000000000000000000000000000000200000000000000000000000000000000000000000000000000000000000000340000000000000000000000000000000000000000000000000000000000000004000000000000000000000000000000000000000000000000000000000000000800000000000000000000000000000000000000000000000000000000000000003060c0f00000000000000000000000000000000000000000000000000000000000000000000000000000000000000000000000000000000000000000000000003000000000000000000000000000000000000000000000000000000000000006000000000000000000000000000000000000000000000000000000000000001e00000000000000000000000000000000000000000000000000000000000000240000000000000000000000000000000000000000000000000000000000000016000000000000000000000000000000000000000000000000000000000000000200000000000000000000000003c499c542cef5e3811e1192ce70d8cc03d5c3359000000000000000000000000c2132d05d31c914a87c6611c10748aeb04b58e8f0000000000000000000000000000000000000000000000000000000000000bb80000000000000000000000000000000000000000000000000000000000000001000000000000000000000000c0db3c05eda0a0ad64ae139003f6324cd7e59888000000000000000000000000000000000000000000000000000000000000000100000000000000000000000000000000000000000000000000000000000f424000000000000000000000000000000000000000000000000000000000000f404c0000000000000000000000000000000000000000000000000000000000000120000000000000000000000000000000000000000000000000000000000000000000000000000000000000000000000000000000000000000000000000000000400000000000000000000000003c499c542cef5e3811e1192ce70d8cc03d5c335900000000000000000000000000000000000000000000000000000000000f42400000000000000000000000000000000000000000000000000000000000000040000000000000000000000000c2132d05d31c914a87c6611c10748aeb04b58e8f00000000000000000000000000000000000000000000000000000000000f404c",
        "nonce": "0x80",
        "chainId": "0x89"
      },
      "additionalContracts": [],
      "isFixedGasLimit": false
    }
  ],
  "receipts": [
    {
      "status": "0x1",
      "cumulativeGasUsed": "0x6bcc5",
      "logs": [
        {
          "address": "0x3c499c542cef5e3811e1192ce70d8cc03d5c3359",
          "topics": [
            "0xddf252ad1be2c89b69c2b068fc378daa952ba7f163c4a11628f55a4df523b3ef",
            "0x00000000000000000000000067366782805870060151383f4bbff9dab53e5cd6",
            "0x000000000000000000000000c0db3c05eda0a0ad64ae139003f6324cd7e59888"
          ],
          "data": "0x00000000000000000000000000000000000000000000000000000000000f4240",
          "blockHash": "0x5dd6e4d8e97d8b29925aba8b93552348d669dd9b2ee25736db93367450893f5c",
          "blockNumber": "0x4146d96",
          "blockTimestamp": "0x67c0c045",
          "transactionHash": "0x58bb5e3660c37375186e186481dd56e883cda8825b53da38e636a3166da8dda1",
          "transactionIndex": "0x0",
          "logIndex": "0x0",
          "removed": false
        },
        {
          "address": "0x794a61358d6845594f94dc1db02a252b5b4814ad",
          "topics": [
            "0x804c9b842b2748a22bb64b345453a3de7ca54a6ca45ce00d415894979e22897a",
            "0x000000000000000000000000c2132d05d31c914a87c6611c10748aeb04b58e8f"
          ],
          "data": "0x0000000000000000000000000000000000000000001e58830190d7b7f070b45b00000000000000000000000000000000000000000000000000000000000000000000000000000000000000000000000000000000003b6ff26f77a29ca7276327000000000000000000000000000000000000000003c41ead0cdfc5538868e092000000000000000000000000000000000000000003f219ae9633f9e126e0b451",
          "blockHash": "0x5dd6e4d8e97d8b29925aba8b93552348d669dd9b2ee25736db93367450893f5c",
          "blockNumber": "0x4146d96",
          "blockTimestamp": "0x67c0c045",
          "transactionHash": "0x58bb5e3660c37375186e186481dd56e883cda8825b53da38e636a3166da8dda1",
          "transactionIndex": "0x0",
          "logIndex": "0x1",
          "removed": false
        },
        {
          "address": "0x6ab707aca953edaefbc4fd23ba73294241490620",
          "topics": [
            "0xddf252ad1be2c89b69c2b068fc378daa952ba7f163c4a11628f55a4df523b3ef",
            "0x000000000000000000000000c0db3c05eda0a0ad64ae139003f6324cd7e59888",
            "0x0000000000000000000000000000000000000000000000000000000000000000"
          ],
          "data": "0x00000000000000000000000000000000000000000000000000000000000f4040",
          "blockHash": "0x5dd6e4d8e97d8b29925aba8b93552348d669dd9b2ee25736db93367450893f5c",
          "blockNumber": "0x4146d96",
          "blockTimestamp": "0x67c0c045",
          "transactionHash": "0x58bb5e3660c37375186e186481dd56e883cda8825b53da38e636a3166da8dda1",
          "transactionIndex": "0x0",
          "logIndex": "0x2",
          "removed": false
        },
        {
          "address": "0x6ab707aca953edaefbc4fd23ba73294241490620",
          "topics": [
            "0x4cf25bc1d991c17529c25213d3cc0cda295eeaad5f13f361969b12ea48015f90",
            "0x000000000000000000000000c0db3c05eda0a0ad64ae139003f6324cd7e59888",
            "0x000000000000000000000000c0db3c05eda0a0ad64ae139003f6324cd7e59888"
          ],
          "data": "0x00000000000000000000000000000000000000000000000000000000000f4040000000000000000000000000000000000000000000000000000000000000000c000000000000000000000000000000000000000003c41ead0cdfc5538868e092",
          "blockHash": "0x5dd6e4d8e97d8b29925aba8b93552348d669dd9b2ee25736db93367450893f5c",
          "blockNumber": "0x4146d96",
          "blockTimestamp": "0x67c0c045",
          "transactionHash": "0x58bb5e3660c37375186e186481dd56e883cda8825b53da38e636a3166da8dda1",
          "transactionIndex": "0x0",
          "logIndex": "0x3",
          "removed": false
        },
        {
          "address": "0xc2132d05d31c914a87c6611c10748aeb04b58e8f",
          "topics": [
            "0xddf252ad1be2c89b69c2b068fc378daa952ba7f163c4a11628f55a4df523b3ef",
            "0x0000000000000000000000006ab707aca953edaefbc4fd23ba73294241490620",
            "0x000000000000000000000000c0db3c05eda0a0ad64ae139003f6324cd7e59888"
          ],
          "data": "0x00000000000000000000000000000000000000000000000000000000000f404c",
          "blockHash": "0x5dd6e4d8e97d8b29925aba8b93552348d669dd9b2ee25736db93367450893f5c",
          "blockNumber": "0x4146d96",
          "blockTimestamp": "0x67c0c045",
          "transactionHash": "0x58bb5e3660c37375186e186481dd56e883cda8825b53da38e636a3166da8dda1",
          "transactionIndex": "0x0",
          "logIndex": "0x4",
          "removed": false
        },
        {
          "address": "0x794a61358d6845594f94dc1db02a252b5b4814ad",
          "topics": [
            "0x3115d1449a7b732c986cba18244e897a450f61e1bb8d589cd2e69e6c8924f9f7",
            "0x000000000000000000000000c2132d05d31c914a87c6611c10748aeb04b58e8f",
            "0x000000000000000000000000c0db3c05eda0a0ad64ae139003f6324cd7e59888",
            "0x000000000000000000000000c0db3c05eda0a0ad64ae139003f6324cd7e59888"
          ],
          "data": "0x00000000000000000000000000000000000000000000000000000000000f404c",
          "blockHash": "0x5dd6e4d8e97d8b29925aba8b93552348d669dd9b2ee25736db93367450893f5c",
          "blockNumber": "0x4146d96",
          "blockTimestamp": "0x67c0c045",
          "transactionHash": "0x58bb5e3660c37375186e186481dd56e883cda8825b53da38e636a3166da8dda1",
          "transactionIndex": "0x0",
          "logIndex": "0x5",
          "removed": false
        },
        {
          "address": "0x794a61358d6845594f94dc1db02a252b5b4814ad",
          "topics": [
            "0x804c9b842b2748a22bb64b345453a3de7ca54a6ca45ce00d415894979e22897a",
            "0x0000000000000000000000003c499c542cef5e3811e1192ce70d8cc03d5c3359"
          ],
          "data": "0x000000000000000000000000000000000000000000230efd8cd5e8391af3990500000000000000000000000000000000000000000000000000000000000000000000000000000000000000000000000000000000003ddb88a999211458c4c2990000000000000000000000000000000000000000038c34ff4957ed0608c23178000000000000000000000000000000000000000003a082b89037a2a3f993d4d9",
          "blockHash": "0x5dd6e4d8e97d8b29925aba8b93552348d669dd9b2ee25736db93367450893f5c",
          "blockNumber": "0x4146d96",
          "blockTimestamp": "0x67c0c045",
          "transactionHash": "0x58bb5e3660c37375186e186481dd56e883cda8825b53da38e636a3166da8dda1",
          "transactionIndex": "0x0",
          "logIndex": "0x6",
          "removed": false
        },
        {
          "address": "0x3c499c542cef5e3811e1192ce70d8cc03d5c3359",
          "topics": [
            "0xddf252ad1be2c89b69c2b068fc378daa952ba7f163c4a11628f55a4df523b3ef",
            "0x000000000000000000000000c0db3c05eda0a0ad64ae139003f6324cd7e59888",
            "0x000000000000000000000000a4d94019934d8333ef880abffbf2fdd611c762bd"
          ],
          "data": "0x00000000000000000000000000000000000000000000000000000000000f4240",
          "blockHash": "0x5dd6e4d8e97d8b29925aba8b93552348d669dd9b2ee25736db93367450893f5c",
          "blockNumber": "0x4146d96",
          "blockTimestamp": "0x67c0c045",
          "transactionHash": "0x58bb5e3660c37375186e186481dd56e883cda8825b53da38e636a3166da8dda1",
          "transactionIndex": "0x0",
          "logIndex": "0x7",
          "removed": false
        },
        {
          "address": "0xa4d94019934d8333ef880abffbf2fdd611c762bd",
          "topics": [
            "0xddf252ad1be2c89b69c2b068fc378daa952ba7f163c4a11628f55a4df523b3ef",
            "0x0000000000000000000000000000000000000000000000000000000000000000",
            "0x000000000000000000000000c0db3c05eda0a0ad64ae139003f6324cd7e59888"
          ],
          "data": "0x00000000000000000000000000000000000000000000000000000000000f4240",
          "blockHash": "0x5dd6e4d8e97d8b29925aba8b93552348d669dd9b2ee25736db93367450893f5c",
          "blockNumber": "0x4146d96",
          "blockTimestamp": "0x67c0c045",
          "transactionHash": "0x58bb5e3660c37375186e186481dd56e883cda8825b53da38e636a3166da8dda1",
          "transactionIndex": "0x0",
          "logIndex": "0x8",
          "removed": false
        },
        {
          "address": "0xa4d94019934d8333ef880abffbf2fdd611c762bd",
          "topics": [
            "0x458f5fa412d0f69b08dd84872b0215675cc67bc1d5b6fd93300a1c3878b86196",
            "0x000000000000000000000000c0db3c05eda0a0ad64ae139003f6324cd7e59888",
            "0x000000000000000000000000c0db3c05eda0a0ad64ae139003f6324cd7e59888"
          ],
          "data": "0x00000000000000000000000000000000000000000000000000000000000f424000000000000000000000000000000000000000000000000000000000000000000000000000000000000000000000000000000000038c34ff4957ed0608c23178",
          "blockHash": "0x5dd6e4d8e97d8b29925aba8b93552348d669dd9b2ee25736db93367450893f5c",
          "blockNumber": "0x4146d96",
          "blockTimestamp": "0x67c0c045",
          "transactionHash": "0x58bb5e3660c37375186e186481dd56e883cda8825b53da38e636a3166da8dda1",
          "transactionIndex": "0x0",
          "logIndex": "0x9",
          "removed": false
        },
        {
          "address": "0x794a61358d6845594f94dc1db02a252b5b4814ad",
          "topics": [
            "0x2b627736bca15cd5381dcf80b0bf11fd197d01a037c52b927a881a10fb73ba61",
            "0x0000000000000000000000003c499c542cef5e3811e1192ce70d8cc03d5c3359",
            "0x000000000000000000000000c0db3c05eda0a0ad64ae139003f6324cd7e59888",
            "0x0000000000000000000000000000000000000000000000000000000000000000"
          ],
          "data": "0x000000000000000000000000c0db3c05eda0a0ad64ae139003f6324cd7e5988800000000000000000000000000000000000000000000000000000000000f4240",
          "blockHash": "0x5dd6e4d8e97d8b29925aba8b93552348d669dd9b2ee25736db93367450893f5c",
          "blockNumber": "0x4146d96",
          "blockTimestamp": "0x67c0c045",
          "transactionHash": "0x58bb5e3660c37375186e186481dd56e883cda8825b53da38e636a3166da8dda1",
          "transactionIndex": "0x0",
          "logIndex": "0xa",
          "removed": false
        },
        {
          "address": "0xc2132d05d31c914a87c6611c10748aeb04b58e8f",
          "topics": [
            "0xddf252ad1be2c89b69c2b068fc378daa952ba7f163c4a11628f55a4df523b3ef",
            "0x000000000000000000000000c0db3c05eda0a0ad64ae139003f6324cd7e59888",
            "0x00000000000000000000000067366782805870060151383f4bbff9dab53e5cd6"
          ],
          "data": "0x00000000000000000000000000000000000000000000000000000000000f404c",
          "blockHash": "0x5dd6e4d8e97d8b29925aba8b93552348d669dd9b2ee25736db93367450893f5c",
          "blockNumber": "0x4146d96",
          "blockTimestamp": "0x67c0c045",
          "transactionHash": "0x58bb5e3660c37375186e186481dd56e883cda8825b53da38e636a3166da8dda1",
          "transactionIndex": "0x0",
          "logIndex": "0xb",
          "removed": false
        },
        {
          "address": "0x67366782805870060151383f4bbff9dab53e5cd6",
          "topics": [
            "0x40e9cecb9f5f1f1c5b9c97dec2917b7ee92e57ba5563708daca94dd84ad7112f",
            "0x69a9f6720565ae40c3bcf897f8bab092aeb5645ad8fbbb0c00fb63f7efae5a20",
            "0x0000000000000000000000001095692a6237d83c6a72f3f5efedb9a670c49223"
          ],
          "data": "0x000000000000000000000000000000000000000000000000000000000000000000000000000000000000000000000000000000000000000000000000000000000000000000000000000000000000000000000001000000000000000000000000000000000000000000000000000000000000000000000000000000000000000000000000000000000000000000000000000000000000000000000000000000000000000000000000000000000000000000000000000000000000000000000bb8",
          "blockHash": "0x5dd6e4d8e97d8b29925aba8b93552348d669dd9b2ee25736db93367450893f5c",
          "blockNumber": "0x4146d96",
          "blockTimestamp": "0x67c0c045",
          "transactionHash": "0x58bb5e3660c37375186e186481dd56e883cda8825b53da38e636a3166da8dda1",
          "transactionIndex": "0x0",
          "logIndex": "0xc",
          "removed": false
        },
        {
          "address": "0x3c499c542cef5e3811e1192ce70d8cc03d5c3359",
          "topics": [
            "0xddf252ad1be2c89b69c2b068fc378daa952ba7f163c4a11628f55a4df523b3ef",
            "0x000000000000000000000000aebdfcf4a528de8b480a7b69ecaf17addb8b9959",
            "0x00000000000000000000000067366782805870060151383f4bbff9dab53e5cd6"
          ],
          "data": "0x00000000000000000000000000000000000000000000000000000000000f4240",
          "blockHash": "0x5dd6e4d8e97d8b29925aba8b93552348d669dd9b2ee25736db93367450893f5c",
          "blockNumber": "0x4146d96",
          "blockTimestamp": "0x67c0c045",
          "transactionHash": "0x58bb5e3660c37375186e186481dd56e883cda8825b53da38e636a3166da8dda1",
          "transactionIndex": "0x0",
          "logIndex": "0xd",
          "removed": false
        },
        {
          "address": "0xc2132d05d31c914a87c6611c10748aeb04b58e8f",
          "topics": [
            "0xddf252ad1be2c89b69c2b068fc378daa952ba7f163c4a11628f55a4df523b3ef",
            "0x00000000000000000000000067366782805870060151383f4bbff9dab53e5cd6",
            "0x000000000000000000000000aebdfcf4a528de8b480a7b69ecaf17addb8b9959"
          ],
          "data": "0x00000000000000000000000000000000000000000000000000000000000f404c",
          "blockHash": "0x5dd6e4d8e97d8b29925aba8b93552348d669dd9b2ee25736db93367450893f5c",
          "blockNumber": "0x4146d96",
          "blockTimestamp": "0x67c0c045",
          "transactionHash": "0x58bb5e3660c37375186e186481dd56e883cda8825b53da38e636a3166da8dda1",
          "transactionIndex": "0x0",
          "logIndex": "0xe",
          "removed": false
        }
      ],
      "logsBloom": "0x1008000800200000000000002000000001800000000000100000000000000000000000000000000000000000000440010001000024000400000000000000000000000000084000001000000800a000000000040000000020000000040000000010000000620000000000100000000800000000000080020000000010000000000001000000080041000002800002000000024000000800000010000001000000000000000080000010000000000000000800000000000000000000000000014002000002000000000000002048000000400000000000000000104000000020040000000000000000004000000000010044000004100020000000400000000000",
      "type": "0x2",
      "transactionHash": "0x58bb5e3660c37375186e186481dd56e883cda8825b53da38e636a3166da8dda1",
      "transactionIndex": "0x0",
      "blockHash": "0x5dd6e4d8e97d8b29925aba8b93552348d669dd9b2ee25736db93367450893f5c",
      "blockNumber": "0x4146d96",
      "gasUsed": "0x6bcc5",
      "effectiveGasPrice": "0x6eb92ae42",
      "blobGasPrice": "0x1",
      "from": "0xaebdfcf4a528de8b480a7b69ecaf17addb8b9959",
      "to": "0x1095692a6237d83c6a72f3f5efedb9a670c49223",
      "contractAddress": null,
      "root": "0x0000000000000000000000000000000000000000000000000000000000000000"
    }
  ],
  "libraries": [],
  "pending": [],
  "returns": {},
  "timestamp": 1740685386,
  "chain": 137,
  "commit": "0ee42fc"
}