{
  "transactions": [
    {
      "hash": "0x79f69bf18a31817af0be4544642e5164656004cf849f69a8a902e70966433491",
      "transactionType": "CREATE",
      "contractName": "Example",
      "contractAddress": "0xa93c062b7669a518de64b70cb87246d80153b326",
      "function": null,
      "arguments": [
        "0x1095692A6237d83C6a72F3F5eFEdb9A670C49223",
        "0x67366782805870060151383F4BbFF9daB53e5cD6",
        "0x000000000022D473030F116dDEE9F6B43aC78BA3"
      ],
      "transaction": {
        "from": "0xda88261bfed59ab29ee3c1407cd0060411812347",
        "gas": "0xb8fcb",
        "value": "0x0",
        "input": "0x60e0346100b557601f610a6838819003918201601f19168301916001600160401b038311848410176100b9578084926060946040528339810103126100b557610047816100cd565b906100606040610059602084016100cd565b92016100cd565b6001600160a01b0392831660805290821660a0521660c05260405161098690816100e28239608051818181606a0152818161042d0152610757015260a0518160b2015260c0518181816106e001526107e20152f35b5f80fd5b634e487b7160e01b5f52604160045260245ffd5b51906001600160a01b03821682036100b55756fe6080806040526004361015610012575f80fd5b5f905f3560e01c90816312261ee7146107d057508063267b14bd14610686578063ac0d8234146100e1578063dc4c90d31461009c5763f887ea4014610055575f80fd5b346100995780600319360112610099576040517f00000000000000000000000000000000000000000000000000000000000000006001600160a01b03168152602090f35b80fd5b50346100995780600319360112610099576040517f00000000000000000000000000000000000000000000000000000000000000006001600160a01b03168152602090f35b503461009957366003190160e081126106215760a0136100995760a435906001600160801b038216918281036106215760c4356001600160801b0381169182820361068257604051600160fc1b60208201526001815291610143602184610843565b6040805192906101538185610843565b60018452601f1901865b818110610671575050604051600360f91b6020820152600360fa1b6021820152600f60f81b602282015260038152610196602382610843565b60405160806101a58183610843565b60038252601f1901885b81811061064c5750506040519860208a0199808b1067ffffffffffffffff8c111761063857899a60409a98999a528781526040516101ec81610827565b604051916101f983610827565b610201610811565b83526024356001600160a01b038116810361063457602084015260443562ffffff811681036106345760408401526064358060020b8103610634576060840152608435906001600160a01b0382168203610634578361031592608061032396015283526001600160801b038d816020860197600189526040870190815260608701928352608087019485526040519889976020808a01525160018060a01b0381511660408a015260018060a01b0360208201511660608a015262ffffff60408201511660808a0152606081015160020b60a08a0152608060018060a01b039101511660c089015251151560e0880152511661010086015251166101208401525161012061014084015261016083019061087d565b03601f198101835282610843565b61032c826108a1565b52610336816108a1565b50600435906001600160a01b038216820361063057604080516001600160a01b0390931660208401526001600160801b039094169382019390935261040593610417936103159290919061038b816060810186565b610394836108c2565b5261039e826108c2565b506103da6103aa6108e2565b604080516001600160a01b0390921660208301526001600160801b03909316928101929092528160608101610315565b6103e3826108d2565b526103ed816108d2565b5060405194859360406020860152606085019061087d565b838103601f19016040850152906108f8565b610420826108a1565b5261042a816108a1565b507f00000000000000000000000000000000000000000000000000000000000000006001600160a01b0316803b156105f3576104898361049b9560405196879586948593630d64d59360e21b855260606004860152606485019061087d565b838103600319016024850152906108f8565b42604483015203925af180156106255761060c575b5060249160206001600160a01b036104c66108e2565b16604051948580926370a0823160e01b82523060048301525afa9283156105ff5781936105c7575b506001600160a01b036104ff6108e2565b60405163a9059cbb60e01b8152336004820152602481018690529291602091849160449183918691165af19081156105bb575061058e575b50811061054957602090604051908152f35b60405162461bcd60e51b815260206004820152601a60248201527f496e73756666696369656e74206f757470757420616d6f756e740000000000006044820152606490fd5b6105af9060203d6020116105b4575b6105a78183610843565b810190610865565b610537565b503d61059d565b604051903d90823e3d90fd5b9092506020813d6020116105f7575b816105e360209383610843565b810103126105f35751915f6104ee565b8280fd5b3d91506105d6565b50604051903d90823e3d90fd5b610617838092610843565b610621575f6104b0565b5080fd5b6040513d85823e3d90fd5b8680fd5b8a80fd5b634e487b7160e01b8a52604160045260248afd5b8060606020809386010152016101af565b634e487b7160e01b5f52604160045260245ffd5b80606060208093880101520161015d565b8380fd5b50346107af5760603660031901126107af576106a0610811565b6024356001600160a01b038116908190036107af576044359165ffffffffffff83168093036107af5760405163095ea7b360e01b81526001600160a01b037f00000000000000000000000000000000000000000000000000000000000000008116600483018190525f19602484015292169291906020816044815f885af180156107a4576107b3575b50803b156107af575f928360849260405196879586946387517c4560e01b8652600486015260018060a01b037f0000000000000000000000000000000000000000000000000000000000000000166024860152604485015260648401525af180156107a457610796575080f35b6107a291505f90610843565b005b6040513d5f823e3d90fd5b5f80fd5b6107cb9060203d6020116105b4576105a78183610843565b610729565b346107af575f3660031901126107af577f00000000000000000000000000000000000000000000000000000000000000006001600160a01b03168152602090f35b600435906001600160a01b03821682036107af57565b60a0810190811067ffffffffffffffff82111761065d57604052565b90601f8019910116810190811067ffffffffffffffff82111761065d57604052565b908160209103126107af575180151581036107af5790565b805180835260209291819084018484015e5f828201840152601f01601f1916010190565b8051156108ae5760200190565b634e487b7160e01b5f52603260045260245ffd5b8051600110156108ae5760400190565b8051600210156108ae5760600190565b6024356001600160a01b03811681036107af5790565b9080602083519182815201916020808360051b8301019401925f915b83831061092357505050505090565b9091929394602080610941600193601f19868203018752895161087d565b9701930193019193929061091456fea264697066735822122039ac51802d9add01ed011555746c4949a857f4a6cdb980eae663b8802181797564736f6c634300081a00330000000000000000000000001095692a6237d83c6a72f3f5efedb9a670c4922300000000000000000000000067366782805870060151383f4bbff9dab53e5cd6000000000000000000000000000000000022d473030f116ddee9f6b43ac78ba3",
        "nonce": "0x8a",
        "chainId": "0x89"
      },
      "additionalContracts": [],
      "isFixedGasLimit": false
    },
    {
      "hash": "0xeb017397fdcbf1a0385f68ce142a35bc7578c858243fb7c6c303c521eb5240d8",
      "transactionType": "CALL",
      "contractName": "Example",
      "contractAddress": "0xa93c062b7669a518de64b70cb87246d80153b326",
      "function": "approveTokenWithPermit2(address,uint160,uint48)",
      "arguments": [
        "0x3c499c542cEF5E3811e1192ce70d8cC03d5c3359",
        "1461501637330902918203684832716283019655932542975",
        "281474976710655"
      ],
      "transaction": {
        "from": "0xda88261bfed59ab29ee3c1407cd0060411812347",
        "to": "0xa93c062b7669a518de64b70cb87246d80153b326",
        "gas": "0x1f468",
        "value": "0x0",
        "input": "0x267b14bd0000000000000000000000003c499c542cef5e3811e1192ce70d8cc03d5c3359000000000000000000000000ffffffffffffffffffffffffffffffffffffffff0000000000000000000000000000000000000000000000000000ffffffffffff",
        "nonce": "0x8b",
        "chainId": "0x89"
      },
      "additionalContracts": [],
      "isFixedGasLimit": false
    },
    {
      "hash": "0x6a6f7750ff4910292720b48c63566fbb168eae468148a9dc9699db6028abe068",
      "transactionType": "CALL",
      "contractName": null,
      "contractAddress": "0x3c499c542cef5e3811e1192ce70d8cc03d5c3359",
      "function": "transfer(address,uint256)",
      "arguments": [
        "0xA93c062b7669A518DE64b70cB87246d80153B326",
        "100000"
      ],
      "transaction": {
        "from": "0xda88261bfed59ab29ee3c1407cd0060411812347",
        "to": "0x3c499c542cef5e3811e1192ce70d8cc03d5c3359",
        "gas": "0x14f5f",
        "value": "0x0",
        "input": "0xa9059cbb000000000000000000000000a93c062b7669a518de64b70cb87246d80153b32600000000000000000000000000000000000000000000000000000000000186a0",
        "nonce": "0x8c",
        "chainId": "0x89"
      },
      "additionalContracts": [],
      "isFixedGasLimit": false
    },
    {
      "hash": "0x617cec4f428b414f959ae4a1f964367fcc60af3582030dd9bb91d638c15d0d55",
      "transactionType": "CALL",
      "contractName": "Example",
      "contractAddress": "0xa93c062b7669a518de64b70cb87246d80153b326",
      "function": "swapExactInputSingle((address,address,uint24,int24,address),uint128,uint128)",
      "arguments": [
        "(0x3c499c542cEF5E3811e1192ce70d8cC03d5c3359, 0xc2132D05D31c914a87C6611C10748AEb04B58e8F, 3000, 1, 0x52f052d2411735287989461721f4B49A13d65888)",
        "100000",
        "100000"
      ],
      "transaction": {
        "from": "0xda88261bfed59ab29ee3c1407cd0060411812347",
        "to": "0xa93c062b7669a518de64b70cb87246d80153b326",
        "gas": "0x976c6",
        "value": "0x0",
        "input": "0xac0d82340000000000000000000000003c499c542cef5e3811e1192ce70d8cc03d5c3359000000000000000000000000c2132d05d31c914a87c6611c10748aeb04b58e8f0000000000000000000000000000000000000000000000000000000000000bb8000000000000000000000000000000000000000000000000000000000000000100000000000000000000000052f052d2411735287989461721f4b49a13d6588800000000000000000000000000000000000000000000000000000000000186a000000000000000000000000000000000000000000000000000000000000186a0",
        "nonce": "0x8d",
        "chainId": "0x89"
      },
      "additionalContracts": [],
      "isFixedGasLimit": false
    }
  ],
  "receipts": [
    {
      "status": "0x1",
      "cumulativeGasUsed": "0x6d27f7",
      "logs": [
        {
          "address": "0x0000000000000000000000000000000000001010",
          "topics": [
            "0x4dfe1bbbcf077ddc3e01291eea2d5c70c2b422b415d95645b9adcfd678cb1d63",
            "0x0000000000000000000000000000000000000000000000000000000000001010",
            "0x000000000000000000000000da88261bfed59ab29ee3c1407cd0060411812347",
            "0x000000000000000000000000a8b52f02108aa5f4b675bdcc973760022d7c6020"
          ],
          "data": "0x000000000000000000000000000000000000000000000000003b9e517cc7d128000000000000000000000000000000000000000000000014e7f600249bc0d2b20000000000000000000000000000000000000000000000be7ca9faffd2800f4d000000000000000000000000000000000000000000000014e7ba61d31ef9018a0000000000000000000000000000000000000000000000be7ce599514f47e075",
          "blockHash": "0xbfddddd07d4fb7f585f3822d61521a7267408ae12df153ad47493bbd99a1b4a9",
          "blockNumber": "0x413273b",
          "transactionHash": "0x79f69bf18a31817af0be4544642e5164656004cf849f69a8a902e70966433491",
          "transactionIndex": "0x38",
          "logIndex": "0xec",
          "removed": false
        }
      ],
      "logsBloom": "0x00000000000000000000000000000000000000000000000000000000000000000000000000000000000000000002000000008000000000000000000000000000000000000000000000000000000000800000000000000000000100000000000000000000020000000000000000000000000000000000000080000000000000000000000000000000000000000000000000000000000000040000000000000000200000000000004000000000000000000000000000000000000000000000004000000000000000000001000000000040002000000000000000100000000000000000000000000000000000000000000000000000000000000000000000100000",
      "type": "0x2",
      "transactionHash": "0x79f69bf18a31817af0be4544642e5164656004cf849f69a8a902e70966433491",
      "transactionIndex": "0x38",
      "blockHash": "0xbfddddd07d4fb7f585f3822d61521a7267408ae12df153ad47493bbd99a1b4a9",
      "blockNumber": "0x413273b",
      "gasUsed": "0x8e4c4",
      "effectiveGasPrice": "0x1a81a6d8b9",
      "from": "0xda88261bfed59ab29ee3c1407cd0060411812347",
      "to": null,
      "contractAddress": "0xa93c062b7669a518de64b70cb87246d80153b326"
    },
    {
      "status": "0x1",
      "cumulativeGasUsed": "0x6e7e20",
      "logs": [
        {
          "address": "0x3c499c542cef5e3811e1192ce70d8cc03d5c3359",
          "topics": [
            "0x8c5be1e5ebec7d5bd14f71427d1e84f3dd0314c0f7b2291e5b200ac8c7c3b925",
            "0x000000000000000000000000a93c062b7669a518de64b70cb87246d80153b326",
            "0x000000000000000000000000000000000022d473030f116ddee9f6b43ac78ba3"
          ],
          "data": "0xffffffffffffffffffffffffffffffffffffffffffffffffffffffffffffffff",
          "blockHash": "0xbfddddd07d4fb7f585f3822d61521a7267408ae12df153ad47493bbd99a1b4a9",
          "blockNumber": "0x413273b",
          "transactionHash": "0xeb017397fdcbf1a0385f68ce142a35bc7578c858243fb7c6c303c521eb5240d8",
          "transactionIndex": "0x39",
          "logIndex": "0xed",
          "removed": false
        },
        {
          "address": "0x000000000022d473030f116ddee9f6b43ac78ba3",
          "topics": [
            "0xda9fa7c1b00402c17d0161b249b1ab8bbec047c5a52207b9c112deffd817036b",
            "0x000000000000000000000000a93c062b7669a518de64b70cb87246d80153b326",
            "0x0000000000000000000000003c499c542cef5e3811e1192ce70d8cc03d5c3359",
            "0x0000000000000000000000001095692a6237d83c6a72f3f5efedb9a670c49223"
          ],
          "data": "0x000000000000000000000000ffffffffffffffffffffffffffffffffffffffff0000000000000000000000000000000000000000000000000000ffffffffffff",
          "blockHash": "0xbfddddd07d4fb7f585f3822d61521a7267408ae12df153ad47493bbd99a1b4a9",
          "blockNumber": "0x413273b",
          "transactionHash": "0xeb017397fdcbf1a0385f68ce142a35bc7578c858243fb7c6c303c521eb5240d8",
          "transactionIndex": "0x39",
          "logIndex": "0xee",
          "removed": false
        },
        {
          "address": "0x0000000000000000000000000000000000001010",
          "topics": [
            "0x4dfe1bbbcf077ddc3e01291eea2d5c70c2b422b415d95645b9adcfd678cb1d63",
            "0x0000000000000000000000000000000000000000000000000000000000001010",
            "0x000000000000000000000000da88261bfed59ab29ee3c1407cd0060411812347",
            "0x000000000000000000000000a8b52f02108aa5f4b675bdcc973760022d7c6020"
          ],
          "data": "0x0000000000000000000000000000000000000000000000000008f5ac7158c2fa000000000000000000000000000000000000000000000014e70a4329f936210e0000000000000000000000000000000000000000000000be7ce599514f47e075000000000000000000000000000000000000000000000014e7014d7d87dd5e140000000000000000000000000000000000000000000000be7cee8efdc0a0a36f",
          "blockHash": "0xbfddddd07d4fb7f585f3822d61521a7267408ae12df153ad47493bbd99a1b4a9",
          "blockNumber": "0x413273b",
          "transactionHash": "0xeb017397fdcbf1a0385f68ce142a35bc7578c858243fb7c6c303c521eb5240d8",
          "transactionIndex": "0x39",
          "logIndex": "0xef",
          "removed": false
        }
      ],
      "logsBloom": "0x00010000000000000000000000000000000000000000000000000000000000000000000000000000000000000002000000008000800000000000000000280000000000000840000000004000000000800000000000000800000100000000000000000000020000000000000000000000000000000000000080000000000000000020000000000040000000800000000000200000000000040000000000000000220000000000004000000000000000000800000000000000000000080000004000000000000000000001000000000040002000000420000040100000000000000010000000000000000000000000010000000004100000000000000000100400",
      "type": "0x2",
      "transactionHash": "0xeb017397fdcbf1a0385f68ce142a35bc7578c858243fb7c6c303c521eb5240d8",
      "transactionIndex": "0x39",
      "blockHash": "0xbfddddd07d4fb7f585f3822d61521a7267408ae12df153ad47493bbd99a1b4a9",
      "blockNumber": "0x413273b",
      "gasUsed": "0x15629",
      "effectiveGasPrice": "0x1a81a6d8b9",
      "from": "0xda88261bfed59ab29ee3c1407cd0060411812347",
      "to": "0xa93c062b7669a518de64b70cb87246d80153b326",
      "contractAddress": null
    },
    {
      "status": "0x1",
      "cumulativeGasUsed": "0x6f70ef",
      "logs": [
        {
          "address": "0x3c499c542cef5e3811e1192ce70d8cc03d5c3359",
          "topics": [
            "0xddf252ad1be2c89b69c2b068fc378daa952ba7f163c4a11628f55a4df523b3ef",
            "0x000000000000000000000000da88261bfed59ab29ee3c1407cd0060411812347",
            "0x000000000000000000000000a93c062b7669a518de64b70cb87246d80153b326"
          ],
          "data": "0x00000000000000000000000000000000000000000000000000000000000186a0",
          "blockHash": "0xbfddddd07d4fb7f585f3822d61521a7267408ae12df153ad47493bbd99a1b4a9",
          "blockNumber": "0x413273b",
          "transactionHash": "0x6a6f7750ff4910292720b48c63566fbb168eae468148a9dc9699db6028abe068",
          "transactionIndex": "0x3a",
          "logIndex": "0xf0",
          "removed": false
        },
        {
          "address": "0x0000000000000000000000000000000000001010",
          "topics": [
            "0x4dfe1bbbcf077ddc3e01291eea2d5c70c2b422b415d95645b9adcfd678cb1d63",
            "0x0000000000000000000000000000000000000000000000000000000000001010",
            "0x000000000000000000000000da88261bfed59ab29ee3c1407cd0060411812347",
            "0x000000000000000000000000a8b52f02108aa5f4b675bdcc973760022d7c6020"
          ],
          "data": "0x00000000000000000000000000000000000000000000000000065bab66a643b6000000000000000000000000000000000000000000000014e6e6d5b64ff6456d0000000000000000000000000000000000000000000000be7cee8efdc0a0a36f000000000000000000000000000000000000000000000014e6e07a0ae95001b70000000000000000000000000000000000000000000000be7cf4eaa92746e725",
          "blockHash": "0xbfddddd07d4fb7f585f3822d61521a7267408ae12df153ad47493bbd99a1b4a9",
          "blockNumber": "0x413273b",
          "transactionHash": "0x6a6f7750ff4910292720b48c63566fbb168eae468148a9dc9699db6028abe068",
          "transactionIndex": "0x3a",
          "logIndex": "0xf1",
          "removed": false
        }
      ],
      "logsBloom": "0x00000000000000000000000000000000000000000000000000000000000000000000000000000000000000000002000000008000000000000000000000000000000000000000000000000008000000800000000000000000000100000000000000000000020000000000000000000000000000000000000080000010000000000000000000000000000000000000000000200000000000040000000000000000200000000000004000000000000000000800000000000000000000000000004000000002000000000001000000000040002000000420000000100000000000000000000000000000000000000000010000000000100000000000000000100000",
      "type": "0x2",
      "transactionHash": "0x6a6f7750ff4910292720b48c63566fbb168eae468148a9dc9699db6028abe068",
      "transactionIndex": "0x3a",
      "blockHash": "0xbfddddd07d4fb7f585f3822d61521a7267408ae12df153ad47493bbd99a1b4a9",
      "blockNumber": "0x413273b",
      "gasUsed": "0xf2cf",
      "effectiveGasPrice": "0x1a81a6d8b9",
      "from": "0xda88261bfed59ab29ee3c1407cd0060411812347",
      "to": "0x3c499c542cef5e3811e1192ce70d8cc03d5c3359",
      "contractAddress": null
    },
    {
      "status": "0x1",
      "cumulativeGasUsed": "0x75e988",
      "logs": [
        {
          "address": "0x3c499c542cef5e3811e1192ce70d8cc03d5c3359",
          "topics": [
            "0xddf252ad1be2c89b69c2b068fc378daa952ba7f163c4a11628f55a4df523b3ef",
            "0x00000000000000000000000067366782805870060151383f4bbff9dab53e5cd6",
            "0x00000000000000000000000052f052d2411735287989461721f4b49a13d65888"
          ],
          "data": "0x00000000000000000000000000000000000000000000000000000000000186a0",
          "blockHash": "0xbfddddd07d4fb7f585f3822d61521a7267408ae12df153ad47493bbd99a1b4a9",
          "blockNumber": "0x413273b",
          "transactionHash": "0x617cec4f428b414f959ae4a1f964367fcc60af3582030dd9bb91d638c15d0d55",
          "transactionIndex": "0x3b",
          "logIndex": "0xf2",
          "removed": false
        },
        {
          "address": "0x794a61358d6845594f94dc1db02a252b5b4814ad",
          "topics": [
            "0x804c9b842b2748a22bb64b345453a3de7ca54a6ca45ce00d415894979e22897a",
            "0x000000000000000000000000c2132d05d31c914a87c6611c10748aeb04b58e8f"
          ],
          "data": "0x00000000000000000000000000000000000000000025685145f0d3aebc62d79a00000000000000000000000000000000000000000000000000000000000000000000000000000000000000000000000000000000003c3dedfbe5d4ba2ae4bb80000000000000000000000000000000000000000003c3e97da772695941327ae2000000000000000000000000000000000000000003f1affca7cdd6db5c7bed86",
          "blockHash": "0xbfddddd07d4fb7f585f3822d61521a7267408ae12df153ad47493bbd99a1b4a9",
          "blockNumber": "0x413273b",
          "transactionHash": "0x617cec4f428b414f959ae4a1f964367fcc60af3582030dd9bb91d638c15d0d55",
          "transactionIndex": "0x3b",
          "logIndex": "0xf3",
          "removed": false
        },
        {
          "address": "0x6ab707aca953edaefbc4fd23ba73294241490620",
          "topics": [
            "0xddf252ad1be2c89b69c2b068fc378daa952ba7f163c4a11628f55a4df523b3ef",
            "0x00000000000000000000000052f052d2411735287989461721f4b49a13d65888",
            "0x0000000000000000000000000000000000000000000000000000000000000000"
          ],
          "data": "0x0000000000000000000000000000000000000000000000000000000000018667",
          "blockHash": "0xbfddddd07d4fb7f585f3822d61521a7267408ae12df153ad47493bbd99a1b4a9",
          "blockNumber": "0x413273b",
          "transactionHash": "0x617cec4f428b414f959ae4a1f964367fcc60af3582030dd9bb91d638c15d0d55",
          "transactionIndex": "0x3b",
          "logIndex": "0xf4",
          "removed": false
        },
        {
          "address": "0x6ab707aca953edaefbc4fd23ba73294241490620",
          "topics": [
            "0x4cf25bc1d991c17529c25213d3cc0cda295eeaad5f13f361969b12ea48015f90",
            "0x00000000000000000000000052f052d2411735287989461721f4b49a13d65888",
            "0x00000000000000000000000052f052d2411735287989461721f4b49a13d65888"
          ],
          "data": "0x00000000000000000000000000000000000000000000000000000000000186670000000000000000000000000000000000000000000000000000000000000039000000000000000000000000000000000000000003c3e97da772695941327ae2",
          "blockHash": "0xbfddddd07d4fb7f585f3822d61521a7267408ae12df153ad47493bbd99a1b4a9",
          "blockNumber": "0x413273b",
          "transactionHash": "0x617cec4f428b414f959ae4a1f964367fcc60af3582030dd9bb91d638c15d0d55",
          "transactionIndex": "0x3b",
          "logIndex": "0xf5",
          "removed": false
        },
        {
          "address": "0xc2132d05d31c914a87c6611c10748aeb04b58e8f",
          "topics": [
            "0xddf252ad1be2c89b69c2b068fc378daa952ba7f163c4a11628f55a4df523b3ef",
            "0x0000000000000000000000006ab707aca953edaefbc4fd23ba73294241490620",
            "0x00000000000000000000000052f052d2411735287989461721f4b49a13d65888"
          ],
          "data": "0x00000000000000000000000000000000000000000000000000000000000186a0",
          "blockHash": "0xbfddddd07d4fb7f585f3822d61521a7267408ae12df153ad47493bbd99a1b4a9",
          "blockNumber": "0x413273b",
          "transactionHash": "0x617cec4f428b414f959ae4a1f964367fcc60af3582030dd9bb91d638c15d0d55",
          "transactionIndex": "0x3b",
          "logIndex": "0xf6",
          "removed": false
        },
        {
          "address": "0x794a61358d6845594f94dc1db02a252b5b4814ad",
          "topics": [
            "0x3115d1449a7b732c986cba18244e897a450f61e1bb8d589cd2e69e6c8924f9f7",
            "0x000000000000000000000000c2132d05d31c914a87c6611c10748aeb04b58e8f",
            "0x00000000000000000000000052f052d2411735287989461721f4b49a13d65888",
            "0x00000000000000000000000052f052d2411735287989461721f4b49a13d65888"
          ],
          "data": "0x00000000000000000000000000000000000000000000000000000000000186a0",
          "blockHash": "0xbfddddd07d4fb7f585f3822d61521a7267408ae12df153ad47493bbd99a1b4a9",
          "blockNumber": "0x413273b",
          "transactionHash": "0x617cec4f428b414f959ae4a1f964367fcc60af3582030dd9bb91d638c15d0d55",
          "transactionIndex": "0x3b",
          "logIndex": "0xf7",
          "removed": false
        },
        {
          "address": "0x794a61358d6845594f94dc1db02a252b5b4814ad",
          "topics": [
            "0x804c9b842b2748a22bb64b345453a3de7ca54a6ca45ce00d415894979e22897a",
            "0x0000000000000000000000003c499c542cef5e3811e1192ce70d8cc03d5c3359"
          ],
          "data": "0x00000000000000000000000000000000000000000023c404c6b16a447871e31000000000000000000000000000000000000000000000000000000000000000000000000000000000000000000000000000000000003ae7b3ee1bf4b3d7723f530000000000000000000000000000000000000000038bfc5f0bc4d1ec837f0848000000000000000000000000000000000000000003a01e9d9ad330cc2590db32",
          "blockHash": "0xbfddddd07d4fb7f585f3822d61521a7267408ae12df153ad47493bbd99a1b4a9",
          "blockNumber": "0x413273b",
          "transactionHash": "0x617cec4f428b414f959ae4a1f964367fcc60af3582030dd9bb91d638c15d0d55",
          "transactionIndex": "0x3b",
          "logIndex": "0xf8",
          "removed": false
        },
        {
          "address": "0x3c499c542cef5e3811e1192ce70d8cc03d5c3359",
          "topics": [
            "0xddf252ad1be2c89b69c2b068fc378daa952ba7f163c4a11628f55a4df523b3ef",
            "0x00000000000000000000000052f052d2411735287989461721f4b49a13d65888",
            "0x000000000000000000000000a4d94019934d8333ef880abffbf2fdd611c762bd"
          ],
          "data": "0x00000000000000000000000000000000000000000000000000000000000186a0",
          "blockHash": "0xbfddddd07d4fb7f585f3822d61521a7267408ae12df153ad47493bbd99a1b4a9",
          "blockNumber": "0x413273b",
          "transactionHash": "0x617cec4f428b414f959ae4a1f964367fcc60af3582030dd9bb91d638c15d0d55",
          "transactionIndex": "0x3b",
          "logIndex": "0xf9",
          "removed": false
        },
        {
          "address": "0xa4d94019934d8333ef880abffbf2fdd611c762bd",
          "topics": [
            "0xddf252ad1be2c89b69c2b068fc378daa952ba7f163c4a11628f55a4df523b3ef",
            "0x0000000000000000000000000000000000000000000000000000000000000000",
            "0x00000000000000000000000052f052d2411735287989461721f4b49a13d65888"
          ],
          "data": "0x00000000000000000000000000000000000000000000000000000000000186da",
          "blockHash": "0xbfddddd07d4fb7f585f3822d61521a7267408ae12df153ad47493bbd99a1b4a9",
          "blockNumber": "0x413273b",
          "transactionHash": "0x617cec4f428b414f959ae4a1f964367fcc60af3582030dd9bb91d638c15d0d55",
          "transactionIndex": "0x3b",
          "logIndex": "0xfa",
          "removed": false
        },
        {
          "address": "0xa4d94019934d8333ef880abffbf2fdd611c762bd",
          "topics": [
            "0x458f5fa412d0f69b08dd84872b0215675cc67bc1d5b6fd93300a1c3878b86196",
            "0x00000000000000000000000052f052d2411735287989461721f4b49a13d65888",
            "0x00000000000000000000000052f052d2411735287989461721f4b49a13d65888"
          ],
          "data": "0x00000000000000000000000000000000000000000000000000000000000186da000000000000000000000000000000000000000000000000000000000000003a0000000000000000000000000000000000000000038bfc5f0bc4d1ec837f0848",
          "blockHash": "0xbfddddd07d4fb7f585f3822d61521a7267408ae12df153ad47493bbd99a1b4a9",
          "blockNumber": "0x413273b",
          "transactionHash": "0x617cec4f428b414f959ae4a1f964367fcc60af3582030dd9bb91d638c15d0d55",
          "transactionIndex": "0x3b",
          "logIndex": "0xfb",
          "removed": false
        },
        {
          "address": "0x794a61358d6845594f94dc1db02a252b5b4814ad",
          "topics": [
            "0x2b627736bca15cd5381dcf80b0bf11fd197d01a037c52b927a881a10fb73ba61",
            "0x0000000000000000000000003c499c542cef5e3811e1192ce70d8cc03d5c3359",
            "0x00000000000000000000000052f052d2411735287989461721f4b49a13d65888",
            "0x0000000000000000000000000000000000000000000000000000000000000000"
          ],
          "data": "0x00000000000000000000000052f052d2411735287989461721f4b49a13d6588800000000000000000000000000000000000000000000000000000000000186a0",
          "blockHash": "0xbfddddd07d4fb7f585f3822d61521a7267408ae12df153ad47493bbd99a1b4a9",
          "blockNumber": "0x413273b",
          "transactionHash": "0x617cec4f428b414f959ae4a1f964367fcc60af3582030dd9bb91d638c15d0d55",
          "transactionIndex": "0x3b",
          "logIndex": "0xfc",
          "removed": false
        },
        {
          "address": "0xc2132d05d31c914a87c6611c10748aeb04b58e8f",
          "topics": [
            "0xddf252ad1be2c89b69c2b068fc378daa952ba7f163c4a11628f55a4df523b3ef",
            "0x00000000000000000000000052f052d2411735287989461721f4b49a13d65888",
            "0x00000000000000000000000067366782805870060151383f4bbff9dab53e5cd6"
          ],
          "data": "0x00000000000000000000000000000000000000000000000000000000000186a0",
          "blockHash": "0xbfddddd07d4fb7f585f3822d61521a7267408ae12df153ad47493bbd99a1b4a9",
          "blockNumber": "0x413273b",
          "transactionHash": "0x617cec4f428b414f959ae4a1f964367fcc60af3582030dd9bb91d638c15d0d55",
          "transactionIndex": "0x3b",
          "logIndex": "0xfd",
          "removed": false
        },
        {
          "address": "0x67366782805870060151383f4bbff9dab53e5cd6",
          "topics": [
            "0x40e9cecb9f5f1f1c5b9c97dec2917b7ee92e57ba5563708daca94dd84ad7112f",
            "0xe6147b657c2ffffa955a68a0f8932201aa2e1e86dd24c52f1765c3db2fb87591",
            "0x0000000000000000000000001095692a6237d83c6a72f3f5efedb9a670c49223"
          ],
          "data": "0x000000000000000000000000000000000000000000000000000000000000000000000000000000000000000000000000000000000000000000000000000000000000000000000000000000000000000000000001000000000000000000000000000000000000000000000000000000000000000000000000000000000000000000000000000000000000000000000000000000000000000000000000000000000000000000000000000000000000000000000000000000000000000000000bb8",
          "blockHash": "0xbfddddd07d4fb7f585f3822d61521a7267408ae12df153ad47493bbd99a1b4a9",
          "blockNumber": "0x413273b",
          "transactionHash": "0x617cec4f428b414f959ae4a1f964367fcc60af3582030dd9bb91d638c15d0d55",
          "transactionIndex": "0x3b",
          "logIndex": "0xfe",
          "removed": false
        },
        {
          "address": "0x3c499c542cef5e3811e1192ce70d8cc03d5c3359",
          "topics": [
            "0xddf252ad1be2c89b69c2b068fc378daa952ba7f163c4a11628f55a4df523b3ef",
            "0x000000000000000000000000a93c062b7669a518de64b70cb87246d80153b326",
            "0x00000000000000000000000067366782805870060151383f4bbff9dab53e5cd6"
          ],
          "data": "0x00000000000000000000000000000000000000000000000000000000000186a0",
          "blockHash": "0xbfddddd07d4fb7f585f3822d61521a7267408ae12df153ad47493bbd99a1b4a9",
          "blockNumber": "0x413273b",
          "transactionHash": "0x617cec4f428b414f959ae4a1f964367fcc60af3582030dd9bb91d638c15d0d55",
          "transactionIndex": "0x3b",
          "logIndex": "0xff",
          "removed": false
        },
        {
          "address": "0xc2132d05d31c914a87c6611c10748aeb04b58e8f",
          "topics": [
            "0xddf252ad1be2c89b69c2b068fc378daa952ba7f163c4a11628f55a4df523b3ef",
            "0x00000000000000000000000067366782805870060151383f4bbff9dab53e5cd6",
            "0x000000000000000000000000a93c062b7669a518de64b70cb87246d80153b326"
          ],
          "data": "0x00000000000000000000000000000000000000000000000000000000000186a0",
          "blockHash": "0xbfddddd07d4fb7f585f3822d61521a7267408ae12df153ad47493bbd99a1b4a9",
          "blockNumber": "0x413273b",
          "transactionHash": "0x617cec4f428b414f959ae4a1f964367fcc60af3582030dd9bb91d638c15d0d55",
          "transactionIndex": "0x3b",
          "logIndex": "0x100",
          "removed": false
        },
        {
          "address": "0xc2132d05d31c914a87c6611c10748aeb04b58e8f",
          "topics": [
            "0xddf252ad1be2c89b69c2b068fc378daa952ba7f163c4a11628f55a4df523b3ef",
            "0x000000000000000000000000a93c062b7669a518de64b70cb87246d80153b326",
            "0x000000000000000000000000da88261bfed59ab29ee3c1407cd0060411812347"
          ],
          "data": "0x00000000000000000000000000000000000000000000000000000000000186a0",
          "blockHash": "0xbfddddd07d4fb7f585f3822d61521a7267408ae12df153ad47493bbd99a1b4a9",
          "blockNumber": "0x413273b",
          "transactionHash": "0x617cec4f428b414f959ae4a1f964367fcc60af3582030dd9bb91d638c15d0d55",
          "transactionIndex": "0x3b",
          "logIndex": "0x101",
          "removed": false
        },
        {
          "address": "0x0000000000000000000000000000000000001010",
          "topics": [
            "0x4dfe1bbbcf077ddc3e01291eea2d5c70c2b422b415d95645b9adcfd678cb1d63",
            "0x0000000000000000000000000000000000000000000000000000000000001010",
            "0x000000000000000000000000da88261bfed59ab29ee3c1407cd0060411812347",
            "0x000000000000000000000000a8b52f02108aa5f4b675bdcc973760022d7c6020"
          ],
          "data": "0x000000000000000000000000000000000000000000000000002b61045385a55a000000000000000000000000000000000000000000000014e6cdb1b7c12e25d60000000000000000000000000000000000000000000000be7cf4eaa92746e725000000000000000000000000000000000000000000000014e6a250b36da8807c0000000000000000000000000000000000000000000000be7d204bad7acc8c7f",
          "blockHash": "0xbfddddd07d4fb7f585f3822d61521a7267408ae12df153ad47493bbd99a1b4a9",
          "blockNumber": "0x413273b",
          "transactionHash": "0x617cec4f428b414f959ae4a1f964367fcc60af3582030dd9bb91d638c15d0d55",
          "transactionIndex": "0x3b",
          "logIndex": "0x102",
          "removed": false
        }
      ],
      "logsBloom": "0x100800080020000000000000000000000180000080000090000000000000000000000000000000000000400000064001000180002400040000000000000000000000000008400000100000080020008000000400000000200001000400000000100000004200000000001000000008000000000000800200800000100000000000000000000800410000028000000000002240000000000400000000000000002000000000800040100000000000000008000000000000000000000000000140020000020000000000110020580000c0402000000420000000104000000020040000000000000000004000000000010044000004100000000000400000100000",
      "type": "0x2",
      "transactionHash": "0x617cec4f428b414f959ae4a1f964367fcc60af3582030dd9bb91d638c15d0d55",
      "transactionIndex": "0x3b",
      "blockHash": "0xbfddddd07d4fb7f585f3822d61521a7267408ae12df153ad47493bbd99a1b4a9",
      "blockNumber": "0x413273b",
      "gasUsed": "0x67899",
      "effectiveGasPrice": "0x1a81a6d8b9",
      "from": "0xda88261bfed59ab29ee3c1407cd0060411812347",
      "to": "0xa93c062b7669a518de64b70cb87246d80153b326",
      "contractAddress": null
    }
  ],
  "libraries": [],
  "pending": [],
  "returns": {},
  "timestamp": 1740506741,
  "chain": 137,
  "commit": "b2ce4c4"
}