{
  "transactions": [
    {
      "hash": "0x6c94de89f172673553ac679fe0d5b25f04c4aa3a1557e5e77b814589e81d23f0",
      "transactionType": "CALL",
      "contractName": null,
      "contractAddress": "0x1095692a6237d83c6a72f3f5efedb9a670c49223",
      "function": "execute(bytes,bytes[],uint256)",
      "arguments": [
        "0x10",
        "[0x000000000000000000000000000000000000000000000000000000000000004000000000000000000000000000000000000000000000000000000000000000800000000000000000000000000000000000000000000000000000000000000003060c0f00000000000000000000000000000000000000000000000000000000000000000000000000000000000000000000000000000000000000000000000003000000000000000000000000000000000000000000000000000000000000006000000000000000000000000000000000000000000000000000000000000001e00000000000000000000000000000000000000000000000000000000000000240000000000000000000000000000000000000000000000000000000000000016000000000000000000000000000000000000000000000000000000000000000200000000000000000000000003c499c542cef5e3811e1192ce70d8cc03d5c3359000000000000000000000000c2132d05d31c914a87c6611c10748aeb04b58e8f0000000000000000000000000000000000000000000000000000000000000bb80000000000000000000000000000000000000000000000000000000000000001000000000000000000000000c0db3c05eda0a0ad64ae139003f6324cd7e59888000000000000000000000000000000000000000000000000000000000000000100000000000000000000000000000000000000000000000000000000000186a0000000000000000000000000000000000000000000000000000000000001866e0000000000000000000000000000000000000000000000000000000000000120000000000000000000000000000000000000000000000000000000000000000000000000000000000000000000000000000000000000000000000000000000400000000000000000000000003c499c542cef5e3811e1192ce70d8cc03d5c335900000000000000000000000000000000000000000000000000000000000186a00000000000000000000000000000000000000000000000000000000000000040000000000000000000000000c2132d05d31c914a87c6611c10748aeb04b58e8f000000000000000000000000000000000000000000000000000000000001866e]",
        "3481206312"
      ],
      "transaction": {
        "from": "0xaebdfcf4a528de8b480a7b69ecaf17addb8b9959",
        "to": "0x1095692a6237d83c6a72f3f5efedb9a670c49223",
        "gas": "0xa3c2a",
        "value": "0x0",
        "input": "0x3593564c000000000000000000000000000000000000000000000000000000000000006000000000000000000000000000000000000000000000000000000000000000a000000000000000000000000000000000000000000000000000000000cf7efe2800000000000000000000000000000000000000000000000000000000000000011000000000000000000000000000000000000000000000000000000000000000000000000000000000000000000000000000000000000000000000000000000100000000000000000000000000000000000000000000000000000000000000200000000000000000000000000000000000000000000000000000000000000340000000000000000000000000000000000000000000000000000000000000004000000000000000000000000000000000000000000000000000000000000000800000000000000000000000000000000000000000000000000000000000000003060c0f00000000000000000000000000000000000000000000000000000000000000000000000000000000000000000000000000000000000000000000000003000000000000000000000000000000000000000000000000000000000000006000000000000000000000000000000000000000000000000000000000000001e00000000000000000000000000000000000000000000000000000000000000240000000000000000000000000000000000000000000000000000000000000016000000000000000000000000000000000000000000000000000000000000000200000000000000000000000003c499c542cef5e3811e1192ce70d8cc03d5c3359000000000000000000000000c2132d05d31c914a87c6611c10748aeb04b58e8f0000000000000000000000000000000000000000000000000000000000000bb80000000000000000000000000000000000000000000000000000000000000001000000000000000000000000c0db3c05eda0a0ad64ae139003f6324cd7e59888000000000000000000000000000000000000000000000000000000000000000100000000000000000000000000000000000000000000000000000000000186a0000000000000000000000000000000000000000000000000000000000001866e0000000000000000000000000000000000000000000000000000000000000120000000000000000000000000000000000000000000000000000000000000000000000000000000000000000000000000000000000000000000000000000000400000000000000000000000003c499c542cef5e3811e1192ce70d8cc03d5c335900000000000000000000000000000000000000000000000000000000000186a00000000000000000000000000000000000000000000000000000000000000040000000000000000000000000c2132d05d31c914a87c6611c10748aeb04b58e8f000000000000000000000000000000000000000000000000000000000001866e",
        "nonce": "0x3e",
        "chainId": "0x89"
      },
      "additionalContracts": [],
      "isFixedGasLimit": false
    }
  ],
  "receipts": [
    {
      "status": "0x1",
      "cumulativeGasUsed": "0x17613d1",
      "logs": [
        {
          "address": "0x3c499c542cef5e3811e1192ce70d8cc03d5c3359",
          "topics": [
            "0xddf252ad1be2c89b69c2b068fc378daa952ba7f163c4a11628f55a4df523b3ef",
            "0x00000000000000000000000067366782805870060151383f4bbff9dab53e5cd6",
            "0x000000000000000000000000c0db3c05eda0a0ad64ae139003f6324cd7e59888"
          ],
          "data": "0x00000000000000000000000000000000000000000000000000000000000186a0",
          "blockHash": "0xe96d190160b5580dadf76a00788eb27bde6278947f7388fcd589e35e9b054767",
          "blockNumber": "0x413d73a",
          "transactionHash": "0x6c94de89f172673553ac679fe0d5b25f04c4aa3a1557e5e77b814589e81d23f0",
          "transactionIndex": "0x4a",
          "logIndex": "0x19e",
          "removed": false
        },
        {
          "address": "0x794a61358d6845594f94dc1db02a252b5b4814ad",
          "topics": [
            "0x804c9b842b2748a22bb64b345453a3de7ca54a6ca45ce00d415894979e22897a",
            "0x000000000000000000000000c2132d05d31c914a87c6611c10748aeb04b58e8f"
          ],
          "data": "0x0000000000000000000000000000000000000000001e94f94e2307dc94d3246200000000000000000000000000000000000000000000000000000000000000000000000000000000000000000000000000000000003bab0b79fdff746886bced000000000000000000000000000000000000000003c4070a35e69542ab7408fb000000000000000000000000000000000000000003f1e95c0539eee03373ccb7",
          "blockHash": "0xe96d190160b5580dadf76a00788eb27bde6278947f7388fcd589e35e9b054767",
          "blockNumber": "0x413d73a",
          "transactionHash": "0x6c94de89f172673553ac679fe0d5b25f04c4aa3a1557e5e77b814589e81d23f0",
          "transactionIndex": "0x4a",
          "logIndex": "0x19f",
          "removed": false
        },
        {
          "address": "0x6ab707aca953edaefbc4fd23ba73294241490620",
          "topics": [
            "0xddf252ad1be2c89b69c2b068fc378daa952ba7f163c4a11628f55a4df523b3ef",
            "0x000000000000000000000000c0db3c05eda0a0ad64ae139003f6324cd7e59888",
            "0x0000000000000000000000000000000000000000000000000000000000000000"
          ],
          "data": "0x00000000000000000000000000000000000000000000000000000000000181ce",
          "blockHash": "0xe96d190160b5580dadf76a00788eb27bde6278947f7388fcd589e35e9b054767",
          "blockNumber": "0x413d73a",
          "transactionHash": "0x6c94de89f172673553ac679fe0d5b25f04c4aa3a1557e5e77b814589e81d23f0",
          "transactionIndex": "0x4a",
          "logIndex": "0x1a0",
          "removed": false
        },
        {
          "address": "0x6ab707aca953edaefbc4fd23ba73294241490620",
          "topics": [
            "0x4cf25bc1d991c17529c25213d3cc0cda295eeaad5f13f361969b12ea48015f90",
            "0x000000000000000000000000c0db3c05eda0a0ad64ae139003f6324cd7e59888",
            "0x000000000000000000000000c0db3c05eda0a0ad64ae139003f6324cd7e59888"
          ],
          "data": "0x00000000000000000000000000000000000000000000000000000000000181ce00000000000000000000000000000000000000000000000000000000000004a0000000000000000000000000000000000000000003c4070a35e69542ab7408fb",
          "blockHash": "0xe96d190160b5580dadf76a00788eb27bde6278947f7388fcd589e35e9b054767",
          "blockNumber": "0x413d73a",
          "transactionHash": "0x6c94de89f172673553ac679fe0d5b25f04c4aa3a1557e5e77b814589e81d23f0",
          "transactionIndex": "0x4a",
          "logIndex": "0x1a1",
          "removed": false
        },
        {
          "address": "0xc2132d05d31c914a87c6611c10748aeb04b58e8f",
          "topics": [
            "0xddf252ad1be2c89b69c2b068fc378daa952ba7f163c4a11628f55a4df523b3ef",
            "0x0000000000000000000000006ab707aca953edaefbc4fd23ba73294241490620",
            "0x000000000000000000000000c0db3c05eda0a0ad64ae139003f6324cd7e59888"
          ],
          "data": "0x000000000000000000000000000000000000000000000000000000000001866e",
          "blockHash": "0xe96d190160b5580dadf76a00788eb27bde6278947f7388fcd589e35e9b054767",
          "blockNumber": "0x413d73a",
          "transactionHash": "0x6c94de89f172673553ac679fe0d5b25f04c4aa3a1557e5e77b814589e81d23f0",
          "transactionIndex": "0x4a",
          "logIndex": "0x1a2",
          "removed": false
        },
        {
          "address": "0x794a61358d6845594f94dc1db02a252b5b4814ad",
          "topics": [
            "0x3115d1449a7b732c986cba18244e897a450f61e1bb8d589cd2e69e6c8924f9f7",
            "0x000000000000000000000000c2132d05d31c914a87c6611c10748aeb04b58e8f",
            "0x000000000000000000000000c0db3c05eda0a0ad64ae139003f6324cd7e59888",
            "0x000000000000000000000000c0db3c05eda0a0ad64ae139003f6324cd7e59888"
          ],
          "data": "0x000000000000000000000000000000000000000000000000000000000001866e",
          "blockHash": "0xe96d190160b5580dadf76a00788eb27bde6278947f7388fcd589e35e9b054767",
          "blockNumber": "0x413d73a",
          "transactionHash": "0x6c94de89f172673553ac679fe0d5b25f04c4aa3a1557e5e77b814589e81d23f0",
          "transactionIndex": "0x4a",
          "logIndex": "0x1a3",
          "removed": false
        },
        {
          "address": "0x794a61358d6845594f94dc1db02a252b5b4814ad",
          "topics": [
            "0x804c9b842b2748a22bb64b345453a3de7ca54a6ca45ce00d415894979e22897a",
            "0x0000000000000000000000003c499c542cef5e3811e1192ce70d8cc03d5c3359"
          ],
          "data": "0x000000000000000000000000000000000000000000233c8b3e8a5ca3e6d74a8100000000000000000000000000000000000000000000000000000000000000000000000000000000000000000000000000000000003e03ab9e1e0d2979afc2280000000000000000000000000000000000000000038c1ae0d6c88bc6471d7db4000000000000000000000000000000000000000003a0543f8b2dc65ae622b70a",
          "blockHash": "0xe96d190160b5580dadf76a00788eb27bde6278947f7388fcd589e35e9b054767",
          "blockNumber": "0x413d73a",
          "transactionHash": "0x6c94de89f172673553ac679fe0d5b25f04c4aa3a1557e5e77b814589e81d23f0",
          "transactionIndex": "0x4a",
          "logIndex": "0x1a4",
          "removed": false
        },
        {
          "address": "0x3c499c542cef5e3811e1192ce70d8cc03d5c3359",
          "topics": [
            "0xddf252ad1be2c89b69c2b068fc378daa952ba7f163c4a11628f55a4df523b3ef",
            "0x000000000000000000000000c0db3c05eda0a0ad64ae139003f6324cd7e59888",
            "0x000000000000000000000000a4d94019934d8333ef880abffbf2fdd611c762bd"
          ],
          "data": "0x00000000000000000000000000000000000000000000000000000000000186a0",
          "blockHash": "0xe96d190160b5580dadf76a00788eb27bde6278947f7388fcd589e35e9b054767",
          "blockNumber": "0x413d73a",
          "transactionHash": "0x6c94de89f172673553ac679fe0d5b25f04c4aa3a1557e5e77b814589e81d23f0",
          "transactionIndex": "0x4a",
          "logIndex": "0x1a5",
          "removed": false
        },
        {
          "address": "0xa4d94019934d8333ef880abffbf2fdd611c762bd",
          "topics": [
            "0xddf252ad1be2c89b69c2b068fc378daa952ba7f163c4a11628f55a4df523b3ef",
            "0x0000000000000000000000000000000000000000000000000000000000000000",
            "0x000000000000000000000000c0db3c05eda0a0ad64ae139003f6324cd7e59888"
          ],
          "data": "0x0000000000000000000000000000000000000000000000000000000000018bdf",
          "blockHash": "0xe96d190160b5580dadf76a00788eb27bde6278947f7388fcd589e35e9b054767",
          "blockNumber": "0x413d73a",
          "transactionHash": "0x6c94de89f172673553ac679fe0d5b25f04c4aa3a1557e5e77b814589e81d23f0",
          "transactionIndex": "0x4a",
          "logIndex": "0x1a6",
          "removed": false
        },
        {
          "address": "0xa4d94019934d8333ef880abffbf2fdd611c762bd",
          "topics": [
            "0x458f5fa412d0f69b08dd84872b0215675cc67bc1d5b6fd93300a1c3878b86196",
            "0x000000000000000000000000c0db3c05eda0a0ad64ae139003f6324cd7e59888",
            "0x000000000000000000000000c0db3c05eda0a0ad64ae139003f6324cd7e59888"
          ],
          "data": "0x0000000000000000000000000000000000000000000000000000000000018bdf000000000000000000000000000000000000000000000000000000000000053f0000000000000000000000000000000000000000038c1ae0d6c88bc6471d7db4",
          "blockHash": "0xe96d190160b5580dadf76a00788eb27bde6278947f7388fcd589e35e9b054767",
          "blockNumber": "0x413d73a",
          "transactionHash": "0x6c94de89f172673553ac679fe0d5b25f04c4aa3a1557e5e77b814589e81d23f0",
          "transactionIndex": "0x4a",
          "logIndex": "0x1a7",
          "removed": false
        },
        {
          "address": "0x794a61358d6845594f94dc1db02a252b5b4814ad",
          "topics": [
            "0x2b627736bca15cd5381dcf80b0bf11fd197d01a037c52b927a881a10fb73ba61",
            "0x0000000000000000000000003c499c542cef5e3811e1192ce70d8cc03d5c3359",
            "0x000000000000000000000000c0db3c05eda0a0ad64ae139003f6324cd7e59888",
            "0x0000000000000000000000000000000000000000000000000000000000000000"
          ],
          "data": "0x000000000000000000000000c0db3c05eda0a0ad64ae139003f6324cd7e5988800000000000000000000000000000000000000000000000000000000000186a0",
          "blockHash": "0xe96d190160b5580dadf76a00788eb27bde6278947f7388fcd589e35e9b054767",
          "blockNumber": "0x413d73a",
          "transactionHash": "0x6c94de89f172673553ac679fe0d5b25f04c4aa3a1557e5e77b814589e81d23f0",
          "transactionIndex": "0x4a",
          "logIndex": "0x1a8",
          "removed": false
        },
        {
          "address": "0xc2132d05d31c914a87c6611c10748aeb04b58e8f",
          "topics": [
            "0xddf252ad1be2c89b69c2b068fc378daa952ba7f163c4a11628f55a4df523b3ef",
            "0x000000000000000000000000c0db3c05eda0a0ad64ae139003f6324cd7e59888",
            "0x00000000000000000000000067366782805870060151383f4bbff9dab53e5cd6"
          ],
          "data": "0x000000000000000000000000000000000000000000000000000000000001866e",
          "blockHash": "0xe96d190160b5580dadf76a00788eb27bde6278947f7388fcd589e35e9b054767",
          "blockNumber": "0x413d73a",
          "transactionHash": "0x6c94de89f172673553ac679fe0d5b25f04c4aa3a1557e5e77b814589e81d23f0",
          "transactionIndex": "0x4a",
          "logIndex": "0x1a9",
          "removed": false
        },
        {
          "address": "0x67366782805870060151383f4bbff9dab53e5cd6",
          "topics": [
            "0x40e9cecb9f5f1f1c5b9c97dec2917b7ee92e57ba5563708daca94dd84ad7112f",
            "0x69a9f6720565ae40c3bcf897f8bab092aeb5645ad8fbbb0c00fb63f7efae5a20",
            "0x0000000000000000000000001095692a6237d83c6a72f3f5efedb9a670c49223"
          ],
          "data": "0x000000000000000000000000000000000000000000000000000000000000000000000000000000000000000000000000000000000000000000000000000000000000000000000000000000000000000000000001000000000000000000000000000000000000000000000000000000000000000000000000000000000000000000000000000000000000000000000000000000000000000000000000000000000000000000000000000000000000000000000000000000000000000000000bb8",
          "blockHash": "0xe96d190160b5580dadf76a00788eb27bde6278947f7388fcd589e35e9b054767",
          "blockNumber": "0x413d73a",
          "transactionHash": "0x6c94de89f172673553ac679fe0d5b25f04c4aa3a1557e5e77b814589e81d23f0",
          "transactionIndex": "0x4a",
          "logIndex": "0x1aa",
          "removed": false
        },
        {
          "address": "0x3c499c542cef5e3811e1192ce70d8cc03d5c3359",
          "topics": [
            "0xddf252ad1be2c89b69c2b068fc378daa952ba7f163c4a11628f55a4df523b3ef",
            "0x000000000000000000000000aebdfcf4a528de8b480a7b69ecaf17addb8b9959",
            "0x00000000000000000000000067366782805870060151383f4bbff9dab53e5cd6"
          ],
          "data": "0x00000000000000000000000000000000000000000000000000000000000186a0",
          "blockHash": "0xe96d190160b5580dadf76a00788eb27bde6278947f7388fcd589e35e9b054767",
          "blockNumber": "0x413d73a",
          "transactionHash": "0x6c94de89f172673553ac679fe0d5b25f04c4aa3a1557e5e77b814589e81d23f0",
          "transactionIndex": "0x4a",
          "logIndex": "0x1ab",
          "removed": false
        },
        {
          "address": "0xc2132d05d31c914a87c6611c10748aeb04b58e8f",
          "topics": [
            "0xddf252ad1be2c89b69c2b068fc378daa952ba7f163c4a11628f55a4df523b3ef",
            "0x00000000000000000000000067366782805870060151383f4bbff9dab53e5cd6",
            "0x000000000000000000000000aebdfcf4a528de8b480a7b69ecaf17addb8b9959"
          ],
          "data": "0x000000000000000000000000000000000000000000000000000000000001866e",
          "blockHash": "0xe96d190160b5580dadf76a00788eb27bde6278947f7388fcd589e35e9b054767",
          "blockNumber": "0x413d73a",
          "transactionHash": "0x6c94de89f172673553ac679fe0d5b25f04c4aa3a1557e5e77b814589e81d23f0",
          "transactionIndex": "0x4a",
          "logIndex": "0x1ac",
          "removed": false
        },
        {
          "address": "0x0000000000000000000000000000000000001010",
          "topics": [
            "0x4dfe1bbbcf077ddc3e01291eea2d5c70c2b422b415d95645b9adcfd678cb1d63",
            "0x0000000000000000000000000000000000000000000000000000000000001010",
            "0x000000000000000000000000aebdfcf4a528de8b480a7b69ecaf17addb8b9959",
            "0x000000000000000000000000ce7fcb674ba27a952c71061b649fb5a5746f3b2b"
          ],
          "data": "0x000000000000000000000000000000000000000000000000002df850b4b7e74b00000000000000000000000000000000000000000000000151b832f9ee2ea3d00000000000000000000000000000000000000000000000dc23fdb08d2ac21092000000000000000000000000000000000000000000000001518a3aa93976bc850000000000000000000000000000000000000000000000dc242ba8dddf79f7dd",
          "blockHash": "0xe96d190160b5580dadf76a00788eb27bde6278947f7388fcd589e35e9b054767",
          "blockNumber": "0x413d73a",
          "transactionHash": "0x6c94de89f172673553ac679fe0d5b25f04c4aa3a1557e5e77b814589e81d23f0",
          "transactionIndex": "0x4a",
          "logIndex": "0x1ad",
          "removed": false
        }
      ],
      "logsBloom": "0x1008000800200000000000002000000001800000000000100000000000000000000000000000000000000000000440010001800024000400000000000000000000000000084000001000000800a000800000040000000020000120040000000010000000620000000000100000000800000000000080020080000010000000000001000000080041000002800082000000024000000800000010000001000000200000000080000010000000000000000800000000000000000000000000014002000002004000000001002048000000400000000000000000104000000020040000000000000000004000000000010044000004100020000000400000100000",
      "type": "0x2",
      "transactionHash": "0x6c94de89f172673553ac679fe0d5b25f04c4aa3a1557e5e77b814589e81d23f0",
      "transactionIndex": "0x4a",
      "blockHash": "0xe96d190160b5580dadf76a00788eb27bde6278947f7388fcd589e35e9b054767",
      "blockNumber": "0x413d73a",
      "gasUsed": "0x6ff91",
      "effectiveGasPrice": "0xb8233a59d",
      "from": "0xaebdfcf4a528de8b480a7b69ecaf17addb8b9959",
      "to": "0x1095692a6237d83c6a72f3f5efedb9a670c49223",
      "contractAddress": null
    }
  ],
  "libraries": [],
  "pending": [],
  "returns": {},
  "timestamp": 1740603186,
  "chain": 137,
  "commit": "f2aad93"
}